{
	"contracts/Fallback.sol": {
		"Fallback": {
			"abi": [
				{
					"stateMutability": "nonpayable",
					"type": "fallback"
				},
				{
					"inputs": [],
					"name": "whoAmI",
					"outputs": [
						{
							"internalType": "string",
							"name": "",
							"type": "string"
						}
					],
					"stateMutability": "pure",
					"type": "function"
				}
			],
			"devdoc": {
				"author": "0xVeliUysal",
				"details": "Fallback Example",
				"kind": "dev",
				"methods": {},
				"version": 1
			},
			"evm": {
				"assembly": "    /* \"contracts/Fallback.sol\":129:317  contract Fallback {... */\n  mstore(0x40, 0x80)\n  callvalue\n  dup1\n  iszero\n  tag_1\n  jumpi\n  0x00\n  dup1\n  revert\ntag_1:\n  pop\n  dataSize(sub_0)\n  dup1\n  dataOffset(sub_0)\n  0x00\n  codecopy\n  0x00\n  return\nstop\n\nsub_0: assembly {\n        /* \"contracts/Fallback.sol\":129:317  contract Fallback {... */\n      mstore(0x40, 0x80)\n      callvalue\n      dup1\n      iszero\n      tag_1\n      jumpi\n      0x00\n      dup1\n      revert\n    tag_1:\n      pop\n      jumpi(tag_2, lt(calldatasize, 0x04))\n      shr(0xe0, calldataload(0x00))\n      dup1\n      0xda91254c\n      eq\n      tag_4\n      jumpi\n      jump(tag_3)\n    tag_2:\n    tag_3:\n        /* \"contracts/Fallback.sol\":280:307  revert(\"Fallback Function\") */\n      mload(0x40)\n      0x08c379a000000000000000000000000000000000000000000000000000000000\n      dup2\n      mstore\n      0x04\n      add\n      tag_7\n      swap1\n      tag_8\n      jump\t// in\n    tag_7:\n      mload(0x40)\n      dup1\n      swap2\n      sub\n      swap1\n      revert\n        /* \"contracts/Fallback.sol\":154:244  function whoAmI() public pure returns(string memory) {... */\n    tag_4:\n      tag_9\n      tag_10\n      jump\t// in\n    tag_9:\n      mload(0x40)\n      tag_11\n      swap2\n      swap1\n      tag_12\n      jump\t// in\n    tag_11:\n      mload(0x40)\n      dup1\n      swap2\n      sub\n      swap1\n      return\n    tag_10:\n        /* \"contracts/Fallback.sol\":192:205  string memory */\n      0x60\n        /* \"contracts/Fallback.sol\":217:237  return \"0xVeliUysal\" */\n      mload(0x40)\n      dup1\n      0x40\n      add\n      0x40\n      mstore\n      dup1\n      0x0b\n      dup2\n      mstore\n      0x20\n      add\n      0x307856656c69557973616c000000000000000000000000000000000000000000\n      dup2\n      mstore\n      pop\n      swap1\n      pop\n        /* \"contracts/Fallback.sol\":154:244  function whoAmI() public pure returns(string memory) {... */\n      swap1\n      jump\t// out\n        /* \"#utility.yul\":7:176   */\n    tag_14:\n        /* \"#utility.yul\":91:102   */\n      0x00\n        /* \"#utility.yul\":125:131   */\n      dup3\n        /* \"#utility.yul\":120:123   */\n      dup3\n        /* \"#utility.yul\":113:132   */\n      mstore\n        /* \"#utility.yul\":165:169   */\n      0x20\n        /* \"#utility.yul\":160:163   */\n      dup3\n        /* \"#utility.yul\":156:170   */\n      add\n        /* \"#utility.yul\":141:170   */\n      swap1\n      pop\n        /* \"#utility.yul\":7:176   */\n      swap3\n      swap2\n      pop\n      pop\n      jump\t// out\n        /* \"#utility.yul\":182:349   */\n    tag_15:\n        /* \"#utility.yul\":322:341   */\n      0x46616c6c6261636b2046756e6374696f6e000000000000000000000000000000\n        /* \"#utility.yul\":318:319   */\n      0x00\n        /* \"#utility.yul\":310:316   */\n      dup3\n        /* \"#utility.yul\":306:320   */\n      add\n        /* \"#utility.yul\":299:342   */\n      mstore\n        /* \"#utility.yul\":182:349   */\n      pop\n      jump\t// out\n        /* \"#utility.yul\":355:721   */\n    tag_16:\n        /* \"#utility.yul\":497:500   */\n      0x00\n        /* \"#utility.yul\":518:585   */\n      tag_25\n        /* \"#utility.yul\":582:584   */\n      0x11\n        /* \"#utility.yul\":577:580   */\n      dup4\n        /* \"#utility.yul\":518:585   */\n      tag_14\n      jump\t// in\n    tag_25:\n        /* \"#utility.yul\":511:585   */\n      swap2\n      pop\n        /* \"#utility.yul\":594:687   */\n      tag_26\n        /* \"#utility.yul\":683:686   */\n      dup3\n        /* \"#utility.yul\":594:687   */\n      tag_15\n      jump\t// in\n    tag_26:\n        /* \"#utility.yul\":712:714   */\n      0x20\n        /* \"#utility.yul\":707:710   */\n      dup3\n        /* \"#utility.yul\":703:715   */\n      add\n        /* \"#utility.yul\":696:715   */\n      swap1\n      pop\n        /* \"#utility.yul\":355:721   */\n      swap2\n      swap1\n      pop\n      jump\t// out\n        /* \"#utility.yul\":727:1146   */\n    tag_8:\n        /* \"#utility.yul\":893:897   */\n      0x00\n        /* \"#utility.yul\":931:933   */\n      0x20\n        /* \"#utility.yul\":920:929   */\n      dup3\n        /* \"#utility.yul\":916:934   */\n      add\n        /* \"#utility.yul\":908:934   */\n      swap1\n      pop\n        /* \"#utility.yul\":980:989   */\n      dup2\n        /* \"#utility.yul\":974:978   */\n      dup2\n        /* \"#utility.yul\":970:990   */\n      sub\n        /* \"#utility.yul\":966:967   */\n      0x00\n        /* \"#utility.yul\":955:964   */\n      dup4\n        /* \"#utility.yul\":951:968   */\n      add\n        /* \"#utility.yul\":944:991   */\n      mstore\n        /* \"#utility.yul\":1008:1139   */\n      tag_28\n        /* \"#utility.yul\":1134:1138   */\n      dup2\n        /* \"#utility.yul\":1008:1139   */\n      tag_16\n      jump\t// in\n    tag_28:\n        /* \"#utility.yul\":1000:1139   */\n      swap1\n      pop\n        /* \"#utility.yul\":727:1146   */\n      swap2\n      swap1\n      pop\n      jump\t// out\n        /* \"#utility.yul\":1152:1251   */\n    tag_17:\n        /* \"#utility.yul\":1204:1210   */\n      0x00\n        /* \"#utility.yul\":1238:1243   */\n      dup2\n        /* \"#utility.yul\":1232:1244   */\n      mload\n        /* \"#utility.yul\":1222:1244   */\n      swap1\n      pop\n        /* \"#utility.yul\":1152:1251   */\n      swap2\n      swap1\n      pop\n      jump\t// out\n        /* \"#utility.yul\":1257:1503   */\n    tag_18:\n        /* \"#utility.yul\":1338:1339   */\n      0x00\n        /* \"#utility.yul\":1348:1461   */\n    tag_31:\n        /* \"#utility.yul\":1362:1368   */\n      dup4\n        /* \"#utility.yul\":1359:1360   */\n      dup2\n        /* \"#utility.yul\":1356:1369   */\n      lt\n        /* \"#utility.yul\":1348:1461   */\n      iszero\n      tag_33\n      jumpi\n        /* \"#utility.yul\":1447:1448   */\n      dup1\n        /* \"#utility.yul\":1442:1445   */\n      dup3\n        /* \"#utility.yul\":1438:1449   */\n      add\n        /* \"#utility.yul\":1432:1450   */\n      mload\n        /* \"#utility.yul\":1428:1429   */\n      dup2\n        /* \"#utility.yul\":1423:1426   */\n      dup5\n        /* \"#utility.yul\":1419:1430   */\n      add\n        /* \"#utility.yul\":1412:1451   */\n      mstore\n        /* \"#utility.yul\":1384:1386   */\n      0x20\n        /* \"#utility.yul\":1381:1382   */\n      dup2\n        /* \"#utility.yul\":1377:1387   */\n      add\n        /* \"#utility.yul\":1372:1387   */\n      swap1\n      pop\n        /* \"#utility.yul\":1348:1461   */\n      jump(tag_31)\n    tag_33:\n        /* \"#utility.yul\":1495:1496   */\n      0x00\n        /* \"#utility.yul\":1486:1492   */\n      dup5\n        /* \"#utility.yul\":1481:1484   */\n      dup5\n        /* \"#utility.yul\":1477:1493   */\n      add\n        /* \"#utility.yul\":1470:1497   */\n      mstore\n        /* \"#utility.yul\":1319:1503   */\n      pop\n        /* \"#utility.yul\":1257:1503   */\n      pop\n      pop\n      pop\n      jump\t// out\n        /* \"#utility.yul\":1509:1611   */\n    tag_19:\n        /* \"#utility.yul\":1550:1556   */\n      0x00\n        /* \"#utility.yul\":1601:1603   */\n      0x1f\n        /* \"#utility.yul\":1597:1604   */\n      not\n        /* \"#utility.yul\":1592:1594   */\n      0x1f\n        /* \"#utility.yul\":1585:1590   */\n      dup4\n        /* \"#utility.yul\":1581:1595   */\n      add\n        /* \"#utility.yul\":1577:1605   */\n      and\n        /* \"#utility.yul\":1567:1605   */\n      swap1\n      pop\n        /* \"#utility.yul\":1509:1611   */\n      swap2\n      swap1\n      pop\n      jump\t// out\n        /* \"#utility.yul\":1617:1994   */\n    tag_20:\n        /* \"#utility.yul\":1705:1708   */\n      0x00\n        /* \"#utility.yul\":1733:1772   */\n      tag_36\n        /* \"#utility.yul\":1766:1771   */\n      dup3\n        /* \"#utility.yul\":1733:1772   */\n      tag_17\n      jump\t// in\n    tag_36:\n        /* \"#utility.yul\":1788:1859   */\n      tag_37\n        /* \"#utility.yul\":1852:1858   */\n      dup2\n        /* \"#utility.yul\":1847:1850   */\n      dup6\n        /* \"#utility.yul\":1788:1859   */\n      tag_14\n      jump\t// in\n    tag_37:\n        /* \"#utility.yul\":1781:1859   */\n      swap4\n      pop\n        /* \"#utility.yul\":1868:1933   */\n      tag_38\n        /* \"#utility.yul\":1926:1932   */\n      dup2\n        /* \"#utility.yul\":1921:1924   */\n      dup6\n        /* \"#utility.yul\":1914:1918   */\n      0x20\n        /* \"#utility.yul\":1907:1912   */\n      dup7\n        /* \"#utility.yul\":1903:1919   */\n      add\n        /* \"#utility.yul\":1868:1933   */\n      tag_18\n      jump\t// in\n    tag_38:\n        /* \"#utility.yul\":1958:1987   */\n      tag_39\n        /* \"#utility.yul\":1980:1986   */\n      dup2\n        /* \"#utility.yul\":1958:1987   */\n      tag_19\n      jump\t// in\n    tag_39:\n        /* \"#utility.yul\":1953:1956   */\n      dup5\n        /* \"#utility.yul\":1949:1988   */\n      add\n        /* \"#utility.yul\":1942:1988   */\n      swap2\n      pop\n        /* \"#utility.yul\":1709:1994   */\n      pop\n        /* \"#utility.yul\":1617:1994   */\n      swap3\n      swap2\n      pop\n      pop\n      jump\t// out\n        /* \"#utility.yul\":2000:2313   */\n    tag_12:\n        /* \"#utility.yul\":2113:2117   */\n      0x00\n        /* \"#utility.yul\":2151:2153   */\n      0x20\n        /* \"#utility.yul\":2140:2149   */\n      dup3\n        /* \"#utility.yul\":2136:2154   */\n      add\n        /* \"#utility.yul\":2128:2154   */\n      swap1\n      pop\n        /* \"#utility.yul\":2200:2209   */\n      dup2\n        /* \"#utility.yul\":2194:2198   */\n      dup2\n        /* \"#utility.yul\":2190:2210   */\n      sub\n        /* \"#utility.yul\":2186:2187   */\n      0x00\n        /* \"#utility.yul\":2175:2184   */\n      dup4\n        /* \"#utility.yul\":2171:2188   */\n      add\n        /* \"#utility.yul\":2164:2211   */\n      mstore\n        /* \"#utility.yul\":2228:2306   */\n      tag_41\n        /* \"#utility.yul\":2301:2305   */\n      dup2\n        /* \"#utility.yul\":2292:2298   */\n      dup5\n        /* \"#utility.yul\":2228:2306   */\n      tag_20\n      jump\t// in\n    tag_41:\n        /* \"#utility.yul\":2220:2306   */\n      swap1\n      pop\n        /* \"#utility.yul\":2000:2313   */\n      swap3\n      swap2\n      pop\n      pop\n      jump\t// out\n\n    auxdata: 0xa2646970667358221220be26fd3df31f43b3824aff966e4703e31833b93b817b6e36de2ee3eca40b213064736f6c63430008120033\n}\n",
				"bytecode": {
					"linkReferences": {},
					"object": "608060405234801561001057600080fd5b5061021a806100206000396000f3fe608060405234801561001057600080fd5b506004361061002f5760003560e01c8063da91254c1461006b57610030565b5b6040517f08c379a000000000000000000000000000000000000000000000000000000000815260040161006290610123565b60405180910390fd5b610073610089565b60405161008091906101c2565b60405180910390f35b60606040518060400160405280600b81526020017f307856656c69557973616c000000000000000000000000000000000000000000815250905090565b600082825260208201905092915050565b7f46616c6c6261636b2046756e6374696f6e000000000000000000000000000000600082015250565b600061010d6011836100c6565b9150610118826100d7565b602082019050919050565b6000602082019050818103600083015261013c81610100565b9050919050565b600081519050919050565b60005b8381101561016c578082015181840152602081019050610151565b60008484015250505050565b6000601f19601f8301169050919050565b600061019482610143565b61019e81856100c6565b93506101ae81856020860161014e565b6101b781610178565b840191505092915050565b600060208201905081810360008301526101dc8184610189565b90509291505056fea2646970667358221220be26fd3df31f43b3824aff966e4703e31833b93b817b6e36de2ee3eca40b213064736f6c63430008120033",
					"opcodes": "PUSH1 0x80 PUSH1 0x40 MSTORE CALLVALUE DUP1 ISZERO PUSH2 0x10 JUMPI PUSH1 0x0 DUP1 REVERT JUMPDEST POP PUSH2 0x21A DUP1 PUSH2 0x20 PUSH1 0x0 CODECOPY PUSH1 0x0 RETURN INVALID PUSH1 0x80 PUSH1 0x40 MSTORE CALLVALUE DUP1 ISZERO PUSH2 0x10 JUMPI PUSH1 0x0 DUP1 REVERT JUMPDEST POP PUSH1 0x4 CALLDATASIZE LT PUSH2 0x2F JUMPI PUSH1 0x0 CALLDATALOAD PUSH1 0xE0 SHR DUP1 PUSH4 0xDA91254C EQ PUSH2 0x6B JUMPI PUSH2 0x30 JUMP JUMPDEST JUMPDEST PUSH1 0x40 MLOAD PUSH32 0x8C379A000000000000000000000000000000000000000000000000000000000 DUP2 MSTORE PUSH1 0x4 ADD PUSH2 0x62 SWAP1 PUSH2 0x123 JUMP JUMPDEST PUSH1 0x40 MLOAD DUP1 SWAP2 SUB SWAP1 REVERT JUMPDEST PUSH2 0x73 PUSH2 0x89 JUMP JUMPDEST PUSH1 0x40 MLOAD PUSH2 0x80 SWAP2 SWAP1 PUSH2 0x1C2 JUMP JUMPDEST PUSH1 0x40 MLOAD DUP1 SWAP2 SUB SWAP1 RETURN JUMPDEST PUSH1 0x60 PUSH1 0x40 MLOAD DUP1 PUSH1 0x40 ADD PUSH1 0x40 MSTORE DUP1 PUSH1 0xB DUP2 MSTORE PUSH1 0x20 ADD PUSH32 0x307856656C69557973616C000000000000000000000000000000000000000000 DUP2 MSTORE POP SWAP1 POP SWAP1 JUMP JUMPDEST PUSH1 0x0 DUP3 DUP3 MSTORE PUSH1 0x20 DUP3 ADD SWAP1 POP SWAP3 SWAP2 POP POP JUMP JUMPDEST PUSH32 0x46616C6C6261636B2046756E6374696F6E000000000000000000000000000000 PUSH1 0x0 DUP3 ADD MSTORE POP JUMP JUMPDEST PUSH1 0x0 PUSH2 0x10D PUSH1 0x11 DUP4 PUSH2 0xC6 JUMP JUMPDEST SWAP2 POP PUSH2 0x118 DUP3 PUSH2 0xD7 JUMP JUMPDEST PUSH1 0x20 DUP3 ADD SWAP1 POP SWAP2 SWAP1 POP JUMP JUMPDEST PUSH1 0x0 PUSH1 0x20 DUP3 ADD SWAP1 POP DUP2 DUP2 SUB PUSH1 0x0 DUP4 ADD MSTORE PUSH2 0x13C DUP2 PUSH2 0x100 JUMP JUMPDEST SWAP1 POP SWAP2 SWAP1 POP JUMP JUMPDEST PUSH1 0x0 DUP2 MLOAD SWAP1 POP SWAP2 SWAP1 POP JUMP JUMPDEST PUSH1 0x0 JUMPDEST DUP4 DUP2 LT ISZERO PUSH2 0x16C JUMPI DUP1 DUP3 ADD MLOAD DUP2 DUP5 ADD MSTORE PUSH1 0x20 DUP2 ADD SWAP1 POP PUSH2 0x151 JUMP JUMPDEST PUSH1 0x0 DUP5 DUP5 ADD MSTORE POP POP POP POP JUMP JUMPDEST PUSH1 0x0 PUSH1 0x1F NOT PUSH1 0x1F DUP4 ADD AND SWAP1 POP SWAP2 SWAP1 POP JUMP JUMPDEST PUSH1 0x0 PUSH2 0x194 DUP3 PUSH2 0x143 JUMP JUMPDEST PUSH2 0x19E DUP2 DUP6 PUSH2 0xC6 JUMP JUMPDEST SWAP4 POP PUSH2 0x1AE DUP2 DUP6 PUSH1 0x20 DUP7 ADD PUSH2 0x14E JUMP JUMPDEST PUSH2 0x1B7 DUP2 PUSH2 0x178 JUMP JUMPDEST DUP5 ADD SWAP2 POP POP SWAP3 SWAP2 POP POP JUMP JUMPDEST PUSH1 0x0 PUSH1 0x20 DUP3 ADD SWAP1 POP DUP2 DUP2 SUB PUSH1 0x0 DUP4 ADD MSTORE PUSH2 0x1DC DUP2 DUP5 PUSH2 0x189 JUMP JUMPDEST SWAP1 POP SWAP3 SWAP2 POP POP JUMP INVALID LOG2 PUSH5 0x6970667358 0x22 SLT KECCAK256 0xBE 0x26 REVERT RETURNDATASIZE RETURN 0x1F NUMBER 0xB3 DUP3 0x4A SELFDESTRUCT SWAP7 PUSH15 0x4703E31833B93B817B6E36DE2EE3EC LOG4 SIGNEXTEND 0x21 ADDRESS PUSH5 0x736F6C6343 STOP ADDMOD SLT STOP CALLER "
				},
				"gasEstimates": {
					"creation": {
						"codeDepositCost": "107600",
						"executionCost": "153",
						"totalCost": "107753"
					},
					"external": {
						"": "408",
						"whoAmI()": "infinite"
					}
				},
				"methodIdentifiers": {
					"whoAmI()": "da91254c"
				}
			},
			"storageLayout": {
				"storage": [],
				"types": null
			},
			"userdoc": {
				"kind": "user",
				"methods": {},
				"version": 1
			}
		}
	}
}