{
	"contracts/FixedSizeArray.sol": {
		"FixedSizeArray": {
			"abi": [
				{
					"inputs": [
						{
							"internalType": "string",
							"name": "_city",
							"type": "string"
						}
					],
					"stateMutability": "nonpayable",
					"type": "constructor"
				},
				{
					"inputs": [
						{
							"internalType": "string",
							"name": "_city",
							"type": "string"
						}
					],
					"name": "addCity",
					"outputs": [],
					"stateMutability": "nonpayable",
					"type": "function"
				},
				{
					"inputs": [],
					"name": "getCityCount",
					"outputs": [
						{
							"internalType": "uint256",
							"name": "",
							"type": "uint256"
						}
					],
					"stateMutability": "view",
					"type": "function"
				},
				{
					"inputs": [],
					"name": "getCityList",
					"outputs": [
						{
							"internalType": "string[]",
							"name": "",
							"type": "string[]"
						}
					],
					"stateMutability": "view",
					"type": "function"
				}
			],
			"devdoc": {
				"details": "Array Example",
				"kind": "dev",
				"methods": {},
				"title": "0xVeliUysal",
				"version": 1
			},
			"evm": {
				"assembly": "    /* \"contracts/FixedSizeArray.sol\":125:655  contract FixedSizeArray {... */\n  mstore(0x40, 0x80)\n    /* \"contracts/FixedSizeArray.sol\":181:249  constructor(string memory _city){... */\n  callvalue\n  dup1\n  iszero\n  tag_1\n  jumpi\n  0x00\n  dup1\n  revert\ntag_1:\n  pop\n  mload(0x40)\n  sub(codesize, bytecodeSize)\n  dup1\n  bytecodeSize\n  dup4\n  codecopy\n  dup2\n  dup2\n  add\n  0x40\n  mstore\n  dup2\n  add\n  swap1\n  tag_2\n  swap2\n  swap1\n  tag_3\n  jump\t// in\ntag_2:\n    /* \"contracts/FixedSizeArray.sol\":237:242  _city */\n  dup1\n    /* \"contracts/FixedSizeArray.sol\":223:231  cityList */\n  0x00\n    /* \"contracts/FixedSizeArray.sol\":232:233  0 */\n  dup1\n    /* \"contracts/FixedSizeArray.sol\":223:234  cityList[0] */\n  0x03\n  dup2\n  lt\n  tag_6\n  jumpi\n  tag_7\n  tag_8\n  jump\t// in\ntag_7:\ntag_6:\n  add\n    /* \"contracts/FixedSizeArray.sol\":223:242  cityList[0] = _city */\n  swap1\n  dup1\n  mload\n  swap1\n  0x20\n  add\n  swap1\n  tag_10\n  swap3\n  swap2\n  swap1\n  tag_11\n  jump\t// in\ntag_10:\n  pop\n    /* \"contracts/FixedSizeArray.sol\":181:249  constructor(string memory _city){... */\n  pop\n    /* \"contracts/FixedSizeArray.sol\":125:655  contract FixedSizeArray {... */\n  jump(tag_12)\ntag_11:\n  dup3\n  dup1\n  sload\n  tag_13\n  swap1\n  tag_14\n  jump\t// in\ntag_13:\n  swap1\n  0x00\n  mstore\n  keccak256(0x00, 0x20)\n  swap1\n  0x1f\n  add\n  0x20\n  swap1\n  div\n  dup2\n  add\n  swap3\n  dup3\n  tag_16\n  jumpi\n  0x00\n  dup6\n  sstore\n  jump(tag_15)\ntag_16:\n  dup3\n  0x1f\n  lt\n  tag_17\n  jumpi\n  dup1\n  mload\n  not(0xff)\n  and\n  dup4\n  dup1\n  add\n  or\n  dup6\n  sstore\n  jump(tag_15)\ntag_17:\n  dup3\n  dup1\n  add\n  0x01\n  add\n  dup6\n  sstore\n  dup3\n  iszero\n  tag_15\n  jumpi\n  swap2\n  dup3\n  add\ntag_18:\n  dup3\n  dup2\n  gt\n  iszero\n  tag_19\n  jumpi\n  dup3\n  mload\n  dup3\n  sstore\n  swap2\n  0x20\n  add\n  swap2\n  swap1\n  0x01\n  add\n  swap1\n  jump(tag_18)\ntag_19:\ntag_15:\n  pop\n  swap1\n  pop\n  tag_20\n  swap2\n  swap1\n  tag_21\n  jump\t// in\ntag_20:\n  pop\n  swap1\n  jump\t// out\ntag_21:\ntag_22:\n  dup1\n  dup3\n  gt\n  iszero\n  tag_23\n  jumpi\n  0x00\n  dup2\n  0x00\n  swap1\n  sstore\n  pop\n  0x01\n  add\n  jump(tag_22)\ntag_23:\n  pop\n  swap1\n  jump\t// out\n    /* \"#utility.yul\":7:82   */\ntag_24:\n    /* \"#utility.yul\":40:46   */\n  0x00\n    /* \"#utility.yul\":73:75   */\n  0x40\n    /* \"#utility.yul\":67:76   */\n  mload\n    /* \"#utility.yul\":57:76   */\n  swap1\n  pop\n    /* \"#utility.yul\":7:82   */\n  swap1\n  jump\t// out\n    /* \"#utility.yul\":88:205   */\ntag_25:\n    /* \"#utility.yul\":197:198   */\n  0x00\n    /* \"#utility.yul\":194:195   */\n  dup1\n    /* \"#utility.yul\":187:199   */\n  revert\n    /* \"#utility.yul\":211:328   */\ntag_26:\n    /* \"#utility.yul\":320:321   */\n  0x00\n    /* \"#utility.yul\":317:318   */\n  dup1\n    /* \"#utility.yul\":310:322   */\n  revert\n    /* \"#utility.yul\":334:451   */\ntag_27:\n    /* \"#utility.yul\":443:444   */\n  0x00\n    /* \"#utility.yul\":440:441   */\n  dup1\n    /* \"#utility.yul\":433:445   */\n  revert\n    /* \"#utility.yul\":457:574   */\ntag_28:\n    /* \"#utility.yul\":566:567   */\n  0x00\n    /* \"#utility.yul\":563:564   */\n  dup1\n    /* \"#utility.yul\":556:568   */\n  revert\n    /* \"#utility.yul\":580:682   */\ntag_29:\n    /* \"#utility.yul\":621:627   */\n  0x00\n    /* \"#utility.yul\":672:674   */\n  0x1f\n    /* \"#utility.yul\":668:675   */\n  not\n    /* \"#utility.yul\":663:665   */\n  0x1f\n    /* \"#utility.yul\":656:661   */\n  dup4\n    /* \"#utility.yul\":652:666   */\n  add\n    /* \"#utility.yul\":648:676   */\n  and\n    /* \"#utility.yul\":638:676   */\n  swap1\n  pop\n    /* \"#utility.yul\":580:682   */\n  swap2\n  swap1\n  pop\n  jump\t// out\n    /* \"#utility.yul\":688:868   */\ntag_30:\n    /* \"#utility.yul\":736:813   */\n  0x4e487b7100000000000000000000000000000000000000000000000000000000\n    /* \"#utility.yul\":733:734   */\n  0x00\n    /* \"#utility.yul\":726:814   */\n  mstore\n    /* \"#utility.yul\":833:837   */\n  0x41\n    /* \"#utility.yul\":830:831   */\n  0x04\n    /* \"#utility.yul\":823:838   */\n  mstore\n    /* \"#utility.yul\":857:861   */\n  0x24\n    /* \"#utility.yul\":854:855   */\n  0x00\n    /* \"#utility.yul\":847:862   */\n  revert\n    /* \"#utility.yul\":874:1155   */\ntag_31:\n    /* \"#utility.yul\":957:984   */\n  tag_47\n    /* \"#utility.yul\":979:983   */\n  dup3\n    /* \"#utility.yul\":957:984   */\n  tag_29\n  jump\t// in\ntag_47:\n    /* \"#utility.yul\":949:955   */\n  dup2\n    /* \"#utility.yul\":945:985   */\n  add\n    /* \"#utility.yul\":1087:1093   */\n  dup2\n    /* \"#utility.yul\":1075:1085   */\n  dup2\n    /* \"#utility.yul\":1072:1094   */\n  lt\n    /* \"#utility.yul\":1051:1069   */\n  0xffffffffffffffff\n    /* \"#utility.yul\":1039:1049   */\n  dup3\n    /* \"#utility.yul\":1036:1070   */\n  gt\n    /* \"#utility.yul\":1033:1095   */\n  or\n    /* \"#utility.yul\":1030:1118   */\n  iszero\n  tag_48\n  jumpi\n    /* \"#utility.yul\":1098:1116   */\n  tag_49\n  tag_30\n  jump\t// in\ntag_49:\n    /* \"#utility.yul\":1030:1118   */\ntag_48:\n    /* \"#utility.yul\":1138:1148   */\n  dup1\n    /* \"#utility.yul\":1134:1136   */\n  0x40\n    /* \"#utility.yul\":1127:1149   */\n  mstore\n    /* \"#utility.yul\":917:1155   */\n  pop\n    /* \"#utility.yul\":874:1155   */\n  pop\n  pop\n  jump\t// out\n    /* \"#utility.yul\":1161:1290   */\ntag_32:\n    /* \"#utility.yul\":1195:1201   */\n  0x00\n    /* \"#utility.yul\":1222:1242   */\n  tag_51\n  tag_24\n  jump\t// in\ntag_51:\n    /* \"#utility.yul\":1212:1242   */\n  swap1\n  pop\n    /* \"#utility.yul\":1251:1284   */\n  tag_52\n    /* \"#utility.yul\":1279:1283   */\n  dup3\n    /* \"#utility.yul\":1271:1277   */\n  dup3\n    /* \"#utility.yul\":1251:1284   */\n  tag_31\n  jump\t// in\ntag_52:\n    /* \"#utility.yul\":1161:1290   */\n  swap2\n  swap1\n  pop\n  jump\t// out\n    /* \"#utility.yul\":1296:1604   */\ntag_33:\n    /* \"#utility.yul\":1358:1362   */\n  0x00\n    /* \"#utility.yul\":1448:1466   */\n  0xffffffffffffffff\n    /* \"#utility.yul\":1440:1446   */\n  dup3\n    /* \"#utility.yul\":1437:1467   */\n  gt\n    /* \"#utility.yul\":1434:1490   */\n  iszero\n  tag_54\n  jumpi\n    /* \"#utility.yul\":1470:1488   */\n  tag_55\n  tag_30\n  jump\t// in\ntag_55:\n    /* \"#utility.yul\":1434:1490   */\ntag_54:\n    /* \"#utility.yul\":1508:1537   */\n  tag_56\n    /* \"#utility.yul\":1530:1536   */\n  dup3\n    /* \"#utility.yul\":1508:1537   */\n  tag_29\n  jump\t// in\ntag_56:\n    /* \"#utility.yul\":1500:1537   */\n  swap1\n  pop\n    /* \"#utility.yul\":1592:1596   */\n  0x20\n    /* \"#utility.yul\":1586:1590   */\n  dup2\n    /* \"#utility.yul\":1582:1597   */\n  add\n    /* \"#utility.yul\":1574:1597   */\n  swap1\n  pop\n    /* \"#utility.yul\":1296:1604   */\n  swap2\n  swap1\n  pop\n  jump\t// out\n    /* \"#utility.yul\":1610:1917   */\ntag_34:\n    /* \"#utility.yul\":1678:1679   */\n  0x00\n    /* \"#utility.yul\":1688:1801   */\ntag_58:\n    /* \"#utility.yul\":1702:1708   */\n  dup4\n    /* \"#utility.yul\":1699:1700   */\n  dup2\n    /* \"#utility.yul\":1696:1709   */\n  lt\n    /* \"#utility.yul\":1688:1801   */\n  iszero\n  tag_60\n  jumpi\n    /* \"#utility.yul\":1787:1788   */\n  dup1\n    /* \"#utility.yul\":1782:1785   */\n  dup3\n    /* \"#utility.yul\":1778:1789   */\n  add\n    /* \"#utility.yul\":1772:1790   */\n  mload\n    /* \"#utility.yul\":1768:1769   */\n  dup2\n    /* \"#utility.yul\":1763:1766   */\n  dup5\n    /* \"#utility.yul\":1759:1770   */\n  add\n    /* \"#utility.yul\":1752:1791   */\n  mstore\n    /* \"#utility.yul\":1724:1726   */\n  0x20\n    /* \"#utility.yul\":1721:1722   */\n  dup2\n    /* \"#utility.yul\":1717:1727   */\n  add\n    /* \"#utility.yul\":1712:1727   */\n  swap1\n  pop\n    /* \"#utility.yul\":1688:1801   */\n  jump(tag_58)\ntag_60:\n    /* \"#utility.yul\":1819:1825   */\n  dup4\n    /* \"#utility.yul\":1816:1817   */\n  dup2\n    /* \"#utility.yul\":1813:1826   */\n  gt\n    /* \"#utility.yul\":1810:1911   */\n  iszero\n  tag_61\n  jumpi\n    /* \"#utility.yul\":1899:1900   */\n  0x00\n    /* \"#utility.yul\":1890:1896   */\n  dup5\n    /* \"#utility.yul\":1885:1888   */\n  dup5\n    /* \"#utility.yul\":1881:1897   */\n  add\n    /* \"#utility.yul\":1874:1901   */\n  mstore\n    /* \"#utility.yul\":1810:1911   */\ntag_61:\n    /* \"#utility.yul\":1659:1917   */\n  pop\n    /* \"#utility.yul\":1610:1917   */\n  pop\n  pop\n  pop\n  jump\t// out\n    /* \"#utility.yul\":1923:2344   */\ntag_35:\n    /* \"#utility.yul\":2012:2017   */\n  0x00\n    /* \"#utility.yul\":2037:2103   */\n  tag_63\n    /* \"#utility.yul\":2053:2102   */\n  tag_64\n    /* \"#utility.yul\":2095:2101   */\n  dup5\n    /* \"#utility.yul\":2053:2102   */\n  tag_33\n  jump\t// in\ntag_64:\n    /* \"#utility.yul\":2037:2103   */\n  tag_32\n  jump\t// in\ntag_63:\n    /* \"#utility.yul\":2028:2103   */\n  swap1\n  pop\n    /* \"#utility.yul\":2126:2132   */\n  dup3\n    /* \"#utility.yul\":2119:2124   */\n  dup2\n    /* \"#utility.yul\":2112:2133   */\n  mstore\n    /* \"#utility.yul\":2164:2168   */\n  0x20\n    /* \"#utility.yul\":2157:2162   */\n  dup2\n    /* \"#utility.yul\":2153:2169   */\n  add\n    /* \"#utility.yul\":2202:2205   */\n  dup5\n    /* \"#utility.yul\":2193:2199   */\n  dup5\n    /* \"#utility.yul\":2188:2191   */\n  dup5\n    /* \"#utility.yul\":2184:2200   */\n  add\n    /* \"#utility.yul\":2181:2206   */\n  gt\n    /* \"#utility.yul\":2178:2290   */\n  iszero\n  tag_65\n  jumpi\n    /* \"#utility.yul\":2209:2288   */\n  tag_66\n  tag_28\n  jump\t// in\ntag_66:\n    /* \"#utility.yul\":2178:2290   */\ntag_65:\n    /* \"#utility.yul\":2299:2338   */\n  tag_67\n    /* \"#utility.yul\":2331:2337   */\n  dup5\n    /* \"#utility.yul\":2326:2329   */\n  dup3\n    /* \"#utility.yul\":2321:2324   */\n  dup6\n    /* \"#utility.yul\":2299:2338   */\n  tag_34\n  jump\t// in\ntag_67:\n    /* \"#utility.yul\":2018:2344   */\n  pop\n    /* \"#utility.yul\":1923:2344   */\n  swap4\n  swap3\n  pop\n  pop\n  pop\n  jump\t// out\n    /* \"#utility.yul\":2364:2719   */\ntag_36:\n    /* \"#utility.yul\":2431:2436   */\n  0x00\n    /* \"#utility.yul\":2480:2483   */\n  dup3\n    /* \"#utility.yul\":2473:2477   */\n  0x1f\n    /* \"#utility.yul\":2465:2471   */\n  dup4\n    /* \"#utility.yul\":2461:2478   */\n  add\n    /* \"#utility.yul\":2457:2484   */\n  slt\n    /* \"#utility.yul\":2447:2569   */\n  tag_69\n  jumpi\n    /* \"#utility.yul\":2488:2567   */\n  tag_70\n  tag_27\n  jump\t// in\ntag_70:\n    /* \"#utility.yul\":2447:2569   */\ntag_69:\n    /* \"#utility.yul\":2598:2604   */\n  dup2\n    /* \"#utility.yul\":2592:2605   */\n  mload\n    /* \"#utility.yul\":2623:2713   */\n  tag_71\n    /* \"#utility.yul\":2709:2712   */\n  dup5\n    /* \"#utility.yul\":2701:2707   */\n  dup3\n    /* \"#utility.yul\":2694:2698   */\n  0x20\n    /* \"#utility.yul\":2686:2692   */\n  dup7\n    /* \"#utility.yul\":2682:2699   */\n  add\n    /* \"#utility.yul\":2623:2713   */\n  tag_35\n  jump\t// in\ntag_71:\n    /* \"#utility.yul\":2614:2713   */\n  swap2\n  pop\n    /* \"#utility.yul\":2437:2719   */\n  pop\n    /* \"#utility.yul\":2364:2719   */\n  swap3\n  swap2\n  pop\n  pop\n  jump\t// out\n    /* \"#utility.yul\":2725:3249   */\ntag_3:\n    /* \"#utility.yul\":2805:2811   */\n  0x00\n    /* \"#utility.yul\":2854:2856   */\n  0x20\n    /* \"#utility.yul\":2842:2851   */\n  dup3\n    /* \"#utility.yul\":2833:2840   */\n  dup5\n    /* \"#utility.yul\":2829:2852   */\n  sub\n    /* \"#utility.yul\":2825:2857   */\n  slt\n    /* \"#utility.yul\":2822:2941   */\n  iszero\n  tag_73\n  jumpi\n    /* \"#utility.yul\":2860:2939   */\n  tag_74\n  tag_25\n  jump\t// in\ntag_74:\n    /* \"#utility.yul\":2822:2941   */\ntag_73:\n    /* \"#utility.yul\":3001:3002   */\n  0x00\n    /* \"#utility.yul\":2990:2999   */\n  dup3\n    /* \"#utility.yul\":2986:3003   */\n  add\n    /* \"#utility.yul\":2980:3004   */\n  mload\n    /* \"#utility.yul\":3031:3049   */\n  0xffffffffffffffff\n    /* \"#utility.yul\":3023:3029   */\n  dup2\n    /* \"#utility.yul\":3020:3050   */\n  gt\n    /* \"#utility.yul\":3017:3134   */\n  iszero\n  tag_75\n  jumpi\n    /* \"#utility.yul\":3053:3132   */\n  tag_76\n  tag_26\n  jump\t// in\ntag_76:\n    /* \"#utility.yul\":3017:3134   */\ntag_75:\n    /* \"#utility.yul\":3158:3232   */\n  tag_77\n    /* \"#utility.yul\":3224:3231   */\n  dup5\n    /* \"#utility.yul\":3215:3221   */\n  dup3\n    /* \"#utility.yul\":3204:3213   */\n  dup6\n    /* \"#utility.yul\":3200:3222   */\n  add\n    /* \"#utility.yul\":3158:3232   */\n  tag_36\n  jump\t// in\ntag_77:\n    /* \"#utility.yul\":3148:3232   */\n  swap2\n  pop\n    /* \"#utility.yul\":2951:3242   */\n  pop\n    /* \"#utility.yul\":2725:3249   */\n  swap3\n  swap2\n  pop\n  pop\n  jump\t// out\n    /* \"#utility.yul\":3255:3435   */\ntag_8:\n    /* \"#utility.yul\":3303:3380   */\n  0x4e487b7100000000000000000000000000000000000000000000000000000000\n    /* \"#utility.yul\":3300:3301   */\n  0x00\n    /* \"#utility.yul\":3293:3381   */\n  mstore\n    /* \"#utility.yul\":3400:3404   */\n  0x32\n    /* \"#utility.yul\":3397:3398   */\n  0x04\n    /* \"#utility.yul\":3390:3405   */\n  mstore\n    /* \"#utility.yul\":3424:3428   */\n  0x24\n    /* \"#utility.yul\":3421:3422   */\n  0x00\n    /* \"#utility.yul\":3414:3429   */\n  revert\n    /* \"#utility.yul\":3441:3621   */\ntag_37:\n    /* \"#utility.yul\":3489:3566   */\n  0x4e487b7100000000000000000000000000000000000000000000000000000000\n    /* \"#utility.yul\":3486:3487   */\n  0x00\n    /* \"#utility.yul\":3479:3567   */\n  mstore\n    /* \"#utility.yul\":3586:3590   */\n  0x22\n    /* \"#utility.yul\":3583:3584   */\n  0x04\n    /* \"#utility.yul\":3576:3591   */\n  mstore\n    /* \"#utility.yul\":3610:3614   */\n  0x24\n    /* \"#utility.yul\":3607:3608   */\n  0x00\n    /* \"#utility.yul\":3600:3615   */\n  revert\n    /* \"#utility.yul\":3627:3947   */\ntag_14:\n    /* \"#utility.yul\":3671:3677   */\n  0x00\n    /* \"#utility.yul\":3708:3709   */\n  0x02\n    /* \"#utility.yul\":3702:3706   */\n  dup3\n    /* \"#utility.yul\":3698:3710   */\n  div\n    /* \"#utility.yul\":3688:3710   */\n  swap1\n  pop\n    /* \"#utility.yul\":3755:3756   */\n  0x01\n    /* \"#utility.yul\":3749:3753   */\n  dup3\n    /* \"#utility.yul\":3745:3757   */\n  and\n    /* \"#utility.yul\":3776:3794   */\n  dup1\n    /* \"#utility.yul\":3766:3847   */\n  tag_81\n  jumpi\n    /* \"#utility.yul\":3832:3836   */\n  0x7f\n    /* \"#utility.yul\":3824:3830   */\n  dup3\n    /* \"#utility.yul\":3820:3837   */\n  and\n    /* \"#utility.yul\":3810:3837   */\n  swap2\n  pop\n    /* \"#utility.yul\":3766:3847   */\ntag_81:\n    /* \"#utility.yul\":3894:3896   */\n  0x20\n    /* \"#utility.yul\":3886:3892   */\n  dup3\n    /* \"#utility.yul\":3883:3897   */\n  lt\n    /* \"#utility.yul\":3863:3881   */\n  dup2\n    /* \"#utility.yul\":3860:3898   */\n  sub\n    /* \"#utility.yul\":3857:3941   */\n  tag_82\n  jumpi\n    /* \"#utility.yul\":3913:3931   */\n  tag_83\n  tag_37\n  jump\t// in\ntag_83:\n    /* \"#utility.yul\":3857:3941   */\ntag_82:\n    /* \"#utility.yul\":3678:3947   */\n  pop\n    /* \"#utility.yul\":3627:3947   */\n  swap2\n  swap1\n  pop\n  jump\t// out\n    /* \"contracts/FixedSizeArray.sol\":125:655  contract FixedSizeArray {... */\ntag_12:\n  dataSize(sub_0)\n  dup1\n  dataOffset(sub_0)\n  0x00\n  codecopy\n  0x00\n  return\nstop\n\nsub_0: assembly {\n        /* \"contracts/FixedSizeArray.sol\":125:655  contract FixedSizeArray {... */\n      mstore(0x40, 0x80)\n      callvalue\n      dup1\n      iszero\n      tag_1\n      jumpi\n      0x00\n      dup1\n      revert\n    tag_1:\n      pop\n      jumpi(tag_2, lt(calldatasize, 0x04))\n      shr(0xe0, calldataload(0x00))\n      dup1\n      0x99653161\n      eq\n      tag_3\n      jumpi\n      dup1\n      0xc7f43ec1\n      eq\n      tag_4\n      jumpi\n      dup1\n      0xf025b8fa\n      eq\n      tag_5\n      jumpi\n    tag_2:\n      0x00\n      dup1\n      revert\n        /* \"contracts/FixedSizeArray.sol\":458:651  function getCityList() public view returns(string[] memory) {... */\n    tag_3:\n      tag_6\n      tag_7\n      jump\t// in\n    tag_6:\n      mload(0x40)\n      tag_8\n      swap2\n      swap1\n      tag_9\n      jump\t// in\n    tag_8:\n      mload(0x40)\n      dup1\n      swap2\n      sub\n      swap1\n      return\n        /* \"contracts/FixedSizeArray.sol\":360:452  function getCityCount() public view returns(uint256) {... */\n    tag_4:\n      tag_10\n      tag_11\n      jump\t// in\n    tag_10:\n      mload(0x40)\n      tag_12\n      swap2\n      swap1\n      tag_13\n      jump\t// in\n    tag_12:\n      mload(0x40)\n      dup1\n      swap2\n      sub\n      swap1\n      return\n        /* \"contracts/FixedSizeArray.sol\":259:354  function addCity(string memory _city) public {... */\n    tag_5:\n      tag_14\n      0x04\n      dup1\n      calldatasize\n      sub\n      dup2\n      add\n      swap1\n      tag_15\n      swap2\n      swap1\n      tag_16\n      jump\t// in\n    tag_15:\n      tag_17\n      jump\t// in\n    tag_14:\n      stop\n        /* \"contracts/FixedSizeArray.sol\":458:651  function getCityList() public view returns(string[] memory) {... */\n    tag_7:\n        /* \"contracts/FixedSizeArray.sol\":501:516  string[] memory */\n      0x60\n        /* \"contracts/FixedSizeArray.sol\":528:542  uint256 length */\n      0x00\n        /* \"contracts/FixedSizeArray.sol\":545:560  cityList.length */\n      0x03\n        /* \"contracts/FixedSizeArray.sol\":528:560  uint256 length = cityList.length */\n      swap1\n      pop\n        /* \"contracts/FixedSizeArray.sol\":570:595  string[] memory _cityList */\n      0x00\n        /* \"contracts/FixedSizeArray.sol\":611:617  length */\n      dup2\n        /* \"contracts/FixedSizeArray.sol\":598:618  new string[](length) */\n      0xffffffffffffffff\n      dup2\n      gt\n      iszero\n      tag_19\n      jumpi\n      tag_20\n      tag_21\n      jump\t// in\n    tag_20:\n    tag_19:\n      mload(0x40)\n      swap1\n      dup1\n      dup3\n      mstore\n      dup1\n      0x20\n      mul\n      0x20\n      add\n      dup3\n      add\n      0x40\n      mstore\n      dup1\n      iszero\n      tag_22\n      jumpi\n      dup2\n      0x20\n      add\n    tag_23:\n      0x60\n      dup2\n      mstore\n      0x20\n      add\n      swap1\n      0x01\n      swap1\n      sub\n      swap1\n      dup2\n      tag_23\n      jumpi\n      swap1\n      pop\n    tag_22:\n      pop\n        /* \"contracts/FixedSizeArray.sol\":570:618  string[] memory _cityList = new string[](length) */\n      swap1\n      pop\n        /* \"contracts/FixedSizeArray.sol\":635:644  _cityList */\n      dup1\n        /* \"contracts/FixedSizeArray.sol\":628:644  return _cityList */\n      swap3\n      pop\n      pop\n      pop\n        /* \"contracts/FixedSizeArray.sol\":458:651  function getCityList() public view returns(string[] memory) {... */\n      swap1\n      jump\t// out\n        /* \"contracts/FixedSizeArray.sol\":360:452  function getCityCount() public view returns(uint256) {... */\n    tag_11:\n        /* \"contracts/FixedSizeArray.sol\":404:411  uint256 */\n      0x00\n        /* \"contracts/FixedSizeArray.sol\":430:445  cityList.length */\n      0x03\n        /* \"contracts/FixedSizeArray.sol\":423:445  return cityList.length */\n      swap1\n      pop\n        /* \"contracts/FixedSizeArray.sol\":360:452  function getCityCount() public view returns(uint256) {... */\n      swap1\n      jump\t// out\n        /* \"contracts/FixedSizeArray.sol\":259:354  function addCity(string memory _city) public {... */\n    tag_17:\n        /* \"contracts/FixedSizeArray.sol\":342:347  _city */\n      dup1\n        /* \"contracts/FixedSizeArray.sol\":314:322  cityList */\n      0x00\n        /* \"contracts/FixedSizeArray.sol\":323:338  cityList.length */\n      0x03\n        /* \"contracts/FixedSizeArray.sol\":314:339  cityList[cityList.length] */\n      dup1\n      dup2\n      lt\n      tag_26\n      jumpi\n      tag_27\n      tag_28\n      jump\t// in\n    tag_27:\n    tag_26:\n      add\n        /* \"contracts/FixedSizeArray.sol\":314:347  cityList[cityList.length] = _city */\n      swap1\n      dup1\n      mload\n      swap1\n      0x20\n      add\n      swap1\n      tag_30\n      swap3\n      swap2\n      swap1\n      tag_31\n      jump\t// in\n    tag_30:\n      pop\n        /* \"contracts/FixedSizeArray.sol\":259:354  function addCity(string memory _city) public {... */\n      pop\n      jump\t// out\n    tag_31:\n      dup3\n      dup1\n      sload\n      tag_32\n      swap1\n      tag_33\n      jump\t// in\n    tag_32:\n      swap1\n      0x00\n      mstore\n      keccak256(0x00, 0x20)\n      swap1\n      0x1f\n      add\n      0x20\n      swap1\n      div\n      dup2\n      add\n      swap3\n      dup3\n      tag_35\n      jumpi\n      0x00\n      dup6\n      sstore\n      jump(tag_34)\n    tag_35:\n      dup3\n      0x1f\n      lt\n      tag_36\n      jumpi\n      dup1\n      mload\n      not(0xff)\n      and\n      dup4\n      dup1\n      add\n      or\n      dup6\n      sstore\n      jump(tag_34)\n    tag_36:\n      dup3\n      dup1\n      add\n      0x01\n      add\n      dup6\n      sstore\n      dup3\n      iszero\n      tag_34\n      jumpi\n      swap2\n      dup3\n      add\n    tag_37:\n      dup3\n      dup2\n      gt\n      iszero\n      tag_38\n      jumpi\n      dup3\n      mload\n      dup3\n      sstore\n      swap2\n      0x20\n      add\n      swap2\n      swap1\n      0x01\n      add\n      swap1\n      jump(tag_37)\n    tag_38:\n    tag_34:\n      pop\n      swap1\n      pop\n      tag_39\n      swap2\n      swap1\n      tag_40\n      jump\t// in\n    tag_39:\n      pop\n      swap1\n      jump\t// out\n    tag_40:\n    tag_41:\n      dup1\n      dup3\n      gt\n      iszero\n      tag_42\n      jumpi\n      0x00\n      dup2\n      0x00\n      swap1\n      sstore\n      pop\n      0x01\n      add\n      jump(tag_41)\n    tag_42:\n      pop\n      swap1\n      jump\t// out\n        /* \"#utility.yul\":7:131   */\n    tag_43:\n        /* \"#utility.yul\":84:90   */\n      0x00\n        /* \"#utility.yul\":118:123   */\n      dup2\n        /* \"#utility.yul\":112:124   */\n      mload\n        /* \"#utility.yul\":102:124   */\n      swap1\n      pop\n        /* \"#utility.yul\":7:131   */\n      swap2\n      swap1\n      pop\n      jump\t// out\n        /* \"#utility.yul\":137:331   */\n    tag_44:\n        /* \"#utility.yul\":246:257   */\n      0x00\n        /* \"#utility.yul\":280:286   */\n      dup3\n        /* \"#utility.yul\":275:278   */\n      dup3\n        /* \"#utility.yul\":268:287   */\n      mstore\n        /* \"#utility.yul\":320:324   */\n      0x20\n        /* \"#utility.yul\":315:318   */\n      dup3\n        /* \"#utility.yul\":311:325   */\n      add\n        /* \"#utility.yul\":296:325   */\n      swap1\n      pop\n        /* \"#utility.yul\":137:331   */\n      swap3\n      swap2\n      pop\n      pop\n      jump\t// out\n        /* \"#utility.yul\":337:479   */\n    tag_45:\n        /* \"#utility.yul\":414:418   */\n      0x00\n        /* \"#utility.yul\":437:440   */\n      dup2\n        /* \"#utility.yul\":429:440   */\n      swap1\n      pop\n        /* \"#utility.yul\":467:471   */\n      0x20\n        /* \"#utility.yul\":462:465   */\n      dup3\n        /* \"#utility.yul\":458:472   */\n      add\n        /* \"#utility.yul\":450:472   */\n      swap1\n      pop\n        /* \"#utility.yul\":337:479   */\n      swap2\n      swap1\n      pop\n      jump\t// out\n        /* \"#utility.yul\":485:584   */\n    tag_46:\n        /* \"#utility.yul\":537:543   */\n      0x00\n        /* \"#utility.yul\":571:576   */\n      dup2\n        /* \"#utility.yul\":565:577   */\n      mload\n        /* \"#utility.yul\":555:577   */\n      swap1\n      pop\n        /* \"#utility.yul\":485:584   */\n      swap2\n      swap1\n      pop\n      jump\t// out\n        /* \"#utility.yul\":590:749   */\n    tag_47:\n        /* \"#utility.yul\":664:675   */\n      0x00\n        /* \"#utility.yul\":698:704   */\n      dup3\n        /* \"#utility.yul\":693:696   */\n      dup3\n        /* \"#utility.yul\":686:705   */\n      mstore\n        /* \"#utility.yul\":738:742   */\n      0x20\n        /* \"#utility.yul\":733:736   */\n      dup3\n        /* \"#utility.yul\":729:743   */\n      add\n        /* \"#utility.yul\":714:743   */\n      swap1\n      pop\n        /* \"#utility.yul\":590:749   */\n      swap3\n      swap2\n      pop\n      pop\n      jump\t// out\n        /* \"#utility.yul\":755:1062   */\n    tag_48:\n        /* \"#utility.yul\":823:824   */\n      0x00\n        /* \"#utility.yul\":833:946   */\n    tag_75:\n        /* \"#utility.yul\":847:853   */\n      dup4\n        /* \"#utility.yul\":844:845   */\n      dup2\n        /* \"#utility.yul\":841:854   */\n      lt\n        /* \"#utility.yul\":833:946   */\n      iszero\n      tag_77\n      jumpi\n        /* \"#utility.yul\":932:933   */\n      dup1\n        /* \"#utility.yul\":927:930   */\n      dup3\n        /* \"#utility.yul\":923:934   */\n      add\n        /* \"#utility.yul\":917:935   */\n      mload\n        /* \"#utility.yul\":913:914   */\n      dup2\n        /* \"#utility.yul\":908:911   */\n      dup5\n        /* \"#utility.yul\":904:915   */\n      add\n        /* \"#utility.yul\":897:936   */\n      mstore\n        /* \"#utility.yul\":869:871   */\n      0x20\n        /* \"#utility.yul\":866:867   */\n      dup2\n        /* \"#utility.yul\":862:872   */\n      add\n        /* \"#utility.yul\":857:872   */\n      swap1\n      pop\n        /* \"#utility.yul\":833:946   */\n      jump(tag_75)\n    tag_77:\n        /* \"#utility.yul\":964:970   */\n      dup4\n        /* \"#utility.yul\":961:962   */\n      dup2\n        /* \"#utility.yul\":958:971   */\n      gt\n        /* \"#utility.yul\":955:1056   */\n      iszero\n      tag_78\n      jumpi\n        /* \"#utility.yul\":1044:1045   */\n      0x00\n        /* \"#utility.yul\":1035:1041   */\n      dup5\n        /* \"#utility.yul\":1030:1033   */\n      dup5\n        /* \"#utility.yul\":1026:1042   */\n      add\n        /* \"#utility.yul\":1019:1046   */\n      mstore\n        /* \"#utility.yul\":955:1056   */\n    tag_78:\n        /* \"#utility.yul\":804:1062   */\n      pop\n        /* \"#utility.yul\":755:1062   */\n      pop\n      pop\n      pop\n      jump\t// out\n        /* \"#utility.yul\":1068:1170   */\n    tag_49:\n        /* \"#utility.yul\":1109:1115   */\n      0x00\n        /* \"#utility.yul\":1160:1162   */\n      0x1f\n        /* \"#utility.yul\":1156:1163   */\n      not\n        /* \"#utility.yul\":1151:1153   */\n      0x1f\n        /* \"#utility.yul\":1144:1149   */\n      dup4\n        /* \"#utility.yul\":1140:1154   */\n      add\n        /* \"#utility.yul\":1136:1164   */\n      and\n        /* \"#utility.yul\":1126:1164   */\n      swap1\n      pop\n        /* \"#utility.yul\":1068:1170   */\n      swap2\n      swap1\n      pop\n      jump\t// out\n        /* \"#utility.yul\":1176:1520   */\n    tag_50:\n        /* \"#utility.yul\":1254:1257   */\n      0x00\n        /* \"#utility.yul\":1282:1321   */\n      tag_81\n        /* \"#utility.yul\":1315:1320   */\n      dup3\n        /* \"#utility.yul\":1282:1321   */\n      tag_46\n      jump\t// in\n    tag_81:\n        /* \"#utility.yul\":1337:1398   */\n      tag_82\n        /* \"#utility.yul\":1391:1397   */\n      dup2\n        /* \"#utility.yul\":1386:1389   */\n      dup6\n        /* \"#utility.yul\":1337:1398   */\n      tag_47\n      jump\t// in\n    tag_82:\n        /* \"#utility.yul\":1330:1398   */\n      swap4\n      pop\n        /* \"#utility.yul\":1407:1459   */\n      tag_83\n        /* \"#utility.yul\":1452:1458   */\n      dup2\n        /* \"#utility.yul\":1447:1450   */\n      dup6\n        /* \"#utility.yul\":1440:1444   */\n      0x20\n        /* \"#utility.yul\":1433:1438   */\n      dup7\n        /* \"#utility.yul\":1429:1445   */\n      add\n        /* \"#utility.yul\":1407:1459   */\n      tag_48\n      jump\t// in\n    tag_83:\n        /* \"#utility.yul\":1484:1513   */\n      tag_84\n        /* \"#utility.yul\":1506:1512   */\n      dup2\n        /* \"#utility.yul\":1484:1513   */\n      tag_49\n      jump\t// in\n    tag_84:\n        /* \"#utility.yul\":1479:1482   */\n      dup5\n        /* \"#utility.yul\":1475:1514   */\n      add\n        /* \"#utility.yul\":1468:1514   */\n      swap2\n      pop\n        /* \"#utility.yul\":1258:1520   */\n      pop\n        /* \"#utility.yul\":1176:1520   */\n      swap3\n      swap2\n      pop\n      pop\n      jump\t// out\n        /* \"#utility.yul\":1526:1722   */\n    tag_51:\n        /* \"#utility.yul\":1615:1625   */\n      0x00\n        /* \"#utility.yul\":1650:1716   */\n      tag_86\n        /* \"#utility.yul\":1712:1715   */\n      dup4\n        /* \"#utility.yul\":1704:1710   */\n      dup4\n        /* \"#utility.yul\":1650:1716   */\n      tag_50\n      jump\t// in\n    tag_86:\n        /* \"#utility.yul\":1636:1716   */\n      swap1\n      pop\n        /* \"#utility.yul\":1526:1722   */\n      swap3\n      swap2\n      pop\n      pop\n      jump\t// out\n        /* \"#utility.yul\":1728:1851   */\n    tag_52:\n        /* \"#utility.yul\":1808:1812   */\n      0x00\n        /* \"#utility.yul\":1840:1844   */\n      0x20\n        /* \"#utility.yul\":1835:1838   */\n      dup3\n        /* \"#utility.yul\":1831:1845   */\n      add\n        /* \"#utility.yul\":1823:1845   */\n      swap1\n      pop\n        /* \"#utility.yul\":1728:1851   */\n      swap2\n      swap1\n      pop\n      jump\t// out\n        /* \"#utility.yul\":1885:2876   */\n    tag_53:\n        /* \"#utility.yul\":2024:2027   */\n      0x00\n        /* \"#utility.yul\":2053:2117   */\n      tag_89\n        /* \"#utility.yul\":2111:2116   */\n      dup3\n        /* \"#utility.yul\":2053:2117   */\n      tag_43\n      jump\t// in\n    tag_89:\n        /* \"#utility.yul\":2133:2229   */\n      tag_90\n        /* \"#utility.yul\":2222:2228   */\n      dup2\n        /* \"#utility.yul\":2217:2220   */\n      dup6\n        /* \"#utility.yul\":2133:2229   */\n      tag_44\n      jump\t// in\n    tag_90:\n        /* \"#utility.yul\":2126:2229   */\n      swap4\n      pop\n        /* \"#utility.yul\":2255:2258   */\n      dup4\n        /* \"#utility.yul\":2300:2304   */\n      0x20\n        /* \"#utility.yul\":2292:2298   */\n      dup3\n        /* \"#utility.yul\":2288:2305   */\n      mul\n        /* \"#utility.yul\":2283:2286   */\n      dup6\n        /* \"#utility.yul\":2279:2306   */\n      add\n        /* \"#utility.yul\":2330:2396   */\n      tag_91\n        /* \"#utility.yul\":2390:2395   */\n      dup6\n        /* \"#utility.yul\":2330:2396   */\n      tag_45\n      jump\t// in\n    tag_91:\n        /* \"#utility.yul\":2419:2426   */\n      dup1\n        /* \"#utility.yul\":2450:2451   */\n      0x00\n        /* \"#utility.yul\":2435:2831   */\n    tag_92:\n        /* \"#utility.yul\":2460:2466   */\n      dup6\n        /* \"#utility.yul\":2457:2458   */\n      dup2\n        /* \"#utility.yul\":2454:2467   */\n      lt\n        /* \"#utility.yul\":2435:2831   */\n      iszero\n      tag_94\n      jumpi\n        /* \"#utility.yul\":2531:2540   */\n      dup5\n        /* \"#utility.yul\":2525:2529   */\n      dup5\n        /* \"#utility.yul\":2521:2541   */\n      sub\n        /* \"#utility.yul\":2516:2519   */\n      dup10\n        /* \"#utility.yul\":2509:2542   */\n      mstore\n        /* \"#utility.yul\":2582:2588   */\n      dup2\n        /* \"#utility.yul\":2576:2589   */\n      mload\n        /* \"#utility.yul\":2610:2694   */\n      tag_95\n        /* \"#utility.yul\":2689:2693   */\n      dup6\n        /* \"#utility.yul\":2674:2687   */\n      dup3\n        /* \"#utility.yul\":2610:2694   */\n      tag_51\n      jump\t// in\n    tag_95:\n        /* \"#utility.yul\":2602:2694   */\n      swap5\n      pop\n        /* \"#utility.yul\":2717:2787   */\n      tag_96\n        /* \"#utility.yul\":2780:2786   */\n      dup4\n        /* \"#utility.yul\":2717:2787   */\n      tag_52\n      jump\t// in\n    tag_96:\n        /* \"#utility.yul\":2707:2787   */\n      swap3\n      pop\n        /* \"#utility.yul\":2816:2820   */\n      0x20\n        /* \"#utility.yul\":2811:2814   */\n      dup11\n        /* \"#utility.yul\":2807:2821   */\n      add\n        /* \"#utility.yul\":2800:2821   */\n      swap10\n      pop\n        /* \"#utility.yul\":2495:2831   */\n      pop\n        /* \"#utility.yul\":2482:2483   */\n      0x01\n        /* \"#utility.yul\":2479:2480   */\n      dup2\n        /* \"#utility.yul\":2475:2484   */\n      add\n        /* \"#utility.yul\":2470:2484   */\n      swap1\n      pop\n        /* \"#utility.yul\":2435:2831   */\n      jump(tag_92)\n    tag_94:\n        /* \"#utility.yul\":2439:2453   */\n      pop\n        /* \"#utility.yul\":2847:2851   */\n      dup3\n        /* \"#utility.yul\":2840:2851   */\n      swap8\n      pop\n        /* \"#utility.yul\":2867:2870   */\n      dup8\n        /* \"#utility.yul\":2860:2870   */\n      swap6\n      pop\n        /* \"#utility.yul\":2029:2876   */\n      pop\n      pop\n      pop\n      pop\n      pop\n        /* \"#utility.yul\":1885:2876   */\n      swap3\n      swap2\n      pop\n      pop\n      jump\t// out\n        /* \"#utility.yul\":2882:3295   */\n    tag_9:\n        /* \"#utility.yul\":3045:3049   */\n      0x00\n        /* \"#utility.yul\":3083:3085   */\n      0x20\n        /* \"#utility.yul\":3072:3081   */\n      dup3\n        /* \"#utility.yul\":3068:3086   */\n      add\n        /* \"#utility.yul\":3060:3086   */\n      swap1\n      pop\n        /* \"#utility.yul\":3132:3141   */\n      dup2\n        /* \"#utility.yul\":3126:3130   */\n      dup2\n        /* \"#utility.yul\":3122:3142   */\n      sub\n        /* \"#utility.yul\":3118:3119   */\n      0x00\n        /* \"#utility.yul\":3107:3116   */\n      dup4\n        /* \"#utility.yul\":3103:3120   */\n      add\n        /* \"#utility.yul\":3096:3143   */\n      mstore\n        /* \"#utility.yul\":3160:3288   */\n      tag_98\n        /* \"#utility.yul\":3283:3287   */\n      dup2\n        /* \"#utility.yul\":3274:3280   */\n      dup5\n        /* \"#utility.yul\":3160:3288   */\n      tag_53\n      jump\t// in\n    tag_98:\n        /* \"#utility.yul\":3152:3288   */\n      swap1\n      pop\n        /* \"#utility.yul\":2882:3295   */\n      swap3\n      swap2\n      pop\n      pop\n      jump\t// out\n        /* \"#utility.yul\":3301:3378   */\n    tag_54:\n        /* \"#utility.yul\":3338:3345   */\n      0x00\n        /* \"#utility.yul\":3367:3372   */\n      dup2\n        /* \"#utility.yul\":3356:3372   */\n      swap1\n      pop\n        /* \"#utility.yul\":3301:3378   */\n      swap2\n      swap1\n      pop\n      jump\t// out\n        /* \"#utility.yul\":3384:3502   */\n    tag_55:\n        /* \"#utility.yul\":3471:3495   */\n      tag_101\n        /* \"#utility.yul\":3489:3494   */\n      dup2\n        /* \"#utility.yul\":3471:3495   */\n      tag_54\n      jump\t// in\n    tag_101:\n        /* \"#utility.yul\":3466:3469   */\n      dup3\n        /* \"#utility.yul\":3459:3496   */\n      mstore\n        /* \"#utility.yul\":3384:3502   */\n      pop\n      pop\n      jump\t// out\n        /* \"#utility.yul\":3508:3730   */\n    tag_13:\n        /* \"#utility.yul\":3601:3605   */\n      0x00\n        /* \"#utility.yul\":3639:3641   */\n      0x20\n        /* \"#utility.yul\":3628:3637   */\n      dup3\n        /* \"#utility.yul\":3624:3642   */\n      add\n        /* \"#utility.yul\":3616:3642   */\n      swap1\n      pop\n        /* \"#utility.yul\":3652:3723   */\n      tag_103\n        /* \"#utility.yul\":3720:3721   */\n      0x00\n        /* \"#utility.yul\":3709:3718   */\n      dup4\n        /* \"#utility.yul\":3705:3722   */\n      add\n        /* \"#utility.yul\":3696:3702   */\n      dup5\n        /* \"#utility.yul\":3652:3723   */\n      tag_55\n      jump\t// in\n    tag_103:\n        /* \"#utility.yul\":3508:3730   */\n      swap3\n      swap2\n      pop\n      pop\n      jump\t// out\n        /* \"#utility.yul\":3736:3811   */\n    tag_56:\n        /* \"#utility.yul\":3769:3775   */\n      0x00\n        /* \"#utility.yul\":3802:3804   */\n      0x40\n        /* \"#utility.yul\":3796:3805   */\n      mload\n        /* \"#utility.yul\":3786:3805   */\n      swap1\n      pop\n        /* \"#utility.yul\":3736:3811   */\n      swap1\n      jump\t// out\n        /* \"#utility.yul\":3817:3934   */\n    tag_57:\n        /* \"#utility.yul\":3926:3927   */\n      0x00\n        /* \"#utility.yul\":3923:3924   */\n      dup1\n        /* \"#utility.yul\":3916:3928   */\n      revert\n        /* \"#utility.yul\":3940:4057   */\n    tag_58:\n        /* \"#utility.yul\":4049:4050   */\n      0x00\n        /* \"#utility.yul\":4046:4047   */\n      dup1\n        /* \"#utility.yul\":4039:4051   */\n      revert\n        /* \"#utility.yul\":4063:4180   */\n    tag_59:\n        /* \"#utility.yul\":4172:4173   */\n      0x00\n        /* \"#utility.yul\":4169:4170   */\n      dup1\n        /* \"#utility.yul\":4162:4174   */\n      revert\n        /* \"#utility.yul\":4186:4303   */\n    tag_60:\n        /* \"#utility.yul\":4295:4296   */\n      0x00\n        /* \"#utility.yul\":4292:4293   */\n      dup1\n        /* \"#utility.yul\":4285:4297   */\n      revert\n        /* \"#utility.yul\":4309:4489   */\n    tag_21:\n        /* \"#utility.yul\":4357:4434   */\n      0x4e487b7100000000000000000000000000000000000000000000000000000000\n        /* \"#utility.yul\":4354:4355   */\n      0x00\n        /* \"#utility.yul\":4347:4435   */\n      mstore\n        /* \"#utility.yul\":4454:4458   */\n      0x41\n        /* \"#utility.yul\":4451:4452   */\n      0x04\n        /* \"#utility.yul\":4444:4459   */\n      mstore\n        /* \"#utility.yul\":4478:4482   */\n      0x24\n        /* \"#utility.yul\":4475:4476   */\n      0x00\n        /* \"#utility.yul\":4468:4483   */\n      revert\n        /* \"#utility.yul\":4495:4776   */\n    tag_61:\n        /* \"#utility.yul\":4578:4605   */\n      tag_111\n        /* \"#utility.yul\":4600:4604   */\n      dup3\n        /* \"#utility.yul\":4578:4605   */\n      tag_49\n      jump\t// in\n    tag_111:\n        /* \"#utility.yul\":4570:4576   */\n      dup2\n        /* \"#utility.yul\":4566:4606   */\n      add\n        /* \"#utility.yul\":4708:4714   */\n      dup2\n        /* \"#utility.yul\":4696:4706   */\n      dup2\n        /* \"#utility.yul\":4693:4715   */\n      lt\n        /* \"#utility.yul\":4672:4690   */\n      0xffffffffffffffff\n        /* \"#utility.yul\":4660:4670   */\n      dup3\n        /* \"#utility.yul\":4657:4691   */\n      gt\n        /* \"#utility.yul\":4654:4716   */\n      or\n        /* \"#utility.yul\":4651:4739   */\n      iszero\n      tag_112\n      jumpi\n        /* \"#utility.yul\":4719:4737   */\n      tag_113\n      tag_21\n      jump\t// in\n    tag_113:\n        /* \"#utility.yul\":4651:4739   */\n    tag_112:\n        /* \"#utility.yul\":4759:4769   */\n      dup1\n        /* \"#utility.yul\":4755:4757   */\n      0x40\n        /* \"#utility.yul\":4748:4770   */\n      mstore\n        /* \"#utility.yul\":4538:4776   */\n      pop\n        /* \"#utility.yul\":4495:4776   */\n      pop\n      pop\n      jump\t// out\n        /* \"#utility.yul\":4782:4911   */\n    tag_62:\n        /* \"#utility.yul\":4816:4822   */\n      0x00\n        /* \"#utility.yul\":4843:4863   */\n      tag_115\n      tag_56\n      jump\t// in\n    tag_115:\n        /* \"#utility.yul\":4833:4863   */\n      swap1\n      pop\n        /* \"#utility.yul\":4872:4905   */\n      tag_116\n        /* \"#utility.yul\":4900:4904   */\n      dup3\n        /* \"#utility.yul\":4892:4898   */\n      dup3\n        /* \"#utility.yul\":4872:4905   */\n      tag_61\n      jump\t// in\n    tag_116:\n        /* \"#utility.yul\":4782:4911   */\n      swap2\n      swap1\n      pop\n      jump\t// out\n        /* \"#utility.yul\":4917:5225   */\n    tag_63:\n        /* \"#utility.yul\":4979:4983   */\n      0x00\n        /* \"#utility.yul\":5069:5087   */\n      0xffffffffffffffff\n        /* \"#utility.yul\":5061:5067   */\n      dup3\n        /* \"#utility.yul\":5058:5088   */\n      gt\n        /* \"#utility.yul\":5055:5111   */\n      iszero\n      tag_118\n      jumpi\n        /* \"#utility.yul\":5091:5109   */\n      tag_119\n      tag_21\n      jump\t// in\n    tag_119:\n        /* \"#utility.yul\":5055:5111   */\n    tag_118:\n        /* \"#utility.yul\":5129:5158   */\n      tag_120\n        /* \"#utility.yul\":5151:5157   */\n      dup3\n        /* \"#utility.yul\":5129:5158   */\n      tag_49\n      jump\t// in\n    tag_120:\n        /* \"#utility.yul\":5121:5158   */\n      swap1\n      pop\n        /* \"#utility.yul\":5213:5217   */\n      0x20\n        /* \"#utility.yul\":5207:5211   */\n      dup2\n        /* \"#utility.yul\":5203:5218   */\n      add\n        /* \"#utility.yul\":5195:5218   */\n      swap1\n      pop\n        /* \"#utility.yul\":4917:5225   */\n      swap2\n      swap1\n      pop\n      jump\t// out\n        /* \"#utility.yul\":5231:5385   */\n    tag_64:\n        /* \"#utility.yul\":5315:5321   */\n      dup3\n        /* \"#utility.yul\":5310:5313   */\n      dup2\n        /* \"#utility.yul\":5305:5308   */\n      dup4\n        /* \"#utility.yul\":5292:5322   */\n      calldatacopy\n        /* \"#utility.yul\":5377:5378   */\n      0x00\n        /* \"#utility.yul\":5368:5374   */\n      dup4\n        /* \"#utility.yul\":5363:5366   */\n      dup4\n        /* \"#utility.yul\":5359:5375   */\n      add\n        /* \"#utility.yul\":5352:5379   */\n      mstore\n        /* \"#utility.yul\":5231:5385   */\n      pop\n      pop\n      pop\n      jump\t// out\n        /* \"#utility.yul\":5391:5803   */\n    tag_65:\n        /* \"#utility.yul\":5469:5474   */\n      0x00\n        /* \"#utility.yul\":5494:5560   */\n      tag_123\n        /* \"#utility.yul\":5510:5559   */\n      tag_124\n        /* \"#utility.yul\":5552:5558   */\n      dup5\n        /* \"#utility.yul\":5510:5559   */\n      tag_63\n      jump\t// in\n    tag_124:\n        /* \"#utility.yul\":5494:5560   */\n      tag_62\n      jump\t// in\n    tag_123:\n        /* \"#utility.yul\":5485:5560   */\n      swap1\n      pop\n        /* \"#utility.yul\":5583:5589   */\n      dup3\n        /* \"#utility.yul\":5576:5581   */\n      dup2\n        /* \"#utility.yul\":5569:5590   */\n      mstore\n        /* \"#utility.yul\":5621:5625   */\n      0x20\n        /* \"#utility.yul\":5614:5619   */\n      dup2\n        /* \"#utility.yul\":5610:5626   */\n      add\n        /* \"#utility.yul\":5659:5662   */\n      dup5\n        /* \"#utility.yul\":5650:5656   */\n      dup5\n        /* \"#utility.yul\":5645:5648   */\n      dup5\n        /* \"#utility.yul\":5641:5657   */\n      add\n        /* \"#utility.yul\":5638:5663   */\n      gt\n        /* \"#utility.yul\":5635:5747   */\n      iszero\n      tag_125\n      jumpi\n        /* \"#utility.yul\":5666:5745   */\n      tag_126\n      tag_60\n      jump\t// in\n    tag_126:\n        /* \"#utility.yul\":5635:5747   */\n    tag_125:\n        /* \"#utility.yul\":5756:5797   */\n      tag_127\n        /* \"#utility.yul\":5790:5796   */\n      dup5\n        /* \"#utility.yul\":5785:5788   */\n      dup3\n        /* \"#utility.yul\":5780:5783   */\n      dup6\n        /* \"#utility.yul\":5756:5797   */\n      tag_64\n      jump\t// in\n    tag_127:\n        /* \"#utility.yul\":5475:5803   */\n      pop\n        /* \"#utility.yul\":5391:5803   */\n      swap4\n      swap3\n      pop\n      pop\n      pop\n      jump\t// out\n        /* \"#utility.yul\":5823:6163   */\n    tag_66:\n        /* \"#utility.yul\":5879:5884   */\n      0x00\n        /* \"#utility.yul\":5928:5931   */\n      dup3\n        /* \"#utility.yul\":5921:5925   */\n      0x1f\n        /* \"#utility.yul\":5913:5919   */\n      dup4\n        /* \"#utility.yul\":5909:5926   */\n      add\n        /* \"#utility.yul\":5905:5932   */\n      slt\n        /* \"#utility.yul\":5895:6017   */\n      tag_129\n      jumpi\n        /* \"#utility.yul\":5936:6015   */\n      tag_130\n      tag_59\n      jump\t// in\n    tag_130:\n        /* \"#utility.yul\":5895:6017   */\n    tag_129:\n        /* \"#utility.yul\":6053:6059   */\n      dup2\n        /* \"#utility.yul\":6040:6060   */\n      calldataload\n        /* \"#utility.yul\":6078:6157   */\n      tag_131\n        /* \"#utility.yul\":6153:6156   */\n      dup5\n        /* \"#utility.yul\":6145:6151   */\n      dup3\n        /* \"#utility.yul\":6138:6142   */\n      0x20\n        /* \"#utility.yul\":6130:6136   */\n      dup7\n        /* \"#utility.yul\":6126:6143   */\n      add\n        /* \"#utility.yul\":6078:6157   */\n      tag_65\n      jump\t// in\n    tag_131:\n        /* \"#utility.yul\":6069:6157   */\n      swap2\n      pop\n        /* \"#utility.yul\":5885:6163   */\n      pop\n        /* \"#utility.yul\":5823:6163   */\n      swap3\n      swap2\n      pop\n      pop\n      jump\t// out\n        /* \"#utility.yul\":6169:6678   */\n    tag_16:\n        /* \"#utility.yul\":6238:6244   */\n      0x00\n        /* \"#utility.yul\":6287:6289   */\n      0x20\n        /* \"#utility.yul\":6275:6284   */\n      dup3\n        /* \"#utility.yul\":6266:6273   */\n      dup5\n        /* \"#utility.yul\":6262:6285   */\n      sub\n        /* \"#utility.yul\":6258:6290   */\n      slt\n        /* \"#utility.yul\":6255:6374   */\n      iszero\n      tag_133\n      jumpi\n        /* \"#utility.yul\":6293:6372   */\n      tag_134\n      tag_57\n      jump\t// in\n    tag_134:\n        /* \"#utility.yul\":6255:6374   */\n    tag_133:\n        /* \"#utility.yul\":6441:6442   */\n      0x00\n        /* \"#utility.yul\":6430:6439   */\n      dup3\n        /* \"#utility.yul\":6426:6443   */\n      add\n        /* \"#utility.yul\":6413:6444   */\n      calldataload\n        /* \"#utility.yul\":6471:6489   */\n      0xffffffffffffffff\n        /* \"#utility.yul\":6463:6469   */\n      dup2\n        /* \"#utility.yul\":6460:6490   */\n      gt\n        /* \"#utility.yul\":6457:6574   */\n      iszero\n      tag_135\n      jumpi\n        /* \"#utility.yul\":6493:6572   */\n      tag_136\n      tag_58\n      jump\t// in\n    tag_136:\n        /* \"#utility.yul\":6457:6574   */\n    tag_135:\n        /* \"#utility.yul\":6598:6661   */\n      tag_137\n        /* \"#utility.yul\":6653:6660   */\n      dup5\n        /* \"#utility.yul\":6644:6650   */\n      dup3\n        /* \"#utility.yul\":6633:6642   */\n      dup6\n        /* \"#utility.yul\":6629:6651   */\n      add\n        /* \"#utility.yul\":6598:6661   */\n      tag_66\n      jump\t// in\n    tag_137:\n        /* \"#utility.yul\":6588:6661   */\n      swap2\n      pop\n        /* \"#utility.yul\":6384:6671   */\n      pop\n        /* \"#utility.yul\":6169:6678   */\n      swap3\n      swap2\n      pop\n      pop\n      jump\t// out\n        /* \"#utility.yul\":6684:6864   */\n    tag_28:\n        /* \"#utility.yul\":6732:6809   */\n      0x4e487b7100000000000000000000000000000000000000000000000000000000\n        /* \"#utility.yul\":6729:6730   */\n      0x00\n        /* \"#utility.yul\":6722:6810   */\n      mstore\n        /* \"#utility.yul\":6829:6833   */\n      0x32\n        /* \"#utility.yul\":6826:6827   */\n      0x04\n        /* \"#utility.yul\":6819:6834   */\n      mstore\n        /* \"#utility.yul\":6853:6857   */\n      0x24\n        /* \"#utility.yul\":6850:6851   */\n      0x00\n        /* \"#utility.yul\":6843:6858   */\n      revert\n        /* \"#utility.yul\":6870:7050   */\n    tag_67:\n        /* \"#utility.yul\":6918:6995   */\n      0x4e487b7100000000000000000000000000000000000000000000000000000000\n        /* \"#utility.yul\":6915:6916   */\n      0x00\n        /* \"#utility.yul\":6908:6996   */\n      mstore\n        /* \"#utility.yul\":7015:7019   */\n      0x22\n        /* \"#utility.yul\":7012:7013   */\n      0x04\n        /* \"#utility.yul\":7005:7020   */\n      mstore\n        /* \"#utility.yul\":7039:7043   */\n      0x24\n        /* \"#utility.yul\":7036:7037   */\n      0x00\n        /* \"#utility.yul\":7029:7044   */\n      revert\n        /* \"#utility.yul\":7056:7376   */\n    tag_33:\n        /* \"#utility.yul\":7100:7106   */\n      0x00\n        /* \"#utility.yul\":7137:7138   */\n      0x02\n        /* \"#utility.yul\":7131:7135   */\n      dup3\n        /* \"#utility.yul\":7127:7139   */\n      div\n        /* \"#utility.yul\":7117:7139   */\n      swap1\n      pop\n        /* \"#utility.yul\":7184:7185   */\n      0x01\n        /* \"#utility.yul\":7178:7182   */\n      dup3\n        /* \"#utility.yul\":7174:7186   */\n      and\n        /* \"#utility.yul\":7205:7223   */\n      dup1\n        /* \"#utility.yul\":7195:7276   */\n      tag_141\n      jumpi\n        /* \"#utility.yul\":7261:7265   */\n      0x7f\n        /* \"#utility.yul\":7253:7259   */\n      dup3\n        /* \"#utility.yul\":7249:7266   */\n      and\n        /* \"#utility.yul\":7239:7266   */\n      swap2\n      pop\n        /* \"#utility.yul\":7195:7276   */\n    tag_141:\n        /* \"#utility.yul\":7323:7325   */\n      0x20\n        /* \"#utility.yul\":7315:7321   */\n      dup3\n        /* \"#utility.yul\":7312:7326   */\n      lt\n        /* \"#utility.yul\":7292:7310   */\n      dup2\n        /* \"#utility.yul\":7289:7327   */\n      sub\n        /* \"#utility.yul\":7286:7370   */\n      tag_142\n      jumpi\n        /* \"#utility.yul\":7342:7360   */\n      tag_143\n      tag_67\n      jump\t// in\n    tag_143:\n        /* \"#utility.yul\":7286:7370   */\n    tag_142:\n        /* \"#utility.yul\":7107:7376   */\n      pop\n        /* \"#utility.yul\":7056:7376   */\n      swap2\n      swap1\n      pop\n      jump\t// out\n\n    auxdata: 0xa2646970667358221220d80cba69bc651f2fc2e0fb2f1ae416a489acceec264a5ace6952c9bcf86c6a0864736f6c634300080d0033\n}\n",
				"bytecode": {
					"linkReferences": {},
					"object": "60806040523480156200001157600080fd5b506040516200098f3803806200098f8339818101604052810190620000379190620002ba565b80600080600381106200004f576200004e6200030b565b5b019080519060200190620000659291906200006d565b50506200039e565b8280546200007b9062000369565b90600052602060002090601f0160209004810192826200009f5760008555620000eb565b82601f10620000ba57805160ff1916838001178555620000eb565b82800160010185558215620000eb579182015b82811115620000ea578251825591602001919060010190620000cd565b5b509050620000fa9190620000fe565b5090565b5b8082111562000119576000816000905550600101620000ff565b5090565b6000604051905090565b600080fd5b600080fd5b600080fd5b600080fd5b6000601f19601f8301169050919050565b7f4e487b7100000000000000000000000000000000000000000000000000000000600052604160045260246000fd5b62000186826200013b565b810181811067ffffffffffffffff82111715620001a857620001a76200014c565b5b80604052505050565b6000620001bd6200011d565b9050620001cb82826200017b565b919050565b600067ffffffffffffffff821115620001ee57620001ed6200014c565b5b620001f9826200013b565b9050602081019050919050565b60005b838110156200022657808201518184015260208101905062000209565b8381111562000236576000848401525b50505050565b6000620002536200024d84620001d0565b620001b1565b90508281526020810184848401111562000272576200027162000136565b5b6200027f84828562000206565b509392505050565b600082601f8301126200029f576200029e62000131565b5b8151620002b18482602086016200023c565b91505092915050565b600060208284031215620002d357620002d262000127565b5b600082015167ffffffffffffffff811115620002f457620002f36200012c565b5b620003028482850162000287565b91505092915050565b7f4e487b7100000000000000000000000000000000000000000000000000000000600052603260045260246000fd5b7f4e487b7100000000000000000000000000000000000000000000000000000000600052602260045260246000fd5b600060028204905060018216806200038257607f821691505b6020821081036200039857620003976200033a565b5b50919050565b6105e180620003ae6000396000f3fe608060405234801561001057600080fd5b50600436106100415760003560e01c80639965316114610046578063c7f43ec114610064578063f025b8fa14610082575b600080fd5b61004e61009e565b60405161005b9190610334565b60405180910390f35b61006c610100565b604051610079919061036f565b60405180910390f35b61009c600480360381019061009791906104d3565b610109565b005b606060006003905060008167ffffffffffffffff8111156100c2576100c16103a8565b5b6040519080825280602002602001820160405280156100f557816020015b60608152602001906001900390816100e05790505b509050809250505090565b60006003905090565b806000600380811061011e5761011d61051c565b5b019080519060200190610132929190610136565b5050565b8280546101429061057a565b90600052602060002090601f01602090048101928261016457600085556101ab565b82601f1061017d57805160ff19168380011785556101ab565b828001600101855582156101ab579182015b828111156101aa57825182559160200191906001019061018f565b5b5090506101b891906101bc565b5090565b5b808211156101d55760008160009055506001016101bd565b5090565b600081519050919050565b600082825260208201905092915050565b6000819050602082019050919050565b600081519050919050565b600082825260208201905092915050565b60005b8381101561023f578082015181840152602081019050610224565b8381111561024e576000848401525b50505050565b6000601f19601f8301169050919050565b600061027082610205565b61027a8185610210565b935061028a818560208601610221565b61029381610254565b840191505092915050565b60006102aa8383610265565b905092915050565b6000602082019050919050565b60006102ca826101d9565b6102d481856101e4565b9350836020820285016102e6856101f5565b8060005b858110156103225784840389528151610303858261029e565b945061030e836102b2565b925060208a019950506001810190506102ea565b50829750879550505050505092915050565b6000602082019050818103600083015261034e81846102bf565b905092915050565b6000819050919050565b61036981610356565b82525050565b60006020820190506103846000830184610360565b92915050565b6000604051905090565b600080fd5b600080fd5b600080fd5b600080fd5b7f4e487b7100000000000000000000000000000000000000000000000000000000600052604160045260246000fd5b6103e082610254565b810181811067ffffffffffffffff821117156103ff576103fe6103a8565b5b80604052505050565b600061041261038a565b905061041e82826103d7565b919050565b600067ffffffffffffffff82111561043e5761043d6103a8565b5b61044782610254565b9050602081019050919050565b82818337600083830152505050565b600061047661047184610423565b610408565b905082815260208101848484011115610492576104916103a3565b5b61049d848285610454565b509392505050565b600082601f8301126104ba576104b961039e565b5b81356104ca848260208601610463565b91505092915050565b6000602082840312156104e9576104e8610394565b5b600082013567ffffffffffffffff81111561050757610506610399565b5b610513848285016104a5565b91505092915050565b7f4e487b7100000000000000000000000000000000000000000000000000000000600052603260045260246000fd5b7f4e487b7100000000000000000000000000000000000000000000000000000000600052602260045260246000fd5b6000600282049050600182168061059257607f821691505b6020821081036105a5576105a461054b565b5b5091905056fea2646970667358221220d80cba69bc651f2fc2e0fb2f1ae416a489acceec264a5ace6952c9bcf86c6a0864736f6c634300080d0033",
					"opcodes": "PUSH1 0x80 PUSH1 0x40 MSTORE CALLVALUE DUP1 ISZERO PUSH3 0x11 JUMPI PUSH1 0x0 DUP1 REVERT JUMPDEST POP PUSH1 0x40 MLOAD PUSH3 0x98F CODESIZE SUB DUP1 PUSH3 0x98F DUP4 CODECOPY DUP2 DUP2 ADD PUSH1 0x40 MSTORE DUP2 ADD SWAP1 PUSH3 0x37 SWAP2 SWAP1 PUSH3 0x2BA JUMP JUMPDEST DUP1 PUSH1 0x0 DUP1 PUSH1 0x3 DUP2 LT PUSH3 0x4F JUMPI PUSH3 0x4E PUSH3 0x30B JUMP JUMPDEST JUMPDEST ADD SWAP1 DUP1 MLOAD SWAP1 PUSH1 0x20 ADD SWAP1 PUSH3 0x65 SWAP3 SWAP2 SWAP1 PUSH3 0x6D JUMP JUMPDEST POP POP PUSH3 0x39E JUMP JUMPDEST DUP3 DUP1 SLOAD PUSH3 0x7B SWAP1 PUSH3 0x369 JUMP JUMPDEST SWAP1 PUSH1 0x0 MSTORE PUSH1 0x20 PUSH1 0x0 KECCAK256 SWAP1 PUSH1 0x1F ADD PUSH1 0x20 SWAP1 DIV DUP2 ADD SWAP3 DUP3 PUSH3 0x9F JUMPI PUSH1 0x0 DUP6 SSTORE PUSH3 0xEB JUMP JUMPDEST DUP3 PUSH1 0x1F LT PUSH3 0xBA JUMPI DUP1 MLOAD PUSH1 0xFF NOT AND DUP4 DUP1 ADD OR DUP6 SSTORE PUSH3 0xEB JUMP JUMPDEST DUP3 DUP1 ADD PUSH1 0x1 ADD DUP6 SSTORE DUP3 ISZERO PUSH3 0xEB JUMPI SWAP2 DUP3 ADD JUMPDEST DUP3 DUP2 GT ISZERO PUSH3 0xEA JUMPI DUP3 MLOAD DUP3 SSTORE SWAP2 PUSH1 0x20 ADD SWAP2 SWAP1 PUSH1 0x1 ADD SWAP1 PUSH3 0xCD JUMP JUMPDEST JUMPDEST POP SWAP1 POP PUSH3 0xFA SWAP2 SWAP1 PUSH3 0xFE JUMP JUMPDEST POP SWAP1 JUMP JUMPDEST JUMPDEST DUP1 DUP3 GT ISZERO PUSH3 0x119 JUMPI PUSH1 0x0 DUP2 PUSH1 0x0 SWAP1 SSTORE POP PUSH1 0x1 ADD PUSH3 0xFF JUMP JUMPDEST POP SWAP1 JUMP JUMPDEST PUSH1 0x0 PUSH1 0x40 MLOAD SWAP1 POP SWAP1 JUMP JUMPDEST PUSH1 0x0 DUP1 REVERT JUMPDEST PUSH1 0x0 DUP1 REVERT JUMPDEST PUSH1 0x0 DUP1 REVERT JUMPDEST PUSH1 0x0 DUP1 REVERT JUMPDEST PUSH1 0x0 PUSH1 0x1F NOT PUSH1 0x1F DUP4 ADD AND SWAP1 POP SWAP2 SWAP1 POP JUMP JUMPDEST PUSH32 0x4E487B7100000000000000000000000000000000000000000000000000000000 PUSH1 0x0 MSTORE PUSH1 0x41 PUSH1 0x4 MSTORE PUSH1 0x24 PUSH1 0x0 REVERT JUMPDEST PUSH3 0x186 DUP3 PUSH3 0x13B JUMP JUMPDEST DUP2 ADD DUP2 DUP2 LT PUSH8 0xFFFFFFFFFFFFFFFF DUP3 GT OR ISZERO PUSH3 0x1A8 JUMPI PUSH3 0x1A7 PUSH3 0x14C JUMP JUMPDEST JUMPDEST DUP1 PUSH1 0x40 MSTORE POP POP POP JUMP JUMPDEST PUSH1 0x0 PUSH3 0x1BD PUSH3 0x11D JUMP JUMPDEST SWAP1 POP PUSH3 0x1CB DUP3 DUP3 PUSH3 0x17B JUMP JUMPDEST SWAP2 SWAP1 POP JUMP JUMPDEST PUSH1 0x0 PUSH8 0xFFFFFFFFFFFFFFFF DUP3 GT ISZERO PUSH3 0x1EE JUMPI PUSH3 0x1ED PUSH3 0x14C JUMP JUMPDEST JUMPDEST PUSH3 0x1F9 DUP3 PUSH3 0x13B JUMP JUMPDEST SWAP1 POP PUSH1 0x20 DUP2 ADD SWAP1 POP SWAP2 SWAP1 POP JUMP JUMPDEST PUSH1 0x0 JUMPDEST DUP4 DUP2 LT ISZERO PUSH3 0x226 JUMPI DUP1 DUP3 ADD MLOAD DUP2 DUP5 ADD MSTORE PUSH1 0x20 DUP2 ADD SWAP1 POP PUSH3 0x209 JUMP JUMPDEST DUP4 DUP2 GT ISZERO PUSH3 0x236 JUMPI PUSH1 0x0 DUP5 DUP5 ADD MSTORE JUMPDEST POP POP POP POP JUMP JUMPDEST PUSH1 0x0 PUSH3 0x253 PUSH3 0x24D DUP5 PUSH3 0x1D0 JUMP JUMPDEST PUSH3 0x1B1 JUMP JUMPDEST SWAP1 POP DUP3 DUP2 MSTORE PUSH1 0x20 DUP2 ADD DUP5 DUP5 DUP5 ADD GT ISZERO PUSH3 0x272 JUMPI PUSH3 0x271 PUSH3 0x136 JUMP JUMPDEST JUMPDEST PUSH3 0x27F DUP5 DUP3 DUP6 PUSH3 0x206 JUMP JUMPDEST POP SWAP4 SWAP3 POP POP POP JUMP JUMPDEST PUSH1 0x0 DUP3 PUSH1 0x1F DUP4 ADD SLT PUSH3 0x29F JUMPI PUSH3 0x29E PUSH3 0x131 JUMP JUMPDEST JUMPDEST DUP2 MLOAD PUSH3 0x2B1 DUP5 DUP3 PUSH1 0x20 DUP7 ADD PUSH3 0x23C JUMP JUMPDEST SWAP2 POP POP SWAP3 SWAP2 POP POP JUMP JUMPDEST PUSH1 0x0 PUSH1 0x20 DUP3 DUP5 SUB SLT ISZERO PUSH3 0x2D3 JUMPI PUSH3 0x2D2 PUSH3 0x127 JUMP JUMPDEST JUMPDEST PUSH1 0x0 DUP3 ADD MLOAD PUSH8 0xFFFFFFFFFFFFFFFF DUP2 GT ISZERO PUSH3 0x2F4 JUMPI PUSH3 0x2F3 PUSH3 0x12C JUMP JUMPDEST JUMPDEST PUSH3 0x302 DUP5 DUP3 DUP6 ADD PUSH3 0x287 JUMP JUMPDEST SWAP2 POP POP SWAP3 SWAP2 POP POP JUMP JUMPDEST PUSH32 0x4E487B7100000000000000000000000000000000000000000000000000000000 PUSH1 0x0 MSTORE PUSH1 0x32 PUSH1 0x4 MSTORE PUSH1 0x24 PUSH1 0x0 REVERT JUMPDEST PUSH32 0x4E487B7100000000000000000000000000000000000000000000000000000000 PUSH1 0x0 MSTORE PUSH1 0x22 PUSH1 0x4 MSTORE PUSH1 0x24 PUSH1 0x0 REVERT JUMPDEST PUSH1 0x0 PUSH1 0x2 DUP3 DIV SWAP1 POP PUSH1 0x1 DUP3 AND DUP1 PUSH3 0x382 JUMPI PUSH1 0x7F DUP3 AND SWAP2 POP JUMPDEST PUSH1 0x20 DUP3 LT DUP2 SUB PUSH3 0x398 JUMPI PUSH3 0x397 PUSH3 0x33A JUMP JUMPDEST JUMPDEST POP SWAP2 SWAP1 POP JUMP JUMPDEST PUSH2 0x5E1 DUP1 PUSH3 0x3AE PUSH1 0x0 CODECOPY PUSH1 0x0 RETURN INVALID PUSH1 0x80 PUSH1 0x40 MSTORE CALLVALUE DUP1 ISZERO PUSH2 0x10 JUMPI PUSH1 0x0 DUP1 REVERT JUMPDEST POP PUSH1 0x4 CALLDATASIZE LT PUSH2 0x41 JUMPI PUSH1 0x0 CALLDATALOAD PUSH1 0xE0 SHR DUP1 PUSH4 0x99653161 EQ PUSH2 0x46 JUMPI DUP1 PUSH4 0xC7F43EC1 EQ PUSH2 0x64 JUMPI DUP1 PUSH4 0xF025B8FA EQ PUSH2 0x82 JUMPI JUMPDEST PUSH1 0x0 DUP1 REVERT JUMPDEST PUSH2 0x4E PUSH2 0x9E JUMP JUMPDEST PUSH1 0x40 MLOAD PUSH2 0x5B SWAP2 SWAP1 PUSH2 0x334 JUMP JUMPDEST PUSH1 0x40 MLOAD DUP1 SWAP2 SUB SWAP1 RETURN JUMPDEST PUSH2 0x6C PUSH2 0x100 JUMP JUMPDEST PUSH1 0x40 MLOAD PUSH2 0x79 SWAP2 SWAP1 PUSH2 0x36F JUMP JUMPDEST PUSH1 0x40 MLOAD DUP1 SWAP2 SUB SWAP1 RETURN JUMPDEST PUSH2 0x9C PUSH1 0x4 DUP1 CALLDATASIZE SUB DUP2 ADD SWAP1 PUSH2 0x97 SWAP2 SWAP1 PUSH2 0x4D3 JUMP JUMPDEST PUSH2 0x109 JUMP JUMPDEST STOP JUMPDEST PUSH1 0x60 PUSH1 0x0 PUSH1 0x3 SWAP1 POP PUSH1 0x0 DUP2 PUSH8 0xFFFFFFFFFFFFFFFF DUP2 GT ISZERO PUSH2 0xC2 JUMPI PUSH2 0xC1 PUSH2 0x3A8 JUMP JUMPDEST JUMPDEST PUSH1 0x40 MLOAD SWAP1 DUP1 DUP3 MSTORE DUP1 PUSH1 0x20 MUL PUSH1 0x20 ADD DUP3 ADD PUSH1 0x40 MSTORE DUP1 ISZERO PUSH2 0xF5 JUMPI DUP2 PUSH1 0x20 ADD JUMPDEST PUSH1 0x60 DUP2 MSTORE PUSH1 0x20 ADD SWAP1 PUSH1 0x1 SWAP1 SUB SWAP1 DUP2 PUSH2 0xE0 JUMPI SWAP1 POP JUMPDEST POP SWAP1 POP DUP1 SWAP3 POP POP POP SWAP1 JUMP JUMPDEST PUSH1 0x0 PUSH1 0x3 SWAP1 POP SWAP1 JUMP JUMPDEST DUP1 PUSH1 0x0 PUSH1 0x3 DUP1 DUP2 LT PUSH2 0x11E JUMPI PUSH2 0x11D PUSH2 0x51C JUMP JUMPDEST JUMPDEST ADD SWAP1 DUP1 MLOAD SWAP1 PUSH1 0x20 ADD SWAP1 PUSH2 0x132 SWAP3 SWAP2 SWAP1 PUSH2 0x136 JUMP JUMPDEST POP POP JUMP JUMPDEST DUP3 DUP1 SLOAD PUSH2 0x142 SWAP1 PUSH2 0x57A JUMP JUMPDEST SWAP1 PUSH1 0x0 MSTORE PUSH1 0x20 PUSH1 0x0 KECCAK256 SWAP1 PUSH1 0x1F ADD PUSH1 0x20 SWAP1 DIV DUP2 ADD SWAP3 DUP3 PUSH2 0x164 JUMPI PUSH1 0x0 DUP6 SSTORE PUSH2 0x1AB JUMP JUMPDEST DUP3 PUSH1 0x1F LT PUSH2 0x17D JUMPI DUP1 MLOAD PUSH1 0xFF NOT AND DUP4 DUP1 ADD OR DUP6 SSTORE PUSH2 0x1AB JUMP JUMPDEST DUP3 DUP1 ADD PUSH1 0x1 ADD DUP6 SSTORE DUP3 ISZERO PUSH2 0x1AB JUMPI SWAP2 DUP3 ADD JUMPDEST DUP3 DUP2 GT ISZERO PUSH2 0x1AA JUMPI DUP3 MLOAD DUP3 SSTORE SWAP2 PUSH1 0x20 ADD SWAP2 SWAP1 PUSH1 0x1 ADD SWAP1 PUSH2 0x18F JUMP JUMPDEST JUMPDEST POP SWAP1 POP PUSH2 0x1B8 SWAP2 SWAP1 PUSH2 0x1BC JUMP JUMPDEST POP SWAP1 JUMP JUMPDEST JUMPDEST DUP1 DUP3 GT ISZERO PUSH2 0x1D5 JUMPI PUSH1 0x0 DUP2 PUSH1 0x0 SWAP1 SSTORE POP PUSH1 0x1 ADD PUSH2 0x1BD JUMP JUMPDEST POP SWAP1 JUMP JUMPDEST PUSH1 0x0 DUP2 MLOAD SWAP1 POP SWAP2 SWAP1 POP JUMP JUMPDEST PUSH1 0x0 DUP3 DUP3 MSTORE PUSH1 0x20 DUP3 ADD SWAP1 POP SWAP3 SWAP2 POP POP JUMP JUMPDEST PUSH1 0x0 DUP2 SWAP1 POP PUSH1 0x20 DUP3 ADD SWAP1 POP SWAP2 SWAP1 POP JUMP JUMPDEST PUSH1 0x0 DUP2 MLOAD SWAP1 POP SWAP2 SWAP1 POP JUMP JUMPDEST PUSH1 0x0 DUP3 DUP3 MSTORE PUSH1 0x20 DUP3 ADD SWAP1 POP SWAP3 SWAP2 POP POP JUMP JUMPDEST PUSH1 0x0 JUMPDEST DUP4 DUP2 LT ISZERO PUSH2 0x23F JUMPI DUP1 DUP3 ADD MLOAD DUP2 DUP5 ADD MSTORE PUSH1 0x20 DUP2 ADD SWAP1 POP PUSH2 0x224 JUMP JUMPDEST DUP4 DUP2 GT ISZERO PUSH2 0x24E JUMPI PUSH1 0x0 DUP5 DUP5 ADD MSTORE JUMPDEST POP POP POP POP JUMP JUMPDEST PUSH1 0x0 PUSH1 0x1F NOT PUSH1 0x1F DUP4 ADD AND SWAP1 POP SWAP2 SWAP1 POP JUMP JUMPDEST PUSH1 0x0 PUSH2 0x270 DUP3 PUSH2 0x205 JUMP JUMPDEST PUSH2 0x27A DUP2 DUP6 PUSH2 0x210 JUMP JUMPDEST SWAP4 POP PUSH2 0x28A DUP2 DUP6 PUSH1 0x20 DUP7 ADD PUSH2 0x221 JUMP JUMPDEST PUSH2 0x293 DUP2 PUSH2 0x254 JUMP JUMPDEST DUP5 ADD SWAP2 POP POP SWAP3 SWAP2 POP POP JUMP JUMPDEST PUSH1 0x0 PUSH2 0x2AA DUP4 DUP4 PUSH2 0x265 JUMP JUMPDEST SWAP1 POP SWAP3 SWAP2 POP POP JUMP JUMPDEST PUSH1 0x0 PUSH1 0x20 DUP3 ADD SWAP1 POP SWAP2 SWAP1 POP JUMP JUMPDEST PUSH1 0x0 PUSH2 0x2CA DUP3 PUSH2 0x1D9 JUMP JUMPDEST PUSH2 0x2D4 DUP2 DUP6 PUSH2 0x1E4 JUMP JUMPDEST SWAP4 POP DUP4 PUSH1 0x20 DUP3 MUL DUP6 ADD PUSH2 0x2E6 DUP6 PUSH2 0x1F5 JUMP JUMPDEST DUP1 PUSH1 0x0 JUMPDEST DUP6 DUP2 LT ISZERO PUSH2 0x322 JUMPI DUP5 DUP5 SUB DUP10 MSTORE DUP2 MLOAD PUSH2 0x303 DUP6 DUP3 PUSH2 0x29E JUMP JUMPDEST SWAP5 POP PUSH2 0x30E DUP4 PUSH2 0x2B2 JUMP JUMPDEST SWAP3 POP PUSH1 0x20 DUP11 ADD SWAP10 POP POP PUSH1 0x1 DUP2 ADD SWAP1 POP PUSH2 0x2EA JUMP JUMPDEST POP DUP3 SWAP8 POP DUP8 SWAP6 POP POP POP POP POP POP SWAP3 SWAP2 POP POP JUMP JUMPDEST PUSH1 0x0 PUSH1 0x20 DUP3 ADD SWAP1 POP DUP2 DUP2 SUB PUSH1 0x0 DUP4 ADD MSTORE PUSH2 0x34E DUP2 DUP5 PUSH2 0x2BF JUMP JUMPDEST SWAP1 POP SWAP3 SWAP2 POP POP JUMP JUMPDEST PUSH1 0x0 DUP2 SWAP1 POP SWAP2 SWAP1 POP JUMP JUMPDEST PUSH2 0x369 DUP2 PUSH2 0x356 JUMP JUMPDEST DUP3 MSTORE POP POP JUMP JUMPDEST PUSH1 0x0 PUSH1 0x20 DUP3 ADD SWAP1 POP PUSH2 0x384 PUSH1 0x0 DUP4 ADD DUP5 PUSH2 0x360 JUMP JUMPDEST SWAP3 SWAP2 POP POP JUMP JUMPDEST PUSH1 0x0 PUSH1 0x40 MLOAD SWAP1 POP SWAP1 JUMP JUMPDEST PUSH1 0x0 DUP1 REVERT JUMPDEST PUSH1 0x0 DUP1 REVERT JUMPDEST PUSH1 0x0 DUP1 REVERT JUMPDEST PUSH1 0x0 DUP1 REVERT JUMPDEST PUSH32 0x4E487B7100000000000000000000000000000000000000000000000000000000 PUSH1 0x0 MSTORE PUSH1 0x41 PUSH1 0x4 MSTORE PUSH1 0x24 PUSH1 0x0 REVERT JUMPDEST PUSH2 0x3E0 DUP3 PUSH2 0x254 JUMP JUMPDEST DUP2 ADD DUP2 DUP2 LT PUSH8 0xFFFFFFFFFFFFFFFF DUP3 GT OR ISZERO PUSH2 0x3FF JUMPI PUSH2 0x3FE PUSH2 0x3A8 JUMP JUMPDEST JUMPDEST DUP1 PUSH1 0x40 MSTORE POP POP POP JUMP JUMPDEST PUSH1 0x0 PUSH2 0x412 PUSH2 0x38A JUMP JUMPDEST SWAP1 POP PUSH2 0x41E DUP3 DUP3 PUSH2 0x3D7 JUMP JUMPDEST SWAP2 SWAP1 POP JUMP JUMPDEST PUSH1 0x0 PUSH8 0xFFFFFFFFFFFFFFFF DUP3 GT ISZERO PUSH2 0x43E JUMPI PUSH2 0x43D PUSH2 0x3A8 JUMP JUMPDEST JUMPDEST PUSH2 0x447 DUP3 PUSH2 0x254 JUMP JUMPDEST SWAP1 POP PUSH1 0x20 DUP2 ADD SWAP1 POP SWAP2 SWAP1 POP JUMP JUMPDEST DUP3 DUP2 DUP4 CALLDATACOPY PUSH1 0x0 DUP4 DUP4 ADD MSTORE POP POP POP JUMP JUMPDEST PUSH1 0x0 PUSH2 0x476 PUSH2 0x471 DUP5 PUSH2 0x423 JUMP JUMPDEST PUSH2 0x408 JUMP JUMPDEST SWAP1 POP DUP3 DUP2 MSTORE PUSH1 0x20 DUP2 ADD DUP5 DUP5 DUP5 ADD GT ISZERO PUSH2 0x492 JUMPI PUSH2 0x491 PUSH2 0x3A3 JUMP JUMPDEST JUMPDEST PUSH2 0x49D DUP5 DUP3 DUP6 PUSH2 0x454 JUMP JUMPDEST POP SWAP4 SWAP3 POP POP POP JUMP JUMPDEST PUSH1 0x0 DUP3 PUSH1 0x1F DUP4 ADD SLT PUSH2 0x4BA JUMPI PUSH2 0x4B9 PUSH2 0x39E JUMP JUMPDEST JUMPDEST DUP2 CALLDATALOAD PUSH2 0x4CA DUP5 DUP3 PUSH1 0x20 DUP7 ADD PUSH2 0x463 JUMP JUMPDEST SWAP2 POP POP SWAP3 SWAP2 POP POP JUMP JUMPDEST PUSH1 0x0 PUSH1 0x20 DUP3 DUP5 SUB SLT ISZERO PUSH2 0x4E9 JUMPI PUSH2 0x4E8 PUSH2 0x394 JUMP JUMPDEST JUMPDEST PUSH1 0x0 DUP3 ADD CALLDATALOAD PUSH8 0xFFFFFFFFFFFFFFFF DUP2 GT ISZERO PUSH2 0x507 JUMPI PUSH2 0x506 PUSH2 0x399 JUMP JUMPDEST JUMPDEST PUSH2 0x513 DUP5 DUP3 DUP6 ADD PUSH2 0x4A5 JUMP JUMPDEST SWAP2 POP POP SWAP3 SWAP2 POP POP JUMP JUMPDEST PUSH32 0x4E487B7100000000000000000000000000000000000000000000000000000000 PUSH1 0x0 MSTORE PUSH1 0x32 PUSH1 0x4 MSTORE PUSH1 0x24 PUSH1 0x0 REVERT JUMPDEST PUSH32 0x4E487B7100000000000000000000000000000000000000000000000000000000 PUSH1 0x0 MSTORE PUSH1 0x22 PUSH1 0x4 MSTORE PUSH1 0x24 PUSH1 0x0 REVERT JUMPDEST PUSH1 0x0 PUSH1 0x2 DUP3 DIV SWAP1 POP PUSH1 0x1 DUP3 AND DUP1 PUSH2 0x592 JUMPI PUSH1 0x7F DUP3 AND SWAP2 POP JUMPDEST PUSH1 0x20 DUP3 LT DUP2 SUB PUSH2 0x5A5 JUMPI PUSH2 0x5A4 PUSH2 0x54B JUMP JUMPDEST JUMPDEST POP SWAP2 SWAP1 POP JUMP INVALID LOG2 PUSH5 0x6970667358 0x22 SLT KECCAK256 0xD8 0xC 0xBA PUSH10 0xBC651F2FC2E0FB2F1AE4 AND LOG4 DUP10 0xAC 0xCE 0xEC 0x26 0x4A GAS 0xCE PUSH10 0x52C9BCF86C6A0864736F PUSH13 0x634300080D0033000000000000 "
				},
				"gasEstimates": {
					"creation": {
						"codeDepositCost": "301000",
						"executionCost": "infinite",
						"totalCost": "infinite"
					},
					"external": {
						"addCity(string)": "infinite",
						"getCityCount()": "337",
						"getCityList()": "infinite"
					}
				},
				"methodIdentifiers": {
					"addCity(string)": "f025b8fa",
					"getCityCount()": "c7f43ec1",
					"getCityList()": "99653161"
				}
			},
			"storageLayout": {
				"storage": [
					{
						"astId": 6,
						"contract": "contracts/FixedSizeArray.sol:FixedSizeArray",
						"label": "cityList",
						"offset": 0,
						"slot": "0",
						"type": "t_array(t_string_storage)3_storage"
					}
				],
				"types": {
					"t_array(t_string_storage)3_storage": {
						"base": "t_string_storage",
						"encoding": "inplace",
						"label": "string[3]",
						"numberOfBytes": "96"
					},
					"t_string_storage": {
						"encoding": "bytes",
						"label": "string",
						"numberOfBytes": "32"
					}
				}
			},
			"userdoc": {
				"kind": "user",
				"methods": {},
				"version": 1
			}
		}
	}
}