{
	"contracts/Integer.sol": {
		"Integer": {
			"abi": [
				{
					"inputs": [
						{
							"internalType": "uint256",
							"name": "number1",
							"type": "uint256"
						},
						{
							"internalType": "uint256",
							"name": "number2",
							"type": "uint256"
						}
					],
					"name": "bitwiseAnd",
					"outputs": [
						{
							"internalType": "uint256",
							"name": "",
							"type": "uint256"
						}
					],
					"stateMutability": "pure",
					"type": "function"
				},
				{
					"inputs": [
						{
							"internalType": "uint256",
							"name": "_number",
							"type": "uint256"
						}
					],
					"name": "bitwiseNot",
					"outputs": [
						{
							"internalType": "uint256",
							"name": "",
							"type": "uint256"
						}
					],
					"stateMutability": "pure",
					"type": "function"
				},
				{
					"inputs": [
						{
							"internalType": "uint256",
							"name": "number1",
							"type": "uint256"
						},
						{
							"internalType": "uint256",
							"name": "number2",
							"type": "uint256"
						}
					],
					"name": "bitwiseXOR",
					"outputs": [
						{
							"internalType": "uint256",
							"name": "",
							"type": "uint256"
						}
					],
					"stateMutability": "pure",
					"type": "function"
				},
				{
					"inputs": [
						{
							"internalType": "uint256",
							"name": "number1",
							"type": "uint256"
						},
						{
							"internalType": "uint256",
							"name": "number2",
							"type": "uint256"
						}
					],
					"name": "division",
					"outputs": [
						{
							"internalType": "uint256",
							"name": "",
							"type": "uint256"
						}
					],
					"stateMutability": "pure",
					"type": "function"
				},
				{
					"inputs": [
						{
							"internalType": "uint256",
							"name": "number1",
							"type": "uint256"
						},
						{
							"internalType": "uint256",
							"name": "number2",
							"type": "uint256"
						}
					],
					"name": "exp",
					"outputs": [
						{
							"internalType": "uint256",
							"name": "",
							"type": "uint256"
						}
					],
					"stateMutability": "pure",
					"type": "function"
				},
				{
					"inputs": [
						{
							"internalType": "uint256",
							"name": "_number",
							"type": "uint256"
						}
					],
					"name": "isEqual",
					"outputs": [
						{
							"internalType": "bool",
							"name": "",
							"type": "bool"
						}
					],
					"stateMutability": "view",
					"type": "function"
				},
				{
					"inputs": [
						{
							"internalType": "uint256",
							"name": "_number",
							"type": "uint256"
						}
					],
					"name": "isGreater",
					"outputs": [
						{
							"internalType": "bool",
							"name": "",
							"type": "bool"
						}
					],
					"stateMutability": "view",
					"type": "function"
				},
				{
					"inputs": [
						{
							"internalType": "uint256",
							"name": "_number",
							"type": "uint256"
						}
					],
					"name": "isGreaterOrEqual",
					"outputs": [
						{
							"internalType": "bool",
							"name": "",
							"type": "bool"
						}
					],
					"stateMutability": "view",
					"type": "function"
				},
				{
					"inputs": [
						{
							"internalType": "uint256",
							"name": "_number",
							"type": "uint256"
						}
					],
					"name": "isLess",
					"outputs": [
						{
							"internalType": "bool",
							"name": "",
							"type": "bool"
						}
					],
					"stateMutability": "view",
					"type": "function"
				},
				{
					"inputs": [
						{
							"internalType": "uint256",
							"name": "_number",
							"type": "uint256"
						}
					],
					"name": "isLessOrEqual",
					"outputs": [
						{
							"internalType": "bool",
							"name": "",
							"type": "bool"
						}
					],
					"stateMutability": "view",
					"type": "function"
				},
				{
					"inputs": [
						{
							"internalType": "uint256",
							"name": "_number",
							"type": "uint256"
						}
					],
					"name": "isNotEqual",
					"outputs": [
						{
							"internalType": "bool",
							"name": "",
							"type": "bool"
						}
					],
					"stateMutability": "view",
					"type": "function"
				},
				{
					"inputs": [
						{
							"internalType": "uint256",
							"name": "number1",
							"type": "uint256"
						},
						{
							"internalType": "uint256",
							"name": "number2",
							"type": "uint256"
						}
					],
					"name": "mod",
					"outputs": [
						{
							"internalType": "uint256",
							"name": "",
							"type": "uint256"
						}
					],
					"stateMutability": "pure",
					"type": "function"
				},
				{
					"inputs": [
						{
							"internalType": "uint256",
							"name": "number1",
							"type": "uint256"
						},
						{
							"internalType": "uint256",
							"name": "number2",
							"type": "uint256"
						}
					],
					"name": "multiply",
					"outputs": [
						{
							"internalType": "uint256",
							"name": "",
							"type": "uint256"
						}
					],
					"stateMutability": "pure",
					"type": "function"
				},
				{
					"inputs": [],
					"name": "number",
					"outputs": [
						{
							"internalType": "uint256",
							"name": "",
							"type": "uint256"
						}
					],
					"stateMutability": "view",
					"type": "function"
				},
				{
					"inputs": [
						{
							"internalType": "uint256",
							"name": "_number",
							"type": "uint256"
						},
						{
							"internalType": "uint256",
							"name": "bitCount",
							"type": "uint256"
						}
					],
					"name": "shiftLeft",
					"outputs": [
						{
							"internalType": "uint256",
							"name": "",
							"type": "uint256"
						}
					],
					"stateMutability": "pure",
					"type": "function"
				},
				{
					"inputs": [
						{
							"internalType": "uint256",
							"name": "_number",
							"type": "uint256"
						},
						{
							"internalType": "uint256",
							"name": "bitCount",
							"type": "uint256"
						}
					],
					"name": "shiftRight",
					"outputs": [
						{
							"internalType": "uint256",
							"name": "",
							"type": "uint256"
						}
					],
					"stateMutability": "pure",
					"type": "function"
				},
				{
					"inputs": [
						{
							"internalType": "uint256",
							"name": "number1",
							"type": "uint256"
						},
						{
							"internalType": "uint256",
							"name": "number2",
							"type": "uint256"
						}
					],
					"name": "substraction",
					"outputs": [
						{
							"internalType": "uint256",
							"name": "",
							"type": "uint256"
						}
					],
					"stateMutability": "pure",
					"type": "function"
				},
				{
					"inputs": [
						{
							"internalType": "uint256",
							"name": "number1",
							"type": "uint256"
						},
						{
							"internalType": "uint256",
							"name": "number2",
							"type": "uint256"
						}
					],
					"name": "sum",
					"outputs": [
						{
							"internalType": "uint256",
							"name": "",
							"type": "uint256"
						}
					],
					"stateMutability": "pure",
					"type": "function"
				}
			],
			"devdoc": {
				"author": "0xVeliUysal",
				"details": "Integer Example",
				"kind": "dev",
				"methods": {},
				"version": 1
			},
			"evm": {
				"assembly": "    /* \"contracts/Integer.sol\":128:2223  contract Integer {... */\n  mstore(0x40, 0x80)\n  callvalue\n  dup1\n  iszero\n  tag_1\n  jumpi\n  0x00\n  dup1\n  revert\ntag_1:\n  pop\n  dataSize(sub_0)\n  dup1\n  dataOffset(sub_0)\n  0x00\n  codecopy\n  0x00\n  return\nstop\n\nsub_0: assembly {\n        /* \"contracts/Integer.sol\":128:2223  contract Integer {... */\n      mstore(0x40, 0x80)\n      callvalue\n      dup1\n      iszero\n      tag_1\n      jumpi\n      0x00\n      dup1\n      revert\n    tag_1:\n      pop\n      jumpi(tag_2, lt(calldatasize, 0x04))\n      shr(0xe0, calldataload(0x00))\n      dup1\n      0x8381f58a\n      gt\n      tag_21\n      jumpi\n      dup1\n      0xcdeb3314\n      gt\n      tag_22\n      jumpi\n      dup1\n      0xcdeb3314\n      eq\n      tag_16\n      jumpi\n      dup1\n      0xe0068052\n      eq\n      tag_17\n      jumpi\n      dup1\n      0xe37caed8\n      eq\n      tag_18\n      jumpi\n      dup1\n      0xf43f523a\n      eq\n      tag_19\n      jumpi\n      dup1\n      0xf5f565f8\n      eq\n      tag_20\n      jumpi\n      jump(tag_2)\n    tag_22:\n      dup1\n      0x8381f58a\n      eq\n      tag_12\n      jumpi\n      dup1\n      0x8a3759b9\n      eq\n      tag_13\n      jumpi\n      dup1\n      0xa589d212\n      eq\n      tag_14\n      jumpi\n      dup1\n      0xcad0899b\n      eq\n      tag_15\n      jumpi\n      jump(tag_2)\n    tag_21:\n      dup1\n      0x225ba612\n      gt\n      tag_23\n      jumpi\n      dup1\n      0x225ba612\n      eq\n      tag_7\n      jumpi\n      dup1\n      0x27377754\n      eq\n      tag_8\n      jumpi\n      dup1\n      0x3f775f6d\n      eq\n      tag_9\n      jumpi\n      dup1\n      0x643a5366\n      eq\n      tag_10\n      jumpi\n      dup1\n      0x7602448b\n      eq\n      tag_11\n      jumpi\n      jump(tag_2)\n    tag_23:\n      dup1\n      0x09a32210\n      eq\n      tag_3\n      jumpi\n      dup1\n      0x0be237cf\n      eq\n      tag_4\n      jumpi\n      dup1\n      0x165c4a16\n      eq\n      tag_5\n      jumpi\n      dup1\n      0x1685fa98\n      eq\n      tag_6\n      jumpi\n    tag_2:\n      0x00\n      dup1\n      revert\n        /* \"contracts/Integer.sol\":397:499  function isGreater(uint256 _number) public view returns(bool) {... */\n    tag_3:\n      tag_24\n      0x04\n      dup1\n      calldatasize\n      sub\n      dup2\n      add\n      swap1\n      tag_25\n      swap2\n      swap1\n      tag_26\n      jump\t// in\n    tag_25:\n      tag_27\n      jump\t// in\n    tag_24:\n      mload(0x40)\n      tag_28\n      swap2\n      swap1\n      tag_29\n      jump\t// in\n    tag_28:\n      mload(0x40)\n      dup1\n      swap2\n      sub\n      swap1\n      return\n        /* \"contracts/Integer.sol\":505:615  function isGreaterOrEqual(uint256 _number) public view returns(bool) {... */\n    tag_4:\n      tag_30\n      0x04\n      dup1\n      calldatasize\n      sub\n      dup2\n      add\n      swap1\n      tag_31\n      swap2\n      swap1\n      tag_26\n      jump\t// in\n    tag_31:\n      tag_32\n      jump\t// in\n    tag_30:\n      mload(0x40)\n      tag_33\n      swap2\n      swap1\n      tag_29\n      jump\t// in\n    tag_33:\n      mload(0x40)\n      dup1\n      swap2\n      sub\n      swap1\n      return\n        /* \"contracts/Integer.sol\":1723:1845  function multiply(uint256 number1, uint256 number2) public pure returns(uint256) {... */\n    tag_5:\n      tag_34\n      0x04\n      dup1\n      calldatasize\n      sub\n      dup2\n      add\n      swap1\n      tag_35\n      swap2\n      swap1\n      tag_36\n      jump\t// in\n    tag_35:\n      tag_37\n      jump\t// in\n    tag_34:\n      mload(0x40)\n      tag_38\n      swap2\n      swap1\n      tag_39\n      jump\t// in\n    tag_38:\n      mload(0x40)\n      dup1\n      swap2\n      sub\n      swap1\n      return\n        /* \"contracts/Integer.sol\":1335:1462  function shiftRight(uint256 _number, uint256 bitCount) public pure returns(uint256) {... */\n    tag_6:\n      tag_40\n      0x04\n      dup1\n      calldatasize\n      sub\n      dup2\n      add\n      swap1\n      tag_41\n      swap2\n      swap1\n      tag_36\n      jump\t// in\n    tag_41:\n      tag_42\n      jump\t// in\n    tag_40:\n      mload(0x40)\n      tag_43\n      swap2\n      swap1\n      tag_39\n      jump\t// in\n    tag_43:\n      mload(0x40)\n      dup1\n      swap2\n      sub\n      swap1\n      return\n        /* \"contracts/Integer.sol\":287:391  function isNotEqual(uint256 _number) public view returns(bool) {... */\n    tag_7:\n      tag_44\n      0x04\n      dup1\n      calldatasize\n      sub\n      dup2\n      add\n      swap1\n      tag_45\n      swap2\n      swap1\n      tag_26\n      jump\t// in\n    tag_45:\n      tag_46\n      jump\t// in\n    tag_44:\n      mload(0x40)\n      tag_47\n      swap2\n      swap1\n      tag_29\n      jump\t// in\n    tag_47:\n      mload(0x40)\n      dup1\n      swap2\n      sub\n      swap1\n      return\n        /* \"contracts/Integer.sol\":621:720  function isLess(uint256 _number) public view returns(bool) {... */\n    tag_8:\n      tag_48\n      0x04\n      dup1\n      calldatasize\n      sub\n      dup2\n      add\n      swap1\n      tag_49\n      swap2\n      swap1\n      tag_26\n      jump\t// in\n    tag_49:\n      tag_50\n      jump\t// in\n    tag_48:\n      mload(0x40)\n      tag_51\n      swap2\n      swap1\n      tag_29\n      jump\t// in\n    tag_51:\n      mload(0x40)\n      dup1\n      swap2\n      sub\n      swap1\n      return\n        /* \"contracts/Integer.sol\":180:281  function isEqual(uint256 _number) public view returns(bool) {... */\n    tag_9:\n      tag_52\n      0x04\n      dup1\n      calldatasize\n      sub\n      dup2\n      add\n      swap1\n      tag_53\n      swap2\n      swap1\n      tag_26\n      jump\t// in\n    tag_53:\n      tag_54\n      jump\t// in\n    tag_52:\n      mload(0x40)\n      tag_55\n      swap2\n      swap1\n      tag_29\n      jump\t// in\n    tag_55:\n      mload(0x40)\n      dup1\n      swap2\n      sub\n      swap1\n      return\n        /* \"contracts/Integer.sol\":839:963  function bitwiseAnd(uint256 number1, uint256 number2) public pure returns(uint256) {... */\n    tag_10:\n      tag_56\n      0x04\n      dup1\n      calldatasize\n      sub\n      dup2\n      add\n      swap1\n      tag_57\n      swap2\n      swap1\n      tag_36\n      jump\t// in\n    tag_57:\n      tag_58\n      jump\t// in\n    tag_56:\n      mload(0x40)\n      tag_59\n      swap2\n      swap1\n      tag_39\n      jump\t// in\n    tag_59:\n      mload(0x40)\n      dup1\n      swap2\n      sub\n      swap1\n      return\n        /* \"contracts/Integer.sol\":1099:1197  function bitwiseNot(uint256 _number) public pure returns(uint256) {... */\n    tag_11:\n      tag_60\n      0x04\n      dup1\n      calldatasize\n      sub\n      dup2\n      add\n      swap1\n      tag_61\n      swap2\n      swap1\n      tag_26\n      jump\t// in\n    tag_61:\n      tag_62\n      jump\t// in\n    tag_60:\n      mload(0x40)\n      tag_63\n      swap2\n      swap1\n      tag_39\n      jump\t// in\n    tag_63:\n      mload(0x40)\n      dup1\n      swap2\n      sub\n      swap1\n      return\n        /* \"contracts/Integer.sol\":152:173  uint256 public number */\n    tag_12:\n      tag_64\n      tag_65\n      jump\t// in\n    tag_64:\n      mload(0x40)\n      tag_66\n      swap2\n      swap1\n      tag_39\n      jump\t// in\n    tag_66:\n      mload(0x40)\n      dup1\n      swap2\n      sub\n      swap1\n      return\n        /* \"contracts/Integer.sol\":726:833  function isLessOrEqual(uint256 _number) public view returns(bool) {... */\n    tag_13:\n      tag_67\n      0x04\n      dup1\n      calldatasize\n      sub\n      dup2\n      add\n      swap1\n      tag_68\n      swap2\n      swap1\n      tag_26\n      jump\t// in\n    tag_68:\n      tag_69\n      jump\t// in\n    tag_67:\n      mload(0x40)\n      tag_70\n      swap2\n      swap1\n      tag_29\n      jump\t// in\n    tag_70:\n      mload(0x40)\n      dup1\n      swap2\n      sub\n      swap1\n      return\n        /* \"contracts/Integer.sol\":1203:1329  function shiftLeft(uint256 _number, uint256 bitCount) public pure returns(uint256) {... */\n    tag_14:\n      tag_71\n      0x04\n      dup1\n      calldatasize\n      sub\n      dup2\n      add\n      swap1\n      tag_72\n      swap2\n      swap1\n      tag_36\n      jump\t// in\n    tag_72:\n      tag_73\n      jump\t// in\n    tag_71:\n      mload(0x40)\n      tag_74\n      swap2\n      swap1\n      tag_39\n      jump\t// in\n    tag_74:\n      mload(0x40)\n      dup1\n      swap2\n      sub\n      swap1\n      return\n        /* \"contracts/Integer.sol\":1468:1585  function sum(uint256 number1, uint256 number2) public pure returns(uint256) {... */\n    tag_15:\n      tag_75\n      0x04\n      dup1\n      calldatasize\n      sub\n      dup2\n      add\n      swap1\n      tag_76\n      swap2\n      swap1\n      tag_36\n      jump\t// in\n    tag_76:\n      tag_77\n      jump\t// in\n    tag_75:\n      mload(0x40)\n      tag_78\n      swap2\n      swap1\n      tag_39\n      jump\t// in\n    tag_78:\n      mload(0x40)\n      dup1\n      swap2\n      sub\n      swap1\n      return\n        /* \"contracts/Integer.sol\":1591:1717  function substraction(uint256 number1, uint256 number2) public pure returns(uint256) {... */\n    tag_16:\n      tag_79\n      0x04\n      dup1\n      calldatasize\n      sub\n      dup2\n      add\n      swap1\n      tag_80\n      swap2\n      swap1\n      tag_36\n      jump\t// in\n    tag_80:\n      tag_81\n      jump\t// in\n    tag_79:\n      mload(0x40)\n      tag_82\n      swap2\n      swap1\n      tag_39\n      jump\t// in\n    tag_82:\n      mload(0x40)\n      dup1\n      swap2\n      sub\n      swap1\n      return\n        /* \"contracts/Integer.sol\":1851:1973  function division(uint256 number1, uint256 number2) public pure returns(uint256) {... */\n    tag_17:\n      tag_83\n      0x04\n      dup1\n      calldatasize\n      sub\n      dup2\n      add\n      swap1\n      tag_84\n      swap2\n      swap1\n      tag_36\n      jump\t// in\n    tag_84:\n      tag_85\n      jump\t// in\n    tag_83:\n      mload(0x40)\n      tag_86\n      swap2\n      swap1\n      tag_39\n      jump\t// in\n    tag_86:\n      mload(0x40)\n      dup1\n      swap2\n      sub\n      swap1\n      return\n        /* \"contracts/Integer.sol\":969:1093  function bitwiseXOR(uint256 number1, uint256 number2) public pure returns(uint256) {... */\n    tag_18:\n      tag_87\n      0x04\n      dup1\n      calldatasize\n      sub\n      dup2\n      add\n      swap1\n      tag_88\n      swap2\n      swap1\n      tag_36\n      jump\t// in\n    tag_88:\n      tag_89\n      jump\t// in\n    tag_87:\n      mload(0x40)\n      tag_90\n      swap2\n      swap1\n      tag_39\n      jump\t// in\n    tag_90:\n      mload(0x40)\n      dup1\n      swap2\n      sub\n      swap1\n      return\n        /* \"contracts/Integer.sol\":1979:2096  function mod(uint256 number1, uint256 number2) public pure returns(uint256) {... */\n    tag_19:\n      tag_91\n      0x04\n      dup1\n      calldatasize\n      sub\n      dup2\n      add\n      swap1\n      tag_92\n      swap2\n      swap1\n      tag_36\n      jump\t// in\n    tag_92:\n      tag_93\n      jump\t// in\n    tag_91:\n      mload(0x40)\n      tag_94\n      swap2\n      swap1\n      tag_39\n      jump\t// in\n    tag_94:\n      mload(0x40)\n      dup1\n      swap2\n      sub\n      swap1\n      return\n        /* \"contracts/Integer.sol\":2102:2220  function exp(uint256 number1, uint256 number2) public pure returns(uint256) {... */\n    tag_20:\n      tag_95\n      0x04\n      dup1\n      calldatasize\n      sub\n      dup2\n      add\n      swap1\n      tag_96\n      swap2\n      swap1\n      tag_36\n      jump\t// in\n    tag_96:\n      tag_97\n      jump\t// in\n    tag_95:\n      mload(0x40)\n      tag_98\n      swap2\n      swap1\n      tag_39\n      jump\t// in\n    tag_98:\n      mload(0x40)\n      dup1\n      swap2\n      sub\n      swap1\n      return\n        /* \"contracts/Integer.sol\":397:499  function isGreater(uint256 _number) public view returns(bool) {... */\n    tag_27:\n        /* \"contracts/Integer.sol\":453:457  bool */\n      0x00\n        /* \"contracts/Integer.sol\":486:492  number */\n      dup1\n      sload\n        /* \"contracts/Integer.sol\":476:483  _number */\n      dup3\n        /* \"contracts/Integer.sol\":476:492  _number > number */\n      gt\n        /* \"contracts/Integer.sol\":469:492  return _number > number */\n      swap1\n      pop\n        /* \"contracts/Integer.sol\":397:499  function isGreater(uint256 _number) public view returns(bool) {... */\n      swap2\n      swap1\n      pop\n      jump\t// out\n        /* \"contracts/Integer.sol\":505:615  function isGreaterOrEqual(uint256 _number) public view returns(bool) {... */\n    tag_32:\n        /* \"contracts/Integer.sol\":568:572  bool */\n      0x00\n        /* \"contracts/Integer.sol\":602:608  number */\n      dup1\n      sload\n        /* \"contracts/Integer.sol\":591:598  _number */\n      dup3\n        /* \"contracts/Integer.sol\":591:608  _number >= number */\n      lt\n      iszero\n        /* \"contracts/Integer.sol\":584:608  return _number >= number */\n      swap1\n      pop\n        /* \"contracts/Integer.sol\":505:615  function isGreaterOrEqual(uint256 _number) public view returns(bool) {... */\n      swap2\n      swap1\n      pop\n      jump\t// out\n        /* \"contracts/Integer.sol\":1723:1845  function multiply(uint256 number1, uint256 number2) public pure returns(uint256) {... */\n    tag_37:\n        /* \"contracts/Integer.sol\":1795:1802  uint256 */\n      0x00\n        /* \"contracts/Integer.sol\":1831:1838  number2 */\n      dup2\n        /* \"contracts/Integer.sol\":1821:1828  number1 */\n      dup4\n        /* \"contracts/Integer.sol\":1821:1838  number1 * number2 */\n      tag_102\n      swap2\n      swap1\n      tag_103\n      jump\t// in\n    tag_102:\n        /* \"contracts/Integer.sol\":1814:1838  return number1 * number2 */\n      swap1\n      pop\n        /* \"contracts/Integer.sol\":1723:1845  function multiply(uint256 number1, uint256 number2) public pure returns(uint256) {... */\n      swap3\n      swap2\n      pop\n      pop\n      jump\t// out\n        /* \"contracts/Integer.sol\":1335:1462  function shiftRight(uint256 _number, uint256 bitCount) public pure returns(uint256) {... */\n    tag_42:\n        /* \"contracts/Integer.sol\":1410:1417  uint256 */\n      0x00\n        /* \"contracts/Integer.sol\":1447:1455  bitCount */\n      dup2\n        /* \"contracts/Integer.sol\":1436:1443  _number */\n      dup4\n        /* \"contracts/Integer.sol\":1436:1455  _number >> bitCount */\n      swap1\n      shr\n        /* \"contracts/Integer.sol\":1429:1455  return _number >> bitCount */\n      swap1\n      pop\n        /* \"contracts/Integer.sol\":1335:1462  function shiftRight(uint256 _number, uint256 bitCount) public pure returns(uint256) {... */\n      swap3\n      swap2\n      pop\n      pop\n      jump\t// out\n        /* \"contracts/Integer.sol\":287:391  function isNotEqual(uint256 _number) public view returns(bool) {... */\n    tag_46:\n        /* \"contracts/Integer.sol\":344:348  bool */\n      0x00\n        /* \"contracts/Integer.sol\":377:384  _number */\n      dup2\n        /* \"contracts/Integer.sol\":367:373  number */\n      sload(0x00)\n        /* \"contracts/Integer.sol\":367:384  number != _number */\n      eq\n      iszero\n        /* \"contracts/Integer.sol\":360:384  return number != _number */\n      swap1\n      pop\n        /* \"contracts/Integer.sol\":287:391  function isNotEqual(uint256 _number) public view returns(bool) {... */\n      swap2\n      swap1\n      pop\n      jump\t// out\n        /* \"contracts/Integer.sol\":621:720  function isLess(uint256 _number) public view returns(bool) {... */\n    tag_50:\n        /* \"contracts/Integer.sol\":674:678  bool */\n      0x00\n        /* \"contracts/Integer.sol\":707:713  number */\n      dup1\n      sload\n        /* \"contracts/Integer.sol\":697:704  _number */\n      dup3\n        /* \"contracts/Integer.sol\":697:713  _number < number */\n      lt\n        /* \"contracts/Integer.sol\":690:713  return _number < number */\n      swap1\n      pop\n        /* \"contracts/Integer.sol\":621:720  function isLess(uint256 _number) public view returns(bool) {... */\n      swap2\n      swap1\n      pop\n      jump\t// out\n        /* \"contracts/Integer.sol\":180:281  function isEqual(uint256 _number) public view returns(bool) {... */\n    tag_54:\n        /* \"contracts/Integer.sol\":234:238  bool */\n      0x00\n        /* \"contracts/Integer.sol\":267:274  _number */\n      dup2\n        /* \"contracts/Integer.sol\":257:263  number */\n      sload(0x00)\n        /* \"contracts/Integer.sol\":257:274  number == _number */\n      eq\n        /* \"contracts/Integer.sol\":250:274  return number == _number */\n      swap1\n      pop\n        /* \"contracts/Integer.sol\":180:281  function isEqual(uint256 _number) public view returns(bool) {... */\n      swap2\n      swap1\n      pop\n      jump\t// out\n        /* \"contracts/Integer.sol\":839:963  function bitwiseAnd(uint256 number1, uint256 number2) public pure returns(uint256) {... */\n    tag_58:\n        /* \"contracts/Integer.sol\":913:920  uint256 */\n      0x00\n        /* \"contracts/Integer.sol\":949:956  number2 */\n      dup2\n        /* \"contracts/Integer.sol\":939:946  number1 */\n      dup4\n        /* \"contracts/Integer.sol\":939:956  number1 & number2 */\n      and\n        /* \"contracts/Integer.sol\":932:956  return number1 & number2 */\n      swap1\n      pop\n        /* \"contracts/Integer.sol\":839:963  function bitwiseAnd(uint256 number1, uint256 number2) public pure returns(uint256) {... */\n      swap3\n      swap2\n      pop\n      pop\n      jump\t// out\n        /* \"contracts/Integer.sol\":1099:1197  function bitwiseNot(uint256 _number) public pure returns(uint256) {... */\n    tag_62:\n        /* \"contracts/Integer.sol\":1156:1163  uint256 */\n      0x00\n        /* \"contracts/Integer.sol\":1183:1190  _number */\n      dup2\n        /* \"contracts/Integer.sol\":1182:1190  ~_number */\n      not\n        /* \"contracts/Integer.sol\":1175:1190  return ~_number */\n      swap1\n      pop\n        /* \"contracts/Integer.sol\":1099:1197  function bitwiseNot(uint256 _number) public pure returns(uint256) {... */\n      swap2\n      swap1\n      pop\n      jump\t// out\n        /* \"contracts/Integer.sol\":152:173  uint256 public number */\n    tag_65:\n      sload(0x00)\n      dup2\n      jump\t// out\n        /* \"contracts/Integer.sol\":726:833  function isLessOrEqual(uint256 _number) public view returns(bool) {... */\n    tag_69:\n        /* \"contracts/Integer.sol\":786:790  bool */\n      0x00\n        /* \"contracts/Integer.sol\":820:826  number */\n      dup1\n      sload\n        /* \"contracts/Integer.sol\":809:816  _number */\n      dup3\n        /* \"contracts/Integer.sol\":809:826  _number <= number */\n      gt\n      iszero\n        /* \"contracts/Integer.sol\":802:826  return _number <= number */\n      swap1\n      pop\n        /* \"contracts/Integer.sol\":726:833  function isLessOrEqual(uint256 _number) public view returns(bool) {... */\n      swap2\n      swap1\n      pop\n      jump\t// out\n        /* \"contracts/Integer.sol\":1203:1329  function shiftLeft(uint256 _number, uint256 bitCount) public pure returns(uint256) {... */\n    tag_73:\n        /* \"contracts/Integer.sol\":1277:1284  uint256 */\n      0x00\n        /* \"contracts/Integer.sol\":1314:1322  bitCount */\n      dup2\n        /* \"contracts/Integer.sol\":1303:1310  _number */\n      dup4\n        /* \"contracts/Integer.sol\":1303:1322  _number << bitCount */\n      swap1\n      shl\n        /* \"contracts/Integer.sol\":1296:1322  return _number << bitCount */\n      swap1\n      pop\n        /* \"contracts/Integer.sol\":1203:1329  function shiftLeft(uint256 _number, uint256 bitCount) public pure returns(uint256) {... */\n      swap3\n      swap2\n      pop\n      pop\n      jump\t// out\n        /* \"contracts/Integer.sol\":1468:1585  function sum(uint256 number1, uint256 number2) public pure returns(uint256) {... */\n    tag_77:\n        /* \"contracts/Integer.sol\":1535:1542  uint256 */\n      0x00\n        /* \"contracts/Integer.sol\":1571:1578  number2 */\n      dup2\n        /* \"contracts/Integer.sol\":1561:1568  number1 */\n      dup4\n        /* \"contracts/Integer.sol\":1561:1578  number1 + number2 */\n      tag_113\n      swap2\n      swap1\n      tag_114\n      jump\t// in\n    tag_113:\n        /* \"contracts/Integer.sol\":1554:1578  return number1 + number2 */\n      swap1\n      pop\n        /* \"contracts/Integer.sol\":1468:1585  function sum(uint256 number1, uint256 number2) public pure returns(uint256) {... */\n      swap3\n      swap2\n      pop\n      pop\n      jump\t// out\n        /* \"contracts/Integer.sol\":1591:1717  function substraction(uint256 number1, uint256 number2) public pure returns(uint256) {... */\n    tag_81:\n        /* \"contracts/Integer.sol\":1667:1674  uint256 */\n      0x00\n        /* \"contracts/Integer.sol\":1703:1710  number2 */\n      dup2\n        /* \"contracts/Integer.sol\":1693:1700  number1 */\n      dup4\n        /* \"contracts/Integer.sol\":1693:1710  number1 - number2 */\n      tag_116\n      swap2\n      swap1\n      tag_117\n      jump\t// in\n    tag_116:\n        /* \"contracts/Integer.sol\":1686:1710  return number1 - number2 */\n      swap1\n      pop\n        /* \"contracts/Integer.sol\":1591:1717  function substraction(uint256 number1, uint256 number2) public pure returns(uint256) {... */\n      swap3\n      swap2\n      pop\n      pop\n      jump\t// out\n        /* \"contracts/Integer.sol\":1851:1973  function division(uint256 number1, uint256 number2) public pure returns(uint256) {... */\n    tag_85:\n        /* \"contracts/Integer.sol\":1923:1930  uint256 */\n      0x00\n        /* \"contracts/Integer.sol\":1959:1966  number2 */\n      dup2\n        /* \"contracts/Integer.sol\":1949:1956  number1 */\n      dup4\n        /* \"contracts/Integer.sol\":1949:1966  number1 / number2 */\n      tag_119\n      swap2\n      swap1\n      tag_120\n      jump\t// in\n    tag_119:\n        /* \"contracts/Integer.sol\":1942:1966  return number1 / number2 */\n      swap1\n      pop\n        /* \"contracts/Integer.sol\":1851:1973  function division(uint256 number1, uint256 number2) public pure returns(uint256) {... */\n      swap3\n      swap2\n      pop\n      pop\n      jump\t// out\n        /* \"contracts/Integer.sol\":969:1093  function bitwiseXOR(uint256 number1, uint256 number2) public pure returns(uint256) {... */\n    tag_89:\n        /* \"contracts/Integer.sol\":1043:1050  uint256 */\n      0x00\n        /* \"contracts/Integer.sol\":1079:1086  number2 */\n      dup2\n        /* \"contracts/Integer.sol\":1069:1076  number1 */\n      dup4\n        /* \"contracts/Integer.sol\":1069:1086  number1 ^ number2 */\n      xor\n        /* \"contracts/Integer.sol\":1062:1086  return number1 ^ number2 */\n      swap1\n      pop\n        /* \"contracts/Integer.sol\":969:1093  function bitwiseXOR(uint256 number1, uint256 number2) public pure returns(uint256) {... */\n      swap3\n      swap2\n      pop\n      pop\n      jump\t// out\n        /* \"contracts/Integer.sol\":1979:2096  function mod(uint256 number1, uint256 number2) public pure returns(uint256) {... */\n    tag_93:\n        /* \"contracts/Integer.sol\":2046:2053  uint256 */\n      0x00\n        /* \"contracts/Integer.sol\":2082:2089  number2 */\n      dup2\n        /* \"contracts/Integer.sol\":2072:2079  number1 */\n      dup4\n        /* \"contracts/Integer.sol\":2072:2089  number1 % number2 */\n      tag_123\n      swap2\n      swap1\n      tag_124\n      jump\t// in\n    tag_123:\n        /* \"contracts/Integer.sol\":2065:2089  return number1 % number2 */\n      swap1\n      pop\n        /* \"contracts/Integer.sol\":1979:2096  function mod(uint256 number1, uint256 number2) public pure returns(uint256) {... */\n      swap3\n      swap2\n      pop\n      pop\n      jump\t// out\n        /* \"contracts/Integer.sol\":2102:2220  function exp(uint256 number1, uint256 number2) public pure returns(uint256) {... */\n    tag_97:\n        /* \"contracts/Integer.sol\":2169:2176  uint256 */\n      0x00\n        /* \"contracts/Integer.sol\":2206:2213  number2 */\n      dup2\n        /* \"contracts/Integer.sol\":2195:2202  number1 */\n      dup4\n        /* \"contracts/Integer.sol\":2195:2213  number1 ** number2 */\n      tag_126\n      swap2\n      swap1\n      tag_127\n      jump\t// in\n    tag_126:\n        /* \"contracts/Integer.sol\":2188:2213  return number1 ** number2 */\n      swap1\n      pop\n        /* \"contracts/Integer.sol\":2102:2220  function exp(uint256 number1, uint256 number2) public pure returns(uint256) {... */\n      swap3\n      swap2\n      pop\n      pop\n      jump\t// out\n        /* \"#utility.yul\":88:205   */\n    tag_129:\n        /* \"#utility.yul\":197:198   */\n      0x00\n        /* \"#utility.yul\":194:195   */\n      dup1\n        /* \"#utility.yul\":187:199   */\n      revert\n        /* \"#utility.yul\":334:411   */\n    tag_131:\n        /* \"#utility.yul\":371:378   */\n      0x00\n        /* \"#utility.yul\":400:405   */\n      dup2\n        /* \"#utility.yul\":389:405   */\n      swap1\n      pop\n        /* \"#utility.yul\":334:411   */\n      swap2\n      swap1\n      pop\n      jump\t// out\n        /* \"#utility.yul\":417:539   */\n    tag_132:\n        /* \"#utility.yul\":490:514   */\n      tag_148\n        /* \"#utility.yul\":508:513   */\n      dup2\n        /* \"#utility.yul\":490:514   */\n      tag_131\n      jump\t// in\n    tag_148:\n        /* \"#utility.yul\":483:488   */\n      dup2\n        /* \"#utility.yul\":480:515   */\n      eq\n        /* \"#utility.yul\":470:533   */\n      tag_149\n      jumpi\n        /* \"#utility.yul\":529:530   */\n      0x00\n        /* \"#utility.yul\":526:527   */\n      dup1\n        /* \"#utility.yul\":519:531   */\n      revert\n        /* \"#utility.yul\":470:533   */\n    tag_149:\n        /* \"#utility.yul\":417:539   */\n      pop\n      jump\t// out\n        /* \"#utility.yul\":545:684   */\n    tag_133:\n        /* \"#utility.yul\":591:596   */\n      0x00\n        /* \"#utility.yul\":629:635   */\n      dup2\n        /* \"#utility.yul\":616:636   */\n      calldataload\n        /* \"#utility.yul\":607:636   */\n      swap1\n      pop\n        /* \"#utility.yul\":645:678   */\n      tag_151\n        /* \"#utility.yul\":672:677   */\n      dup2\n        /* \"#utility.yul\":645:678   */\n      tag_132\n      jump\t// in\n    tag_151:\n        /* \"#utility.yul\":545:684   */\n      swap3\n      swap2\n      pop\n      pop\n      jump\t// out\n        /* \"#utility.yul\":690:1019   */\n    tag_26:\n        /* \"#utility.yul\":749:755   */\n      0x00\n        /* \"#utility.yul\":798:800   */\n      0x20\n        /* \"#utility.yul\":786:795   */\n      dup3\n        /* \"#utility.yul\":777:784   */\n      dup5\n        /* \"#utility.yul\":773:796   */\n      sub\n        /* \"#utility.yul\":769:801   */\n      slt\n        /* \"#utility.yul\":766:885   */\n      iszero\n      tag_153\n      jumpi\n        /* \"#utility.yul\":804:883   */\n      tag_154\n      tag_129\n      jump\t// in\n    tag_154:\n        /* \"#utility.yul\":766:885   */\n    tag_153:\n        /* \"#utility.yul\":924:925   */\n      0x00\n        /* \"#utility.yul\":949:1002   */\n      tag_155\n        /* \"#utility.yul\":994:1001   */\n      dup5\n        /* \"#utility.yul\":985:991   */\n      dup3\n        /* \"#utility.yul\":974:983   */\n      dup6\n        /* \"#utility.yul\":970:992   */\n      add\n        /* \"#utility.yul\":949:1002   */\n      tag_133\n      jump\t// in\n    tag_155:\n        /* \"#utility.yul\":939:1002   */\n      swap2\n      pop\n        /* \"#utility.yul\":895:1012   */\n      pop\n        /* \"#utility.yul\":690:1019   */\n      swap3\n      swap2\n      pop\n      pop\n      jump\t// out\n        /* \"#utility.yul\":1025:1115   */\n    tag_134:\n        /* \"#utility.yul\":1059:1066   */\n      0x00\n        /* \"#utility.yul\":1102:1107   */\n      dup2\n        /* \"#utility.yul\":1095:1108   */\n      iszero\n        /* \"#utility.yul\":1088:1109   */\n      iszero\n        /* \"#utility.yul\":1077:1109   */\n      swap1\n      pop\n        /* \"#utility.yul\":1025:1115   */\n      swap2\n      swap1\n      pop\n      jump\t// out\n        /* \"#utility.yul\":1121:1230   */\n    tag_135:\n        /* \"#utility.yul\":1202:1223   */\n      tag_158\n        /* \"#utility.yul\":1217:1222   */\n      dup2\n        /* \"#utility.yul\":1202:1223   */\n      tag_134\n      jump\t// in\n    tag_158:\n        /* \"#utility.yul\":1197:1200   */\n      dup3\n        /* \"#utility.yul\":1190:1224   */\n      mstore\n        /* \"#utility.yul\":1121:1230   */\n      pop\n      pop\n      jump\t// out\n        /* \"#utility.yul\":1236:1446   */\n    tag_29:\n        /* \"#utility.yul\":1323:1327   */\n      0x00\n        /* \"#utility.yul\":1361:1363   */\n      0x20\n        /* \"#utility.yul\":1350:1359   */\n      dup3\n        /* \"#utility.yul\":1346:1364   */\n      add\n        /* \"#utility.yul\":1338:1364   */\n      swap1\n      pop\n        /* \"#utility.yul\":1374:1439   */\n      tag_160\n        /* \"#utility.yul\":1436:1437   */\n      0x00\n        /* \"#utility.yul\":1425:1434   */\n      dup4\n        /* \"#utility.yul\":1421:1438   */\n      add\n        /* \"#utility.yul\":1412:1418   */\n      dup5\n        /* \"#utility.yul\":1374:1439   */\n      tag_135\n      jump\t// in\n    tag_160:\n        /* \"#utility.yul\":1236:1446   */\n      swap3\n      swap2\n      pop\n      pop\n      jump\t// out\n        /* \"#utility.yul\":1452:1926   */\n    tag_36:\n        /* \"#utility.yul\":1520:1526   */\n      0x00\n        /* \"#utility.yul\":1528:1534   */\n      dup1\n        /* \"#utility.yul\":1577:1579   */\n      0x40\n        /* \"#utility.yul\":1565:1574   */\n      dup4\n        /* \"#utility.yul\":1556:1563   */\n      dup6\n        /* \"#utility.yul\":1552:1575   */\n      sub\n        /* \"#utility.yul\":1548:1580   */\n      slt\n        /* \"#utility.yul\":1545:1664   */\n      iszero\n      tag_162\n      jumpi\n        /* \"#utility.yul\":1583:1662   */\n      tag_163\n      tag_129\n      jump\t// in\n    tag_163:\n        /* \"#utility.yul\":1545:1664   */\n    tag_162:\n        /* \"#utility.yul\":1703:1704   */\n      0x00\n        /* \"#utility.yul\":1728:1781   */\n      tag_164\n        /* \"#utility.yul\":1773:1780   */\n      dup6\n        /* \"#utility.yul\":1764:1770   */\n      dup3\n        /* \"#utility.yul\":1753:1762   */\n      dup7\n        /* \"#utility.yul\":1749:1771   */\n      add\n        /* \"#utility.yul\":1728:1781   */\n      tag_133\n      jump\t// in\n    tag_164:\n        /* \"#utility.yul\":1718:1781   */\n      swap3\n      pop\n        /* \"#utility.yul\":1674:1791   */\n      pop\n        /* \"#utility.yul\":1830:1832   */\n      0x20\n        /* \"#utility.yul\":1856:1909   */\n      tag_165\n        /* \"#utility.yul\":1901:1908   */\n      dup6\n        /* \"#utility.yul\":1892:1898   */\n      dup3\n        /* \"#utility.yul\":1881:1890   */\n      dup7\n        /* \"#utility.yul\":1877:1899   */\n      add\n        /* \"#utility.yul\":1856:1909   */\n      tag_133\n      jump\t// in\n    tag_165:\n        /* \"#utility.yul\":1846:1909   */\n      swap2\n      pop\n        /* \"#utility.yul\":1801:1919   */\n      pop\n        /* \"#utility.yul\":1452:1926   */\n      swap3\n      pop\n      swap3\n      swap1\n      pop\n      jump\t// out\n        /* \"#utility.yul\":1932:2050   */\n    tag_136:\n        /* \"#utility.yul\":2019:2043   */\n      tag_167\n        /* \"#utility.yul\":2037:2042   */\n      dup2\n        /* \"#utility.yul\":2019:2043   */\n      tag_131\n      jump\t// in\n    tag_167:\n        /* \"#utility.yul\":2014:2017   */\n      dup3\n        /* \"#utility.yul\":2007:2044   */\n      mstore\n        /* \"#utility.yul\":1932:2050   */\n      pop\n      pop\n      jump\t// out\n        /* \"#utility.yul\":2056:2278   */\n    tag_39:\n        /* \"#utility.yul\":2149:2153   */\n      0x00\n        /* \"#utility.yul\":2187:2189   */\n      0x20\n        /* \"#utility.yul\":2176:2185   */\n      dup3\n        /* \"#utility.yul\":2172:2190   */\n      add\n        /* \"#utility.yul\":2164:2190   */\n      swap1\n      pop\n        /* \"#utility.yul\":2200:2271   */\n      tag_169\n        /* \"#utility.yul\":2268:2269   */\n      0x00\n        /* \"#utility.yul\":2257:2266   */\n      dup4\n        /* \"#utility.yul\":2253:2270   */\n      add\n        /* \"#utility.yul\":2244:2250   */\n      dup5\n        /* \"#utility.yul\":2200:2271   */\n      tag_136\n      jump\t// in\n    tag_169:\n        /* \"#utility.yul\":2056:2278   */\n      swap3\n      swap2\n      pop\n      pop\n      jump\t// out\n        /* \"#utility.yul\":2284:2464   */\n    tag_137:\n        /* \"#utility.yul\":2332:2409   */\n      0x4e487b7100000000000000000000000000000000000000000000000000000000\n        /* \"#utility.yul\":2329:2330   */\n      0x00\n        /* \"#utility.yul\":2322:2410   */\n      mstore\n        /* \"#utility.yul\":2429:2433   */\n      0x11\n        /* \"#utility.yul\":2426:2427   */\n      0x04\n        /* \"#utility.yul\":2419:2434   */\n      mstore\n        /* \"#utility.yul\":2453:2457   */\n      0x24\n        /* \"#utility.yul\":2450:2451   */\n      0x00\n        /* \"#utility.yul\":2443:2458   */\n      revert\n        /* \"#utility.yul\":2470:2880   */\n    tag_103:\n        /* \"#utility.yul\":2510:2517   */\n      0x00\n        /* \"#utility.yul\":2533:2553   */\n      tag_172\n        /* \"#utility.yul\":2551:2552   */\n      dup3\n        /* \"#utility.yul\":2533:2553   */\n      tag_131\n      jump\t// in\n    tag_172:\n        /* \"#utility.yul\":2528:2553   */\n      swap2\n      pop\n        /* \"#utility.yul\":2567:2587   */\n      tag_173\n        /* \"#utility.yul\":2585:2586   */\n      dup4\n        /* \"#utility.yul\":2567:2587   */\n      tag_131\n      jump\t// in\n    tag_173:\n        /* \"#utility.yul\":2562:2587   */\n      swap3\n      pop\n        /* \"#utility.yul\":2622:2623   */\n      dup3\n        /* \"#utility.yul\":2619:2620   */\n      dup3\n        /* \"#utility.yul\":2615:2624   */\n      mul\n        /* \"#utility.yul\":2644:2674   */\n      tag_174\n        /* \"#utility.yul\":2662:2673   */\n      dup2\n        /* \"#utility.yul\":2644:2674   */\n      tag_131\n      jump\t// in\n    tag_174:\n        /* \"#utility.yul\":2633:2674   */\n      swap2\n      pop\n        /* \"#utility.yul\":2823:2824   */\n      dup3\n        /* \"#utility.yul\":2814:2821   */\n      dup3\n        /* \"#utility.yul\":2810:2825   */\n      div\n        /* \"#utility.yul\":2807:2808   */\n      dup5\n        /* \"#utility.yul\":2804:2826   */\n      eq\n        /* \"#utility.yul\":2784:2785   */\n      dup4\n        /* \"#utility.yul\":2777:2786   */\n      iszero\n        /* \"#utility.yul\":2757:2840   */\n      or\n        /* \"#utility.yul\":2734:2873   */\n      tag_175\n      jumpi\n        /* \"#utility.yul\":2853:2871   */\n      tag_176\n      tag_137\n      jump\t// in\n    tag_176:\n        /* \"#utility.yul\":2734:2873   */\n    tag_175:\n        /* \"#utility.yul\":2518:2880   */\n      pop\n        /* \"#utility.yul\":2470:2880   */\n      swap3\n      swap2\n      pop\n      pop\n      jump\t// out\n        /* \"#utility.yul\":2886:3077   */\n    tag_114:\n        /* \"#utility.yul\":2926:2929   */\n      0x00\n        /* \"#utility.yul\":2945:2965   */\n      tag_178\n        /* \"#utility.yul\":2963:2964   */\n      dup3\n        /* \"#utility.yul\":2945:2965   */\n      tag_131\n      jump\t// in\n    tag_178:\n        /* \"#utility.yul\":2940:2965   */\n      swap2\n      pop\n        /* \"#utility.yul\":2979:2999   */\n      tag_179\n        /* \"#utility.yul\":2997:2998   */\n      dup4\n        /* \"#utility.yul\":2979:2999   */\n      tag_131\n      jump\t// in\n    tag_179:\n        /* \"#utility.yul\":2974:2999   */\n      swap3\n      pop\n        /* \"#utility.yul\":3022:3023   */\n      dup3\n        /* \"#utility.yul\":3019:3020   */\n      dup3\n        /* \"#utility.yul\":3015:3024   */\n      add\n        /* \"#utility.yul\":3008:3024   */\n      swap1\n      pop\n        /* \"#utility.yul\":3043:3046   */\n      dup1\n        /* \"#utility.yul\":3040:3041   */\n      dup3\n        /* \"#utility.yul\":3037:3047   */\n      gt\n        /* \"#utility.yul\":3034:3070   */\n      iszero\n      tag_180\n      jumpi\n        /* \"#utility.yul\":3050:3068   */\n      tag_181\n      tag_137\n      jump\t// in\n    tag_181:\n        /* \"#utility.yul\":3034:3070   */\n    tag_180:\n        /* \"#utility.yul\":2886:3077   */\n      swap3\n      swap2\n      pop\n      pop\n      jump\t// out\n        /* \"#utility.yul\":3083:3277   */\n    tag_117:\n        /* \"#utility.yul\":3123:3127   */\n      0x00\n        /* \"#utility.yul\":3143:3163   */\n      tag_183\n        /* \"#utility.yul\":3161:3162   */\n      dup3\n        /* \"#utility.yul\":3143:3163   */\n      tag_131\n      jump\t// in\n    tag_183:\n        /* \"#utility.yul\":3138:3163   */\n      swap2\n      pop\n        /* \"#utility.yul\":3177:3197   */\n      tag_184\n        /* \"#utility.yul\":3195:3196   */\n      dup4\n        /* \"#utility.yul\":3177:3197   */\n      tag_131\n      jump\t// in\n    tag_184:\n        /* \"#utility.yul\":3172:3197   */\n      swap3\n      pop\n        /* \"#utility.yul\":3221:3222   */\n      dup3\n        /* \"#utility.yul\":3218:3219   */\n      dup3\n        /* \"#utility.yul\":3214:3223   */\n      sub\n        /* \"#utility.yul\":3206:3223   */\n      swap1\n      pop\n        /* \"#utility.yul\":3245:3246   */\n      dup2\n        /* \"#utility.yul\":3239:3243   */\n      dup2\n        /* \"#utility.yul\":3236:3247   */\n      gt\n        /* \"#utility.yul\":3233:3270   */\n      iszero\n      tag_185\n      jumpi\n        /* \"#utility.yul\":3250:3268   */\n      tag_186\n      tag_137\n      jump\t// in\n    tag_186:\n        /* \"#utility.yul\":3233:3270   */\n    tag_185:\n        /* \"#utility.yul\":3083:3277   */\n      swap3\n      swap2\n      pop\n      pop\n      jump\t// out\n        /* \"#utility.yul\":3283:3463   */\n    tag_138:\n        /* \"#utility.yul\":3331:3408   */\n      0x4e487b7100000000000000000000000000000000000000000000000000000000\n        /* \"#utility.yul\":3328:3329   */\n      0x00\n        /* \"#utility.yul\":3321:3409   */\n      mstore\n        /* \"#utility.yul\":3428:3432   */\n      0x12\n        /* \"#utility.yul\":3425:3426   */\n      0x04\n        /* \"#utility.yul\":3418:3433   */\n      mstore\n        /* \"#utility.yul\":3452:3456   */\n      0x24\n        /* \"#utility.yul\":3449:3450   */\n      0x00\n        /* \"#utility.yul\":3442:3457   */\n      revert\n        /* \"#utility.yul\":3469:3654   */\n    tag_120:\n        /* \"#utility.yul\":3509:3510   */\n      0x00\n        /* \"#utility.yul\":3526:3546   */\n      tag_189\n        /* \"#utility.yul\":3544:3545   */\n      dup3\n        /* \"#utility.yul\":3526:3546   */\n      tag_131\n      jump\t// in\n    tag_189:\n        /* \"#utility.yul\":3521:3546   */\n      swap2\n      pop\n        /* \"#utility.yul\":3560:3580   */\n      tag_190\n        /* \"#utility.yul\":3578:3579   */\n      dup4\n        /* \"#utility.yul\":3560:3580   */\n      tag_131\n      jump\t// in\n    tag_190:\n        /* \"#utility.yul\":3555:3580   */\n      swap3\n      pop\n        /* \"#utility.yul\":3599:3600   */\n      dup3\n        /* \"#utility.yul\":3589:3624   */\n      tag_191\n      jumpi\n        /* \"#utility.yul\":3604:3622   */\n      tag_192\n      tag_138\n      jump\t// in\n    tag_192:\n        /* \"#utility.yul\":3589:3624   */\n    tag_191:\n        /* \"#utility.yul\":3646:3647   */\n      dup3\n        /* \"#utility.yul\":3643:3644   */\n      dup3\n        /* \"#utility.yul\":3639:3648   */\n      div\n        /* \"#utility.yul\":3634:3648   */\n      swap1\n      pop\n        /* \"#utility.yul\":3469:3654   */\n      swap3\n      swap2\n      pop\n      pop\n      jump\t// out\n        /* \"#utility.yul\":3660:3836   */\n    tag_124:\n        /* \"#utility.yul\":3692:3693   */\n      0x00\n        /* \"#utility.yul\":3709:3729   */\n      tag_194\n        /* \"#utility.yul\":3727:3728   */\n      dup3\n        /* \"#utility.yul\":3709:3729   */\n      tag_131\n      jump\t// in\n    tag_194:\n        /* \"#utility.yul\":3704:3729   */\n      swap2\n      pop\n        /* \"#utility.yul\":3743:3763   */\n      tag_195\n        /* \"#utility.yul\":3761:3762   */\n      dup4\n        /* \"#utility.yul\":3743:3763   */\n      tag_131\n      jump\t// in\n    tag_195:\n        /* \"#utility.yul\":3738:3763   */\n      swap3\n      pop\n        /* \"#utility.yul\":3782:3783   */\n      dup3\n        /* \"#utility.yul\":3772:3807   */\n      tag_196\n      jumpi\n        /* \"#utility.yul\":3787:3805   */\n      tag_197\n      tag_138\n      jump\t// in\n    tag_197:\n        /* \"#utility.yul\":3772:3807   */\n    tag_196:\n        /* \"#utility.yul\":3828:3829   */\n      dup3\n        /* \"#utility.yul\":3825:3826   */\n      dup3\n        /* \"#utility.yul\":3821:3830   */\n      mod\n        /* \"#utility.yul\":3816:3830   */\n      swap1\n      pop\n        /* \"#utility.yul\":3660:3836   */\n      swap3\n      swap2\n      pop\n      pop\n      jump\t// out\n        /* \"#utility.yul\":3842:3944   */\n    tag_139:\n        /* \"#utility.yul\":3884:3892   */\n      0x00\n        /* \"#utility.yul\":3931:3936   */\n      dup2\n        /* \"#utility.yul\":3928:3929   */\n      0x01\n        /* \"#utility.yul\":3924:3937   */\n      shr\n        /* \"#utility.yul\":3903:3937   */\n      swap1\n      pop\n        /* \"#utility.yul\":3842:3944   */\n      swap2\n      swap1\n      pop\n      jump\t// out\n        /* \"#utility.yul\":3950:4798   */\n    tag_140:\n        /* \"#utility.yul\":4011:4016   */\n      0x00\n        /* \"#utility.yul\":4018:4022   */\n      dup1\n        /* \"#utility.yul\":4042:4048   */\n      dup3\n        /* \"#utility.yul\":4033:4048   */\n      swap2\n      pop\n        /* \"#utility.yul\":4066:4071   */\n      dup4\n        /* \"#utility.yul\":4057:4071   */\n      swap1\n      pop\n        /* \"#utility.yul\":4080:4792   */\n    tag_200:\n        /* \"#utility.yul\":4101:4102   */\n      0x01\n        /* \"#utility.yul\":4091:4099   */\n      dup6\n        /* \"#utility.yul\":4088:4103   */\n      gt\n        /* \"#utility.yul\":4080:4792   */\n      iszero\n      tag_202\n      jumpi\n        /* \"#utility.yul\":4196:4200   */\n      dup1\n        /* \"#utility.yul\":4191:4194   */\n      dup7\n        /* \"#utility.yul\":4187:4201   */\n      div\n        /* \"#utility.yul\":4181:4185   */\n      dup2\n        /* \"#utility.yul\":4178:4202   */\n      gt\n        /* \"#utility.yul\":4175:4225   */\n      iszero\n      tag_203\n      jumpi\n        /* \"#utility.yul\":4205:4223   */\n      tag_204\n      tag_137\n      jump\t// in\n    tag_204:\n        /* \"#utility.yul\":4175:4225   */\n    tag_203:\n        /* \"#utility.yul\":4255:4256   */\n      0x01\n        /* \"#utility.yul\":4245:4253   */\n      dup6\n        /* \"#utility.yul\":4241:4257   */\n      and\n        /* \"#utility.yul\":4238:4689   */\n      iszero\n      tag_205\n      jumpi\n        /* \"#utility.yul\":4670:4674   */\n      dup1\n        /* \"#utility.yul\":4663:4668   */\n      dup3\n        /* \"#utility.yul\":4659:4675   */\n      mul\n        /* \"#utility.yul\":4650:4675   */\n      swap2\n      pop\n        /* \"#utility.yul\":4238:4689   */\n    tag_205:\n        /* \"#utility.yul\":4720:4724   */\n      dup1\n        /* \"#utility.yul\":4714:4718   */\n      dup2\n        /* \"#utility.yul\":4710:4725   */\n      mul\n        /* \"#utility.yul\":4702:4725   */\n      swap1\n      pop\n        /* \"#utility.yul\":4750:4782   */\n      tag_206\n        /* \"#utility.yul\":4773:4781   */\n      dup6\n        /* \"#utility.yul\":4750:4782   */\n      tag_139\n      jump\t// in\n    tag_206:\n        /* \"#utility.yul\":4738:4782   */\n      swap5\n      pop\n        /* \"#utility.yul\":4080:4792   */\n      jump(tag_200)\n    tag_202:\n        /* \"#utility.yul\":3950:4798   */\n      swap5\n      pop\n      swap5\n      swap3\n      pop\n      pop\n      pop\n      jump\t// out\n        /* \"#utility.yul\":4804:5877   */\n    tag_141:\n        /* \"#utility.yul\":4858:4863   */\n      0x00\n        /* \"#utility.yul\":5049:5057   */\n      dup3\n        /* \"#utility.yul\":5039:5079   */\n      tag_208\n      jumpi\n        /* \"#utility.yul\":5070:5071   */\n      0x01\n        /* \"#utility.yul\":5061:5071   */\n      swap1\n      pop\n        /* \"#utility.yul\":5072:5077   */\n      jump(tag_207)\n        /* \"#utility.yul\":5039:5079   */\n    tag_208:\n        /* \"#utility.yul\":5098:5102   */\n      dup2\n        /* \"#utility.yul\":5088:5124   */\n      tag_209\n      jumpi\n        /* \"#utility.yul\":5115:5116   */\n      0x00\n        /* \"#utility.yul\":5106:5116   */\n      swap1\n      pop\n        /* \"#utility.yul\":5117:5122   */\n      jump(tag_207)\n        /* \"#utility.yul\":5088:5124   */\n    tag_209:\n        /* \"#utility.yul\":5184:5188   */\n      dup2\n        /* \"#utility.yul\":5232:5233   */\n      0x01\n        /* \"#utility.yul\":5227:5254   */\n      dup2\n      eq\n      tag_211\n      jumpi\n        /* \"#utility.yul\":5268:5269   */\n      0x02\n        /* \"#utility.yul\":5263:5454   */\n      dup2\n      eq\n      tag_212\n      jumpi\n        /* \"#utility.yul\":5177:5454   */\n      jump(tag_210)\n        /* \"#utility.yul\":5227:5254   */\n    tag_211:\n        /* \"#utility.yul\":5245:5246   */\n      0x01\n        /* \"#utility.yul\":5236:5246   */\n      swap2\n      pop\n        /* \"#utility.yul\":5247:5252   */\n      pop\n      jump(tag_207)\n        /* \"#utility.yul\":5263:5454   */\n    tag_212:\n        /* \"#utility.yul\":5308:5311   */\n      0xff\n        /* \"#utility.yul\":5298:5306   */\n      dup5\n        /* \"#utility.yul\":5295:5312   */\n      gt\n        /* \"#utility.yul\":5292:5335   */\n      iszero\n      tag_213\n      jumpi\n        /* \"#utility.yul\":5315:5333   */\n      tag_214\n      tag_137\n      jump\t// in\n    tag_214:\n        /* \"#utility.yul\":5292:5335   */\n    tag_213:\n        /* \"#utility.yul\":5364:5372   */\n      dup4\n        /* \"#utility.yul\":5361:5362   */\n      0x02\n        /* \"#utility.yul\":5357:5373   */\n      exp\n        /* \"#utility.yul\":5348:5373   */\n      swap2\n      pop\n        /* \"#utility.yul\":5399:5402   */\n      dup5\n        /* \"#utility.yul\":5392:5397   */\n      dup3\n        /* \"#utility.yul\":5389:5403   */\n      gt\n        /* \"#utility.yul\":5386:5426   */\n      iszero\n      tag_215\n      jumpi\n        /* \"#utility.yul\":5406:5424   */\n      tag_216\n      tag_137\n      jump\t// in\n    tag_216:\n        /* \"#utility.yul\":5386:5426   */\n    tag_215:\n        /* \"#utility.yul\":5439:5444   */\n      pop\n      jump(tag_207)\n        /* \"#utility.yul\":5177:5454   */\n    tag_210:\n      pop\n        /* \"#utility.yul\":5563:5565   */\n      0x20\n        /* \"#utility.yul\":5553:5561   */\n      dup4\n        /* \"#utility.yul\":5550:5566   */\n      lt\n        /* \"#utility.yul\":5544:5547   */\n      0x0133\n        /* \"#utility.yul\":5538:5542   */\n      dup4\n        /* \"#utility.yul\":5535:5548   */\n      lt\n        /* \"#utility.yul\":5531:5567   */\n      and\n        /* \"#utility.yul\":5513:5515   */\n      0x4e\n        /* \"#utility.yul\":5503:5511   */\n      dup5\n        /* \"#utility.yul\":5500:5516   */\n      lt\n        /* \"#utility.yul\":5495:5497   */\n      0x0b\n        /* \"#utility.yul\":5489:5493   */\n      dup5\n        /* \"#utility.yul\":5486:5498   */\n      lt\n        /* \"#utility.yul\":5482:5517   */\n      and\n        /* \"#utility.yul\":5466:5577   */\n      or\n        /* \"#utility.yul\":5463:5709   */\n      iszero\n      tag_217\n      jumpi\n        /* \"#utility.yul\":5619:5627   */\n      dup3\n        /* \"#utility.yul\":5613:5617   */\n      dup3\n        /* \"#utility.yul\":5609:5628   */\n      exp\n        /* \"#utility.yul\":5600:5628   */\n      swap1\n      pop\n        /* \"#utility.yul\":5654:5657   */\n      dup4\n        /* \"#utility.yul\":5647:5652   */\n      dup2\n        /* \"#utility.yul\":5644:5658   */\n      gt\n        /* \"#utility.yul\":5641:5681   */\n      iszero\n      tag_218\n      jumpi\n        /* \"#utility.yul\":5661:5679   */\n      tag_219\n      tag_137\n      jump\t// in\n    tag_219:\n        /* \"#utility.yul\":5641:5681   */\n    tag_218:\n        /* \"#utility.yul\":5694:5699   */\n      jump(tag_207)\n        /* \"#utility.yul\":5463:5709   */\n    tag_217:\n        /* \"#utility.yul\":5734:5776   */\n      tag_220\n        /* \"#utility.yul\":5772:5775   */\n      dup5\n        /* \"#utility.yul\":5762:5770   */\n      dup5\n        /* \"#utility.yul\":5756:5760   */\n      dup5\n        /* \"#utility.yul\":5753:5754   */\n      0x01\n        /* \"#utility.yul\":5734:5776   */\n      tag_140\n      jump\t// in\n    tag_220:\n        /* \"#utility.yul\":5719:5776   */\n      swap3\n      pop\n      swap1\n      pop\n        /* \"#utility.yul\":5808:5812   */\n      dup2\n        /* \"#utility.yul\":5803:5806   */\n      dup5\n        /* \"#utility.yul\":5799:5813   */\n      div\n        /* \"#utility.yul\":5792:5797   */\n      dup2\n        /* \"#utility.yul\":5789:5814   */\n      gt\n        /* \"#utility.yul\":5786:5837   */\n      iszero\n      tag_221\n      jumpi\n        /* \"#utility.yul\":5817:5835   */\n      tag_222\n      tag_137\n      jump\t// in\n    tag_222:\n        /* \"#utility.yul\":5786:5837   */\n    tag_221:\n        /* \"#utility.yul\":5866:5870   */\n      dup2\n        /* \"#utility.yul\":5859:5864   */\n      dup2\n        /* \"#utility.yul\":5855:5871   */\n      mul\n        /* \"#utility.yul\":5846:5871   */\n      swap1\n      pop\n        /* \"#utility.yul\":4804:5877   */\n    tag_207:\n      swap4\n      swap3\n      pop\n      pop\n      pop\n      jump\t// out\n        /* \"#utility.yul\":5883:6168   */\n    tag_127:\n        /* \"#utility.yul\":5943:5948   */\n      0x00\n        /* \"#utility.yul\":5967:5990   */\n      tag_224\n        /* \"#utility.yul\":5985:5989   */\n      dup3\n        /* \"#utility.yul\":5967:5990   */\n      tag_131\n      jump\t// in\n    tag_224:\n        /* \"#utility.yul\":5959:5990   */\n      swap2\n      pop\n        /* \"#utility.yul\":6011:6038   */\n      tag_225\n        /* \"#utility.yul\":6029:6037   */\n      dup4\n        /* \"#utility.yul\":6011:6038   */\n      tag_131\n      jump\t// in\n    tag_225:\n        /* \"#utility.yul\":5999:6038   */\n      swap3\n      pop\n        /* \"#utility.yul\":6057:6161   */\n      tag_226\n        /* \"#utility.yul\":6094:6160   */\n      0xffffffffffffffffffffffffffffffffffffffffffffffffffffffffffffffff\n        /* \"#utility.yul\":6084:6092   */\n      dup5\n        /* \"#utility.yul\":6078:6082   */\n      dup5\n        /* \"#utility.yul\":6057:6161   */\n      tag_141\n      jump\t// in\n    tag_226:\n        /* \"#utility.yul\":6048:6161   */\n      swap1\n      pop\n        /* \"#utility.yul\":5883:6168   */\n      swap3\n      swap2\n      pop\n      pop\n      jump\t// out\n\n    auxdata: 0xa2646970667358221220d346df70980e3ece5401332dd4a8d5b2ec6cc98c6174ccbaf4ef71d10cb992f964736f6c63430008120033\n}\n",
				"bytecode": {
					"linkReferences": {},
					"object": "608060405234801561001057600080fd5b506109ad806100206000396000f3fe608060405234801561001057600080fd5b50600436106101165760003560e01c80638381f58a116100a2578063cdeb331411610071578063cdeb331414610379578063e0068052146103a9578063e37caed8146103d9578063f43f523a14610409578063f5f565f81461043957610116565b80638381f58a146102cb5780638a3759b9146102e9578063a589d21214610319578063cad0899b1461034957610116565b8063225ba612116100e9578063225ba612146101db578063273777541461020b5780633f775f6d1461023b578063643a53661461026b5780637602448b1461029b57610116565b806309a322101461011b5780630be237cf1461014b578063165c4a161461017b5780631685fa98146101ab575b600080fd5b610135600480360381019061013091906105c2565b610469565b604051610142919061060a565b60405180910390f35b610165600480360381019061016091906105c2565b610476565b604051610172919061060a565b60405180910390f35b61019560048036038101906101909190610625565b610484565b6040516101a29190610674565b60405180910390f35b6101c560048036038101906101c09190610625565b61049a565b6040516101d29190610674565b60405180910390f35b6101f560048036038101906101f091906105c2565b6104a8565b604051610202919061060a565b60405180910390f35b610225600480360381019061022091906105c2565b6104b7565b604051610232919061060a565b60405180910390f35b610255600480360381019061025091906105c2565b6104c4565b604051610262919061060a565b60405180910390f35b61028560048036038101906102809190610625565b6104d2565b6040516102929190610674565b60405180910390f35b6102b560048036038101906102b091906105c2565b6104df565b6040516102c29190610674565b60405180910390f35b6102d36104ea565b6040516102e09190610674565b60405180910390f35b61030360048036038101906102fe91906105c2565b6104f0565b604051610310919061060a565b60405180910390f35b610333600480360381019061032e9190610625565b6104fe565b6040516103409190610674565b60405180910390f35b610363600480360381019061035e9190610625565b61050c565b6040516103709190610674565b60405180910390f35b610393600480360381019061038e9190610625565b610522565b6040516103a09190610674565b60405180910390f35b6103c360048036038101906103be9190610625565b610538565b6040516103d09190610674565b60405180910390f35b6103f360048036038101906103ee9190610625565b61054e565b6040516104009190610674565b60405180910390f35b610423600480360381019061041e9190610625565b61055b565b6040516104309190610674565b60405180910390f35b610453600480360381019061044e9190610625565b610571565b6040516104609190610674565b60405180910390f35b6000805482119050919050565b600080548210159050919050565b6000818361049291906106be565b905092915050565b60008183901c905092915050565b60008160005414159050919050565b6000805482109050919050565b600081600054149050919050565b6000818316905092915050565b600081199050919050565b60005481565b600080548211159050919050565b60008183901b905092915050565b6000818361051a9190610700565b905092915050565b600081836105309190610734565b905092915050565b600081836105469190610797565b905092915050565b6000818318905092915050565b6000818361056991906107c8565b905092915050565b6000818361057f919061092c565b905092915050565b600080fd5b6000819050919050565b61059f8161058c565b81146105aa57600080fd5b50565b6000813590506105bc81610596565b92915050565b6000602082840312156105d8576105d7610587565b5b60006105e6848285016105ad565b91505092915050565b60008115159050919050565b610604816105ef565b82525050565b600060208201905061061f60008301846105fb565b92915050565b6000806040838503121561063c5761063b610587565b5b600061064a858286016105ad565b925050602061065b858286016105ad565b9150509250929050565b61066e8161058c565b82525050565b60006020820190506106896000830184610665565b92915050565b7f4e487b7100000000000000000000000000000000000000000000000000000000600052601160045260246000fd5b60006106c98261058c565b91506106d48361058c565b92508282026106e28161058c565b915082820484148315176106f9576106f861068f565b5b5092915050565b600061070b8261058c565b91506107168361058c565b925082820190508082111561072e5761072d61068f565b5b92915050565b600061073f8261058c565b915061074a8361058c565b92508282039050818111156107625761076161068f565b5b92915050565b7f4e487b7100000000000000000000000000000000000000000000000000000000600052601260045260246000fd5b60006107a28261058c565b91506107ad8361058c565b9250826107bd576107bc610768565b5b828204905092915050565b60006107d38261058c565b91506107de8361058c565b9250826107ee576107ed610768565b5b828206905092915050565b60008160011c9050919050565b6000808291508390505b60018511156108505780860481111561082c5761082b61068f565b5b600185161561083b5780820291505b8081029050610849856107f9565b9450610810565b94509492505050565b6000826108695760019050610925565b816108775760009050610925565b816001811461088d5760028114610897576108c6565b6001915050610925565b60ff8411156108a9576108a861068f565b5b8360020a9150848211156108c0576108bf61068f565b5b50610925565b5060208310610133831016604e8410600b84101617156108fb5782820a9050838111156108f6576108f561068f565b5b610925565b6109088484846001610806565b9250905081840481111561091f5761091e61068f565b5b81810290505b9392505050565b60006109378261058c565b91506109428361058c565b925061096f7fffffffffffffffffffffffffffffffffffffffffffffffffffffffffffffffff8484610859565b90509291505056fea2646970667358221220d346df70980e3ece5401332dd4a8d5b2ec6cc98c6174ccbaf4ef71d10cb992f964736f6c63430008120033",
					"opcodes": "PUSH1 0x80 PUSH1 0x40 MSTORE CALLVALUE DUP1 ISZERO PUSH2 0x10 JUMPI PUSH1 0x0 DUP1 REVERT JUMPDEST POP PUSH2 0x9AD DUP1 PUSH2 0x20 PUSH1 0x0 CODECOPY PUSH1 0x0 RETURN INVALID PUSH1 0x80 PUSH1 0x40 MSTORE CALLVALUE DUP1 ISZERO PUSH2 0x10 JUMPI PUSH1 0x0 DUP1 REVERT JUMPDEST POP PUSH1 0x4 CALLDATASIZE LT PUSH2 0x116 JUMPI PUSH1 0x0 CALLDATALOAD PUSH1 0xE0 SHR DUP1 PUSH4 0x8381F58A GT PUSH2 0xA2 JUMPI DUP1 PUSH4 0xCDEB3314 GT PUSH2 0x71 JUMPI DUP1 PUSH4 0xCDEB3314 EQ PUSH2 0x379 JUMPI DUP1 PUSH4 0xE0068052 EQ PUSH2 0x3A9 JUMPI DUP1 PUSH4 0xE37CAED8 EQ PUSH2 0x3D9 JUMPI DUP1 PUSH4 0xF43F523A EQ PUSH2 0x409 JUMPI DUP1 PUSH4 0xF5F565F8 EQ PUSH2 0x439 JUMPI PUSH2 0x116 JUMP JUMPDEST DUP1 PUSH4 0x8381F58A EQ PUSH2 0x2CB JUMPI DUP1 PUSH4 0x8A3759B9 EQ PUSH2 0x2E9 JUMPI DUP1 PUSH4 0xA589D212 EQ PUSH2 0x319 JUMPI DUP1 PUSH4 0xCAD0899B EQ PUSH2 0x349 JUMPI PUSH2 0x116 JUMP JUMPDEST DUP1 PUSH4 0x225BA612 GT PUSH2 0xE9 JUMPI DUP1 PUSH4 0x225BA612 EQ PUSH2 0x1DB JUMPI DUP1 PUSH4 0x27377754 EQ PUSH2 0x20B JUMPI DUP1 PUSH4 0x3F775F6D EQ PUSH2 0x23B JUMPI DUP1 PUSH4 0x643A5366 EQ PUSH2 0x26B JUMPI DUP1 PUSH4 0x7602448B EQ PUSH2 0x29B JUMPI PUSH2 0x116 JUMP JUMPDEST DUP1 PUSH4 0x9A32210 EQ PUSH2 0x11B JUMPI DUP1 PUSH4 0xBE237CF EQ PUSH2 0x14B JUMPI DUP1 PUSH4 0x165C4A16 EQ PUSH2 0x17B JUMPI DUP1 PUSH4 0x1685FA98 EQ PUSH2 0x1AB JUMPI JUMPDEST PUSH1 0x0 DUP1 REVERT JUMPDEST PUSH2 0x135 PUSH1 0x4 DUP1 CALLDATASIZE SUB DUP2 ADD SWAP1 PUSH2 0x130 SWAP2 SWAP1 PUSH2 0x5C2 JUMP JUMPDEST PUSH2 0x469 JUMP JUMPDEST PUSH1 0x40 MLOAD PUSH2 0x142 SWAP2 SWAP1 PUSH2 0x60A JUMP JUMPDEST PUSH1 0x40 MLOAD DUP1 SWAP2 SUB SWAP1 RETURN JUMPDEST PUSH2 0x165 PUSH1 0x4 DUP1 CALLDATASIZE SUB DUP2 ADD SWAP1 PUSH2 0x160 SWAP2 SWAP1 PUSH2 0x5C2 JUMP JUMPDEST PUSH2 0x476 JUMP JUMPDEST PUSH1 0x40 MLOAD PUSH2 0x172 SWAP2 SWAP1 PUSH2 0x60A JUMP JUMPDEST PUSH1 0x40 MLOAD DUP1 SWAP2 SUB SWAP1 RETURN JUMPDEST PUSH2 0x195 PUSH1 0x4 DUP1 CALLDATASIZE SUB DUP2 ADD SWAP1 PUSH2 0x190 SWAP2 SWAP1 PUSH2 0x625 JUMP JUMPDEST PUSH2 0x484 JUMP JUMPDEST PUSH1 0x40 MLOAD PUSH2 0x1A2 SWAP2 SWAP1 PUSH2 0x674 JUMP JUMPDEST PUSH1 0x40 MLOAD DUP1 SWAP2 SUB SWAP1 RETURN JUMPDEST PUSH2 0x1C5 PUSH1 0x4 DUP1 CALLDATASIZE SUB DUP2 ADD SWAP1 PUSH2 0x1C0 SWAP2 SWAP1 PUSH2 0x625 JUMP JUMPDEST PUSH2 0x49A JUMP JUMPDEST PUSH1 0x40 MLOAD PUSH2 0x1D2 SWAP2 SWAP1 PUSH2 0x674 JUMP JUMPDEST PUSH1 0x40 MLOAD DUP1 SWAP2 SUB SWAP1 RETURN JUMPDEST PUSH2 0x1F5 PUSH1 0x4 DUP1 CALLDATASIZE SUB DUP2 ADD SWAP1 PUSH2 0x1F0 SWAP2 SWAP1 PUSH2 0x5C2 JUMP JUMPDEST PUSH2 0x4A8 JUMP JUMPDEST PUSH1 0x40 MLOAD PUSH2 0x202 SWAP2 SWAP1 PUSH2 0x60A JUMP JUMPDEST PUSH1 0x40 MLOAD DUP1 SWAP2 SUB SWAP1 RETURN JUMPDEST PUSH2 0x225 PUSH1 0x4 DUP1 CALLDATASIZE SUB DUP2 ADD SWAP1 PUSH2 0x220 SWAP2 SWAP1 PUSH2 0x5C2 JUMP JUMPDEST PUSH2 0x4B7 JUMP JUMPDEST PUSH1 0x40 MLOAD PUSH2 0x232 SWAP2 SWAP1 PUSH2 0x60A JUMP JUMPDEST PUSH1 0x40 MLOAD DUP1 SWAP2 SUB SWAP1 RETURN JUMPDEST PUSH2 0x255 PUSH1 0x4 DUP1 CALLDATASIZE SUB DUP2 ADD SWAP1 PUSH2 0x250 SWAP2 SWAP1 PUSH2 0x5C2 JUMP JUMPDEST PUSH2 0x4C4 JUMP JUMPDEST PUSH1 0x40 MLOAD PUSH2 0x262 SWAP2 SWAP1 PUSH2 0x60A JUMP JUMPDEST PUSH1 0x40 MLOAD DUP1 SWAP2 SUB SWAP1 RETURN JUMPDEST PUSH2 0x285 PUSH1 0x4 DUP1 CALLDATASIZE SUB DUP2 ADD SWAP1 PUSH2 0x280 SWAP2 SWAP1 PUSH2 0x625 JUMP JUMPDEST PUSH2 0x4D2 JUMP JUMPDEST PUSH1 0x40 MLOAD PUSH2 0x292 SWAP2 SWAP1 PUSH2 0x674 JUMP JUMPDEST PUSH1 0x40 MLOAD DUP1 SWAP2 SUB SWAP1 RETURN JUMPDEST PUSH2 0x2B5 PUSH1 0x4 DUP1 CALLDATASIZE SUB DUP2 ADD SWAP1 PUSH2 0x2B0 SWAP2 SWAP1 PUSH2 0x5C2 JUMP JUMPDEST PUSH2 0x4DF JUMP JUMPDEST PUSH1 0x40 MLOAD PUSH2 0x2C2 SWAP2 SWAP1 PUSH2 0x674 JUMP JUMPDEST PUSH1 0x40 MLOAD DUP1 SWAP2 SUB SWAP1 RETURN JUMPDEST PUSH2 0x2D3 PUSH2 0x4EA JUMP JUMPDEST PUSH1 0x40 MLOAD PUSH2 0x2E0 SWAP2 SWAP1 PUSH2 0x674 JUMP JUMPDEST PUSH1 0x40 MLOAD DUP1 SWAP2 SUB SWAP1 RETURN JUMPDEST PUSH2 0x303 PUSH1 0x4 DUP1 CALLDATASIZE SUB DUP2 ADD SWAP1 PUSH2 0x2FE SWAP2 SWAP1 PUSH2 0x5C2 JUMP JUMPDEST PUSH2 0x4F0 JUMP JUMPDEST PUSH1 0x40 MLOAD PUSH2 0x310 SWAP2 SWAP1 PUSH2 0x60A JUMP JUMPDEST PUSH1 0x40 MLOAD DUP1 SWAP2 SUB SWAP1 RETURN JUMPDEST PUSH2 0x333 PUSH1 0x4 DUP1 CALLDATASIZE SUB DUP2 ADD SWAP1 PUSH2 0x32E SWAP2 SWAP1 PUSH2 0x625 JUMP JUMPDEST PUSH2 0x4FE JUMP JUMPDEST PUSH1 0x40 MLOAD PUSH2 0x340 SWAP2 SWAP1 PUSH2 0x674 JUMP JUMPDEST PUSH1 0x40 MLOAD DUP1 SWAP2 SUB SWAP1 RETURN JUMPDEST PUSH2 0x363 PUSH1 0x4 DUP1 CALLDATASIZE SUB DUP2 ADD SWAP1 PUSH2 0x35E SWAP2 SWAP1 PUSH2 0x625 JUMP JUMPDEST PUSH2 0x50C JUMP JUMPDEST PUSH1 0x40 MLOAD PUSH2 0x370 SWAP2 SWAP1 PUSH2 0x674 JUMP JUMPDEST PUSH1 0x40 MLOAD DUP1 SWAP2 SUB SWAP1 RETURN JUMPDEST PUSH2 0x393 PUSH1 0x4 DUP1 CALLDATASIZE SUB DUP2 ADD SWAP1 PUSH2 0x38E SWAP2 SWAP1 PUSH2 0x625 JUMP JUMPDEST PUSH2 0x522 JUMP JUMPDEST PUSH1 0x40 MLOAD PUSH2 0x3A0 SWAP2 SWAP1 PUSH2 0x674 JUMP JUMPDEST PUSH1 0x40 MLOAD DUP1 SWAP2 SUB SWAP1 RETURN JUMPDEST PUSH2 0x3C3 PUSH1 0x4 DUP1 CALLDATASIZE SUB DUP2 ADD SWAP1 PUSH2 0x3BE SWAP2 SWAP1 PUSH2 0x625 JUMP JUMPDEST PUSH2 0x538 JUMP JUMPDEST PUSH1 0x40 MLOAD PUSH2 0x3D0 SWAP2 SWAP1 PUSH2 0x674 JUMP JUMPDEST PUSH1 0x40 MLOAD DUP1 SWAP2 SUB SWAP1 RETURN JUMPDEST PUSH2 0x3F3 PUSH1 0x4 DUP1 CALLDATASIZE SUB DUP2 ADD SWAP1 PUSH2 0x3EE SWAP2 SWAP1 PUSH2 0x625 JUMP JUMPDEST PUSH2 0x54E JUMP JUMPDEST PUSH1 0x40 MLOAD PUSH2 0x400 SWAP2 SWAP1 PUSH2 0x674 JUMP JUMPDEST PUSH1 0x40 MLOAD DUP1 SWAP2 SUB SWAP1 RETURN JUMPDEST PUSH2 0x423 PUSH1 0x4 DUP1 CALLDATASIZE SUB DUP2 ADD SWAP1 PUSH2 0x41E SWAP2 SWAP1 PUSH2 0x625 JUMP JUMPDEST PUSH2 0x55B JUMP JUMPDEST PUSH1 0x40 MLOAD PUSH2 0x430 SWAP2 SWAP1 PUSH2 0x674 JUMP JUMPDEST PUSH1 0x40 MLOAD DUP1 SWAP2 SUB SWAP1 RETURN JUMPDEST PUSH2 0x453 PUSH1 0x4 DUP1 CALLDATASIZE SUB DUP2 ADD SWAP1 PUSH2 0x44E SWAP2 SWAP1 PUSH2 0x625 JUMP JUMPDEST PUSH2 0x571 JUMP JUMPDEST PUSH1 0x40 MLOAD PUSH2 0x460 SWAP2 SWAP1 PUSH2 0x674 JUMP JUMPDEST PUSH1 0x40 MLOAD DUP1 SWAP2 SUB SWAP1 RETURN JUMPDEST PUSH1 0x0 DUP1 SLOAD DUP3 GT SWAP1 POP SWAP2 SWAP1 POP JUMP JUMPDEST PUSH1 0x0 DUP1 SLOAD DUP3 LT ISZERO SWAP1 POP SWAP2 SWAP1 POP JUMP JUMPDEST PUSH1 0x0 DUP2 DUP4 PUSH2 0x492 SWAP2 SWAP1 PUSH2 0x6BE JUMP JUMPDEST SWAP1 POP SWAP3 SWAP2 POP POP JUMP JUMPDEST PUSH1 0x0 DUP2 DUP4 SWAP1 SHR SWAP1 POP SWAP3 SWAP2 POP POP JUMP JUMPDEST PUSH1 0x0 DUP2 PUSH1 0x0 SLOAD EQ ISZERO SWAP1 POP SWAP2 SWAP1 POP JUMP JUMPDEST PUSH1 0x0 DUP1 SLOAD DUP3 LT SWAP1 POP SWAP2 SWAP1 POP JUMP JUMPDEST PUSH1 0x0 DUP2 PUSH1 0x0 SLOAD EQ SWAP1 POP SWAP2 SWAP1 POP JUMP JUMPDEST PUSH1 0x0 DUP2 DUP4 AND SWAP1 POP SWAP3 SWAP2 POP POP JUMP JUMPDEST PUSH1 0x0 DUP2 NOT SWAP1 POP SWAP2 SWAP1 POP JUMP JUMPDEST PUSH1 0x0 SLOAD DUP2 JUMP JUMPDEST PUSH1 0x0 DUP1 SLOAD DUP3 GT ISZERO SWAP1 POP SWAP2 SWAP1 POP JUMP JUMPDEST PUSH1 0x0 DUP2 DUP4 SWAP1 SHL SWAP1 POP SWAP3 SWAP2 POP POP JUMP JUMPDEST PUSH1 0x0 DUP2 DUP4 PUSH2 0x51A SWAP2 SWAP1 PUSH2 0x700 JUMP JUMPDEST SWAP1 POP SWAP3 SWAP2 POP POP JUMP JUMPDEST PUSH1 0x0 DUP2 DUP4 PUSH2 0x530 SWAP2 SWAP1 PUSH2 0x734 JUMP JUMPDEST SWAP1 POP SWAP3 SWAP2 POP POP JUMP JUMPDEST PUSH1 0x0 DUP2 DUP4 PUSH2 0x546 SWAP2 SWAP1 PUSH2 0x797 JUMP JUMPDEST SWAP1 POP SWAP3 SWAP2 POP POP JUMP JUMPDEST PUSH1 0x0 DUP2 DUP4 XOR SWAP1 POP SWAP3 SWAP2 POP POP JUMP JUMPDEST PUSH1 0x0 DUP2 DUP4 PUSH2 0x569 SWAP2 SWAP1 PUSH2 0x7C8 JUMP JUMPDEST SWAP1 POP SWAP3 SWAP2 POP POP JUMP JUMPDEST PUSH1 0x0 DUP2 DUP4 PUSH2 0x57F SWAP2 SWAP1 PUSH2 0x92C JUMP JUMPDEST SWAP1 POP SWAP3 SWAP2 POP POP JUMP JUMPDEST PUSH1 0x0 DUP1 REVERT JUMPDEST PUSH1 0x0 DUP2 SWAP1 POP SWAP2 SWAP1 POP JUMP JUMPDEST PUSH2 0x59F DUP2 PUSH2 0x58C JUMP JUMPDEST DUP2 EQ PUSH2 0x5AA JUMPI PUSH1 0x0 DUP1 REVERT JUMPDEST POP JUMP JUMPDEST PUSH1 0x0 DUP2 CALLDATALOAD SWAP1 POP PUSH2 0x5BC DUP2 PUSH2 0x596 JUMP JUMPDEST SWAP3 SWAP2 POP POP JUMP JUMPDEST PUSH1 0x0 PUSH1 0x20 DUP3 DUP5 SUB SLT ISZERO PUSH2 0x5D8 JUMPI PUSH2 0x5D7 PUSH2 0x587 JUMP JUMPDEST JUMPDEST PUSH1 0x0 PUSH2 0x5E6 DUP5 DUP3 DUP6 ADD PUSH2 0x5AD JUMP JUMPDEST SWAP2 POP POP SWAP3 SWAP2 POP POP JUMP JUMPDEST PUSH1 0x0 DUP2 ISZERO ISZERO SWAP1 POP SWAP2 SWAP1 POP JUMP JUMPDEST PUSH2 0x604 DUP2 PUSH2 0x5EF JUMP JUMPDEST DUP3 MSTORE POP POP JUMP JUMPDEST PUSH1 0x0 PUSH1 0x20 DUP3 ADD SWAP1 POP PUSH2 0x61F PUSH1 0x0 DUP4 ADD DUP5 PUSH2 0x5FB JUMP JUMPDEST SWAP3 SWAP2 POP POP JUMP JUMPDEST PUSH1 0x0 DUP1 PUSH1 0x40 DUP4 DUP6 SUB SLT ISZERO PUSH2 0x63C JUMPI PUSH2 0x63B PUSH2 0x587 JUMP JUMPDEST JUMPDEST PUSH1 0x0 PUSH2 0x64A DUP6 DUP3 DUP7 ADD PUSH2 0x5AD JUMP JUMPDEST SWAP3 POP POP PUSH1 0x20 PUSH2 0x65B DUP6 DUP3 DUP7 ADD PUSH2 0x5AD JUMP JUMPDEST SWAP2 POP POP SWAP3 POP SWAP3 SWAP1 POP JUMP JUMPDEST PUSH2 0x66E DUP2 PUSH2 0x58C JUMP JUMPDEST DUP3 MSTORE POP POP JUMP JUMPDEST PUSH1 0x0 PUSH1 0x20 DUP3 ADD SWAP1 POP PUSH2 0x689 PUSH1 0x0 DUP4 ADD DUP5 PUSH2 0x665 JUMP JUMPDEST SWAP3 SWAP2 POP POP JUMP JUMPDEST PUSH32 0x4E487B7100000000000000000000000000000000000000000000000000000000 PUSH1 0x0 MSTORE PUSH1 0x11 PUSH1 0x4 MSTORE PUSH1 0x24 PUSH1 0x0 REVERT JUMPDEST PUSH1 0x0 PUSH2 0x6C9 DUP3 PUSH2 0x58C JUMP JUMPDEST SWAP2 POP PUSH2 0x6D4 DUP4 PUSH2 0x58C JUMP JUMPDEST SWAP3 POP DUP3 DUP3 MUL PUSH2 0x6E2 DUP2 PUSH2 0x58C JUMP JUMPDEST SWAP2 POP DUP3 DUP3 DIV DUP5 EQ DUP4 ISZERO OR PUSH2 0x6F9 JUMPI PUSH2 0x6F8 PUSH2 0x68F JUMP JUMPDEST JUMPDEST POP SWAP3 SWAP2 POP POP JUMP JUMPDEST PUSH1 0x0 PUSH2 0x70B DUP3 PUSH2 0x58C JUMP JUMPDEST SWAP2 POP PUSH2 0x716 DUP4 PUSH2 0x58C JUMP JUMPDEST SWAP3 POP DUP3 DUP3 ADD SWAP1 POP DUP1 DUP3 GT ISZERO PUSH2 0x72E JUMPI PUSH2 0x72D PUSH2 0x68F JUMP JUMPDEST JUMPDEST SWAP3 SWAP2 POP POP JUMP JUMPDEST PUSH1 0x0 PUSH2 0x73F DUP3 PUSH2 0x58C JUMP JUMPDEST SWAP2 POP PUSH2 0x74A DUP4 PUSH2 0x58C JUMP JUMPDEST SWAP3 POP DUP3 DUP3 SUB SWAP1 POP DUP2 DUP2 GT ISZERO PUSH2 0x762 JUMPI PUSH2 0x761 PUSH2 0x68F JUMP JUMPDEST JUMPDEST SWAP3 SWAP2 POP POP JUMP JUMPDEST PUSH32 0x4E487B7100000000000000000000000000000000000000000000000000000000 PUSH1 0x0 MSTORE PUSH1 0x12 PUSH1 0x4 MSTORE PUSH1 0x24 PUSH1 0x0 REVERT JUMPDEST PUSH1 0x0 PUSH2 0x7A2 DUP3 PUSH2 0x58C JUMP JUMPDEST SWAP2 POP PUSH2 0x7AD DUP4 PUSH2 0x58C JUMP JUMPDEST SWAP3 POP DUP3 PUSH2 0x7BD JUMPI PUSH2 0x7BC PUSH2 0x768 JUMP JUMPDEST JUMPDEST DUP3 DUP3 DIV SWAP1 POP SWAP3 SWAP2 POP POP JUMP JUMPDEST PUSH1 0x0 PUSH2 0x7D3 DUP3 PUSH2 0x58C JUMP JUMPDEST SWAP2 POP PUSH2 0x7DE DUP4 PUSH2 0x58C JUMP JUMPDEST SWAP3 POP DUP3 PUSH2 0x7EE JUMPI PUSH2 0x7ED PUSH2 0x768 JUMP JUMPDEST JUMPDEST DUP3 DUP3 MOD SWAP1 POP SWAP3 SWAP2 POP POP JUMP JUMPDEST PUSH1 0x0 DUP2 PUSH1 0x1 SHR SWAP1 POP SWAP2 SWAP1 POP JUMP JUMPDEST PUSH1 0x0 DUP1 DUP3 SWAP2 POP DUP4 SWAP1 POP JUMPDEST PUSH1 0x1 DUP6 GT ISZERO PUSH2 0x850 JUMPI DUP1 DUP7 DIV DUP2 GT ISZERO PUSH2 0x82C JUMPI PUSH2 0x82B PUSH2 0x68F JUMP JUMPDEST JUMPDEST PUSH1 0x1 DUP6 AND ISZERO PUSH2 0x83B JUMPI DUP1 DUP3 MUL SWAP2 POP JUMPDEST DUP1 DUP2 MUL SWAP1 POP PUSH2 0x849 DUP6 PUSH2 0x7F9 JUMP JUMPDEST SWAP5 POP PUSH2 0x810 JUMP JUMPDEST SWAP5 POP SWAP5 SWAP3 POP POP POP JUMP JUMPDEST PUSH1 0x0 DUP3 PUSH2 0x869 JUMPI PUSH1 0x1 SWAP1 POP PUSH2 0x925 JUMP JUMPDEST DUP2 PUSH2 0x877 JUMPI PUSH1 0x0 SWAP1 POP PUSH2 0x925 JUMP JUMPDEST DUP2 PUSH1 0x1 DUP2 EQ PUSH2 0x88D JUMPI PUSH1 0x2 DUP2 EQ PUSH2 0x897 JUMPI PUSH2 0x8C6 JUMP JUMPDEST PUSH1 0x1 SWAP2 POP POP PUSH2 0x925 JUMP JUMPDEST PUSH1 0xFF DUP5 GT ISZERO PUSH2 0x8A9 JUMPI PUSH2 0x8A8 PUSH2 0x68F JUMP JUMPDEST JUMPDEST DUP4 PUSH1 0x2 EXP SWAP2 POP DUP5 DUP3 GT ISZERO PUSH2 0x8C0 JUMPI PUSH2 0x8BF PUSH2 0x68F JUMP JUMPDEST JUMPDEST POP PUSH2 0x925 JUMP JUMPDEST POP PUSH1 0x20 DUP4 LT PUSH2 0x133 DUP4 LT AND PUSH1 0x4E DUP5 LT PUSH1 0xB DUP5 LT AND OR ISZERO PUSH2 0x8FB JUMPI DUP3 DUP3 EXP SWAP1 POP DUP4 DUP2 GT ISZERO PUSH2 0x8F6 JUMPI PUSH2 0x8F5 PUSH2 0x68F JUMP JUMPDEST JUMPDEST PUSH2 0x925 JUMP JUMPDEST PUSH2 0x908 DUP5 DUP5 DUP5 PUSH1 0x1 PUSH2 0x806 JUMP JUMPDEST SWAP3 POP SWAP1 POP DUP2 DUP5 DIV DUP2 GT ISZERO PUSH2 0x91F JUMPI PUSH2 0x91E PUSH2 0x68F JUMP JUMPDEST JUMPDEST DUP2 DUP2 MUL SWAP1 POP JUMPDEST SWAP4 SWAP3 POP POP POP JUMP JUMPDEST PUSH1 0x0 PUSH2 0x937 DUP3 PUSH2 0x58C JUMP JUMPDEST SWAP2 POP PUSH2 0x942 DUP4 PUSH2 0x58C JUMP JUMPDEST SWAP3 POP PUSH2 0x96F PUSH32 0xFFFFFFFFFFFFFFFFFFFFFFFFFFFFFFFFFFFFFFFFFFFFFFFFFFFFFFFFFFFFFFFF DUP5 DUP5 PUSH2 0x859 JUMP JUMPDEST SWAP1 POP SWAP3 SWAP2 POP POP JUMP INVALID LOG2 PUSH5 0x6970667358 0x22 SLT KECCAK256 0xD3 CHAINID 0xDF PUSH17 0x980E3ECE5401332DD4A8D5B2EC6CC98C61 PUSH21 0xCCBAF4EF71D10CB992F964736F6C63430008120033 "
				},
				"gasEstimates": {
					"creation": {
						"codeDepositCost": "495400",
						"executionCost": "530",
						"totalCost": "495930"
					},
					"external": {
						"bitwiseAnd(uint256,uint256)": "infinite",
						"bitwiseNot(uint256)": "infinite",
						"bitwiseXOR(uint256,uint256)": "infinite",
						"division(uint256,uint256)": "infinite",
						"exp(uint256,uint256)": "infinite",
						"isEqual(uint256)": "2781",
						"isGreater(uint256)": "2738",
						"isGreaterOrEqual(uint256)": "2763",
						"isLess(uint256)": "2759",
						"isLessOrEqual(uint256)": "2762",
						"isNotEqual(uint256)": "2740",
						"mod(uint256,uint256)": "infinite",
						"multiply(uint256,uint256)": "infinite",
						"number()": "2452",
						"shiftLeft(uint256,uint256)": "infinite",
						"shiftRight(uint256,uint256)": "infinite",
						"substraction(uint256,uint256)": "infinite",
						"sum(uint256,uint256)": "infinite"
					}
				},
				"methodIdentifiers": {
					"bitwiseAnd(uint256,uint256)": "643a5366",
					"bitwiseNot(uint256)": "7602448b",
					"bitwiseXOR(uint256,uint256)": "e37caed8",
					"division(uint256,uint256)": "e0068052",
					"exp(uint256,uint256)": "f5f565f8",
					"isEqual(uint256)": "3f775f6d",
					"isGreater(uint256)": "09a32210",
					"isGreaterOrEqual(uint256)": "0be237cf",
					"isLess(uint256)": "27377754",
					"isLessOrEqual(uint256)": "8a3759b9",
					"isNotEqual(uint256)": "225ba612",
					"mod(uint256,uint256)": "f43f523a",
					"multiply(uint256,uint256)": "165c4a16",
					"number()": "8381f58a",
					"shiftLeft(uint256,uint256)": "a589d212",
					"shiftRight(uint256,uint256)": "1685fa98",
					"substraction(uint256,uint256)": "cdeb3314",
					"sum(uint256,uint256)": "cad0899b"
				}
			},
			"storageLayout": {
				"storage": [
					{
						"astId": 4,
						"contract": "contracts/Integer.sol:Integer",
						"label": "number",
						"offset": 0,
						"slot": "0",
						"type": "t_uint256"
					}
				],
				"types": {
					"t_uint256": {
						"encoding": "inplace",
						"label": "uint256",
						"numberOfBytes": "32"
					}
				}
			},
			"userdoc": {
				"kind": "user",
				"methods": {},
				"version": 1
			}
		}
	}
}