{
	"contracts/FixedSizeArray.sol": {
		"FixedSizeArray": {
			"abi": [
				{
					"inputs": [
						{
							"internalType": "string",
							"name": "_city",
							"type": "string"
						}
					],
					"stateMutability": "nonpayable",
					"type": "constructor"
				},
				{
					"inputs": [
						{
							"internalType": "string",
							"name": "_city",
							"type": "string"
						}
					],
					"name": "addCity",
					"outputs": [],
					"stateMutability": "nonpayable",
					"type": "function"
				},
				{
					"inputs": [
						{
							"internalType": "uint256",
							"name": "_index",
							"type": "uint256"
						}
					],
					"name": "getCityByIndex",
					"outputs": [
						{
							"internalType": "string",
							"name": "",
							"type": "string"
						}
					],
					"stateMutability": "view",
					"type": "function"
				},
				{
					"inputs": [],
					"name": "getCityCount",
					"outputs": [
						{
							"internalType": "uint256",
							"name": "",
							"type": "uint256"
						}
					],
					"stateMutability": "view",
					"type": "function"
				},
				{
					"inputs": [],
					"name": "getCityList",
					"outputs": [
						{
							"internalType": "string[]",
							"name": "",
							"type": "string[]"
						}
					],
					"stateMutability": "view",
					"type": "function"
				}
			],
			"devdoc": {
				"author": "0xVeliUysal",
				"details": "Array Example",
				"kind": "dev",
				"methods": {},
				"version": 1
			},
			"evm": {
				"assembly": "    /* \"contracts/FixedSizeArray.sol\":126:922  contract FixedSizeArray {... */\n  mstore(0x40, 0x80)\n    /* \"contracts/FixedSizeArray.sol\":198:272  constructor(string memory _city){... */\n  callvalue\n  dup1\n  iszero\n  tag_1\n  jumpi\n  0x00\n  dup1\n  revert\ntag_1:\n  pop\n  mload(0x40)\n  sub(codesize, bytecodeSize)\n  dup1\n  bytecodeSize\n  dup4\n  codecopy\n  dup2\n  dup2\n  add\n  0x40\n  mstore\n  dup2\n  add\n  swap1\n  tag_2\n  swap2\n  swap1\n  tag_3\n  jump\t// in\ntag_2:\n    /* \"contracts/FixedSizeArray.sol\":260:265  _city */\n  dup1\n    /* \"contracts/FixedSizeArray.sol\":240:248  cityList */\n  0x00\n    /* \"contracts/FixedSizeArray.sol\":249:254  index */\n  0x03\n  0x00\n    /* \"contracts/FixedSizeArray.sol\":249:256  index++ */\n  dup2\n  sload\n  dup1\n  swap3\n  swap2\n  swap1\n  tag_6\n  swap1\n  tag_7\n  jump\t// in\ntag_6:\n  swap2\n  swap1\n  pop\n  sstore\n    /* \"contracts/FixedSizeArray.sol\":240:257  cityList[index++] */\n  0x03\n  dup2\n  lt\n  tag_8\n  jumpi\n  tag_9\n  tag_10\n  jump\t// in\ntag_9:\ntag_8:\n  add\n    /* \"contracts/FixedSizeArray.sol\":240:265  cityList[index++] = _city */\n  swap1\n  dup2\n  tag_12\n  swap2\n  swap1\n  tag_13\n  jump\t// in\ntag_12:\n  pop\n    /* \"contracts/FixedSizeArray.sol\":198:272  constructor(string memory _city){... */\n  pop\n    /* \"contracts/FixedSizeArray.sol\":126:922  contract FixedSizeArray {... */\n  jump(tag_14)\n    /* \"#utility.yul\":7:82   */\ntag_15:\n    /* \"#utility.yul\":40:46   */\n  0x00\n    /* \"#utility.yul\":73:75   */\n  0x40\n    /* \"#utility.yul\":67:76   */\n  mload\n    /* \"#utility.yul\":57:76   */\n  swap1\n  pop\n    /* \"#utility.yul\":7:82   */\n  swap1\n  jump\t// out\n    /* \"#utility.yul\":88:205   */\ntag_16:\n    /* \"#utility.yul\":197:198   */\n  0x00\n    /* \"#utility.yul\":194:195   */\n  dup1\n    /* \"#utility.yul\":187:199   */\n  revert\n    /* \"#utility.yul\":211:328   */\ntag_17:\n    /* \"#utility.yul\":320:321   */\n  0x00\n    /* \"#utility.yul\":317:318   */\n  dup1\n    /* \"#utility.yul\":310:322   */\n  revert\n    /* \"#utility.yul\":334:451   */\ntag_18:\n    /* \"#utility.yul\":443:444   */\n  0x00\n    /* \"#utility.yul\":440:441   */\n  dup1\n    /* \"#utility.yul\":433:445   */\n  revert\n    /* \"#utility.yul\":457:574   */\ntag_19:\n    /* \"#utility.yul\":566:567   */\n  0x00\n    /* \"#utility.yul\":563:564   */\n  dup1\n    /* \"#utility.yul\":556:568   */\n  revert\n    /* \"#utility.yul\":580:682   */\ntag_20:\n    /* \"#utility.yul\":621:627   */\n  0x00\n    /* \"#utility.yul\":672:674   */\n  0x1f\n    /* \"#utility.yul\":668:675   */\n  not\n    /* \"#utility.yul\":663:665   */\n  0x1f\n    /* \"#utility.yul\":656:661   */\n  dup4\n    /* \"#utility.yul\":652:666   */\n  add\n    /* \"#utility.yul\":648:676   */\n  and\n    /* \"#utility.yul\":638:676   */\n  swap1\n  pop\n    /* \"#utility.yul\":580:682   */\n  swap2\n  swap1\n  pop\n  jump\t// out\n    /* \"#utility.yul\":688:868   */\ntag_21:\n    /* \"#utility.yul\":736:813   */\n  0x4e487b7100000000000000000000000000000000000000000000000000000000\n    /* \"#utility.yul\":733:734   */\n  0x00\n    /* \"#utility.yul\":726:814   */\n  mstore\n    /* \"#utility.yul\":833:837   */\n  0x41\n    /* \"#utility.yul\":830:831   */\n  0x04\n    /* \"#utility.yul\":823:838   */\n  mstore\n    /* \"#utility.yul\":857:861   */\n  0x24\n    /* \"#utility.yul\":854:855   */\n  0x00\n    /* \"#utility.yul\":847:862   */\n  revert\n    /* \"#utility.yul\":874:1155   */\ntag_22:\n    /* \"#utility.yul\":957:984   */\n  tag_57\n    /* \"#utility.yul\":979:983   */\n  dup3\n    /* \"#utility.yul\":957:984   */\n  tag_20\n  jump\t// in\ntag_57:\n    /* \"#utility.yul\":949:955   */\n  dup2\n    /* \"#utility.yul\":945:985   */\n  add\n    /* \"#utility.yul\":1087:1093   */\n  dup2\n    /* \"#utility.yul\":1075:1085   */\n  dup2\n    /* \"#utility.yul\":1072:1094   */\n  lt\n    /* \"#utility.yul\":1051:1069   */\n  0xffffffffffffffff\n    /* \"#utility.yul\":1039:1049   */\n  dup3\n    /* \"#utility.yul\":1036:1070   */\n  gt\n    /* \"#utility.yul\":1033:1095   */\n  or\n    /* \"#utility.yul\":1030:1118   */\n  iszero\n  tag_58\n  jumpi\n    /* \"#utility.yul\":1098:1116   */\n  tag_59\n  tag_21\n  jump\t// in\ntag_59:\n    /* \"#utility.yul\":1030:1118   */\ntag_58:\n    /* \"#utility.yul\":1138:1148   */\n  dup1\n    /* \"#utility.yul\":1134:1136   */\n  0x40\n    /* \"#utility.yul\":1127:1149   */\n  mstore\n    /* \"#utility.yul\":917:1155   */\n  pop\n    /* \"#utility.yul\":874:1155   */\n  pop\n  pop\n  jump\t// out\n    /* \"#utility.yul\":1161:1290   */\ntag_23:\n    /* \"#utility.yul\":1195:1201   */\n  0x00\n    /* \"#utility.yul\":1222:1242   */\n  tag_61\n  tag_15\n  jump\t// in\ntag_61:\n    /* \"#utility.yul\":1212:1242   */\n  swap1\n  pop\n    /* \"#utility.yul\":1251:1284   */\n  tag_62\n    /* \"#utility.yul\":1279:1283   */\n  dup3\n    /* \"#utility.yul\":1271:1277   */\n  dup3\n    /* \"#utility.yul\":1251:1284   */\n  tag_22\n  jump\t// in\ntag_62:\n    /* \"#utility.yul\":1161:1290   */\n  swap2\n  swap1\n  pop\n  jump\t// out\n    /* \"#utility.yul\":1296:1604   */\ntag_24:\n    /* \"#utility.yul\":1358:1362   */\n  0x00\n    /* \"#utility.yul\":1448:1466   */\n  0xffffffffffffffff\n    /* \"#utility.yul\":1440:1446   */\n  dup3\n    /* \"#utility.yul\":1437:1467   */\n  gt\n    /* \"#utility.yul\":1434:1490   */\n  iszero\n  tag_64\n  jumpi\n    /* \"#utility.yul\":1470:1488   */\n  tag_65\n  tag_21\n  jump\t// in\ntag_65:\n    /* \"#utility.yul\":1434:1490   */\ntag_64:\n    /* \"#utility.yul\":1508:1537   */\n  tag_66\n    /* \"#utility.yul\":1530:1536   */\n  dup3\n    /* \"#utility.yul\":1508:1537   */\n  tag_20\n  jump\t// in\ntag_66:\n    /* \"#utility.yul\":1500:1537   */\n  swap1\n  pop\n    /* \"#utility.yul\":1592:1596   */\n  0x20\n    /* \"#utility.yul\":1586:1590   */\n  dup2\n    /* \"#utility.yul\":1582:1597   */\n  add\n    /* \"#utility.yul\":1574:1597   */\n  swap1\n  pop\n    /* \"#utility.yul\":1296:1604   */\n  swap2\n  swap1\n  pop\n  jump\t// out\n    /* \"#utility.yul\":1610:1856   */\ntag_25:\n    /* \"#utility.yul\":1691:1692   */\n  0x00\n    /* \"#utility.yul\":1701:1814   */\ntag_68:\n    /* \"#utility.yul\":1715:1721   */\n  dup4\n    /* \"#utility.yul\":1712:1713   */\n  dup2\n    /* \"#utility.yul\":1709:1722   */\n  lt\n    /* \"#utility.yul\":1701:1814   */\n  iszero\n  tag_70\n  jumpi\n    /* \"#utility.yul\":1800:1801   */\n  dup1\n    /* \"#utility.yul\":1795:1798   */\n  dup3\n    /* \"#utility.yul\":1791:1802   */\n  add\n    /* \"#utility.yul\":1785:1803   */\n  mload\n    /* \"#utility.yul\":1781:1782   */\n  dup2\n    /* \"#utility.yul\":1776:1779   */\n  dup5\n    /* \"#utility.yul\":1772:1783   */\n  add\n    /* \"#utility.yul\":1765:1804   */\n  mstore\n    /* \"#utility.yul\":1737:1739   */\n  0x20\n    /* \"#utility.yul\":1734:1735   */\n  dup2\n    /* \"#utility.yul\":1730:1740   */\n  add\n    /* \"#utility.yul\":1725:1740   */\n  swap1\n  pop\n    /* \"#utility.yul\":1701:1814   */\n  jump(tag_68)\ntag_70:\n    /* \"#utility.yul\":1848:1849   */\n  0x00\n    /* \"#utility.yul\":1839:1845   */\n  dup5\n    /* \"#utility.yul\":1834:1837   */\n  dup5\n    /* \"#utility.yul\":1830:1846   */\n  add\n    /* \"#utility.yul\":1823:1850   */\n  mstore\n    /* \"#utility.yul\":1672:1856   */\n  pop\n    /* \"#utility.yul\":1610:1856   */\n  pop\n  pop\n  pop\n  jump\t// out\n    /* \"#utility.yul\":1862:2296   */\ntag_26:\n    /* \"#utility.yul\":1951:1956   */\n  0x00\n    /* \"#utility.yul\":1976:2042   */\n  tag_72\n    /* \"#utility.yul\":1992:2041   */\n  tag_73\n    /* \"#utility.yul\":2034:2040   */\n  dup5\n    /* \"#utility.yul\":1992:2041   */\n  tag_24\n  jump\t// in\ntag_73:\n    /* \"#utility.yul\":1976:2042   */\n  tag_23\n  jump\t// in\ntag_72:\n    /* \"#utility.yul\":1967:2042   */\n  swap1\n  pop\n    /* \"#utility.yul\":2065:2071   */\n  dup3\n    /* \"#utility.yul\":2058:2063   */\n  dup2\n    /* \"#utility.yul\":2051:2072   */\n  mstore\n    /* \"#utility.yul\":2103:2107   */\n  0x20\n    /* \"#utility.yul\":2096:2101   */\n  dup2\n    /* \"#utility.yul\":2092:2108   */\n  add\n    /* \"#utility.yul\":2141:2144   */\n  dup5\n    /* \"#utility.yul\":2132:2138   */\n  dup5\n    /* \"#utility.yul\":2127:2130   */\n  dup5\n    /* \"#utility.yul\":2123:2139   */\n  add\n    /* \"#utility.yul\":2120:2145   */\n  gt\n    /* \"#utility.yul\":2117:2229   */\n  iszero\n  tag_74\n  jumpi\n    /* \"#utility.yul\":2148:2227   */\n  tag_75\n  tag_19\n  jump\t// in\ntag_75:\n    /* \"#utility.yul\":2117:2229   */\ntag_74:\n    /* \"#utility.yul\":2238:2290   */\n  tag_76\n    /* \"#utility.yul\":2283:2289   */\n  dup5\n    /* \"#utility.yul\":2278:2281   */\n  dup3\n    /* \"#utility.yul\":2273:2276   */\n  dup6\n    /* \"#utility.yul\":2238:2290   */\n  tag_25\n  jump\t// in\ntag_76:\n    /* \"#utility.yul\":1957:2296   */\n  pop\n    /* \"#utility.yul\":1862:2296   */\n  swap4\n  swap3\n  pop\n  pop\n  pop\n  jump\t// out\n    /* \"#utility.yul\":2316:2671   */\ntag_27:\n    /* \"#utility.yul\":2383:2388   */\n  0x00\n    /* \"#utility.yul\":2432:2435   */\n  dup3\n    /* \"#utility.yul\":2425:2429   */\n  0x1f\n    /* \"#utility.yul\":2417:2423   */\n  dup4\n    /* \"#utility.yul\":2413:2430   */\n  add\n    /* \"#utility.yul\":2409:2436   */\n  slt\n    /* \"#utility.yul\":2399:2521   */\n  tag_78\n  jumpi\n    /* \"#utility.yul\":2440:2519   */\n  tag_79\n  tag_18\n  jump\t// in\ntag_79:\n    /* \"#utility.yul\":2399:2521   */\ntag_78:\n    /* \"#utility.yul\":2550:2556   */\n  dup2\n    /* \"#utility.yul\":2544:2557   */\n  mload\n    /* \"#utility.yul\":2575:2665   */\n  tag_80\n    /* \"#utility.yul\":2661:2664   */\n  dup5\n    /* \"#utility.yul\":2653:2659   */\n  dup3\n    /* \"#utility.yul\":2646:2650   */\n  0x20\n    /* \"#utility.yul\":2638:2644   */\n  dup7\n    /* \"#utility.yul\":2634:2651   */\n  add\n    /* \"#utility.yul\":2575:2665   */\n  tag_26\n  jump\t// in\ntag_80:\n    /* \"#utility.yul\":2566:2665   */\n  swap2\n  pop\n    /* \"#utility.yul\":2389:2671   */\n  pop\n    /* \"#utility.yul\":2316:2671   */\n  swap3\n  swap2\n  pop\n  pop\n  jump\t// out\n    /* \"#utility.yul\":2677:3201   */\ntag_3:\n    /* \"#utility.yul\":2757:2763   */\n  0x00\n    /* \"#utility.yul\":2806:2808   */\n  0x20\n    /* \"#utility.yul\":2794:2803   */\n  dup3\n    /* \"#utility.yul\":2785:2792   */\n  dup5\n    /* \"#utility.yul\":2781:2804   */\n  sub\n    /* \"#utility.yul\":2777:2809   */\n  slt\n    /* \"#utility.yul\":2774:2893   */\n  iszero\n  tag_82\n  jumpi\n    /* \"#utility.yul\":2812:2891   */\n  tag_83\n  tag_16\n  jump\t// in\ntag_83:\n    /* \"#utility.yul\":2774:2893   */\ntag_82:\n    /* \"#utility.yul\":2953:2954   */\n  0x00\n    /* \"#utility.yul\":2942:2951   */\n  dup3\n    /* \"#utility.yul\":2938:2955   */\n  add\n    /* \"#utility.yul\":2932:2956   */\n  mload\n    /* \"#utility.yul\":2983:3001   */\n  0xffffffffffffffff\n    /* \"#utility.yul\":2975:2981   */\n  dup2\n    /* \"#utility.yul\":2972:3002   */\n  gt\n    /* \"#utility.yul\":2969:3086   */\n  iszero\n  tag_84\n  jumpi\n    /* \"#utility.yul\":3005:3084   */\n  tag_85\n  tag_17\n  jump\t// in\ntag_85:\n    /* \"#utility.yul\":2969:3086   */\ntag_84:\n    /* \"#utility.yul\":3110:3184   */\n  tag_86\n    /* \"#utility.yul\":3176:3183   */\n  dup5\n    /* \"#utility.yul\":3167:3173   */\n  dup3\n    /* \"#utility.yul\":3156:3165   */\n  dup6\n    /* \"#utility.yul\":3152:3174   */\n  add\n    /* \"#utility.yul\":3110:3184   */\n  tag_27\n  jump\t// in\ntag_86:\n    /* \"#utility.yul\":3100:3184   */\n  swap2\n  pop\n    /* \"#utility.yul\":2903:3194   */\n  pop\n    /* \"#utility.yul\":2677:3201   */\n  swap3\n  swap2\n  pop\n  pop\n  jump\t// out\n    /* \"#utility.yul\":3207:3387   */\ntag_28:\n    /* \"#utility.yul\":3255:3332   */\n  0x4e487b7100000000000000000000000000000000000000000000000000000000\n    /* \"#utility.yul\":3252:3253   */\n  0x00\n    /* \"#utility.yul\":3245:3333   */\n  mstore\n    /* \"#utility.yul\":3352:3356   */\n  0x11\n    /* \"#utility.yul\":3349:3350   */\n  0x04\n    /* \"#utility.yul\":3342:3357   */\n  mstore\n    /* \"#utility.yul\":3376:3380   */\n  0x24\n    /* \"#utility.yul\":3373:3374   */\n  0x00\n    /* \"#utility.yul\":3366:3381   */\n  revert\n    /* \"#utility.yul\":3393:3470   */\ntag_29:\n    /* \"#utility.yul\":3430:3437   */\n  0x00\n    /* \"#utility.yul\":3459:3464   */\n  dup2\n    /* \"#utility.yul\":3448:3464   */\n  swap1\n  pop\n    /* \"#utility.yul\":3393:3470   */\n  swap2\n  swap1\n  pop\n  jump\t// out\n    /* \"#utility.yul\":3476:3709   */\ntag_7:\n    /* \"#utility.yul\":3515:3518   */\n  0x00\n    /* \"#utility.yul\":3538:3562   */\n  tag_90\n    /* \"#utility.yul\":3556:3561   */\n  dup3\n    /* \"#utility.yul\":3538:3562   */\n  tag_29\n  jump\t// in\ntag_90:\n    /* \"#utility.yul\":3529:3562   */\n  swap2\n  pop\n    /* \"#utility.yul\":3584:3650   */\n  0xffffffffffffffffffffffffffffffffffffffffffffffffffffffffffffffff\n    /* \"#utility.yul\":3577:3582   */\n  dup3\n    /* \"#utility.yul\":3574:3651   */\n  sub\n    /* \"#utility.yul\":3571:3674   */\n  tag_91\n  jumpi\n    /* \"#utility.yul\":3654:3672   */\n  tag_92\n  tag_28\n  jump\t// in\ntag_92:\n    /* \"#utility.yul\":3571:3674   */\ntag_91:\n    /* \"#utility.yul\":3701:3702   */\n  0x01\n    /* \"#utility.yul\":3694:3699   */\n  dup3\n    /* \"#utility.yul\":3690:3703   */\n  add\n    /* \"#utility.yul\":3683:3703   */\n  swap1\n  pop\n    /* \"#utility.yul\":3476:3709   */\n  swap2\n  swap1\n  pop\n  jump\t// out\n    /* \"#utility.yul\":3715:3895   */\ntag_10:\n    /* \"#utility.yul\":3763:3840   */\n  0x4e487b7100000000000000000000000000000000000000000000000000000000\n    /* \"#utility.yul\":3760:3761   */\n  0x00\n    /* \"#utility.yul\":3753:3841   */\n  mstore\n    /* \"#utility.yul\":3860:3864   */\n  0x32\n    /* \"#utility.yul\":3857:3858   */\n  0x04\n    /* \"#utility.yul\":3850:3865   */\n  mstore\n    /* \"#utility.yul\":3884:3888   */\n  0x24\n    /* \"#utility.yul\":3881:3882   */\n  0x00\n    /* \"#utility.yul\":3874:3889   */\n  revert\n    /* \"#utility.yul\":3901:4000   */\ntag_30:\n    /* \"#utility.yul\":3953:3959   */\n  0x00\n    /* \"#utility.yul\":3987:3992   */\n  dup2\n    /* \"#utility.yul\":3981:3993   */\n  mload\n    /* \"#utility.yul\":3971:3993   */\n  swap1\n  pop\n    /* \"#utility.yul\":3901:4000   */\n  swap2\n  swap1\n  pop\n  jump\t// out\n    /* \"#utility.yul\":4006:4186   */\ntag_31:\n    /* \"#utility.yul\":4054:4131   */\n  0x4e487b7100000000000000000000000000000000000000000000000000000000\n    /* \"#utility.yul\":4051:4052   */\n  0x00\n    /* \"#utility.yul\":4044:4132   */\n  mstore\n    /* \"#utility.yul\":4151:4155   */\n  0x22\n    /* \"#utility.yul\":4148:4149   */\n  0x04\n    /* \"#utility.yul\":4141:4156   */\n  mstore\n    /* \"#utility.yul\":4175:4179   */\n  0x24\n    /* \"#utility.yul\":4172:4173   */\n  0x00\n    /* \"#utility.yul\":4165:4180   */\n  revert\n    /* \"#utility.yul\":4192:4512   */\ntag_32:\n    /* \"#utility.yul\":4236:4242   */\n  0x00\n    /* \"#utility.yul\":4273:4274   */\n  0x02\n    /* \"#utility.yul\":4267:4271   */\n  dup3\n    /* \"#utility.yul\":4263:4275   */\n  div\n    /* \"#utility.yul\":4253:4275   */\n  swap1\n  pop\n    /* \"#utility.yul\":4320:4321   */\n  0x01\n    /* \"#utility.yul\":4314:4318   */\n  dup3\n    /* \"#utility.yul\":4310:4322   */\n  and\n    /* \"#utility.yul\":4341:4359   */\n  dup1\n    /* \"#utility.yul\":4331:4412   */\n  tag_97\n  jumpi\n    /* \"#utility.yul\":4397:4401   */\n  0x7f\n    /* \"#utility.yul\":4389:4395   */\n  dup3\n    /* \"#utility.yul\":4385:4402   */\n  and\n    /* \"#utility.yul\":4375:4402   */\n  swap2\n  pop\n    /* \"#utility.yul\":4331:4412   */\ntag_97:\n    /* \"#utility.yul\":4459:4461   */\n  0x20\n    /* \"#utility.yul\":4451:4457   */\n  dup3\n    /* \"#utility.yul\":4448:4462   */\n  lt\n    /* \"#utility.yul\":4428:4446   */\n  dup2\n    /* \"#utility.yul\":4425:4463   */\n  sub\n    /* \"#utility.yul\":4422:4506   */\n  tag_98\n  jumpi\n    /* \"#utility.yul\":4478:4496   */\n  tag_99\n  tag_31\n  jump\t// in\ntag_99:\n    /* \"#utility.yul\":4422:4506   */\ntag_98:\n    /* \"#utility.yul\":4243:4512   */\n  pop\n    /* \"#utility.yul\":4192:4512   */\n  swap2\n  swap1\n  pop\n  jump\t// out\n    /* \"#utility.yul\":4518:4659   */\ntag_33:\n    /* \"#utility.yul\":4567:4571   */\n  0x00\n    /* \"#utility.yul\":4590:4593   */\n  dup2\n    /* \"#utility.yul\":4582:4593   */\n  swap1\n  pop\n    /* \"#utility.yul\":4613:4616   */\n  dup2\n    /* \"#utility.yul\":4610:4611   */\n  0x00\n    /* \"#utility.yul\":4603:4617   */\n  mstore\n    /* \"#utility.yul\":4647:4651   */\n  0x20\n    /* \"#utility.yul\":4644:4645   */\n  0x00\n    /* \"#utility.yul\":4634:4652   */\n  keccak256\n    /* \"#utility.yul\":4626:4652   */\n  swap1\n  pop\n    /* \"#utility.yul\":4518:4659   */\n  swap2\n  swap1\n  pop\n  jump\t// out\n    /* \"#utility.yul\":4665:4758   */\ntag_34:\n    /* \"#utility.yul\":4702:4708   */\n  0x00\n    /* \"#utility.yul\":4749:4751   */\n  0x20\n    /* \"#utility.yul\":4744:4746   */\n  0x1f\n    /* \"#utility.yul\":4737:4742   */\n  dup4\n    /* \"#utility.yul\":4733:4747   */\n  add\n    /* \"#utility.yul\":4729:4752   */\n  div\n    /* \"#utility.yul\":4719:4752   */\n  swap1\n  pop\n    /* \"#utility.yul\":4665:4758   */\n  swap2\n  swap1\n  pop\n  jump\t// out\n    /* \"#utility.yul\":4764:4871   */\ntag_35:\n    /* \"#utility.yul\":4808:4816   */\n  0x00\n    /* \"#utility.yul\":4858:4863   */\n  dup3\n    /* \"#utility.yul\":4852:4856   */\n  dup3\n    /* \"#utility.yul\":4848:4864   */\n  shl\n    /* \"#utility.yul\":4827:4864   */\n  swap1\n  pop\n    /* \"#utility.yul\":4764:4871   */\n  swap3\n  swap2\n  pop\n  pop\n  jump\t// out\n    /* \"#utility.yul\":4877:5270   */\ntag_36:\n    /* \"#utility.yul\":4946:4952   */\n  0x00\n    /* \"#utility.yul\":4996:4997   */\n  0x08\n    /* \"#utility.yul\":4984:4994   */\n  dup4\n    /* \"#utility.yul\":4980:4998   */\n  mul\n    /* \"#utility.yul\":5019:5116   */\n  tag_104\n    /* \"#utility.yul\":5049:5115   */\n  0xffffffffffffffffffffffffffffffffffffffffffffffffffffffffffffffff\n    /* \"#utility.yul\":5038:5047   */\n  dup3\n    /* \"#utility.yul\":5019:5116   */\n  tag_35\n  jump\t// in\ntag_104:\n    /* \"#utility.yul\":5137:5176   */\n  tag_105\n    /* \"#utility.yul\":5167:5175   */\n  dup7\n    /* \"#utility.yul\":5156:5165   */\n  dup4\n    /* \"#utility.yul\":5137:5176   */\n  tag_35\n  jump\t// in\ntag_105:\n    /* \"#utility.yul\":5125:5176   */\n  swap6\n  pop\n    /* \"#utility.yul\":5209:5213   */\n  dup1\n    /* \"#utility.yul\":5205:5214   */\n  not\n    /* \"#utility.yul\":5198:5203   */\n  dup5\n    /* \"#utility.yul\":5194:5215   */\n  and\n    /* \"#utility.yul\":5185:5215   */\n  swap4\n  pop\n    /* \"#utility.yul\":5258:5262   */\n  dup1\n    /* \"#utility.yul\":5248:5256   */\n  dup7\n    /* \"#utility.yul\":5244:5263   */\n  and\n    /* \"#utility.yul\":5237:5242   */\n  dup5\n    /* \"#utility.yul\":5234:5264   */\n  or\n    /* \"#utility.yul\":5224:5264   */\n  swap3\n  pop\n    /* \"#utility.yul\":4953:5270   */\n  pop\n  pop\n    /* \"#utility.yul\":4877:5270   */\n  swap4\n  swap3\n  pop\n  pop\n  pop\n  jump\t// out\n    /* \"#utility.yul\":5276:5336   */\ntag_37:\n    /* \"#utility.yul\":5304:5307   */\n  0x00\n    /* \"#utility.yul\":5325:5330   */\n  dup2\n    /* \"#utility.yul\":5318:5330   */\n  swap1\n  pop\n    /* \"#utility.yul\":5276:5336   */\n  swap2\n  swap1\n  pop\n  jump\t// out\n    /* \"#utility.yul\":5342:5484   */\ntag_38:\n    /* \"#utility.yul\":5392:5401   */\n  0x00\n    /* \"#utility.yul\":5425:5478   */\n  tag_108\n    /* \"#utility.yul\":5443:5477   */\n  tag_109\n    /* \"#utility.yul\":5452:5476   */\n  tag_110\n    /* \"#utility.yul\":5470:5475   */\n  dup5\n    /* \"#utility.yul\":5452:5476   */\n  tag_29\n  jump\t// in\ntag_110:\n    /* \"#utility.yul\":5443:5477   */\n  tag_37\n  jump\t// in\ntag_109:\n    /* \"#utility.yul\":5425:5478   */\n  tag_29\n  jump\t// in\ntag_108:\n    /* \"#utility.yul\":5412:5478   */\n  swap1\n  pop\n    /* \"#utility.yul\":5342:5484   */\n  swap2\n  swap1\n  pop\n  jump\t// out\n    /* \"#utility.yul\":5490:5565   */\ntag_39:\n    /* \"#utility.yul\":5533:5536   */\n  0x00\n    /* \"#utility.yul\":5554:5559   */\n  dup2\n    /* \"#utility.yul\":5547:5559   */\n  swap1\n  pop\n    /* \"#utility.yul\":5490:5565   */\n  swap2\n  swap1\n  pop\n  jump\t// out\n    /* \"#utility.yul\":5571:5840   */\ntag_40:\n    /* \"#utility.yul\":5681:5720   */\n  tag_113\n    /* \"#utility.yul\":5712:5719   */\n  dup4\n    /* \"#utility.yul\":5681:5720   */\n  tag_38\n  jump\t// in\ntag_113:\n    /* \"#utility.yul\":5742:5833   */\n  tag_114\n    /* \"#utility.yul\":5791:5832   */\n  tag_115\n    /* \"#utility.yul\":5815:5831   */\n  dup3\n    /* \"#utility.yul\":5791:5832   */\n  tag_39\n  jump\t// in\ntag_115:\n    /* \"#utility.yul\":5783:5789   */\n  dup5\n    /* \"#utility.yul\":5776:5780   */\n  dup5\n    /* \"#utility.yul\":5770:5781   */\n  sload\n    /* \"#utility.yul\":5742:5833   */\n  tag_36\n  jump\t// in\ntag_114:\n    /* \"#utility.yul\":5736:5740   */\n  dup3\n    /* \"#utility.yul\":5729:5834   */\n  sstore\n    /* \"#utility.yul\":5647:5840   */\n  pop\n    /* \"#utility.yul\":5571:5840   */\n  pop\n  pop\n  pop\n  jump\t// out\n    /* \"#utility.yul\":5846:5919   */\ntag_41:\n    /* \"#utility.yul\":5891:5894   */\n  0x00\n    /* \"#utility.yul\":5846:5919   */\n  swap1\n  jump\t// out\n    /* \"#utility.yul\":5925:6114   */\ntag_42:\n    /* \"#utility.yul\":6002:6034   */\n  tag_118\n  tag_41\n  jump\t// in\ntag_118:\n    /* \"#utility.yul\":6043:6108   */\n  tag_119\n    /* \"#utility.yul\":6101:6107   */\n  dup2\n    /* \"#utility.yul\":6093:6099   */\n  dup5\n    /* \"#utility.yul\":6087:6091   */\n  dup5\n    /* \"#utility.yul\":6043:6108   */\n  tag_40\n  jump\t// in\ntag_119:\n    /* \"#utility.yul\":5978:6114   */\n  pop\n    /* \"#utility.yul\":5925:6114   */\n  pop\n  pop\n  jump\t// out\n    /* \"#utility.yul\":6120:6306   */\ntag_43:\n    /* \"#utility.yul\":6180:6300   */\ntag_121:\n    /* \"#utility.yul\":6197:6200   */\n  dup2\n    /* \"#utility.yul\":6190:6195   */\n  dup2\n    /* \"#utility.yul\":6187:6201   */\n  lt\n    /* \"#utility.yul\":6180:6300   */\n  iszero\n  tag_123\n  jumpi\n    /* \"#utility.yul\":6251:6290   */\n  tag_124\n    /* \"#utility.yul\":6288:6289   */\n  0x00\n    /* \"#utility.yul\":6281:6286   */\n  dup3\n    /* \"#utility.yul\":6251:6290   */\n  tag_42\n  jump\t// in\ntag_124:\n    /* \"#utility.yul\":6224:6225   */\n  0x01\n    /* \"#utility.yul\":6217:6222   */\n  dup2\n    /* \"#utility.yul\":6213:6226   */\n  add\n    /* \"#utility.yul\":6204:6226   */\n  swap1\n  pop\n    /* \"#utility.yul\":6180:6300   */\n  jump(tag_121)\ntag_123:\n    /* \"#utility.yul\":6120:6306   */\n  pop\n  pop\n  jump\t// out\n    /* \"#utility.yul\":6312:6855   */\ntag_44:\n    /* \"#utility.yul\":6413:6415   */\n  0x1f\n    /* \"#utility.yul\":6408:6411   */\n  dup3\n    /* \"#utility.yul\":6405:6416   */\n  gt\n    /* \"#utility.yul\":6402:6848   */\n  iszero\n  tag_126\n  jumpi\n    /* \"#utility.yul\":6447:6485   */\n  tag_127\n    /* \"#utility.yul\":6479:6484   */\n  dup2\n    /* \"#utility.yul\":6447:6485   */\n  tag_33\n  jump\t// in\ntag_127:\n    /* \"#utility.yul\":6531:6560   */\n  tag_128\n    /* \"#utility.yul\":6549:6559   */\n  dup5\n    /* \"#utility.yul\":6531:6560   */\n  tag_34\n  jump\t// in\ntag_128:\n    /* \"#utility.yul\":6521:6529   */\n  dup2\n    /* \"#utility.yul\":6517:6561   */\n  add\n    /* \"#utility.yul\":6714:6716   */\n  0x20\n    /* \"#utility.yul\":6702:6712   */\n  dup6\n    /* \"#utility.yul\":6699:6717   */\n  lt\n    /* \"#utility.yul\":6696:6745   */\n  iszero\n  tag_129\n  jumpi\n    /* \"#utility.yul\":6735:6743   */\n  dup2\n    /* \"#utility.yul\":6720:6743   */\n  swap1\n  pop\n    /* \"#utility.yul\":6696:6745   */\ntag_129:\n    /* \"#utility.yul\":6758:6838   */\n  tag_130\n    /* \"#utility.yul\":6814:6836   */\n  tag_131\n    /* \"#utility.yul\":6832:6835   */\n  dup6\n    /* \"#utility.yul\":6814:6836   */\n  tag_34\n  jump\t// in\ntag_131:\n    /* \"#utility.yul\":6804:6812   */\n  dup4\n    /* \"#utility.yul\":6800:6837   */\n  add\n    /* \"#utility.yul\":6787:6798   */\n  dup3\n    /* \"#utility.yul\":6758:6838   */\n  tag_43\n  jump\t// in\ntag_130:\n    /* \"#utility.yul\":6417:6848   */\n  pop\n  pop\n    /* \"#utility.yul\":6402:6848   */\ntag_126:\n    /* \"#utility.yul\":6312:6855   */\n  pop\n  pop\n  pop\n  jump\t// out\n    /* \"#utility.yul\":6861:6978   */\ntag_45:\n    /* \"#utility.yul\":6915:6923   */\n  0x00\n    /* \"#utility.yul\":6965:6970   */\n  dup3\n    /* \"#utility.yul\":6959:6963   */\n  dup3\n    /* \"#utility.yul\":6955:6971   */\n  shr\n    /* \"#utility.yul\":6934:6971   */\n  swap1\n  pop\n    /* \"#utility.yul\":6861:6978   */\n  swap3\n  swap2\n  pop\n  pop\n  jump\t// out\n    /* \"#utility.yul\":6984:7153   */\ntag_46:\n    /* \"#utility.yul\":7028:7034   */\n  0x00\n    /* \"#utility.yul\":7061:7112   */\n  tag_134\n    /* \"#utility.yul\":7109:7110   */\n  0x00\n    /* \"#utility.yul\":7105:7111   */\n  not\n    /* \"#utility.yul\":7097:7102   */\n  dup5\n    /* \"#utility.yul\":7094:7095   */\n  0x08\n    /* \"#utility.yul\":7090:7103   */\n  mul\n    /* \"#utility.yul\":7061:7112   */\n  tag_45\n  jump\t// in\ntag_134:\n    /* \"#utility.yul\":7057:7113   */\n  not\n    /* \"#utility.yul\":7142:7146   */\n  dup1\n    /* \"#utility.yul\":7136:7140   */\n  dup4\n    /* \"#utility.yul\":7132:7147   */\n  and\n    /* \"#utility.yul\":7122:7147   */\n  swap2\n  pop\n    /* \"#utility.yul\":7035:7153   */\n  pop\n    /* \"#utility.yul\":6984:7153   */\n  swap3\n  swap2\n  pop\n  pop\n  jump\t// out\n    /* \"#utility.yul\":7158:7453   */\ntag_47:\n    /* \"#utility.yul\":7234:7238   */\n  0x00\n    /* \"#utility.yul\":7380:7409   */\n  tag_136\n    /* \"#utility.yul\":7405:7408   */\n  dup4\n    /* \"#utility.yul\":7399:7403   */\n  dup4\n    /* \"#utility.yul\":7380:7409   */\n  tag_46\n  jump\t// in\ntag_136:\n    /* \"#utility.yul\":7372:7409   */\n  swap2\n  pop\n    /* \"#utility.yul\":7442:7445   */\n  dup3\n    /* \"#utility.yul\":7439:7440   */\n  0x02\n    /* \"#utility.yul\":7435:7446   */\n  mul\n    /* \"#utility.yul\":7429:7433   */\n  dup3\n    /* \"#utility.yul\":7426:7447   */\n  or\n    /* \"#utility.yul\":7418:7447   */\n  swap1\n  pop\n    /* \"#utility.yul\":7158:7453   */\n  swap3\n  swap2\n  pop\n  pop\n  jump\t// out\n    /* \"#utility.yul\":7458:8853   */\ntag_13:\n    /* \"#utility.yul\":7575:7612   */\n  tag_138\n    /* \"#utility.yul\":7608:7611   */\n  dup3\n    /* \"#utility.yul\":7575:7612   */\n  tag_30\n  jump\t// in\ntag_138:\n    /* \"#utility.yul\":7677:7695   */\n  0xffffffffffffffff\n    /* \"#utility.yul\":7669:7675   */\n  dup2\n    /* \"#utility.yul\":7666:7696   */\n  gt\n    /* \"#utility.yul\":7663:7719   */\n  iszero\n  tag_139\n  jumpi\n    /* \"#utility.yul\":7699:7717   */\n  tag_140\n  tag_21\n  jump\t// in\ntag_140:\n    /* \"#utility.yul\":7663:7719   */\ntag_139:\n    /* \"#utility.yul\":7743:7781   */\n  tag_141\n    /* \"#utility.yul\":7775:7779   */\n  dup3\n    /* \"#utility.yul\":7769:7780   */\n  sload\n    /* \"#utility.yul\":7743:7781   */\n  tag_32\n  jump\t// in\ntag_141:\n    /* \"#utility.yul\":7828:7895   */\n  tag_142\n    /* \"#utility.yul\":7888:7894   */\n  dup3\n    /* \"#utility.yul\":7880:7886   */\n  dup3\n    /* \"#utility.yul\":7874:7878   */\n  dup6\n    /* \"#utility.yul\":7828:7895   */\n  tag_44\n  jump\t// in\ntag_142:\n    /* \"#utility.yul\":7922:7923   */\n  0x00\n    /* \"#utility.yul\":7946:7950   */\n  0x20\n    /* \"#utility.yul\":7933:7950   */\n  swap1\n  pop\n    /* \"#utility.yul\":7978:7980   */\n  0x1f\n    /* \"#utility.yul\":7970:7976   */\n  dup4\n    /* \"#utility.yul\":7967:7981   */\n  gt\n    /* \"#utility.yul\":7995:7996   */\n  0x01\n    /* \"#utility.yul\":7990:8608   */\n  dup2\n  eq\n  tag_144\n  jumpi\n    /* \"#utility.yul\":8652:8653   */\n  0x00\n    /* \"#utility.yul\":8669:8675   */\n  dup5\n    /* \"#utility.yul\":8666:8743   */\n  iszero\n  tag_145\n  jumpi\n    /* \"#utility.yul\":8718:8727   */\n  dup3\n    /* \"#utility.yul\":8713:8716   */\n  dup8\n    /* \"#utility.yul\":8709:8728   */\n  add\n    /* \"#utility.yul\":8703:8729   */\n  mload\n    /* \"#utility.yul\":8694:8729   */\n  swap1\n  pop\n    /* \"#utility.yul\":8666:8743   */\ntag_145:\n    /* \"#utility.yul\":8769:8836   */\n  tag_146\n    /* \"#utility.yul\":8829:8835   */\n  dup6\n    /* \"#utility.yul\":8822:8827   */\n  dup3\n    /* \"#utility.yul\":8769:8836   */\n  tag_47\n  jump\t// in\ntag_146:\n    /* \"#utility.yul\":8763:8767   */\n  dup7\n    /* \"#utility.yul\":8756:8837   */\n  sstore\n    /* \"#utility.yul\":8625:8847   */\n  pop\n    /* \"#utility.yul\":7960:8847   */\n  jump(tag_143)\n    /* \"#utility.yul\":7990:8608   */\ntag_144:\n    /* \"#utility.yul\":8042:8046   */\n  0x1f\n    /* \"#utility.yul\":8038:8047   */\n  not\n    /* \"#utility.yul\":8030:8036   */\n  dup5\n    /* \"#utility.yul\":8026:8048   */\n  and\n    /* \"#utility.yul\":8076:8113   */\n  tag_147\n    /* \"#utility.yul\":8108:8112   */\n  dup7\n    /* \"#utility.yul\":8076:8113   */\n  tag_33\n  jump\t// in\ntag_147:\n    /* \"#utility.yul\":8135:8136   */\n  0x00\n    /* \"#utility.yul\":8149:8357   */\ntag_148:\n    /* \"#utility.yul\":8163:8170   */\n  dup3\n    /* \"#utility.yul\":8160:8161   */\n  dup2\n    /* \"#utility.yul\":8157:8171   */\n  lt\n    /* \"#utility.yul\":8149:8357   */\n  iszero\n  tag_150\n  jumpi\n    /* \"#utility.yul\":8242:8251   */\n  dup5\n    /* \"#utility.yul\":8237:8240   */\n  dup10\n    /* \"#utility.yul\":8233:8252   */\n  add\n    /* \"#utility.yul\":8227:8253   */\n  mload\n    /* \"#utility.yul\":8219:8225   */\n  dup3\n    /* \"#utility.yul\":8212:8254   */\n  sstore\n    /* \"#utility.yul\":8293:8294   */\n  0x01\n    /* \"#utility.yul\":8285:8291   */\n  dup3\n    /* \"#utility.yul\":8281:8295   */\n  add\n    /* \"#utility.yul\":8271:8295   */\n  swap2\n  pop\n    /* \"#utility.yul\":8340:8342   */\n  0x20\n    /* \"#utility.yul\":8329:8338   */\n  dup6\n    /* \"#utility.yul\":8325:8343   */\n  add\n    /* \"#utility.yul\":8312:8343   */\n  swap5\n  pop\n    /* \"#utility.yul\":8186:8190   */\n  0x20\n    /* \"#utility.yul\":8183:8184   */\n  dup2\n    /* \"#utility.yul\":8179:8191   */\n  add\n    /* \"#utility.yul\":8174:8191   */\n  swap1\n  pop\n    /* \"#utility.yul\":8149:8357   */\n  jump(tag_148)\ntag_150:\n    /* \"#utility.yul\":8385:8391   */\n  dup7\n    /* \"#utility.yul\":8376:8383   */\n  dup4\n    /* \"#utility.yul\":8373:8392   */\n  lt\n    /* \"#utility.yul\":8370:8549   */\n  iszero\n  tag_151\n  jumpi\n    /* \"#utility.yul\":8443:8452   */\n  dup5\n    /* \"#utility.yul\":8438:8441   */\n  dup10\n    /* \"#utility.yul\":8434:8453   */\n  add\n    /* \"#utility.yul\":8428:8454   */\n  mload\n    /* \"#utility.yul\":8486:8534   */\n  tag_152\n    /* \"#utility.yul\":8528:8532   */\n  0x1f\n    /* \"#utility.yul\":8520:8526   */\n  dup10\n    /* \"#utility.yul\":8516:8533   */\n  and\n    /* \"#utility.yul\":8505:8514   */\n  dup3\n    /* \"#utility.yul\":8486:8534   */\n  tag_46\n  jump\t// in\ntag_152:\n    /* \"#utility.yul\":8478:8484   */\n  dup4\n    /* \"#utility.yul\":8471:8535   */\n  sstore\n    /* \"#utility.yul\":8393:8549   */\n  pop\n    /* \"#utility.yul\":8370:8549   */\ntag_151:\n    /* \"#utility.yul\":8595:8596   */\n  0x01\n    /* \"#utility.yul\":8591:8592   */\n  0x02\n    /* \"#utility.yul\":8583:8589   */\n  dup9\n    /* \"#utility.yul\":8579:8593   */\n  mul\n    /* \"#utility.yul\":8575:8597   */\n  add\n    /* \"#utility.yul\":8569:8573   */\n  dup9\n    /* \"#utility.yul\":8562:8598   */\n  sstore\n    /* \"#utility.yul\":7997:8608   */\n  pop\n  pop\n  pop\n    /* \"#utility.yul\":7960:8847   */\ntag_143:\n  pop\n    /* \"#utility.yul\":7550:8853   */\n  pop\n  pop\n  pop\n    /* \"#utility.yul\":7458:8853   */\n  pop\n  pop\n  jump\t// out\n    /* \"contracts/FixedSizeArray.sol\":126:922  contract FixedSizeArray {... */\ntag_14:\n  dataSize(sub_0)\n  dup1\n  dataOffset(sub_0)\n  0x00\n  codecopy\n  0x00\n  return\nstop\n\nsub_0: assembly {\n        /* \"contracts/FixedSizeArray.sol\":126:922  contract FixedSizeArray {... */\n      mstore(0x40, 0x80)\n      callvalue\n      dup1\n      iszero\n      tag_1\n      jumpi\n      0x00\n      dup1\n      revert\n    tag_1:\n      pop\n      jumpi(tag_2, lt(calldatasize, 0x04))\n      shr(0xe0, calldataload(0x00))\n      dup1\n      0x712bb28c\n      eq\n      tag_3\n      jumpi\n      dup1\n      0x99653161\n      eq\n      tag_4\n      jumpi\n      dup1\n      0xc7f43ec1\n      eq\n      tag_5\n      jumpi\n      dup1\n      0xf025b8fa\n      eq\n      tag_6\n      jumpi\n    tag_2:\n      0x00\n      dup1\n      revert\n        /* \"contracts/FixedSizeArray.sol\":803:918  function getCityByIndex(uint256 _index) public view returns(string memory) {... */\n    tag_3:\n      tag_7\n      0x04\n      dup1\n      calldatasize\n      sub\n      dup2\n      add\n      swap1\n      tag_8\n      swap2\n      swap1\n      tag_9\n      jump\t// in\n    tag_8:\n      tag_10\n      jump\t// in\n    tag_7:\n      mload(0x40)\n      tag_11\n      swap2\n      swap1\n      tag_12\n      jump\t// in\n    tag_11:\n      mload(0x40)\n      dup1\n      swap2\n      sub\n      swap1\n      return\n        /* \"contracts/FixedSizeArray.sol\":510:797  function getCityList() public view returns(string[] memory) {... */\n    tag_4:\n      tag_13\n      tag_14\n      jump\t// in\n    tag_13:\n      mload(0x40)\n      tag_15\n      swap2\n      swap1\n      tag_16\n      jump\t// in\n    tag_15:\n      mload(0x40)\n      dup1\n      swap2\n      sub\n      swap1\n      return\n        /* \"contracts/FixedSizeArray.sol\":422:504  function getCityCount() public view returns(uint256) {... */\n    tag_5:\n      tag_17\n      tag_18\n      jump\t// in\n    tag_17:\n      mload(0x40)\n      tag_19\n      swap2\n      swap1\n      tag_20\n      jump\t// in\n    tag_19:\n      mload(0x40)\n      dup1\n      swap2\n      sub\n      swap1\n      return\n        /* \"contracts/FixedSizeArray.sol\":282:416  function addCity(string memory _city) public {... */\n    tag_6:\n      tag_21\n      0x04\n      dup1\n      calldatasize\n      sub\n      dup2\n      add\n      swap1\n      tag_22\n      swap2\n      swap1\n      tag_23\n      jump\t// in\n    tag_22:\n      tag_24\n      jump\t// in\n    tag_21:\n      stop\n        /* \"contracts/FixedSizeArray.sol\":803:918  function getCityByIndex(uint256 _index) public view returns(string memory) {... */\n    tag_10:\n        /* \"contracts/FixedSizeArray.sol\":863:876  string memory */\n      0x60\n        /* \"contracts/FixedSizeArray.sol\":895:903  cityList */\n      0x00\n        /* \"contracts/FixedSizeArray.sol\":904:910  _index */\n      dup3\n        /* \"contracts/FixedSizeArray.sol\":895:911  cityList[_index] */\n      0x03\n      dup2\n      lt\n      tag_26\n      jumpi\n      tag_27\n      tag_28\n      jump\t// in\n    tag_27:\n    tag_26:\n      add\n        /* \"contracts/FixedSizeArray.sol\":888:911  return cityList[_index] */\n      dup1\n      sload\n      tag_30\n      swap1\n      tag_31\n      jump\t// in\n    tag_30:\n      dup1\n      0x1f\n      add\n      0x20\n      dup1\n      swap2\n      div\n      mul\n      0x20\n      add\n      mload(0x40)\n      swap1\n      dup2\n      add\n      0x40\n      mstore\n      dup1\n      swap3\n      swap2\n      swap1\n      dup2\n      dup2\n      mstore\n      0x20\n      add\n      dup3\n      dup1\n      sload\n      tag_32\n      swap1\n      tag_31\n      jump\t// in\n    tag_32:\n      dup1\n      iszero\n      tag_33\n      jumpi\n      dup1\n      0x1f\n      lt\n      tag_34\n      jumpi\n      0x0100\n      dup1\n      dup4\n      sload\n      div\n      mul\n      dup4\n      mstore\n      swap2\n      0x20\n      add\n      swap2\n      jump(tag_33)\n    tag_34:\n      dup3\n      add\n      swap2\n      swap1\n      0x00\n      mstore\n      keccak256(0x00, 0x20)\n      swap1\n    tag_35:\n      dup2\n      sload\n      dup2\n      mstore\n      swap1\n      0x01\n      add\n      swap1\n      0x20\n      add\n      dup1\n      dup4\n      gt\n      tag_35\n      jumpi\n      dup3\n      swap1\n      sub\n      0x1f\n      and\n      dup3\n      add\n      swap2\n    tag_33:\n      pop\n      pop\n      pop\n      pop\n      pop\n      swap1\n      pop\n        /* \"contracts/FixedSizeArray.sol\":803:918  function getCityByIndex(uint256 _index) public view returns(string memory) {... */\n      swap2\n      swap1\n      pop\n      jump\t// out\n        /* \"contracts/FixedSizeArray.sol\":510:797  function getCityList() public view returns(string[] memory) {... */\n    tag_14:\n        /* \"contracts/FixedSizeArray.sol\":553:568  string[] memory */\n      0x60\n        /* \"contracts/FixedSizeArray.sol\":580:594  uint256 length */\n      0x00\n        /* \"contracts/FixedSizeArray.sol\":597:612  cityList.length */\n      0x03\n        /* \"contracts/FixedSizeArray.sol\":580:612  uint256 length = cityList.length */\n      swap1\n      pop\n        /* \"contracts/FixedSizeArray.sol\":622:647  string[] memory _cityList */\n      0x00\n        /* \"contracts/FixedSizeArray.sol\":663:669  length */\n      dup2\n        /* \"contracts/FixedSizeArray.sol\":650:670  new string[](length) */\n      0xffffffffffffffff\n      dup2\n      gt\n      iszero\n      tag_37\n      jumpi\n      tag_38\n      tag_39\n      jump\t// in\n    tag_38:\n    tag_37:\n      mload(0x40)\n      swap1\n      dup1\n      dup3\n      mstore\n      dup1\n      0x20\n      mul\n      0x20\n      add\n      dup3\n      add\n      0x40\n      mstore\n      dup1\n      iszero\n      tag_40\n      jumpi\n      dup2\n      0x20\n      add\n    tag_41:\n      0x60\n      dup2\n      mstore\n      0x20\n      add\n      swap1\n      0x01\n      swap1\n      sub\n      swap1\n      dup2\n      tag_41\n      jumpi\n      swap1\n      pop\n    tag_40:\n      pop\n        /* \"contracts/FixedSizeArray.sol\":622:670  string[] memory _cityList = new string[](length) */\n      swap1\n      pop\n        /* \"contracts/FixedSizeArray.sol\":684:693  uint256 i */\n      0x00\n        /* \"contracts/FixedSizeArray.sol\":680:765  for(uint256 i=0; i < length ; i++){... */\n    tag_42:\n        /* \"contracts/FixedSizeArray.sol\":701:707  length */\n      dup3\n        /* \"contracts/FixedSizeArray.sol\":697:698  i */\n      dup2\n        /* \"contracts/FixedSizeArray.sol\":697:707  i < length */\n      lt\n        /* \"contracts/FixedSizeArray.sol\":680:765  for(uint256 i=0; i < length ; i++){... */\n      iszero\n      tag_43\n      jumpi\n        /* \"contracts/FixedSizeArray.sol\":743:751  cityList */\n      0x00\n        /* \"contracts/FixedSizeArray.sol\":752:753  i */\n      dup2\n        /* \"contracts/FixedSizeArray.sol\":743:754  cityList[i] */\n      0x03\n      dup2\n      lt\n      tag_45\n      jumpi\n      tag_46\n      tag_28\n      jump\t// in\n    tag_46:\n    tag_45:\n      add\n        /* \"contracts/FixedSizeArray.sol\":728:754  _cityList[i] = cityList[i] */\n      dup1\n      sload\n      tag_48\n      swap1\n      tag_31\n      jump\t// in\n    tag_48:\n      dup1\n      0x1f\n      add\n      0x20\n      dup1\n      swap2\n      div\n      mul\n      0x20\n      add\n      mload(0x40)\n      swap1\n      dup2\n      add\n      0x40\n      mstore\n      dup1\n      swap3\n      swap2\n      swap1\n      dup2\n      dup2\n      mstore\n      0x20\n      add\n      dup3\n      dup1\n      sload\n      tag_49\n      swap1\n      tag_31\n      jump\t// in\n    tag_49:\n      dup1\n      iszero\n      tag_50\n      jumpi\n      dup1\n      0x1f\n      lt\n      tag_51\n      jumpi\n      0x0100\n      dup1\n      dup4\n      sload\n      div\n      mul\n      dup4\n      mstore\n      swap2\n      0x20\n      add\n      swap2\n      jump(tag_50)\n    tag_51:\n      dup3\n      add\n      swap2\n      swap1\n      0x00\n      mstore\n      keccak256(0x00, 0x20)\n      swap1\n    tag_52:\n      dup2\n      sload\n      dup2\n      mstore\n      swap1\n      0x01\n      add\n      swap1\n      0x20\n      add\n      dup1\n      dup4\n      gt\n      tag_52\n      jumpi\n      dup3\n      swap1\n      sub\n      0x1f\n      and\n      dup3\n      add\n      swap2\n    tag_50:\n      pop\n      pop\n      pop\n      pop\n      pop\n        /* \"contracts/FixedSizeArray.sol\":728:737  _cityList */\n      dup3\n        /* \"contracts/FixedSizeArray.sol\":738:739  i */\n      dup3\n        /* \"contracts/FixedSizeArray.sol\":728:740  _cityList[i] */\n      dup2\n      mload\n      dup2\n      lt\n      tag_53\n      jumpi\n      tag_54\n      tag_28\n      jump\t// in\n    tag_54:\n    tag_53:\n      0x20\n      mul\n      0x20\n      add\n      add\n        /* \"contracts/FixedSizeArray.sol\":728:754  _cityList[i] = cityList[i] */\n      dup2\n      swap1\n      mstore\n      pop\n        /* \"contracts/FixedSizeArray.sol\":710:713  i++ */\n      dup1\n      dup1\n      tag_55\n      swap1\n      tag_56\n      jump\t// in\n    tag_55:\n      swap2\n      pop\n      pop\n        /* \"contracts/FixedSizeArray.sol\":680:765  for(uint256 i=0; i < length ; i++){... */\n      jump(tag_42)\n    tag_43:\n      pop\n        /* \"contracts/FixedSizeArray.sol\":781:790  _cityList */\n      dup1\n        /* \"contracts/FixedSizeArray.sol\":774:790  return _cityList */\n      swap3\n      pop\n      pop\n      pop\n        /* \"contracts/FixedSizeArray.sol\":510:797  function getCityList() public view returns(string[] memory) {... */\n      swap1\n      jump\t// out\n        /* \"contracts/FixedSizeArray.sol\":422:504  function getCityCount() public view returns(uint256) {... */\n    tag_18:\n        /* \"contracts/FixedSizeArray.sol\":466:473  uint256 */\n      0x00\n        /* \"contracts/FixedSizeArray.sol\":492:497  index */\n      sload(0x03)\n        /* \"contracts/FixedSizeArray.sol\":485:497  return index */\n      swap1\n      pop\n        /* \"contracts/FixedSizeArray.sol\":422:504  function getCityCount() public view returns(uint256) {... */\n      swap1\n      jump\t// out\n        /* \"contracts/FixedSizeArray.sol\":282:416  function addCity(string memory _city) public {... */\n    tag_24:\n        /* \"contracts/FixedSizeArray.sol\":353:354  3 */\n      0x03\n        /* \"contracts/FixedSizeArray.sol\":345:350  index */\n      dup1\n      sload\n        /* \"contracts/FixedSizeArray.sol\":345:354  index < 3 */\n      lt\n        /* \"contracts/FixedSizeArray.sol\":337:374  require(index < 3, \"Kapasite Doldu.\") */\n      tag_59\n      jumpi\n      mload(0x40)\n      0x08c379a000000000000000000000000000000000000000000000000000000000\n      dup2\n      mstore\n      0x04\n      add\n      tag_60\n      swap1\n      tag_61\n      jump\t// in\n    tag_60:\n      mload(0x40)\n      dup1\n      swap2\n      sub\n      swap1\n      revert\n    tag_59:\n        /* \"contracts/FixedSizeArray.sol\":404:409  _city */\n      dup1\n        /* \"contracts/FixedSizeArray.sol\":384:392  cityList */\n      0x00\n        /* \"contracts/FixedSizeArray.sol\":393:398  index */\n      0x03\n      0x00\n        /* \"contracts/FixedSizeArray.sol\":393:400  index++ */\n      dup2\n      sload\n      dup1\n      swap3\n      swap2\n      swap1\n      tag_62\n      swap1\n      tag_56\n      jump\t// in\n    tag_62:\n      swap2\n      swap1\n      pop\n      sstore\n        /* \"contracts/FixedSizeArray.sol\":384:401  cityList[index++] */\n      0x03\n      dup2\n      lt\n      tag_63\n      jumpi\n      tag_64\n      tag_28\n      jump\t// in\n    tag_64:\n    tag_63:\n      add\n        /* \"contracts/FixedSizeArray.sol\":384:409  cityList[index++] = _city */\n      swap1\n      dup2\n      tag_66\n      swap2\n      swap1\n      tag_67\n      jump\t// in\n    tag_66:\n      pop\n        /* \"contracts/FixedSizeArray.sol\":282:416  function addCity(string memory _city) public {... */\n      pop\n      jump\t// out\n        /* \"#utility.yul\":7:82   */\n    tag_68:\n        /* \"#utility.yul\":40:46   */\n      0x00\n        /* \"#utility.yul\":73:75   */\n      0x40\n        /* \"#utility.yul\":67:76   */\n      mload\n        /* \"#utility.yul\":57:76   */\n      swap1\n      pop\n        /* \"#utility.yul\":7:82   */\n      swap1\n      jump\t// out\n        /* \"#utility.yul\":88:205   */\n    tag_69:\n        /* \"#utility.yul\":197:198   */\n      0x00\n        /* \"#utility.yul\":194:195   */\n      dup1\n        /* \"#utility.yul\":187:199   */\n      revert\n        /* \"#utility.yul\":211:328   */\n    tag_70:\n        /* \"#utility.yul\":320:321   */\n      0x00\n        /* \"#utility.yul\":317:318   */\n      dup1\n        /* \"#utility.yul\":310:322   */\n      revert\n        /* \"#utility.yul\":334:411   */\n    tag_71:\n        /* \"#utility.yul\":371:378   */\n      0x00\n        /* \"#utility.yul\":400:405   */\n      dup2\n        /* \"#utility.yul\":389:405   */\n      swap1\n      pop\n        /* \"#utility.yul\":334:411   */\n      swap2\n      swap1\n      pop\n      jump\t// out\n        /* \"#utility.yul\":417:539   */\n    tag_72:\n        /* \"#utility.yul\":490:514   */\n      tag_121\n        /* \"#utility.yul\":508:513   */\n      dup2\n        /* \"#utility.yul\":490:514   */\n      tag_71\n      jump\t// in\n    tag_121:\n        /* \"#utility.yul\":483:488   */\n      dup2\n        /* \"#utility.yul\":480:515   */\n      eq\n        /* \"#utility.yul\":470:533   */\n      tag_122\n      jumpi\n        /* \"#utility.yul\":529:530   */\n      0x00\n        /* \"#utility.yul\":526:527   */\n      dup1\n        /* \"#utility.yul\":519:531   */\n      revert\n        /* \"#utility.yul\":470:533   */\n    tag_122:\n        /* \"#utility.yul\":417:539   */\n      pop\n      jump\t// out\n        /* \"#utility.yul\":545:684   */\n    tag_73:\n        /* \"#utility.yul\":591:596   */\n      0x00\n        /* \"#utility.yul\":629:635   */\n      dup2\n        /* \"#utility.yul\":616:636   */\n      calldataload\n        /* \"#utility.yul\":607:636   */\n      swap1\n      pop\n        /* \"#utility.yul\":645:678   */\n      tag_124\n        /* \"#utility.yul\":672:677   */\n      dup2\n        /* \"#utility.yul\":645:678   */\n      tag_72\n      jump\t// in\n    tag_124:\n        /* \"#utility.yul\":545:684   */\n      swap3\n      swap2\n      pop\n      pop\n      jump\t// out\n        /* \"#utility.yul\":690:1019   */\n    tag_9:\n        /* \"#utility.yul\":749:755   */\n      0x00\n        /* \"#utility.yul\":798:800   */\n      0x20\n        /* \"#utility.yul\":786:795   */\n      dup3\n        /* \"#utility.yul\":777:784   */\n      dup5\n        /* \"#utility.yul\":773:796   */\n      sub\n        /* \"#utility.yul\":769:801   */\n      slt\n        /* \"#utility.yul\":766:885   */\n      iszero\n      tag_126\n      jumpi\n        /* \"#utility.yul\":804:883   */\n      tag_127\n      tag_69\n      jump\t// in\n    tag_127:\n        /* \"#utility.yul\":766:885   */\n    tag_126:\n        /* \"#utility.yul\":924:925   */\n      0x00\n        /* \"#utility.yul\":949:1002   */\n      tag_128\n        /* \"#utility.yul\":994:1001   */\n      dup5\n        /* \"#utility.yul\":985:991   */\n      dup3\n        /* \"#utility.yul\":974:983   */\n      dup6\n        /* \"#utility.yul\":970:992   */\n      add\n        /* \"#utility.yul\":949:1002   */\n      tag_73\n      jump\t// in\n    tag_128:\n        /* \"#utility.yul\":939:1002   */\n      swap2\n      pop\n        /* \"#utility.yul\":895:1012   */\n      pop\n        /* \"#utility.yul\":690:1019   */\n      swap3\n      swap2\n      pop\n      pop\n      jump\t// out\n        /* \"#utility.yul\":1025:1124   */\n    tag_74:\n        /* \"#utility.yul\":1077:1083   */\n      0x00\n        /* \"#utility.yul\":1111:1116   */\n      dup2\n        /* \"#utility.yul\":1105:1117   */\n      mload\n        /* \"#utility.yul\":1095:1117   */\n      swap1\n      pop\n        /* \"#utility.yul\":1025:1124   */\n      swap2\n      swap1\n      pop\n      jump\t// out\n        /* \"#utility.yul\":1130:1299   */\n    tag_75:\n        /* \"#utility.yul\":1214:1225   */\n      0x00\n        /* \"#utility.yul\":1248:1254   */\n      dup3\n        /* \"#utility.yul\":1243:1246   */\n      dup3\n        /* \"#utility.yul\":1236:1255   */\n      mstore\n        /* \"#utility.yul\":1288:1292   */\n      0x20\n        /* \"#utility.yul\":1283:1286   */\n      dup3\n        /* \"#utility.yul\":1279:1293   */\n      add\n        /* \"#utility.yul\":1264:1293   */\n      swap1\n      pop\n        /* \"#utility.yul\":1130:1299   */\n      swap3\n      swap2\n      pop\n      pop\n      jump\t// out\n        /* \"#utility.yul\":1305:1551   */\n    tag_76:\n        /* \"#utility.yul\":1386:1387   */\n      0x00\n        /* \"#utility.yul\":1396:1509   */\n    tag_132:\n        /* \"#utility.yul\":1410:1416   */\n      dup4\n        /* \"#utility.yul\":1407:1408   */\n      dup2\n        /* \"#utility.yul\":1404:1417   */\n      lt\n        /* \"#utility.yul\":1396:1509   */\n      iszero\n      tag_134\n      jumpi\n        /* \"#utility.yul\":1495:1496   */\n      dup1\n        /* \"#utility.yul\":1490:1493   */\n      dup3\n        /* \"#utility.yul\":1486:1497   */\n      add\n        /* \"#utility.yul\":1480:1498   */\n      mload\n        /* \"#utility.yul\":1476:1477   */\n      dup2\n        /* \"#utility.yul\":1471:1474   */\n      dup5\n        /* \"#utility.yul\":1467:1478   */\n      add\n        /* \"#utility.yul\":1460:1499   */\n      mstore\n        /* \"#utility.yul\":1432:1434   */\n      0x20\n        /* \"#utility.yul\":1429:1430   */\n      dup2\n        /* \"#utility.yul\":1425:1435   */\n      add\n        /* \"#utility.yul\":1420:1435   */\n      swap1\n      pop\n        /* \"#utility.yul\":1396:1509   */\n      jump(tag_132)\n    tag_134:\n        /* \"#utility.yul\":1543:1544   */\n      0x00\n        /* \"#utility.yul\":1534:1540   */\n      dup5\n        /* \"#utility.yul\":1529:1532   */\n      dup5\n        /* \"#utility.yul\":1525:1541   */\n      add\n        /* \"#utility.yul\":1518:1545   */\n      mstore\n        /* \"#utility.yul\":1367:1551   */\n      pop\n        /* \"#utility.yul\":1305:1551   */\n      pop\n      pop\n      pop\n      jump\t// out\n        /* \"#utility.yul\":1557:1659   */\n    tag_77:\n        /* \"#utility.yul\":1598:1604   */\n      0x00\n        /* \"#utility.yul\":1649:1651   */\n      0x1f\n        /* \"#utility.yul\":1645:1652   */\n      not\n        /* \"#utility.yul\":1640:1642   */\n      0x1f\n        /* \"#utility.yul\":1633:1638   */\n      dup4\n        /* \"#utility.yul\":1629:1643   */\n      add\n        /* \"#utility.yul\":1625:1653   */\n      and\n        /* \"#utility.yul\":1615:1653   */\n      swap1\n      pop\n        /* \"#utility.yul\":1557:1659   */\n      swap2\n      swap1\n      pop\n      jump\t// out\n        /* \"#utility.yul\":1665:2042   */\n    tag_78:\n        /* \"#utility.yul\":1753:1756   */\n      0x00\n        /* \"#utility.yul\":1781:1820   */\n      tag_137\n        /* \"#utility.yul\":1814:1819   */\n      dup3\n        /* \"#utility.yul\":1781:1820   */\n      tag_74\n      jump\t// in\n    tag_137:\n        /* \"#utility.yul\":1836:1907   */\n      tag_138\n        /* \"#utility.yul\":1900:1906   */\n      dup2\n        /* \"#utility.yul\":1895:1898   */\n      dup6\n        /* \"#utility.yul\":1836:1907   */\n      tag_75\n      jump\t// in\n    tag_138:\n        /* \"#utility.yul\":1829:1907   */\n      swap4\n      pop\n        /* \"#utility.yul\":1916:1981   */\n      tag_139\n        /* \"#utility.yul\":1974:1980   */\n      dup2\n        /* \"#utility.yul\":1969:1972   */\n      dup6\n        /* \"#utility.yul\":1962:1966   */\n      0x20\n        /* \"#utility.yul\":1955:1960   */\n      dup7\n        /* \"#utility.yul\":1951:1967   */\n      add\n        /* \"#utility.yul\":1916:1981   */\n      tag_76\n      jump\t// in\n    tag_139:\n        /* \"#utility.yul\":2006:2035   */\n      tag_140\n        /* \"#utility.yul\":2028:2034   */\n      dup2\n        /* \"#utility.yul\":2006:2035   */\n      tag_77\n      jump\t// in\n    tag_140:\n        /* \"#utility.yul\":2001:2004   */\n      dup5\n        /* \"#utility.yul\":1997:2036   */\n      add\n        /* \"#utility.yul\":1990:2036   */\n      swap2\n      pop\n        /* \"#utility.yul\":1757:2042   */\n      pop\n        /* \"#utility.yul\":1665:2042   */\n      swap3\n      swap2\n      pop\n      pop\n      jump\t// out\n        /* \"#utility.yul\":2048:2361   */\n    tag_12:\n        /* \"#utility.yul\":2161:2165   */\n      0x00\n        /* \"#utility.yul\":2199:2201   */\n      0x20\n        /* \"#utility.yul\":2188:2197   */\n      dup3\n        /* \"#utility.yul\":2184:2202   */\n      add\n        /* \"#utility.yul\":2176:2202   */\n      swap1\n      pop\n        /* \"#utility.yul\":2248:2257   */\n      dup2\n        /* \"#utility.yul\":2242:2246   */\n      dup2\n        /* \"#utility.yul\":2238:2258   */\n      sub\n        /* \"#utility.yul\":2234:2235   */\n      0x00\n        /* \"#utility.yul\":2223:2232   */\n      dup4\n        /* \"#utility.yul\":2219:2236   */\n      add\n        /* \"#utility.yul\":2212:2259   */\n      mstore\n        /* \"#utility.yul\":2276:2354   */\n      tag_142\n        /* \"#utility.yul\":2349:2353   */\n      dup2\n        /* \"#utility.yul\":2340:2346   */\n      dup5\n        /* \"#utility.yul\":2276:2354   */\n      tag_78\n      jump\t// in\n    tag_142:\n        /* \"#utility.yul\":2268:2354   */\n      swap1\n      pop\n        /* \"#utility.yul\":2048:2361   */\n      swap3\n      swap2\n      pop\n      pop\n      jump\t// out\n        /* \"#utility.yul\":2367:2491   */\n    tag_79:\n        /* \"#utility.yul\":2444:2450   */\n      0x00\n        /* \"#utility.yul\":2478:2483   */\n      dup2\n        /* \"#utility.yul\":2472:2484   */\n      mload\n        /* \"#utility.yul\":2462:2484   */\n      swap1\n      pop\n        /* \"#utility.yul\":2367:2491   */\n      swap2\n      swap1\n      pop\n      jump\t// out\n        /* \"#utility.yul\":2497:2691   */\n    tag_80:\n        /* \"#utility.yul\":2606:2617   */\n      0x00\n        /* \"#utility.yul\":2640:2646   */\n      dup3\n        /* \"#utility.yul\":2635:2638   */\n      dup3\n        /* \"#utility.yul\":2628:2647   */\n      mstore\n        /* \"#utility.yul\":2680:2684   */\n      0x20\n        /* \"#utility.yul\":2675:2678   */\n      dup3\n        /* \"#utility.yul\":2671:2685   */\n      add\n        /* \"#utility.yul\":2656:2685   */\n      swap1\n      pop\n        /* \"#utility.yul\":2497:2691   */\n      swap3\n      swap2\n      pop\n      pop\n      jump\t// out\n        /* \"#utility.yul\":2697:2839   */\n    tag_81:\n        /* \"#utility.yul\":2774:2778   */\n      0x00\n        /* \"#utility.yul\":2797:2800   */\n      dup2\n        /* \"#utility.yul\":2789:2800   */\n      swap1\n      pop\n        /* \"#utility.yul\":2827:2831   */\n      0x20\n        /* \"#utility.yul\":2822:2825   */\n      dup3\n        /* \"#utility.yul\":2818:2832   */\n      add\n        /* \"#utility.yul\":2810:2832   */\n      swap1\n      pop\n        /* \"#utility.yul\":2697:2839   */\n      swap2\n      swap1\n      pop\n      jump\t// out\n        /* \"#utility.yul\":2845:3004   */\n    tag_82:\n        /* \"#utility.yul\":2919:2930   */\n      0x00\n        /* \"#utility.yul\":2953:2959   */\n      dup3\n        /* \"#utility.yul\":2948:2951   */\n      dup3\n        /* \"#utility.yul\":2941:2960   */\n      mstore\n        /* \"#utility.yul\":2993:2997   */\n      0x20\n        /* \"#utility.yul\":2988:2991   */\n      dup3\n        /* \"#utility.yul\":2984:2998   */\n      add\n        /* \"#utility.yul\":2969:2998   */\n      swap1\n      pop\n        /* \"#utility.yul\":2845:3004   */\n      swap3\n      swap2\n      pop\n      pop\n      jump\t// out\n        /* \"#utility.yul\":3010:3367   */\n    tag_83:\n        /* \"#utility.yul\":3088:3091   */\n      0x00\n        /* \"#utility.yul\":3116:3155   */\n      tag_148\n        /* \"#utility.yul\":3149:3154   */\n      dup3\n        /* \"#utility.yul\":3116:3155   */\n      tag_74\n      jump\t// in\n    tag_148:\n        /* \"#utility.yul\":3171:3232   */\n      tag_149\n        /* \"#utility.yul\":3225:3231   */\n      dup2\n        /* \"#utility.yul\":3220:3223   */\n      dup6\n        /* \"#utility.yul\":3171:3232   */\n      tag_82\n      jump\t// in\n    tag_149:\n        /* \"#utility.yul\":3164:3232   */\n      swap4\n      pop\n        /* \"#utility.yul\":3241:3306   */\n      tag_150\n        /* \"#utility.yul\":3299:3305   */\n      dup2\n        /* \"#utility.yul\":3294:3297   */\n      dup6\n        /* \"#utility.yul\":3287:3291   */\n      0x20\n        /* \"#utility.yul\":3280:3285   */\n      dup7\n        /* \"#utility.yul\":3276:3292   */\n      add\n        /* \"#utility.yul\":3241:3306   */\n      tag_76\n      jump\t// in\n    tag_150:\n        /* \"#utility.yul\":3331:3360   */\n      tag_151\n        /* \"#utility.yul\":3353:3359   */\n      dup2\n        /* \"#utility.yul\":3331:3360   */\n      tag_77\n      jump\t// in\n    tag_151:\n        /* \"#utility.yul\":3326:3329   */\n      dup5\n        /* \"#utility.yul\":3322:3361   */\n      add\n        /* \"#utility.yul\":3315:3361   */\n      swap2\n      pop\n        /* \"#utility.yul\":3092:3367   */\n      pop\n        /* \"#utility.yul\":3010:3367   */\n      swap3\n      swap2\n      pop\n      pop\n      jump\t// out\n        /* \"#utility.yul\":3373:3569   */\n    tag_84:\n        /* \"#utility.yul\":3462:3472   */\n      0x00\n        /* \"#utility.yul\":3497:3563   */\n      tag_153\n        /* \"#utility.yul\":3559:3562   */\n      dup4\n        /* \"#utility.yul\":3551:3557   */\n      dup4\n        /* \"#utility.yul\":3497:3563   */\n      tag_83\n      jump\t// in\n    tag_153:\n        /* \"#utility.yul\":3483:3563   */\n      swap1\n      pop\n        /* \"#utility.yul\":3373:3569   */\n      swap3\n      swap2\n      pop\n      pop\n      jump\t// out\n        /* \"#utility.yul\":3575:3698   */\n    tag_85:\n        /* \"#utility.yul\":3655:3659   */\n      0x00\n        /* \"#utility.yul\":3687:3691   */\n      0x20\n        /* \"#utility.yul\":3682:3685   */\n      dup3\n        /* \"#utility.yul\":3678:3692   */\n      add\n        /* \"#utility.yul\":3670:3692   */\n      swap1\n      pop\n        /* \"#utility.yul\":3575:3698   */\n      swap2\n      swap1\n      pop\n      jump\t// out\n        /* \"#utility.yul\":3732:4723   */\n    tag_86:\n        /* \"#utility.yul\":3871:3874   */\n      0x00\n        /* \"#utility.yul\":3900:3964   */\n      tag_156\n        /* \"#utility.yul\":3958:3963   */\n      dup3\n        /* \"#utility.yul\":3900:3964   */\n      tag_79\n      jump\t// in\n    tag_156:\n        /* \"#utility.yul\":3980:4076   */\n      tag_157\n        /* \"#utility.yul\":4069:4075   */\n      dup2\n        /* \"#utility.yul\":4064:4067   */\n      dup6\n        /* \"#utility.yul\":3980:4076   */\n      tag_80\n      jump\t// in\n    tag_157:\n        /* \"#utility.yul\":3973:4076   */\n      swap4\n      pop\n        /* \"#utility.yul\":4102:4105   */\n      dup4\n        /* \"#utility.yul\":4147:4151   */\n      0x20\n        /* \"#utility.yul\":4139:4145   */\n      dup3\n        /* \"#utility.yul\":4135:4152   */\n      mul\n        /* \"#utility.yul\":4130:4133   */\n      dup6\n        /* \"#utility.yul\":4126:4153   */\n      add\n        /* \"#utility.yul\":4177:4243   */\n      tag_158\n        /* \"#utility.yul\":4237:4242   */\n      dup6\n        /* \"#utility.yul\":4177:4243   */\n      tag_81\n      jump\t// in\n    tag_158:\n        /* \"#utility.yul\":4266:4273   */\n      dup1\n        /* \"#utility.yul\":4297:4298   */\n      0x00\n        /* \"#utility.yul\":4282:4678   */\n    tag_159:\n        /* \"#utility.yul\":4307:4313   */\n      dup6\n        /* \"#utility.yul\":4304:4305   */\n      dup2\n        /* \"#utility.yul\":4301:4314   */\n      lt\n        /* \"#utility.yul\":4282:4678   */\n      iszero\n      tag_161\n      jumpi\n        /* \"#utility.yul\":4378:4387   */\n      dup5\n        /* \"#utility.yul\":4372:4376   */\n      dup5\n        /* \"#utility.yul\":4368:4388   */\n      sub\n        /* \"#utility.yul\":4363:4366   */\n      dup10\n        /* \"#utility.yul\":4356:4389   */\n      mstore\n        /* \"#utility.yul\":4429:4435   */\n      dup2\n        /* \"#utility.yul\":4423:4436   */\n      mload\n        /* \"#utility.yul\":4457:4541   */\n      tag_162\n        /* \"#utility.yul\":4536:4540   */\n      dup6\n        /* \"#utility.yul\":4521:4534   */\n      dup3\n        /* \"#utility.yul\":4457:4541   */\n      tag_84\n      jump\t// in\n    tag_162:\n        /* \"#utility.yul\":4449:4541   */\n      swap5\n      pop\n        /* \"#utility.yul\":4564:4634   */\n      tag_163\n        /* \"#utility.yul\":4627:4633   */\n      dup4\n        /* \"#utility.yul\":4564:4634   */\n      tag_85\n      jump\t// in\n    tag_163:\n        /* \"#utility.yul\":4554:4634   */\n      swap3\n      pop\n        /* \"#utility.yul\":4663:4667   */\n      0x20\n        /* \"#utility.yul\":4658:4661   */\n      dup11\n        /* \"#utility.yul\":4654:4668   */\n      add\n        /* \"#utility.yul\":4647:4668   */\n      swap10\n      pop\n        /* \"#utility.yul\":4342:4678   */\n      pop\n        /* \"#utility.yul\":4329:4330   */\n      0x01\n        /* \"#utility.yul\":4326:4327   */\n      dup2\n        /* \"#utility.yul\":4322:4331   */\n      add\n        /* \"#utility.yul\":4317:4331   */\n      swap1\n      pop\n        /* \"#utility.yul\":4282:4678   */\n      jump(tag_159)\n    tag_161:\n        /* \"#utility.yul\":4286:4300   */\n      pop\n        /* \"#utility.yul\":4694:4698   */\n      dup3\n        /* \"#utility.yul\":4687:4698   */\n      swap8\n      pop\n        /* \"#utility.yul\":4714:4717   */\n      dup8\n        /* \"#utility.yul\":4707:4717   */\n      swap6\n      pop\n        /* \"#utility.yul\":3876:4723   */\n      pop\n      pop\n      pop\n      pop\n      pop\n        /* \"#utility.yul\":3732:4723   */\n      swap3\n      swap2\n      pop\n      pop\n      jump\t// out\n        /* \"#utility.yul\":4729:5142   */\n    tag_16:\n        /* \"#utility.yul\":4892:4896   */\n      0x00\n        /* \"#utility.yul\":4930:4932   */\n      0x20\n        /* \"#utility.yul\":4919:4928   */\n      dup3\n        /* \"#utility.yul\":4915:4933   */\n      add\n        /* \"#utility.yul\":4907:4933   */\n      swap1\n      pop\n        /* \"#utility.yul\":4979:4988   */\n      dup2\n        /* \"#utility.yul\":4973:4977   */\n      dup2\n        /* \"#utility.yul\":4969:4989   */\n      sub\n        /* \"#utility.yul\":4965:4966   */\n      0x00\n        /* \"#utility.yul\":4954:4963   */\n      dup4\n        /* \"#utility.yul\":4950:4967   */\n      add\n        /* \"#utility.yul\":4943:4990   */\n      mstore\n        /* \"#utility.yul\":5007:5135   */\n      tag_165\n        /* \"#utility.yul\":5130:5134   */\n      dup2\n        /* \"#utility.yul\":5121:5127   */\n      dup5\n        /* \"#utility.yul\":5007:5135   */\n      tag_86\n      jump\t// in\n    tag_165:\n        /* \"#utility.yul\":4999:5135   */\n      swap1\n      pop\n        /* \"#utility.yul\":4729:5142   */\n      swap3\n      swap2\n      pop\n      pop\n      jump\t// out\n        /* \"#utility.yul\":5148:5266   */\n    tag_87:\n        /* \"#utility.yul\":5235:5259   */\n      tag_167\n        /* \"#utility.yul\":5253:5258   */\n      dup2\n        /* \"#utility.yul\":5235:5259   */\n      tag_71\n      jump\t// in\n    tag_167:\n        /* \"#utility.yul\":5230:5233   */\n      dup3\n        /* \"#utility.yul\":5223:5260   */\n      mstore\n        /* \"#utility.yul\":5148:5266   */\n      pop\n      pop\n      jump\t// out\n        /* \"#utility.yul\":5272:5494   */\n    tag_20:\n        /* \"#utility.yul\":5365:5369   */\n      0x00\n        /* \"#utility.yul\":5403:5405   */\n      0x20\n        /* \"#utility.yul\":5392:5401   */\n      dup3\n        /* \"#utility.yul\":5388:5406   */\n      add\n        /* \"#utility.yul\":5380:5406   */\n      swap1\n      pop\n        /* \"#utility.yul\":5416:5487   */\n      tag_169\n        /* \"#utility.yul\":5484:5485   */\n      0x00\n        /* \"#utility.yul\":5473:5482   */\n      dup4\n        /* \"#utility.yul\":5469:5486   */\n      add\n        /* \"#utility.yul\":5460:5466   */\n      dup5\n        /* \"#utility.yul\":5416:5487   */\n      tag_87\n      jump\t// in\n    tag_169:\n        /* \"#utility.yul\":5272:5494   */\n      swap3\n      swap2\n      pop\n      pop\n      jump\t// out\n        /* \"#utility.yul\":5500:5617   */\n    tag_88:\n        /* \"#utility.yul\":5609:5610   */\n      0x00\n        /* \"#utility.yul\":5606:5607   */\n      dup1\n        /* \"#utility.yul\":5599:5611   */\n      revert\n        /* \"#utility.yul\":5623:5740   */\n    tag_89:\n        /* \"#utility.yul\":5732:5733   */\n      0x00\n        /* \"#utility.yul\":5729:5730   */\n      dup1\n        /* \"#utility.yul\":5722:5734   */\n      revert\n        /* \"#utility.yul\":5746:5926   */\n    tag_39:\n        /* \"#utility.yul\":5794:5871   */\n      0x4e487b7100000000000000000000000000000000000000000000000000000000\n        /* \"#utility.yul\":5791:5792   */\n      0x00\n        /* \"#utility.yul\":5784:5872   */\n      mstore\n        /* \"#utility.yul\":5891:5895   */\n      0x41\n        /* \"#utility.yul\":5888:5889   */\n      0x04\n        /* \"#utility.yul\":5881:5896   */\n      mstore\n        /* \"#utility.yul\":5915:5919   */\n      0x24\n        /* \"#utility.yul\":5912:5913   */\n      0x00\n        /* \"#utility.yul\":5905:5920   */\n      revert\n        /* \"#utility.yul\":5932:6213   */\n    tag_90:\n        /* \"#utility.yul\":6015:6042   */\n      tag_174\n        /* \"#utility.yul\":6037:6041   */\n      dup3\n        /* \"#utility.yul\":6015:6042   */\n      tag_77\n      jump\t// in\n    tag_174:\n        /* \"#utility.yul\":6007:6013   */\n      dup2\n        /* \"#utility.yul\":6003:6043   */\n      add\n        /* \"#utility.yul\":6145:6151   */\n      dup2\n        /* \"#utility.yul\":6133:6143   */\n      dup2\n        /* \"#utility.yul\":6130:6152   */\n      lt\n        /* \"#utility.yul\":6109:6127   */\n      0xffffffffffffffff\n        /* \"#utility.yul\":6097:6107   */\n      dup3\n        /* \"#utility.yul\":6094:6128   */\n      gt\n        /* \"#utility.yul\":6091:6153   */\n      or\n        /* \"#utility.yul\":6088:6176   */\n      iszero\n      tag_175\n      jumpi\n        /* \"#utility.yul\":6156:6174   */\n      tag_176\n      tag_39\n      jump\t// in\n    tag_176:\n        /* \"#utility.yul\":6088:6176   */\n    tag_175:\n        /* \"#utility.yul\":6196:6206   */\n      dup1\n        /* \"#utility.yul\":6192:6194   */\n      0x40\n        /* \"#utility.yul\":6185:6207   */\n      mstore\n        /* \"#utility.yul\":5975:6213   */\n      pop\n        /* \"#utility.yul\":5932:6213   */\n      pop\n      pop\n      jump\t// out\n        /* \"#utility.yul\":6219:6348   */\n    tag_91:\n        /* \"#utility.yul\":6253:6259   */\n      0x00\n        /* \"#utility.yul\":6280:6300   */\n      tag_178\n      tag_68\n      jump\t// in\n    tag_178:\n        /* \"#utility.yul\":6270:6300   */\n      swap1\n      pop\n        /* \"#utility.yul\":6309:6342   */\n      tag_179\n        /* \"#utility.yul\":6337:6341   */\n      dup3\n        /* \"#utility.yul\":6329:6335   */\n      dup3\n        /* \"#utility.yul\":6309:6342   */\n      tag_90\n      jump\t// in\n    tag_179:\n        /* \"#utility.yul\":6219:6348   */\n      swap2\n      swap1\n      pop\n      jump\t// out\n        /* \"#utility.yul\":6354:6662   */\n    tag_92:\n        /* \"#utility.yul\":6416:6420   */\n      0x00\n        /* \"#utility.yul\":6506:6524   */\n      0xffffffffffffffff\n        /* \"#utility.yul\":6498:6504   */\n      dup3\n        /* \"#utility.yul\":6495:6525   */\n      gt\n        /* \"#utility.yul\":6492:6548   */\n      iszero\n      tag_181\n      jumpi\n        /* \"#utility.yul\":6528:6546   */\n      tag_182\n      tag_39\n      jump\t// in\n    tag_182:\n        /* \"#utility.yul\":6492:6548   */\n    tag_181:\n        /* \"#utility.yul\":6566:6595   */\n      tag_183\n        /* \"#utility.yul\":6588:6594   */\n      dup3\n        /* \"#utility.yul\":6566:6595   */\n      tag_77\n      jump\t// in\n    tag_183:\n        /* \"#utility.yul\":6558:6595   */\n      swap1\n      pop\n        /* \"#utility.yul\":6650:6654   */\n      0x20\n        /* \"#utility.yul\":6644:6648   */\n      dup2\n        /* \"#utility.yul\":6640:6655   */\n      add\n        /* \"#utility.yul\":6632:6655   */\n      swap1\n      pop\n        /* \"#utility.yul\":6354:6662   */\n      swap2\n      swap1\n      pop\n      jump\t// out\n        /* \"#utility.yul\":6668:6814   */\n    tag_93:\n        /* \"#utility.yul\":6765:6771   */\n      dup3\n        /* \"#utility.yul\":6760:6763   */\n      dup2\n        /* \"#utility.yul\":6755:6758   */\n      dup4\n        /* \"#utility.yul\":6742:6772   */\n      calldatacopy\n        /* \"#utility.yul\":6806:6807   */\n      0x00\n        /* \"#utility.yul\":6797:6803   */\n      dup4\n        /* \"#utility.yul\":6792:6795   */\n      dup4\n        /* \"#utility.yul\":6788:6804   */\n      add\n        /* \"#utility.yul\":6781:6808   */\n      mstore\n        /* \"#utility.yul\":6668:6814   */\n      pop\n      pop\n      pop\n      jump\t// out\n        /* \"#utility.yul\":6820:7245   */\n    tag_94:\n        /* \"#utility.yul\":6898:6903   */\n      0x00\n        /* \"#utility.yul\":6923:6989   */\n      tag_186\n        /* \"#utility.yul\":6939:6988   */\n      tag_187\n        /* \"#utility.yul\":6981:6987   */\n      dup5\n        /* \"#utility.yul\":6939:6988   */\n      tag_92\n      jump\t// in\n    tag_187:\n        /* \"#utility.yul\":6923:6989   */\n      tag_91\n      jump\t// in\n    tag_186:\n        /* \"#utility.yul\":6914:6989   */\n      swap1\n      pop\n        /* \"#utility.yul\":7012:7018   */\n      dup3\n        /* \"#utility.yul\":7005:7010   */\n      dup2\n        /* \"#utility.yul\":6998:7019   */\n      mstore\n        /* \"#utility.yul\":7050:7054   */\n      0x20\n        /* \"#utility.yul\":7043:7048   */\n      dup2\n        /* \"#utility.yul\":7039:7055   */\n      add\n        /* \"#utility.yul\":7088:7091   */\n      dup5\n        /* \"#utility.yul\":7079:7085   */\n      dup5\n        /* \"#utility.yul\":7074:7077   */\n      dup5\n        /* \"#utility.yul\":7070:7086   */\n      add\n        /* \"#utility.yul\":7067:7092   */\n      gt\n        /* \"#utility.yul\":7064:7176   */\n      iszero\n      tag_188\n      jumpi\n        /* \"#utility.yul\":7095:7174   */\n      tag_189\n      tag_89\n      jump\t// in\n    tag_189:\n        /* \"#utility.yul\":7064:7176   */\n    tag_188:\n        /* \"#utility.yul\":7185:7239   */\n      tag_190\n        /* \"#utility.yul\":7232:7238   */\n      dup5\n        /* \"#utility.yul\":7227:7230   */\n      dup3\n        /* \"#utility.yul\":7222:7225   */\n      dup6\n        /* \"#utility.yul\":7185:7239   */\n      tag_93\n      jump\t// in\n    tag_190:\n        /* \"#utility.yul\":6904:7245   */\n      pop\n        /* \"#utility.yul\":6820:7245   */\n      swap4\n      swap3\n      pop\n      pop\n      pop\n      jump\t// out\n        /* \"#utility.yul\":7265:7605   */\n    tag_95:\n        /* \"#utility.yul\":7321:7326   */\n      0x00\n        /* \"#utility.yul\":7370:7373   */\n      dup3\n        /* \"#utility.yul\":7363:7367   */\n      0x1f\n        /* \"#utility.yul\":7355:7361   */\n      dup4\n        /* \"#utility.yul\":7351:7368   */\n      add\n        /* \"#utility.yul\":7347:7374   */\n      slt\n        /* \"#utility.yul\":7337:7459   */\n      tag_192\n      jumpi\n        /* \"#utility.yul\":7378:7457   */\n      tag_193\n      tag_88\n      jump\t// in\n    tag_193:\n        /* \"#utility.yul\":7337:7459   */\n    tag_192:\n        /* \"#utility.yul\":7495:7501   */\n      dup2\n        /* \"#utility.yul\":7482:7502   */\n      calldataload\n        /* \"#utility.yul\":7520:7599   */\n      tag_194\n        /* \"#utility.yul\":7595:7598   */\n      dup5\n        /* \"#utility.yul\":7587:7593   */\n      dup3\n        /* \"#utility.yul\":7580:7584   */\n      0x20\n        /* \"#utility.yul\":7572:7578   */\n      dup7\n        /* \"#utility.yul\":7568:7585   */\n      add\n        /* \"#utility.yul\":7520:7599   */\n      tag_94\n      jump\t// in\n    tag_194:\n        /* \"#utility.yul\":7511:7599   */\n      swap2\n      pop\n        /* \"#utility.yul\":7327:7605   */\n      pop\n        /* \"#utility.yul\":7265:7605   */\n      swap3\n      swap2\n      pop\n      pop\n      jump\t// out\n        /* \"#utility.yul\":7611:8120   */\n    tag_23:\n        /* \"#utility.yul\":7680:7686   */\n      0x00\n        /* \"#utility.yul\":7729:7731   */\n      0x20\n        /* \"#utility.yul\":7717:7726   */\n      dup3\n        /* \"#utility.yul\":7708:7715   */\n      dup5\n        /* \"#utility.yul\":7704:7727   */\n      sub\n        /* \"#utility.yul\":7700:7732   */\n      slt\n        /* \"#utility.yul\":7697:7816   */\n      iszero\n      tag_196\n      jumpi\n        /* \"#utility.yul\":7735:7814   */\n      tag_197\n      tag_69\n      jump\t// in\n    tag_197:\n        /* \"#utility.yul\":7697:7816   */\n    tag_196:\n        /* \"#utility.yul\":7883:7884   */\n      0x00\n        /* \"#utility.yul\":7872:7881   */\n      dup3\n        /* \"#utility.yul\":7868:7885   */\n      add\n        /* \"#utility.yul\":7855:7886   */\n      calldataload\n        /* \"#utility.yul\":7913:7931   */\n      0xffffffffffffffff\n        /* \"#utility.yul\":7905:7911   */\n      dup2\n        /* \"#utility.yul\":7902:7932   */\n      gt\n        /* \"#utility.yul\":7899:8016   */\n      iszero\n      tag_198\n      jumpi\n        /* \"#utility.yul\":7935:8014   */\n      tag_199\n      tag_70\n      jump\t// in\n    tag_199:\n        /* \"#utility.yul\":7899:8016   */\n    tag_198:\n        /* \"#utility.yul\":8040:8103   */\n      tag_200\n        /* \"#utility.yul\":8095:8102   */\n      dup5\n        /* \"#utility.yul\":8086:8092   */\n      dup3\n        /* \"#utility.yul\":8075:8084   */\n      dup6\n        /* \"#utility.yul\":8071:8093   */\n      add\n        /* \"#utility.yul\":8040:8103   */\n      tag_95\n      jump\t// in\n    tag_200:\n        /* \"#utility.yul\":8030:8103   */\n      swap2\n      pop\n        /* \"#utility.yul\":7826:8113   */\n      pop\n        /* \"#utility.yul\":7611:8120   */\n      swap3\n      swap2\n      pop\n      pop\n      jump\t// out\n        /* \"#utility.yul\":8126:8306   */\n    tag_28:\n        /* \"#utility.yul\":8174:8251   */\n      0x4e487b7100000000000000000000000000000000000000000000000000000000\n        /* \"#utility.yul\":8171:8172   */\n      0x00\n        /* \"#utility.yul\":8164:8252   */\n      mstore\n        /* \"#utility.yul\":8271:8275   */\n      0x32\n        /* \"#utility.yul\":8268:8269   */\n      0x04\n        /* \"#utility.yul\":8261:8276   */\n      mstore\n        /* \"#utility.yul\":8295:8299   */\n      0x24\n        /* \"#utility.yul\":8292:8293   */\n      0x00\n        /* \"#utility.yul\":8285:8300   */\n      revert\n        /* \"#utility.yul\":8312:8492   */\n    tag_96:\n        /* \"#utility.yul\":8360:8437   */\n      0x4e487b7100000000000000000000000000000000000000000000000000000000\n        /* \"#utility.yul\":8357:8358   */\n      0x00\n        /* \"#utility.yul\":8350:8438   */\n      mstore\n        /* \"#utility.yul\":8457:8461   */\n      0x22\n        /* \"#utility.yul\":8454:8455   */\n      0x04\n        /* \"#utility.yul\":8447:8462   */\n      mstore\n        /* \"#utility.yul\":8481:8485   */\n      0x24\n        /* \"#utility.yul\":8478:8479   */\n      0x00\n        /* \"#utility.yul\":8471:8486   */\n      revert\n        /* \"#utility.yul\":8498:8818   */\n    tag_31:\n        /* \"#utility.yul\":8542:8548   */\n      0x00\n        /* \"#utility.yul\":8579:8580   */\n      0x02\n        /* \"#utility.yul\":8573:8577   */\n      dup3\n        /* \"#utility.yul\":8569:8581   */\n      div\n        /* \"#utility.yul\":8559:8581   */\n      swap1\n      pop\n        /* \"#utility.yul\":8626:8627   */\n      0x01\n        /* \"#utility.yul\":8620:8624   */\n      dup3\n        /* \"#utility.yul\":8616:8628   */\n      and\n        /* \"#utility.yul\":8647:8665   */\n      dup1\n        /* \"#utility.yul\":8637:8718   */\n      tag_204\n      jumpi\n        /* \"#utility.yul\":8703:8707   */\n      0x7f\n        /* \"#utility.yul\":8695:8701   */\n      dup3\n        /* \"#utility.yul\":8691:8708   */\n      and\n        /* \"#utility.yul\":8681:8708   */\n      swap2\n      pop\n        /* \"#utility.yul\":8637:8718   */\n    tag_204:\n        /* \"#utility.yul\":8765:8767   */\n      0x20\n        /* \"#utility.yul\":8757:8763   */\n      dup3\n        /* \"#utility.yul\":8754:8768   */\n      lt\n        /* \"#utility.yul\":8734:8752   */\n      dup2\n        /* \"#utility.yul\":8731:8769   */\n      sub\n        /* \"#utility.yul\":8728:8812   */\n      tag_205\n      jumpi\n        /* \"#utility.yul\":8784:8802   */\n      tag_206\n      tag_96\n      jump\t// in\n    tag_206:\n        /* \"#utility.yul\":8728:8812   */\n    tag_205:\n        /* \"#utility.yul\":8549:8818   */\n      pop\n        /* \"#utility.yul\":8498:8818   */\n      swap2\n      swap1\n      pop\n      jump\t// out\n        /* \"#utility.yul\":8824:9004   */\n    tag_97:\n        /* \"#utility.yul\":8872:8949   */\n      0x4e487b7100000000000000000000000000000000000000000000000000000000\n        /* \"#utility.yul\":8869:8870   */\n      0x00\n        /* \"#utility.yul\":8862:8950   */\n      mstore\n        /* \"#utility.yul\":8969:8973   */\n      0x11\n        /* \"#utility.yul\":8966:8967   */\n      0x04\n        /* \"#utility.yul\":8959:8974   */\n      mstore\n        /* \"#utility.yul\":8993:8997   */\n      0x24\n        /* \"#utility.yul\":8990:8991   */\n      0x00\n        /* \"#utility.yul\":8983:8998   */\n      revert\n        /* \"#utility.yul\":9010:9243   */\n    tag_56:\n        /* \"#utility.yul\":9049:9052   */\n      0x00\n        /* \"#utility.yul\":9072:9096   */\n      tag_209\n        /* \"#utility.yul\":9090:9095   */\n      dup3\n        /* \"#utility.yul\":9072:9096   */\n      tag_71\n      jump\t// in\n    tag_209:\n        /* \"#utility.yul\":9063:9096   */\n      swap2\n      pop\n        /* \"#utility.yul\":9118:9184   */\n      0xffffffffffffffffffffffffffffffffffffffffffffffffffffffffffffffff\n        /* \"#utility.yul\":9111:9116   */\n      dup3\n        /* \"#utility.yul\":9108:9185   */\n      sub\n        /* \"#utility.yul\":9105:9208   */\n      tag_210\n      jumpi\n        /* \"#utility.yul\":9188:9206   */\n      tag_211\n      tag_97\n      jump\t// in\n    tag_211:\n        /* \"#utility.yul\":9105:9208   */\n    tag_210:\n        /* \"#utility.yul\":9235:9236   */\n      0x01\n        /* \"#utility.yul\":9228:9233   */\n      dup3\n        /* \"#utility.yul\":9224:9237   */\n      add\n        /* \"#utility.yul\":9217:9237   */\n      swap1\n      pop\n        /* \"#utility.yul\":9010:9243   */\n      swap2\n      swap1\n      pop\n      jump\t// out\n        /* \"#utility.yul\":9249:9414   */\n    tag_98:\n        /* \"#utility.yul\":9389:9406   */\n      0x4b6170617369746520446f6c64752e0000000000000000000000000000000000\n        /* \"#utility.yul\":9385:9386   */\n      0x00\n        /* \"#utility.yul\":9377:9383   */\n      dup3\n        /* \"#utility.yul\":9373:9387   */\n      add\n        /* \"#utility.yul\":9366:9407   */\n      mstore\n        /* \"#utility.yul\":9249:9414   */\n      pop\n      jump\t// out\n        /* \"#utility.yul\":9420:9786   */\n    tag_99:\n        /* \"#utility.yul\":9562:9565   */\n      0x00\n        /* \"#utility.yul\":9583:9650   */\n      tag_214\n        /* \"#utility.yul\":9647:9649   */\n      0x0f\n        /* \"#utility.yul\":9642:9645   */\n      dup4\n        /* \"#utility.yul\":9583:9650   */\n      tag_75\n      jump\t// in\n    tag_214:\n        /* \"#utility.yul\":9576:9650   */\n      swap2\n      pop\n        /* \"#utility.yul\":9659:9752   */\n      tag_215\n        /* \"#utility.yul\":9748:9751   */\n      dup3\n        /* \"#utility.yul\":9659:9752   */\n      tag_98\n      jump\t// in\n    tag_215:\n        /* \"#utility.yul\":9777:9779   */\n      0x20\n        /* \"#utility.yul\":9772:9775   */\n      dup3\n        /* \"#utility.yul\":9768:9780   */\n      add\n        /* \"#utility.yul\":9761:9780   */\n      swap1\n      pop\n        /* \"#utility.yul\":9420:9786   */\n      swap2\n      swap1\n      pop\n      jump\t// out\n        /* \"#utility.yul\":9792:10211   */\n    tag_61:\n        /* \"#utility.yul\":9958:9962   */\n      0x00\n        /* \"#utility.yul\":9996:9998   */\n      0x20\n        /* \"#utility.yul\":9985:9994   */\n      dup3\n        /* \"#utility.yul\":9981:9999   */\n      add\n        /* \"#utility.yul\":9973:9999   */\n      swap1\n      pop\n        /* \"#utility.yul\":10045:10054   */\n      dup2\n        /* \"#utility.yul\":10039:10043   */\n      dup2\n        /* \"#utility.yul\":10035:10055   */\n      sub\n        /* \"#utility.yul\":10031:10032   */\n      0x00\n        /* \"#utility.yul\":10020:10029   */\n      dup4\n        /* \"#utility.yul\":10016:10033   */\n      add\n        /* \"#utility.yul\":10009:10056   */\n      mstore\n        /* \"#utility.yul\":10073:10204   */\n      tag_217\n        /* \"#utility.yul\":10199:10203   */\n      dup2\n        /* \"#utility.yul\":10073:10204   */\n      tag_99\n      jump\t// in\n    tag_217:\n        /* \"#utility.yul\":10065:10204   */\n      swap1\n      pop\n        /* \"#utility.yul\":9792:10211   */\n      swap2\n      swap1\n      pop\n      jump\t// out\n        /* \"#utility.yul\":10217:10358   */\n    tag_100:\n        /* \"#utility.yul\":10266:10270   */\n      0x00\n        /* \"#utility.yul\":10289:10292   */\n      dup2\n        /* \"#utility.yul\":10281:10292   */\n      swap1\n      pop\n        /* \"#utility.yul\":10312:10315   */\n      dup2\n        /* \"#utility.yul\":10309:10310   */\n      0x00\n        /* \"#utility.yul\":10302:10316   */\n      mstore\n        /* \"#utility.yul\":10346:10350   */\n      0x20\n        /* \"#utility.yul\":10343:10344   */\n      0x00\n        /* \"#utility.yul\":10333:10351   */\n      keccak256\n        /* \"#utility.yul\":10325:10351   */\n      swap1\n      pop\n        /* \"#utility.yul\":10217:10358   */\n      swap2\n      swap1\n      pop\n      jump\t// out\n        /* \"#utility.yul\":10364:10457   */\n    tag_101:\n        /* \"#utility.yul\":10401:10407   */\n      0x00\n        /* \"#utility.yul\":10448:10450   */\n      0x20\n        /* \"#utility.yul\":10443:10445   */\n      0x1f\n        /* \"#utility.yul\":10436:10441   */\n      dup4\n        /* \"#utility.yul\":10432:10446   */\n      add\n        /* \"#utility.yul\":10428:10451   */\n      div\n        /* \"#utility.yul\":10418:10451   */\n      swap1\n      pop\n        /* \"#utility.yul\":10364:10457   */\n      swap2\n      swap1\n      pop\n      jump\t// out\n        /* \"#utility.yul\":10463:10570   */\n    tag_102:\n        /* \"#utility.yul\":10507:10515   */\n      0x00\n        /* \"#utility.yul\":10557:10562   */\n      dup3\n        /* \"#utility.yul\":10551:10555   */\n      dup3\n        /* \"#utility.yul\":10547:10563   */\n      shl\n        /* \"#utility.yul\":10526:10563   */\n      swap1\n      pop\n        /* \"#utility.yul\":10463:10570   */\n      swap3\n      swap2\n      pop\n      pop\n      jump\t// out\n        /* \"#utility.yul\":10576:10969   */\n    tag_103:\n        /* \"#utility.yul\":10645:10651   */\n      0x00\n        /* \"#utility.yul\":10695:10696   */\n      0x08\n        /* \"#utility.yul\":10683:10693   */\n      dup4\n        /* \"#utility.yul\":10679:10697   */\n      mul\n        /* \"#utility.yul\":10718:10815   */\n      tag_222\n        /* \"#utility.yul\":10748:10814   */\n      0xffffffffffffffffffffffffffffffffffffffffffffffffffffffffffffffff\n        /* \"#utility.yul\":10737:10746   */\n      dup3\n        /* \"#utility.yul\":10718:10815   */\n      tag_102\n      jump\t// in\n    tag_222:\n        /* \"#utility.yul\":10836:10875   */\n      tag_223\n        /* \"#utility.yul\":10866:10874   */\n      dup7\n        /* \"#utility.yul\":10855:10864   */\n      dup4\n        /* \"#utility.yul\":10836:10875   */\n      tag_102\n      jump\t// in\n    tag_223:\n        /* \"#utility.yul\":10824:10875   */\n      swap6\n      pop\n        /* \"#utility.yul\":10908:10912   */\n      dup1\n        /* \"#utility.yul\":10904:10913   */\n      not\n        /* \"#utility.yul\":10897:10902   */\n      dup5\n        /* \"#utility.yul\":10893:10914   */\n      and\n        /* \"#utility.yul\":10884:10914   */\n      swap4\n      pop\n        /* \"#utility.yul\":10957:10961   */\n      dup1\n        /* \"#utility.yul\":10947:10955   */\n      dup7\n        /* \"#utility.yul\":10943:10962   */\n      and\n        /* \"#utility.yul\":10936:10941   */\n      dup5\n        /* \"#utility.yul\":10933:10963   */\n      or\n        /* \"#utility.yul\":10923:10963   */\n      swap3\n      pop\n        /* \"#utility.yul\":10652:10969   */\n      pop\n      pop\n        /* \"#utility.yul\":10576:10969   */\n      swap4\n      swap3\n      pop\n      pop\n      pop\n      jump\t// out\n        /* \"#utility.yul\":10975:11035   */\n    tag_104:\n        /* \"#utility.yul\":11003:11006   */\n      0x00\n        /* \"#utility.yul\":11024:11029   */\n      dup2\n        /* \"#utility.yul\":11017:11029   */\n      swap1\n      pop\n        /* \"#utility.yul\":10975:11035   */\n      swap2\n      swap1\n      pop\n      jump\t// out\n        /* \"#utility.yul\":11041:11183   */\n    tag_105:\n        /* \"#utility.yul\":11091:11100   */\n      0x00\n        /* \"#utility.yul\":11124:11177   */\n      tag_226\n        /* \"#utility.yul\":11142:11176   */\n      tag_227\n        /* \"#utility.yul\":11151:11175   */\n      tag_228\n        /* \"#utility.yul\":11169:11174   */\n      dup5\n        /* \"#utility.yul\":11151:11175   */\n      tag_71\n      jump\t// in\n    tag_228:\n        /* \"#utility.yul\":11142:11176   */\n      tag_104\n      jump\t// in\n    tag_227:\n        /* \"#utility.yul\":11124:11177   */\n      tag_71\n      jump\t// in\n    tag_226:\n        /* \"#utility.yul\":11111:11177   */\n      swap1\n      pop\n        /* \"#utility.yul\":11041:11183   */\n      swap2\n      swap1\n      pop\n      jump\t// out\n        /* \"#utility.yul\":11189:11264   */\n    tag_106:\n        /* \"#utility.yul\":11232:11235   */\n      0x00\n        /* \"#utility.yul\":11253:11258   */\n      dup2\n        /* \"#utility.yul\":11246:11258   */\n      swap1\n      pop\n        /* \"#utility.yul\":11189:11264   */\n      swap2\n      swap1\n      pop\n      jump\t// out\n        /* \"#utility.yul\":11270:11539   */\n    tag_107:\n        /* \"#utility.yul\":11380:11419   */\n      tag_231\n        /* \"#utility.yul\":11411:11418   */\n      dup4\n        /* \"#utility.yul\":11380:11419   */\n      tag_105\n      jump\t// in\n    tag_231:\n        /* \"#utility.yul\":11441:11532   */\n      tag_232\n        /* \"#utility.yul\":11490:11531   */\n      tag_233\n        /* \"#utility.yul\":11514:11530   */\n      dup3\n        /* \"#utility.yul\":11490:11531   */\n      tag_106\n      jump\t// in\n    tag_233:\n        /* \"#utility.yul\":11482:11488   */\n      dup5\n        /* \"#utility.yul\":11475:11479   */\n      dup5\n        /* \"#utility.yul\":11469:11480   */\n      sload\n        /* \"#utility.yul\":11441:11532   */\n      tag_103\n      jump\t// in\n    tag_232:\n        /* \"#utility.yul\":11435:11439   */\n      dup3\n        /* \"#utility.yul\":11428:11533   */\n      sstore\n        /* \"#utility.yul\":11346:11539   */\n      pop\n        /* \"#utility.yul\":11270:11539   */\n      pop\n      pop\n      pop\n      jump\t// out\n        /* \"#utility.yul\":11545:11618   */\n    tag_108:\n        /* \"#utility.yul\":11590:11593   */\n      0x00\n        /* \"#utility.yul\":11545:11618   */\n      swap1\n      jump\t// out\n        /* \"#utility.yul\":11624:11813   */\n    tag_109:\n        /* \"#utility.yul\":11701:11733   */\n      tag_236\n      tag_108\n      jump\t// in\n    tag_236:\n        /* \"#utility.yul\":11742:11807   */\n      tag_237\n        /* \"#utility.yul\":11800:11806   */\n      dup2\n        /* \"#utility.yul\":11792:11798   */\n      dup5\n        /* \"#utility.yul\":11786:11790   */\n      dup5\n        /* \"#utility.yul\":11742:11807   */\n      tag_107\n      jump\t// in\n    tag_237:\n        /* \"#utility.yul\":11677:11813   */\n      pop\n        /* \"#utility.yul\":11624:11813   */\n      pop\n      pop\n      jump\t// out\n        /* \"#utility.yul\":11819:12005   */\n    tag_110:\n        /* \"#utility.yul\":11879:11999   */\n    tag_239:\n        /* \"#utility.yul\":11896:11899   */\n      dup2\n        /* \"#utility.yul\":11889:11894   */\n      dup2\n        /* \"#utility.yul\":11886:11900   */\n      lt\n        /* \"#utility.yul\":11879:11999   */\n      iszero\n      tag_241\n      jumpi\n        /* \"#utility.yul\":11950:11989   */\n      tag_242\n        /* \"#utility.yul\":11987:11988   */\n      0x00\n        /* \"#utility.yul\":11980:11985   */\n      dup3\n        /* \"#utility.yul\":11950:11989   */\n      tag_109\n      jump\t// in\n    tag_242:\n        /* \"#utility.yul\":11923:11924   */\n      0x01\n        /* \"#utility.yul\":11916:11921   */\n      dup2\n        /* \"#utility.yul\":11912:11925   */\n      add\n        /* \"#utility.yul\":11903:11925   */\n      swap1\n      pop\n        /* \"#utility.yul\":11879:11999   */\n      jump(tag_239)\n    tag_241:\n        /* \"#utility.yul\":11819:12005   */\n      pop\n      pop\n      jump\t// out\n        /* \"#utility.yul\":12011:12554   */\n    tag_111:\n        /* \"#utility.yul\":12112:12114   */\n      0x1f\n        /* \"#utility.yul\":12107:12110   */\n      dup3\n        /* \"#utility.yul\":12104:12115   */\n      gt\n        /* \"#utility.yul\":12101:12547   */\n      iszero\n      tag_244\n      jumpi\n        /* \"#utility.yul\":12146:12184   */\n      tag_245\n        /* \"#utility.yul\":12178:12183   */\n      dup2\n        /* \"#utility.yul\":12146:12184   */\n      tag_100\n      jump\t// in\n    tag_245:\n        /* \"#utility.yul\":12230:12259   */\n      tag_246\n        /* \"#utility.yul\":12248:12258   */\n      dup5\n        /* \"#utility.yul\":12230:12259   */\n      tag_101\n      jump\t// in\n    tag_246:\n        /* \"#utility.yul\":12220:12228   */\n      dup2\n        /* \"#utility.yul\":12216:12260   */\n      add\n        /* \"#utility.yul\":12413:12415   */\n      0x20\n        /* \"#utility.yul\":12401:12411   */\n      dup6\n        /* \"#utility.yul\":12398:12416   */\n      lt\n        /* \"#utility.yul\":12395:12444   */\n      iszero\n      tag_247\n      jumpi\n        /* \"#utility.yul\":12434:12442   */\n      dup2\n        /* \"#utility.yul\":12419:12442   */\n      swap1\n      pop\n        /* \"#utility.yul\":12395:12444   */\n    tag_247:\n        /* \"#utility.yul\":12457:12537   */\n      tag_248\n        /* \"#utility.yul\":12513:12535   */\n      tag_249\n        /* \"#utility.yul\":12531:12534   */\n      dup6\n        /* \"#utility.yul\":12513:12535   */\n      tag_101\n      jump\t// in\n    tag_249:\n        /* \"#utility.yul\":12503:12511   */\n      dup4\n        /* \"#utility.yul\":12499:12536   */\n      add\n        /* \"#utility.yul\":12486:12497   */\n      dup3\n        /* \"#utility.yul\":12457:12537   */\n      tag_110\n      jump\t// in\n    tag_248:\n        /* \"#utility.yul\":12116:12547   */\n      pop\n      pop\n        /* \"#utility.yul\":12101:12547   */\n    tag_244:\n        /* \"#utility.yul\":12011:12554   */\n      pop\n      pop\n      pop\n      jump\t// out\n        /* \"#utility.yul\":12560:12677   */\n    tag_112:\n        /* \"#utility.yul\":12614:12622   */\n      0x00\n        /* \"#utility.yul\":12664:12669   */\n      dup3\n        /* \"#utility.yul\":12658:12662   */\n      dup3\n        /* \"#utility.yul\":12654:12670   */\n      shr\n        /* \"#utility.yul\":12633:12670   */\n      swap1\n      pop\n        /* \"#utility.yul\":12560:12677   */\n      swap3\n      swap2\n      pop\n      pop\n      jump\t// out\n        /* \"#utility.yul\":12683:12852   */\n    tag_113:\n        /* \"#utility.yul\":12727:12733   */\n      0x00\n        /* \"#utility.yul\":12760:12811   */\n      tag_252\n        /* \"#utility.yul\":12808:12809   */\n      0x00\n        /* \"#utility.yul\":12804:12810   */\n      not\n        /* \"#utility.yul\":12796:12801   */\n      dup5\n        /* \"#utility.yul\":12793:12794   */\n      0x08\n        /* \"#utility.yul\":12789:12802   */\n      mul\n        /* \"#utility.yul\":12760:12811   */\n      tag_112\n      jump\t// in\n    tag_252:\n        /* \"#utility.yul\":12756:12812   */\n      not\n        /* \"#utility.yul\":12841:12845   */\n      dup1\n        /* \"#utility.yul\":12835:12839   */\n      dup4\n        /* \"#utility.yul\":12831:12846   */\n      and\n        /* \"#utility.yul\":12821:12846   */\n      swap2\n      pop\n        /* \"#utility.yul\":12734:12852   */\n      pop\n        /* \"#utility.yul\":12683:12852   */\n      swap3\n      swap2\n      pop\n      pop\n      jump\t// out\n        /* \"#utility.yul\":12857:13152   */\n    tag_114:\n        /* \"#utility.yul\":12933:12937   */\n      0x00\n        /* \"#utility.yul\":13079:13108   */\n      tag_254\n        /* \"#utility.yul\":13104:13107   */\n      dup4\n        /* \"#utility.yul\":13098:13102   */\n      dup4\n        /* \"#utility.yul\":13079:13108   */\n      tag_113\n      jump\t// in\n    tag_254:\n        /* \"#utility.yul\":13071:13108   */\n      swap2\n      pop\n        /* \"#utility.yul\":13141:13144   */\n      dup3\n        /* \"#utility.yul\":13138:13139   */\n      0x02\n        /* \"#utility.yul\":13134:13145   */\n      mul\n        /* \"#utility.yul\":13128:13132   */\n      dup3\n        /* \"#utility.yul\":13125:13146   */\n      or\n        /* \"#utility.yul\":13117:13146   */\n      swap1\n      pop\n        /* \"#utility.yul\":12857:13152   */\n      swap3\n      swap2\n      pop\n      pop\n      jump\t// out\n        /* \"#utility.yul\":13157:14552   */\n    tag_67:\n        /* \"#utility.yul\":13274:13311   */\n      tag_256\n        /* \"#utility.yul\":13307:13310   */\n      dup3\n        /* \"#utility.yul\":13274:13311   */\n      tag_74\n      jump\t// in\n    tag_256:\n        /* \"#utility.yul\":13376:13394   */\n      0xffffffffffffffff\n        /* \"#utility.yul\":13368:13374   */\n      dup2\n        /* \"#utility.yul\":13365:13395   */\n      gt\n        /* \"#utility.yul\":13362:13418   */\n      iszero\n      tag_257\n      jumpi\n        /* \"#utility.yul\":13398:13416   */\n      tag_258\n      tag_39\n      jump\t// in\n    tag_258:\n        /* \"#utility.yul\":13362:13418   */\n    tag_257:\n        /* \"#utility.yul\":13442:13480   */\n      tag_259\n        /* \"#utility.yul\":13474:13478   */\n      dup3\n        /* \"#utility.yul\":13468:13479   */\n      sload\n        /* \"#utility.yul\":13442:13480   */\n      tag_31\n      jump\t// in\n    tag_259:\n        /* \"#utility.yul\":13527:13594   */\n      tag_260\n        /* \"#utility.yul\":13587:13593   */\n      dup3\n        /* \"#utility.yul\":13579:13585   */\n      dup3\n        /* \"#utility.yul\":13573:13577   */\n      dup6\n        /* \"#utility.yul\":13527:13594   */\n      tag_111\n      jump\t// in\n    tag_260:\n        /* \"#utility.yul\":13621:13622   */\n      0x00\n        /* \"#utility.yul\":13645:13649   */\n      0x20\n        /* \"#utility.yul\":13632:13649   */\n      swap1\n      pop\n        /* \"#utility.yul\":13677:13679   */\n      0x1f\n        /* \"#utility.yul\":13669:13675   */\n      dup4\n        /* \"#utility.yul\":13666:13680   */\n      gt\n        /* \"#utility.yul\":13694:13695   */\n      0x01\n        /* \"#utility.yul\":13689:14307   */\n      dup2\n      eq\n      tag_262\n      jumpi\n        /* \"#utility.yul\":14351:14352   */\n      0x00\n        /* \"#utility.yul\":14368:14374   */\n      dup5\n        /* \"#utility.yul\":14365:14442   */\n      iszero\n      tag_263\n      jumpi\n        /* \"#utility.yul\":14417:14426   */\n      dup3\n        /* \"#utility.yul\":14412:14415   */\n      dup8\n        /* \"#utility.yul\":14408:14427   */\n      add\n        /* \"#utility.yul\":14402:14428   */\n      mload\n        /* \"#utility.yul\":14393:14428   */\n      swap1\n      pop\n        /* \"#utility.yul\":14365:14442   */\n    tag_263:\n        /* \"#utility.yul\":14468:14535   */\n      tag_264\n        /* \"#utility.yul\":14528:14534   */\n      dup6\n        /* \"#utility.yul\":14521:14526   */\n      dup3\n        /* \"#utility.yul\":14468:14535   */\n      tag_114\n      jump\t// in\n    tag_264:\n        /* \"#utility.yul\":14462:14466   */\n      dup7\n        /* \"#utility.yul\":14455:14536   */\n      sstore\n        /* \"#utility.yul\":14324:14546   */\n      pop\n        /* \"#utility.yul\":13659:14546   */\n      jump(tag_261)\n        /* \"#utility.yul\":13689:14307   */\n    tag_262:\n        /* \"#utility.yul\":13741:13745   */\n      0x1f\n        /* \"#utility.yul\":13737:13746   */\n      not\n        /* \"#utility.yul\":13729:13735   */\n      dup5\n        /* \"#utility.yul\":13725:13747   */\n      and\n        /* \"#utility.yul\":13775:13812   */\n      tag_265\n        /* \"#utility.yul\":13807:13811   */\n      dup7\n        /* \"#utility.yul\":13775:13812   */\n      tag_100\n      jump\t// in\n    tag_265:\n        /* \"#utility.yul\":13834:13835   */\n      0x00\n        /* \"#utility.yul\":13848:14056   */\n    tag_266:\n        /* \"#utility.yul\":13862:13869   */\n      dup3\n        /* \"#utility.yul\":13859:13860   */\n      dup2\n        /* \"#utility.yul\":13856:13870   */\n      lt\n        /* \"#utility.yul\":13848:14056   */\n      iszero\n      tag_268\n      jumpi\n        /* \"#utility.yul\":13941:13950   */\n      dup5\n        /* \"#utility.yul\":13936:13939   */\n      dup10\n        /* \"#utility.yul\":13932:13951   */\n      add\n        /* \"#utility.yul\":13926:13952   */\n      mload\n        /* \"#utility.yul\":13918:13924   */\n      dup3\n        /* \"#utility.yul\":13911:13953   */\n      sstore\n        /* \"#utility.yul\":13992:13993   */\n      0x01\n        /* \"#utility.yul\":13984:13990   */\n      dup3\n        /* \"#utility.yul\":13980:13994   */\n      add\n        /* \"#utility.yul\":13970:13994   */\n      swap2\n      pop\n        /* \"#utility.yul\":14039:14041   */\n      0x20\n        /* \"#utility.yul\":14028:14037   */\n      dup6\n        /* \"#utility.yul\":14024:14042   */\n      add\n        /* \"#utility.yul\":14011:14042   */\n      swap5\n      pop\n        /* \"#utility.yul\":13885:13889   */\n      0x20\n        /* \"#utility.yul\":13882:13883   */\n      dup2\n        /* \"#utility.yul\":13878:13890   */\n      add\n        /* \"#utility.yul\":13873:13890   */\n      swap1\n      pop\n        /* \"#utility.yul\":13848:14056   */\n      jump(tag_266)\n    tag_268:\n        /* \"#utility.yul\":14084:14090   */\n      dup7\n        /* \"#utility.yul\":14075:14082   */\n      dup4\n        /* \"#utility.yul\":14072:14091   */\n      lt\n        /* \"#utility.yul\":14069:14248   */\n      iszero\n      tag_269\n      jumpi\n        /* \"#utility.yul\":14142:14151   */\n      dup5\n        /* \"#utility.yul\":14137:14140   */\n      dup10\n        /* \"#utility.yul\":14133:14152   */\n      add\n        /* \"#utility.yul\":14127:14153   */\n      mload\n        /* \"#utility.yul\":14185:14233   */\n      tag_270\n        /* \"#utility.yul\":14227:14231   */\n      0x1f\n        /* \"#utility.yul\":14219:14225   */\n      dup10\n        /* \"#utility.yul\":14215:14232   */\n      and\n        /* \"#utility.yul\":14204:14213   */\n      dup3\n        /* \"#utility.yul\":14185:14233   */\n      tag_113\n      jump\t// in\n    tag_270:\n        /* \"#utility.yul\":14177:14183   */\n      dup4\n        /* \"#utility.yul\":14170:14234   */\n      sstore\n        /* \"#utility.yul\":14092:14248   */\n      pop\n        /* \"#utility.yul\":14069:14248   */\n    tag_269:\n        /* \"#utility.yul\":14294:14295   */\n      0x01\n        /* \"#utility.yul\":14290:14291   */\n      0x02\n        /* \"#utility.yul\":14282:14288   */\n      dup9\n        /* \"#utility.yul\":14278:14292   */\n      mul\n        /* \"#utility.yul\":14274:14296   */\n      add\n        /* \"#utility.yul\":14268:14272   */\n      dup9\n        /* \"#utility.yul\":14261:14297   */\n      sstore\n        /* \"#utility.yul\":13696:14307   */\n      pop\n      pop\n      pop\n        /* \"#utility.yul\":13659:14546   */\n    tag_261:\n      pop\n        /* \"#utility.yul\":13249:14552   */\n      pop\n      pop\n      pop\n        /* \"#utility.yul\":13157:14552   */\n      pop\n      pop\n      jump\t// out\n\n    auxdata: 0xa2646970667358221220c2be45cda9d1872bd88de04194aeb3c6d9a29ce2eea0d85e318c71c90140acb664736f6c63430008120033\n}\n",
				"bytecode": {
					"linkReferences": {},
					"object": "60806040523480156200001157600080fd5b50604051620011bb380380620011bb833981810160405281019062000037919062000211565b806000600360008154809291906200004f906200029b565b9190505560038110620000675762000066620002e8565b5b01908162000076919062000558565b50506200063f565b6000604051905090565b600080fd5b600080fd5b600080fd5b600080fd5b6000601f19601f8301169050919050565b7f4e487b7100000000000000000000000000000000000000000000000000000000600052604160045260246000fd5b620000e7826200009c565b810181811067ffffffffffffffff82111715620001095762000108620000ad565b5b80604052505050565b60006200011e6200007e565b90506200012c8282620000dc565b919050565b600067ffffffffffffffff8211156200014f576200014e620000ad565b5b6200015a826200009c565b9050602081019050919050565b60005b83811015620001875780820151818401526020810190506200016a565b60008484015250505050565b6000620001aa620001a48462000131565b62000112565b905082815260208101848484011115620001c957620001c862000097565b5b620001d684828562000167565b509392505050565b600082601f830112620001f657620001f562000092565b5b81516200020884826020860162000193565b91505092915050565b6000602082840312156200022a576200022962000088565b5b600082015167ffffffffffffffff8111156200024b576200024a6200008d565b5b6200025984828501620001de565b91505092915050565b7f4e487b7100000000000000000000000000000000000000000000000000000000600052601160045260246000fd5b6000819050919050565b6000620002a88262000291565b91507fffffffffffffffffffffffffffffffffffffffffffffffffffffffffffffffff8203620002dd57620002dc62000262565b5b600182019050919050565b7f4e487b7100000000000000000000000000000000000000000000000000000000600052603260045260246000fd5b600081519050919050565b7f4e487b7100000000000000000000000000000000000000000000000000000000600052602260045260246000fd5b600060028204905060018216806200036a57607f821691505b60208210810362000380576200037f62000322565b5b50919050565b60008190508160005260206000209050919050565b60006020601f8301049050919050565b600082821b905092915050565b600060088302620003ea7fffffffffffffffffffffffffffffffffffffffffffffffffffffffffffffffff82620003ab565b620003f68683620003ab565b95508019841693508086168417925050509392505050565b6000819050919050565b600062000439620004336200042d8462000291565b6200040e565b62000291565b9050919050565b6000819050919050565b620004558362000418565b6200046d620004648262000440565b848454620003b8565b825550505050565b600090565b6200048462000475565b620004918184846200044a565b505050565b5b81811015620004b957620004ad6000826200047a565b60018101905062000497565b5050565b601f8211156200050857620004d28162000386565b620004dd846200039b565b81016020851015620004ed578190505b62000505620004fc856200039b565b83018262000496565b50505b505050565b600082821c905092915050565b60006200052d600019846008026200050d565b1980831691505092915050565b60006200054883836200051a565b9150826002028217905092915050565b620005638262000317565b67ffffffffffffffff8111156200057f576200057e620000ad565b5b6200058b825462000351565b62000598828285620004bd565b600060209050601f831160018114620005d05760008415620005bb578287015190505b620005c785826200053a565b86555062000637565b601f198416620005e08662000386565b60005b828110156200060a57848901518255600182019150602085019450602081019050620005e3565b868310156200062a578489015162000626601f8916826200051a565b8355505b6001600288020188555050505b505050505050565b610b6c806200064f6000396000f3fe608060405234801561001057600080fd5b506004361061004c5760003560e01c8063712bb28c146100515780639965316114610081578063c7f43ec11461009f578063f025b8fa146100bd575b600080fd5b61006b60048036038101906100669190610391565b6100d9565b604051610078919061044e565b60405180910390f35b610089610180565b604051610096919061057c565b60405180910390f35b6100a76102bd565b6040516100b491906105ad565b60405180910390f35b6100d760048036038101906100d291906106fd565b6102c7565b005b6060600082600381106100ef576100ee610746565b5b0180546100fb906107a4565b80601f0160208091040260200160405190810160405280929190818152602001828054610127906107a4565b80156101745780601f1061014957610100808354040283529160200191610174565b820191906000526020600020905b81548152906001019060200180831161015757829003601f168201915b50505050509050919050565b606060006003905060008167ffffffffffffffff8111156101a4576101a36105d2565b5b6040519080825280602002602001820160405280156101d757816020015b60608152602001906001900390816101c25790505b50905060005b828110156102b457600081600381106101f9576101f8610746565b5b018054610205906107a4565b80601f0160208091040260200160405190810160405280929190818152602001828054610231906107a4565b801561027e5780601f106102535761010080835404028352916020019161027e565b820191906000526020600020905b81548152906001019060200180831161026157829003601f168201915b505050505082828151811061029657610295610746565b5b602002602001018190525080806102ac90610804565b9150506101dd565b50809250505090565b6000600354905090565b600380541061030b576040517f08c379a000000000000000000000000000000000000000000000000000000000815260040161030290610898565b60405180910390fd5b8060006003600081548092919061032190610804565b919050556003811061033657610335610746565b5b0190816103439190610a64565b5050565b6000604051905090565b600080fd5b600080fd5b6000819050919050565b61036e8161035b565b811461037957600080fd5b50565b60008135905061038b81610365565b92915050565b6000602082840312156103a7576103a6610351565b5b60006103b58482850161037c565b91505092915050565b600081519050919050565b600082825260208201905092915050565b60005b838110156103f85780820151818401526020810190506103dd565b60008484015250505050565b6000601f19601f8301169050919050565b6000610420826103be565b61042a81856103c9565b935061043a8185602086016103da565b61044381610404565b840191505092915050565b600060208201905081810360008301526104688184610415565b905092915050565b600081519050919050565b600082825260208201905092915050565b6000819050602082019050919050565b600082825260208201905092915050565b60006104b8826103be565b6104c2818561049c565b93506104d28185602086016103da565b6104db81610404565b840191505092915050565b60006104f283836104ad565b905092915050565b6000602082019050919050565b600061051282610470565b61051c818561047b565b93508360208202850161052e8561048c565b8060005b8581101561056a578484038952815161054b85826104e6565b9450610556836104fa565b925060208a01995050600181019050610532565b50829750879550505050505092915050565b600060208201905081810360008301526105968184610507565b905092915050565b6105a78161035b565b82525050565b60006020820190506105c2600083018461059e565b92915050565b600080fd5b600080fd5b7f4e487b7100000000000000000000000000000000000000000000000000000000600052604160045260246000fd5b61060a82610404565b810181811067ffffffffffffffff82111715610629576106286105d2565b5b80604052505050565b600061063c610347565b90506106488282610601565b919050565b600067ffffffffffffffff821115610668576106676105d2565b5b61067182610404565b9050602081019050919050565b82818337600083830152505050565b60006106a061069b8461064d565b610632565b9050828152602081018484840111156106bc576106bb6105cd565b5b6106c784828561067e565b509392505050565b600082601f8301126106e4576106e36105c8565b5b81356106f484826020860161068d565b91505092915050565b60006020828403121561071357610712610351565b5b600082013567ffffffffffffffff81111561073157610730610356565b5b61073d848285016106cf565b91505092915050565b7f4e487b7100000000000000000000000000000000000000000000000000000000600052603260045260246000fd5b7f4e487b7100000000000000000000000000000000000000000000000000000000600052602260045260246000fd5b600060028204905060018216806107bc57607f821691505b6020821081036107cf576107ce610775565b5b50919050565b7f4e487b7100000000000000000000000000000000000000000000000000000000600052601160045260246000fd5b600061080f8261035b565b91507fffffffffffffffffffffffffffffffffffffffffffffffffffffffffffffffff8203610841576108406107d5565b5b600182019050919050565b7f4b6170617369746520446f6c64752e0000000000000000000000000000000000600082015250565b6000610882600f836103c9565b915061088d8261084c565b602082019050919050565b600060208201905081810360008301526108b181610875565b9050919050565b60008190508160005260206000209050919050565b60006020601f8301049050919050565b600082821b905092915050565b60006008830261091a7fffffffffffffffffffffffffffffffffffffffffffffffffffffffffffffffff826108dd565b61092486836108dd565b95508019841693508086168417925050509392505050565b6000819050919050565b600061096161095c6109578461035b565b61093c565b61035b565b9050919050565b6000819050919050565b61097b83610946565b61098f61098782610968565b8484546108ea565b825550505050565b600090565b6109a4610997565b6109af818484610972565b505050565b5b818110156109d3576109c860008261099c565b6001810190506109b5565b5050565b601f821115610a18576109e9816108b8565b6109f2846108cd565b81016020851015610a01578190505b610a15610a0d856108cd565b8301826109b4565b50505b505050565b600082821c905092915050565b6000610a3b60001984600802610a1d565b1980831691505092915050565b6000610a548383610a2a565b9150826002028217905092915050565b610a6d826103be565b67ffffffffffffffff811115610a8657610a856105d2565b5b610a9082546107a4565b610a9b8282856109d7565b600060209050601f831160018114610ace5760008415610abc578287015190505b610ac68582610a48565b865550610b2e565b601f198416610adc866108b8565b60005b82811015610b0457848901518255600182019150602085019450602081019050610adf565b86831015610b215784890151610b1d601f891682610a2a565b8355505b6001600288020188555050505b50505050505056fea2646970667358221220c2be45cda9d1872bd88de04194aeb3c6d9a29ce2eea0d85e318c71c90140acb664736f6c63430008120033",
					"opcodes": "PUSH1 0x80 PUSH1 0x40 MSTORE CALLVALUE DUP1 ISZERO PUSH3 0x11 JUMPI PUSH1 0x0 DUP1 REVERT JUMPDEST POP PUSH1 0x40 MLOAD PUSH3 0x11BB CODESIZE SUB DUP1 PUSH3 0x11BB DUP4 CODECOPY DUP2 DUP2 ADD PUSH1 0x40 MSTORE DUP2 ADD SWAP1 PUSH3 0x37 SWAP2 SWAP1 PUSH3 0x211 JUMP JUMPDEST DUP1 PUSH1 0x0 PUSH1 0x3 PUSH1 0x0 DUP2 SLOAD DUP1 SWAP3 SWAP2 SWAP1 PUSH3 0x4F SWAP1 PUSH3 0x29B JUMP JUMPDEST SWAP2 SWAP1 POP SSTORE PUSH1 0x3 DUP2 LT PUSH3 0x67 JUMPI PUSH3 0x66 PUSH3 0x2E8 JUMP JUMPDEST JUMPDEST ADD SWAP1 DUP2 PUSH3 0x76 SWAP2 SWAP1 PUSH3 0x558 JUMP JUMPDEST POP POP PUSH3 0x63F JUMP JUMPDEST PUSH1 0x0 PUSH1 0x40 MLOAD SWAP1 POP SWAP1 JUMP JUMPDEST PUSH1 0x0 DUP1 REVERT JUMPDEST PUSH1 0x0 DUP1 REVERT JUMPDEST PUSH1 0x0 DUP1 REVERT JUMPDEST PUSH1 0x0 DUP1 REVERT JUMPDEST PUSH1 0x0 PUSH1 0x1F NOT PUSH1 0x1F DUP4 ADD AND SWAP1 POP SWAP2 SWAP1 POP JUMP JUMPDEST PUSH32 0x4E487B7100000000000000000000000000000000000000000000000000000000 PUSH1 0x0 MSTORE PUSH1 0x41 PUSH1 0x4 MSTORE PUSH1 0x24 PUSH1 0x0 REVERT JUMPDEST PUSH3 0xE7 DUP3 PUSH3 0x9C JUMP JUMPDEST DUP2 ADD DUP2 DUP2 LT PUSH8 0xFFFFFFFFFFFFFFFF DUP3 GT OR ISZERO PUSH3 0x109 JUMPI PUSH3 0x108 PUSH3 0xAD JUMP JUMPDEST JUMPDEST DUP1 PUSH1 0x40 MSTORE POP POP POP JUMP JUMPDEST PUSH1 0x0 PUSH3 0x11E PUSH3 0x7E JUMP JUMPDEST SWAP1 POP PUSH3 0x12C DUP3 DUP3 PUSH3 0xDC JUMP JUMPDEST SWAP2 SWAP1 POP JUMP JUMPDEST PUSH1 0x0 PUSH8 0xFFFFFFFFFFFFFFFF DUP3 GT ISZERO PUSH3 0x14F JUMPI PUSH3 0x14E PUSH3 0xAD JUMP JUMPDEST JUMPDEST PUSH3 0x15A DUP3 PUSH3 0x9C JUMP JUMPDEST SWAP1 POP PUSH1 0x20 DUP2 ADD SWAP1 POP SWAP2 SWAP1 POP JUMP JUMPDEST PUSH1 0x0 JUMPDEST DUP4 DUP2 LT ISZERO PUSH3 0x187 JUMPI DUP1 DUP3 ADD MLOAD DUP2 DUP5 ADD MSTORE PUSH1 0x20 DUP2 ADD SWAP1 POP PUSH3 0x16A JUMP JUMPDEST PUSH1 0x0 DUP5 DUP5 ADD MSTORE POP POP POP POP JUMP JUMPDEST PUSH1 0x0 PUSH3 0x1AA PUSH3 0x1A4 DUP5 PUSH3 0x131 JUMP JUMPDEST PUSH3 0x112 JUMP JUMPDEST SWAP1 POP DUP3 DUP2 MSTORE PUSH1 0x20 DUP2 ADD DUP5 DUP5 DUP5 ADD GT ISZERO PUSH3 0x1C9 JUMPI PUSH3 0x1C8 PUSH3 0x97 JUMP JUMPDEST JUMPDEST PUSH3 0x1D6 DUP5 DUP3 DUP6 PUSH3 0x167 JUMP JUMPDEST POP SWAP4 SWAP3 POP POP POP JUMP JUMPDEST PUSH1 0x0 DUP3 PUSH1 0x1F DUP4 ADD SLT PUSH3 0x1F6 JUMPI PUSH3 0x1F5 PUSH3 0x92 JUMP JUMPDEST JUMPDEST DUP2 MLOAD PUSH3 0x208 DUP5 DUP3 PUSH1 0x20 DUP7 ADD PUSH3 0x193 JUMP JUMPDEST SWAP2 POP POP SWAP3 SWAP2 POP POP JUMP JUMPDEST PUSH1 0x0 PUSH1 0x20 DUP3 DUP5 SUB SLT ISZERO PUSH3 0x22A JUMPI PUSH3 0x229 PUSH3 0x88 JUMP JUMPDEST JUMPDEST PUSH1 0x0 DUP3 ADD MLOAD PUSH8 0xFFFFFFFFFFFFFFFF DUP2 GT ISZERO PUSH3 0x24B JUMPI PUSH3 0x24A PUSH3 0x8D JUMP JUMPDEST JUMPDEST PUSH3 0x259 DUP5 DUP3 DUP6 ADD PUSH3 0x1DE JUMP JUMPDEST SWAP2 POP POP SWAP3 SWAP2 POP POP JUMP JUMPDEST PUSH32 0x4E487B7100000000000000000000000000000000000000000000000000000000 PUSH1 0x0 MSTORE PUSH1 0x11 PUSH1 0x4 MSTORE PUSH1 0x24 PUSH1 0x0 REVERT JUMPDEST PUSH1 0x0 DUP2 SWAP1 POP SWAP2 SWAP1 POP JUMP JUMPDEST PUSH1 0x0 PUSH3 0x2A8 DUP3 PUSH3 0x291 JUMP JUMPDEST SWAP2 POP PUSH32 0xFFFFFFFFFFFFFFFFFFFFFFFFFFFFFFFFFFFFFFFFFFFFFFFFFFFFFFFFFFFFFFFF DUP3 SUB PUSH3 0x2DD JUMPI PUSH3 0x2DC PUSH3 0x262 JUMP JUMPDEST JUMPDEST PUSH1 0x1 DUP3 ADD SWAP1 POP SWAP2 SWAP1 POP JUMP JUMPDEST PUSH32 0x4E487B7100000000000000000000000000000000000000000000000000000000 PUSH1 0x0 MSTORE PUSH1 0x32 PUSH1 0x4 MSTORE PUSH1 0x24 PUSH1 0x0 REVERT JUMPDEST PUSH1 0x0 DUP2 MLOAD SWAP1 POP SWAP2 SWAP1 POP JUMP JUMPDEST PUSH32 0x4E487B7100000000000000000000000000000000000000000000000000000000 PUSH1 0x0 MSTORE PUSH1 0x22 PUSH1 0x4 MSTORE PUSH1 0x24 PUSH1 0x0 REVERT JUMPDEST PUSH1 0x0 PUSH1 0x2 DUP3 DIV SWAP1 POP PUSH1 0x1 DUP3 AND DUP1 PUSH3 0x36A JUMPI PUSH1 0x7F DUP3 AND SWAP2 POP JUMPDEST PUSH1 0x20 DUP3 LT DUP2 SUB PUSH3 0x380 JUMPI PUSH3 0x37F PUSH3 0x322 JUMP JUMPDEST JUMPDEST POP SWAP2 SWAP1 POP JUMP JUMPDEST PUSH1 0x0 DUP2 SWAP1 POP DUP2 PUSH1 0x0 MSTORE PUSH1 0x20 PUSH1 0x0 KECCAK256 SWAP1 POP SWAP2 SWAP1 POP JUMP JUMPDEST PUSH1 0x0 PUSH1 0x20 PUSH1 0x1F DUP4 ADD DIV SWAP1 POP SWAP2 SWAP1 POP JUMP JUMPDEST PUSH1 0x0 DUP3 DUP3 SHL SWAP1 POP SWAP3 SWAP2 POP POP JUMP JUMPDEST PUSH1 0x0 PUSH1 0x8 DUP4 MUL PUSH3 0x3EA PUSH32 0xFFFFFFFFFFFFFFFFFFFFFFFFFFFFFFFFFFFFFFFFFFFFFFFFFFFFFFFFFFFFFFFF DUP3 PUSH3 0x3AB JUMP JUMPDEST PUSH3 0x3F6 DUP7 DUP4 PUSH3 0x3AB JUMP JUMPDEST SWAP6 POP DUP1 NOT DUP5 AND SWAP4 POP DUP1 DUP7 AND DUP5 OR SWAP3 POP POP POP SWAP4 SWAP3 POP POP POP JUMP JUMPDEST PUSH1 0x0 DUP2 SWAP1 POP SWAP2 SWAP1 POP JUMP JUMPDEST PUSH1 0x0 PUSH3 0x439 PUSH3 0x433 PUSH3 0x42D DUP5 PUSH3 0x291 JUMP JUMPDEST PUSH3 0x40E JUMP JUMPDEST PUSH3 0x291 JUMP JUMPDEST SWAP1 POP SWAP2 SWAP1 POP JUMP JUMPDEST PUSH1 0x0 DUP2 SWAP1 POP SWAP2 SWAP1 POP JUMP JUMPDEST PUSH3 0x455 DUP4 PUSH3 0x418 JUMP JUMPDEST PUSH3 0x46D PUSH3 0x464 DUP3 PUSH3 0x440 JUMP JUMPDEST DUP5 DUP5 SLOAD PUSH3 0x3B8 JUMP JUMPDEST DUP3 SSTORE POP POP POP POP JUMP JUMPDEST PUSH1 0x0 SWAP1 JUMP JUMPDEST PUSH3 0x484 PUSH3 0x475 JUMP JUMPDEST PUSH3 0x491 DUP2 DUP5 DUP5 PUSH3 0x44A JUMP JUMPDEST POP POP POP JUMP JUMPDEST JUMPDEST DUP2 DUP2 LT ISZERO PUSH3 0x4B9 JUMPI PUSH3 0x4AD PUSH1 0x0 DUP3 PUSH3 0x47A JUMP JUMPDEST PUSH1 0x1 DUP2 ADD SWAP1 POP PUSH3 0x497 JUMP JUMPDEST POP POP JUMP JUMPDEST PUSH1 0x1F DUP3 GT ISZERO PUSH3 0x508 JUMPI PUSH3 0x4D2 DUP2 PUSH3 0x386 JUMP JUMPDEST PUSH3 0x4DD DUP5 PUSH3 0x39B JUMP JUMPDEST DUP2 ADD PUSH1 0x20 DUP6 LT ISZERO PUSH3 0x4ED JUMPI DUP2 SWAP1 POP JUMPDEST PUSH3 0x505 PUSH3 0x4FC DUP6 PUSH3 0x39B JUMP JUMPDEST DUP4 ADD DUP3 PUSH3 0x496 JUMP JUMPDEST POP POP JUMPDEST POP POP POP JUMP JUMPDEST PUSH1 0x0 DUP3 DUP3 SHR SWAP1 POP SWAP3 SWAP2 POP POP JUMP JUMPDEST PUSH1 0x0 PUSH3 0x52D PUSH1 0x0 NOT DUP5 PUSH1 0x8 MUL PUSH3 0x50D JUMP JUMPDEST NOT DUP1 DUP4 AND SWAP2 POP POP SWAP3 SWAP2 POP POP JUMP JUMPDEST PUSH1 0x0 PUSH3 0x548 DUP4 DUP4 PUSH3 0x51A JUMP JUMPDEST SWAP2 POP DUP3 PUSH1 0x2 MUL DUP3 OR SWAP1 POP SWAP3 SWAP2 POP POP JUMP JUMPDEST PUSH3 0x563 DUP3 PUSH3 0x317 JUMP JUMPDEST PUSH8 0xFFFFFFFFFFFFFFFF DUP2 GT ISZERO PUSH3 0x57F JUMPI PUSH3 0x57E PUSH3 0xAD JUMP JUMPDEST JUMPDEST PUSH3 0x58B DUP3 SLOAD PUSH3 0x351 JUMP JUMPDEST PUSH3 0x598 DUP3 DUP3 DUP6 PUSH3 0x4BD JUMP JUMPDEST PUSH1 0x0 PUSH1 0x20 SWAP1 POP PUSH1 0x1F DUP4 GT PUSH1 0x1 DUP2 EQ PUSH3 0x5D0 JUMPI PUSH1 0x0 DUP5 ISZERO PUSH3 0x5BB JUMPI DUP3 DUP8 ADD MLOAD SWAP1 POP JUMPDEST PUSH3 0x5C7 DUP6 DUP3 PUSH3 0x53A JUMP JUMPDEST DUP7 SSTORE POP PUSH3 0x637 JUMP JUMPDEST PUSH1 0x1F NOT DUP5 AND PUSH3 0x5E0 DUP7 PUSH3 0x386 JUMP JUMPDEST PUSH1 0x0 JUMPDEST DUP3 DUP2 LT ISZERO PUSH3 0x60A JUMPI DUP5 DUP10 ADD MLOAD DUP3 SSTORE PUSH1 0x1 DUP3 ADD SWAP2 POP PUSH1 0x20 DUP6 ADD SWAP5 POP PUSH1 0x20 DUP2 ADD SWAP1 POP PUSH3 0x5E3 JUMP JUMPDEST DUP7 DUP4 LT ISZERO PUSH3 0x62A JUMPI DUP5 DUP10 ADD MLOAD PUSH3 0x626 PUSH1 0x1F DUP10 AND DUP3 PUSH3 0x51A JUMP JUMPDEST DUP4 SSTORE POP JUMPDEST PUSH1 0x1 PUSH1 0x2 DUP9 MUL ADD DUP9 SSTORE POP POP POP JUMPDEST POP POP POP POP POP POP JUMP JUMPDEST PUSH2 0xB6C DUP1 PUSH3 0x64F PUSH1 0x0 CODECOPY PUSH1 0x0 RETURN INVALID PUSH1 0x80 PUSH1 0x40 MSTORE CALLVALUE DUP1 ISZERO PUSH2 0x10 JUMPI PUSH1 0x0 DUP1 REVERT JUMPDEST POP PUSH1 0x4 CALLDATASIZE LT PUSH2 0x4C JUMPI PUSH1 0x0 CALLDATALOAD PUSH1 0xE0 SHR DUP1 PUSH4 0x712BB28C EQ PUSH2 0x51 JUMPI DUP1 PUSH4 0x99653161 EQ PUSH2 0x81 JUMPI DUP1 PUSH4 0xC7F43EC1 EQ PUSH2 0x9F JUMPI DUP1 PUSH4 0xF025B8FA EQ PUSH2 0xBD JUMPI JUMPDEST PUSH1 0x0 DUP1 REVERT JUMPDEST PUSH2 0x6B PUSH1 0x4 DUP1 CALLDATASIZE SUB DUP2 ADD SWAP1 PUSH2 0x66 SWAP2 SWAP1 PUSH2 0x391 JUMP JUMPDEST PUSH2 0xD9 JUMP JUMPDEST PUSH1 0x40 MLOAD PUSH2 0x78 SWAP2 SWAP1 PUSH2 0x44E JUMP JUMPDEST PUSH1 0x40 MLOAD DUP1 SWAP2 SUB SWAP1 RETURN JUMPDEST PUSH2 0x89 PUSH2 0x180 JUMP JUMPDEST PUSH1 0x40 MLOAD PUSH2 0x96 SWAP2 SWAP1 PUSH2 0x57C JUMP JUMPDEST PUSH1 0x40 MLOAD DUP1 SWAP2 SUB SWAP1 RETURN JUMPDEST PUSH2 0xA7 PUSH2 0x2BD JUMP JUMPDEST PUSH1 0x40 MLOAD PUSH2 0xB4 SWAP2 SWAP1 PUSH2 0x5AD JUMP JUMPDEST PUSH1 0x40 MLOAD DUP1 SWAP2 SUB SWAP1 RETURN JUMPDEST PUSH2 0xD7 PUSH1 0x4 DUP1 CALLDATASIZE SUB DUP2 ADD SWAP1 PUSH2 0xD2 SWAP2 SWAP1 PUSH2 0x6FD JUMP JUMPDEST PUSH2 0x2C7 JUMP JUMPDEST STOP JUMPDEST PUSH1 0x60 PUSH1 0x0 DUP3 PUSH1 0x3 DUP2 LT PUSH2 0xEF JUMPI PUSH2 0xEE PUSH2 0x746 JUMP JUMPDEST JUMPDEST ADD DUP1 SLOAD PUSH2 0xFB SWAP1 PUSH2 0x7A4 JUMP JUMPDEST DUP1 PUSH1 0x1F ADD PUSH1 0x20 DUP1 SWAP2 DIV MUL PUSH1 0x20 ADD PUSH1 0x40 MLOAD SWAP1 DUP2 ADD PUSH1 0x40 MSTORE DUP1 SWAP3 SWAP2 SWAP1 DUP2 DUP2 MSTORE PUSH1 0x20 ADD DUP3 DUP1 SLOAD PUSH2 0x127 SWAP1 PUSH2 0x7A4 JUMP JUMPDEST DUP1 ISZERO PUSH2 0x174 JUMPI DUP1 PUSH1 0x1F LT PUSH2 0x149 JUMPI PUSH2 0x100 DUP1 DUP4 SLOAD DIV MUL DUP4 MSTORE SWAP2 PUSH1 0x20 ADD SWAP2 PUSH2 0x174 JUMP JUMPDEST DUP3 ADD SWAP2 SWAP1 PUSH1 0x0 MSTORE PUSH1 0x20 PUSH1 0x0 KECCAK256 SWAP1 JUMPDEST DUP2 SLOAD DUP2 MSTORE SWAP1 PUSH1 0x1 ADD SWAP1 PUSH1 0x20 ADD DUP1 DUP4 GT PUSH2 0x157 JUMPI DUP3 SWAP1 SUB PUSH1 0x1F AND DUP3 ADD SWAP2 JUMPDEST POP POP POP POP POP SWAP1 POP SWAP2 SWAP1 POP JUMP JUMPDEST PUSH1 0x60 PUSH1 0x0 PUSH1 0x3 SWAP1 POP PUSH1 0x0 DUP2 PUSH8 0xFFFFFFFFFFFFFFFF DUP2 GT ISZERO PUSH2 0x1A4 JUMPI PUSH2 0x1A3 PUSH2 0x5D2 JUMP JUMPDEST JUMPDEST PUSH1 0x40 MLOAD SWAP1 DUP1 DUP3 MSTORE DUP1 PUSH1 0x20 MUL PUSH1 0x20 ADD DUP3 ADD PUSH1 0x40 MSTORE DUP1 ISZERO PUSH2 0x1D7 JUMPI DUP2 PUSH1 0x20 ADD JUMPDEST PUSH1 0x60 DUP2 MSTORE PUSH1 0x20 ADD SWAP1 PUSH1 0x1 SWAP1 SUB SWAP1 DUP2 PUSH2 0x1C2 JUMPI SWAP1 POP JUMPDEST POP SWAP1 POP PUSH1 0x0 JUMPDEST DUP3 DUP2 LT ISZERO PUSH2 0x2B4 JUMPI PUSH1 0x0 DUP2 PUSH1 0x3 DUP2 LT PUSH2 0x1F9 JUMPI PUSH2 0x1F8 PUSH2 0x746 JUMP JUMPDEST JUMPDEST ADD DUP1 SLOAD PUSH2 0x205 SWAP1 PUSH2 0x7A4 JUMP JUMPDEST DUP1 PUSH1 0x1F ADD PUSH1 0x20 DUP1 SWAP2 DIV MUL PUSH1 0x20 ADD PUSH1 0x40 MLOAD SWAP1 DUP2 ADD PUSH1 0x40 MSTORE DUP1 SWAP3 SWAP2 SWAP1 DUP2 DUP2 MSTORE PUSH1 0x20 ADD DUP3 DUP1 SLOAD PUSH2 0x231 SWAP1 PUSH2 0x7A4 JUMP JUMPDEST DUP1 ISZERO PUSH2 0x27E JUMPI DUP1 PUSH1 0x1F LT PUSH2 0x253 JUMPI PUSH2 0x100 DUP1 DUP4 SLOAD DIV MUL DUP4 MSTORE SWAP2 PUSH1 0x20 ADD SWAP2 PUSH2 0x27E JUMP JUMPDEST DUP3 ADD SWAP2 SWAP1 PUSH1 0x0 MSTORE PUSH1 0x20 PUSH1 0x0 KECCAK256 SWAP1 JUMPDEST DUP2 SLOAD DUP2 MSTORE SWAP1 PUSH1 0x1 ADD SWAP1 PUSH1 0x20 ADD DUP1 DUP4 GT PUSH2 0x261 JUMPI DUP3 SWAP1 SUB PUSH1 0x1F AND DUP3 ADD SWAP2 JUMPDEST POP POP POP POP POP DUP3 DUP3 DUP2 MLOAD DUP2 LT PUSH2 0x296 JUMPI PUSH2 0x295 PUSH2 0x746 JUMP JUMPDEST JUMPDEST PUSH1 0x20 MUL PUSH1 0x20 ADD ADD DUP2 SWAP1 MSTORE POP DUP1 DUP1 PUSH2 0x2AC SWAP1 PUSH2 0x804 JUMP JUMPDEST SWAP2 POP POP PUSH2 0x1DD JUMP JUMPDEST POP DUP1 SWAP3 POP POP POP SWAP1 JUMP JUMPDEST PUSH1 0x0 PUSH1 0x3 SLOAD SWAP1 POP SWAP1 JUMP JUMPDEST PUSH1 0x3 DUP1 SLOAD LT PUSH2 0x30B JUMPI PUSH1 0x40 MLOAD PUSH32 0x8C379A000000000000000000000000000000000000000000000000000000000 DUP2 MSTORE PUSH1 0x4 ADD PUSH2 0x302 SWAP1 PUSH2 0x898 JUMP JUMPDEST PUSH1 0x40 MLOAD DUP1 SWAP2 SUB SWAP1 REVERT JUMPDEST DUP1 PUSH1 0x0 PUSH1 0x3 PUSH1 0x0 DUP2 SLOAD DUP1 SWAP3 SWAP2 SWAP1 PUSH2 0x321 SWAP1 PUSH2 0x804 JUMP JUMPDEST SWAP2 SWAP1 POP SSTORE PUSH1 0x3 DUP2 LT PUSH2 0x336 JUMPI PUSH2 0x335 PUSH2 0x746 JUMP JUMPDEST JUMPDEST ADD SWAP1 DUP2 PUSH2 0x343 SWAP2 SWAP1 PUSH2 0xA64 JUMP JUMPDEST POP POP JUMP JUMPDEST PUSH1 0x0 PUSH1 0x40 MLOAD SWAP1 POP SWAP1 JUMP JUMPDEST PUSH1 0x0 DUP1 REVERT JUMPDEST PUSH1 0x0 DUP1 REVERT JUMPDEST PUSH1 0x0 DUP2 SWAP1 POP SWAP2 SWAP1 POP JUMP JUMPDEST PUSH2 0x36E DUP2 PUSH2 0x35B JUMP JUMPDEST DUP2 EQ PUSH2 0x379 JUMPI PUSH1 0x0 DUP1 REVERT JUMPDEST POP JUMP JUMPDEST PUSH1 0x0 DUP2 CALLDATALOAD SWAP1 POP PUSH2 0x38B DUP2 PUSH2 0x365 JUMP JUMPDEST SWAP3 SWAP2 POP POP JUMP JUMPDEST PUSH1 0x0 PUSH1 0x20 DUP3 DUP5 SUB SLT ISZERO PUSH2 0x3A7 JUMPI PUSH2 0x3A6 PUSH2 0x351 JUMP JUMPDEST JUMPDEST PUSH1 0x0 PUSH2 0x3B5 DUP5 DUP3 DUP6 ADD PUSH2 0x37C JUMP JUMPDEST SWAP2 POP POP SWAP3 SWAP2 POP POP JUMP JUMPDEST PUSH1 0x0 DUP2 MLOAD SWAP1 POP SWAP2 SWAP1 POP JUMP JUMPDEST PUSH1 0x0 DUP3 DUP3 MSTORE PUSH1 0x20 DUP3 ADD SWAP1 POP SWAP3 SWAP2 POP POP JUMP JUMPDEST PUSH1 0x0 JUMPDEST DUP4 DUP2 LT ISZERO PUSH2 0x3F8 JUMPI DUP1 DUP3 ADD MLOAD DUP2 DUP5 ADD MSTORE PUSH1 0x20 DUP2 ADD SWAP1 POP PUSH2 0x3DD JUMP JUMPDEST PUSH1 0x0 DUP5 DUP5 ADD MSTORE POP POP POP POP JUMP JUMPDEST PUSH1 0x0 PUSH1 0x1F NOT PUSH1 0x1F DUP4 ADD AND SWAP1 POP SWAP2 SWAP1 POP JUMP JUMPDEST PUSH1 0x0 PUSH2 0x420 DUP3 PUSH2 0x3BE JUMP JUMPDEST PUSH2 0x42A DUP2 DUP6 PUSH2 0x3C9 JUMP JUMPDEST SWAP4 POP PUSH2 0x43A DUP2 DUP6 PUSH1 0x20 DUP7 ADD PUSH2 0x3DA JUMP JUMPDEST PUSH2 0x443 DUP2 PUSH2 0x404 JUMP JUMPDEST DUP5 ADD SWAP2 POP POP SWAP3 SWAP2 POP POP JUMP JUMPDEST PUSH1 0x0 PUSH1 0x20 DUP3 ADD SWAP1 POP DUP2 DUP2 SUB PUSH1 0x0 DUP4 ADD MSTORE PUSH2 0x468 DUP2 DUP5 PUSH2 0x415 JUMP JUMPDEST SWAP1 POP SWAP3 SWAP2 POP POP JUMP JUMPDEST PUSH1 0x0 DUP2 MLOAD SWAP1 POP SWAP2 SWAP1 POP JUMP JUMPDEST PUSH1 0x0 DUP3 DUP3 MSTORE PUSH1 0x20 DUP3 ADD SWAP1 POP SWAP3 SWAP2 POP POP JUMP JUMPDEST PUSH1 0x0 DUP2 SWAP1 POP PUSH1 0x20 DUP3 ADD SWAP1 POP SWAP2 SWAP1 POP JUMP JUMPDEST PUSH1 0x0 DUP3 DUP3 MSTORE PUSH1 0x20 DUP3 ADD SWAP1 POP SWAP3 SWAP2 POP POP JUMP JUMPDEST PUSH1 0x0 PUSH2 0x4B8 DUP3 PUSH2 0x3BE JUMP JUMPDEST PUSH2 0x4C2 DUP2 DUP6 PUSH2 0x49C JUMP JUMPDEST SWAP4 POP PUSH2 0x4D2 DUP2 DUP6 PUSH1 0x20 DUP7 ADD PUSH2 0x3DA JUMP JUMPDEST PUSH2 0x4DB DUP2 PUSH2 0x404 JUMP JUMPDEST DUP5 ADD SWAP2 POP POP SWAP3 SWAP2 POP POP JUMP JUMPDEST PUSH1 0x0 PUSH2 0x4F2 DUP4 DUP4 PUSH2 0x4AD JUMP JUMPDEST SWAP1 POP SWAP3 SWAP2 POP POP JUMP JUMPDEST PUSH1 0x0 PUSH1 0x20 DUP3 ADD SWAP1 POP SWAP2 SWAP1 POP JUMP JUMPDEST PUSH1 0x0 PUSH2 0x512 DUP3 PUSH2 0x470 JUMP JUMPDEST PUSH2 0x51C DUP2 DUP6 PUSH2 0x47B JUMP JUMPDEST SWAP4 POP DUP4 PUSH1 0x20 DUP3 MUL DUP6 ADD PUSH2 0x52E DUP6 PUSH2 0x48C JUMP JUMPDEST DUP1 PUSH1 0x0 JUMPDEST DUP6 DUP2 LT ISZERO PUSH2 0x56A JUMPI DUP5 DUP5 SUB DUP10 MSTORE DUP2 MLOAD PUSH2 0x54B DUP6 DUP3 PUSH2 0x4E6 JUMP JUMPDEST SWAP5 POP PUSH2 0x556 DUP4 PUSH2 0x4FA JUMP JUMPDEST SWAP3 POP PUSH1 0x20 DUP11 ADD SWAP10 POP POP PUSH1 0x1 DUP2 ADD SWAP1 POP PUSH2 0x532 JUMP JUMPDEST POP DUP3 SWAP8 POP DUP8 SWAP6 POP POP POP POP POP POP SWAP3 SWAP2 POP POP JUMP JUMPDEST PUSH1 0x0 PUSH1 0x20 DUP3 ADD SWAP1 POP DUP2 DUP2 SUB PUSH1 0x0 DUP4 ADD MSTORE PUSH2 0x596 DUP2 DUP5 PUSH2 0x507 JUMP JUMPDEST SWAP1 POP SWAP3 SWAP2 POP POP JUMP JUMPDEST PUSH2 0x5A7 DUP2 PUSH2 0x35B JUMP JUMPDEST DUP3 MSTORE POP POP JUMP JUMPDEST PUSH1 0x0 PUSH1 0x20 DUP3 ADD SWAP1 POP PUSH2 0x5C2 PUSH1 0x0 DUP4 ADD DUP5 PUSH2 0x59E JUMP JUMPDEST SWAP3 SWAP2 POP POP JUMP JUMPDEST PUSH1 0x0 DUP1 REVERT JUMPDEST PUSH1 0x0 DUP1 REVERT JUMPDEST PUSH32 0x4E487B7100000000000000000000000000000000000000000000000000000000 PUSH1 0x0 MSTORE PUSH1 0x41 PUSH1 0x4 MSTORE PUSH1 0x24 PUSH1 0x0 REVERT JUMPDEST PUSH2 0x60A DUP3 PUSH2 0x404 JUMP JUMPDEST DUP2 ADD DUP2 DUP2 LT PUSH8 0xFFFFFFFFFFFFFFFF DUP3 GT OR ISZERO PUSH2 0x629 JUMPI PUSH2 0x628 PUSH2 0x5D2 JUMP JUMPDEST JUMPDEST DUP1 PUSH1 0x40 MSTORE POP POP POP JUMP JUMPDEST PUSH1 0x0 PUSH2 0x63C PUSH2 0x347 JUMP JUMPDEST SWAP1 POP PUSH2 0x648 DUP3 DUP3 PUSH2 0x601 JUMP JUMPDEST SWAP2 SWAP1 POP JUMP JUMPDEST PUSH1 0x0 PUSH8 0xFFFFFFFFFFFFFFFF DUP3 GT ISZERO PUSH2 0x668 JUMPI PUSH2 0x667 PUSH2 0x5D2 JUMP JUMPDEST JUMPDEST PUSH2 0x671 DUP3 PUSH2 0x404 JUMP JUMPDEST SWAP1 POP PUSH1 0x20 DUP2 ADD SWAP1 POP SWAP2 SWAP1 POP JUMP JUMPDEST DUP3 DUP2 DUP4 CALLDATACOPY PUSH1 0x0 DUP4 DUP4 ADD MSTORE POP POP POP JUMP JUMPDEST PUSH1 0x0 PUSH2 0x6A0 PUSH2 0x69B DUP5 PUSH2 0x64D JUMP JUMPDEST PUSH2 0x632 JUMP JUMPDEST SWAP1 POP DUP3 DUP2 MSTORE PUSH1 0x20 DUP2 ADD DUP5 DUP5 DUP5 ADD GT ISZERO PUSH2 0x6BC JUMPI PUSH2 0x6BB PUSH2 0x5CD JUMP JUMPDEST JUMPDEST PUSH2 0x6C7 DUP5 DUP3 DUP6 PUSH2 0x67E JUMP JUMPDEST POP SWAP4 SWAP3 POP POP POP JUMP JUMPDEST PUSH1 0x0 DUP3 PUSH1 0x1F DUP4 ADD SLT PUSH2 0x6E4 JUMPI PUSH2 0x6E3 PUSH2 0x5C8 JUMP JUMPDEST JUMPDEST DUP2 CALLDATALOAD PUSH2 0x6F4 DUP5 DUP3 PUSH1 0x20 DUP7 ADD PUSH2 0x68D JUMP JUMPDEST SWAP2 POP POP SWAP3 SWAP2 POP POP JUMP JUMPDEST PUSH1 0x0 PUSH1 0x20 DUP3 DUP5 SUB SLT ISZERO PUSH2 0x713 JUMPI PUSH2 0x712 PUSH2 0x351 JUMP JUMPDEST JUMPDEST PUSH1 0x0 DUP3 ADD CALLDATALOAD PUSH8 0xFFFFFFFFFFFFFFFF DUP2 GT ISZERO PUSH2 0x731 JUMPI PUSH2 0x730 PUSH2 0x356 JUMP JUMPDEST JUMPDEST PUSH2 0x73D DUP5 DUP3 DUP6 ADD PUSH2 0x6CF JUMP JUMPDEST SWAP2 POP POP SWAP3 SWAP2 POP POP JUMP JUMPDEST PUSH32 0x4E487B7100000000000000000000000000000000000000000000000000000000 PUSH1 0x0 MSTORE PUSH1 0x32 PUSH1 0x4 MSTORE PUSH1 0x24 PUSH1 0x0 REVERT JUMPDEST PUSH32 0x4E487B7100000000000000000000000000000000000000000000000000000000 PUSH1 0x0 MSTORE PUSH1 0x22 PUSH1 0x4 MSTORE PUSH1 0x24 PUSH1 0x0 REVERT JUMPDEST PUSH1 0x0 PUSH1 0x2 DUP3 DIV SWAP1 POP PUSH1 0x1 DUP3 AND DUP1 PUSH2 0x7BC JUMPI PUSH1 0x7F DUP3 AND SWAP2 POP JUMPDEST PUSH1 0x20 DUP3 LT DUP2 SUB PUSH2 0x7CF JUMPI PUSH2 0x7CE PUSH2 0x775 JUMP JUMPDEST JUMPDEST POP SWAP2 SWAP1 POP JUMP JUMPDEST PUSH32 0x4E487B7100000000000000000000000000000000000000000000000000000000 PUSH1 0x0 MSTORE PUSH1 0x11 PUSH1 0x4 MSTORE PUSH1 0x24 PUSH1 0x0 REVERT JUMPDEST PUSH1 0x0 PUSH2 0x80F DUP3 PUSH2 0x35B JUMP JUMPDEST SWAP2 POP PUSH32 0xFFFFFFFFFFFFFFFFFFFFFFFFFFFFFFFFFFFFFFFFFFFFFFFFFFFFFFFFFFFFFFFF DUP3 SUB PUSH2 0x841 JUMPI PUSH2 0x840 PUSH2 0x7D5 JUMP JUMPDEST JUMPDEST PUSH1 0x1 DUP3 ADD SWAP1 POP SWAP2 SWAP1 POP JUMP JUMPDEST PUSH32 0x4B6170617369746520446F6C64752E0000000000000000000000000000000000 PUSH1 0x0 DUP3 ADD MSTORE POP JUMP JUMPDEST PUSH1 0x0 PUSH2 0x882 PUSH1 0xF DUP4 PUSH2 0x3C9 JUMP JUMPDEST SWAP2 POP PUSH2 0x88D DUP3 PUSH2 0x84C JUMP JUMPDEST PUSH1 0x20 DUP3 ADD SWAP1 POP SWAP2 SWAP1 POP JUMP JUMPDEST PUSH1 0x0 PUSH1 0x20 DUP3 ADD SWAP1 POP DUP2 DUP2 SUB PUSH1 0x0 DUP4 ADD MSTORE PUSH2 0x8B1 DUP2 PUSH2 0x875 JUMP JUMPDEST SWAP1 POP SWAP2 SWAP1 POP JUMP JUMPDEST PUSH1 0x0 DUP2 SWAP1 POP DUP2 PUSH1 0x0 MSTORE PUSH1 0x20 PUSH1 0x0 KECCAK256 SWAP1 POP SWAP2 SWAP1 POP JUMP JUMPDEST PUSH1 0x0 PUSH1 0x20 PUSH1 0x1F DUP4 ADD DIV SWAP1 POP SWAP2 SWAP1 POP JUMP JUMPDEST PUSH1 0x0 DUP3 DUP3 SHL SWAP1 POP SWAP3 SWAP2 POP POP JUMP JUMPDEST PUSH1 0x0 PUSH1 0x8 DUP4 MUL PUSH2 0x91A PUSH32 0xFFFFFFFFFFFFFFFFFFFFFFFFFFFFFFFFFFFFFFFFFFFFFFFFFFFFFFFFFFFFFFFF DUP3 PUSH2 0x8DD JUMP JUMPDEST PUSH2 0x924 DUP7 DUP4 PUSH2 0x8DD JUMP JUMPDEST SWAP6 POP DUP1 NOT DUP5 AND SWAP4 POP DUP1 DUP7 AND DUP5 OR SWAP3 POP POP POP SWAP4 SWAP3 POP POP POP JUMP JUMPDEST PUSH1 0x0 DUP2 SWAP1 POP SWAP2 SWAP1 POP JUMP JUMPDEST PUSH1 0x0 PUSH2 0x961 PUSH2 0x95C PUSH2 0x957 DUP5 PUSH2 0x35B JUMP JUMPDEST PUSH2 0x93C JUMP JUMPDEST PUSH2 0x35B JUMP JUMPDEST SWAP1 POP SWAP2 SWAP1 POP JUMP JUMPDEST PUSH1 0x0 DUP2 SWAP1 POP SWAP2 SWAP1 POP JUMP JUMPDEST PUSH2 0x97B DUP4 PUSH2 0x946 JUMP JUMPDEST PUSH2 0x98F PUSH2 0x987 DUP3 PUSH2 0x968 JUMP JUMPDEST DUP5 DUP5 SLOAD PUSH2 0x8EA JUMP JUMPDEST DUP3 SSTORE POP POP POP POP JUMP JUMPDEST PUSH1 0x0 SWAP1 JUMP JUMPDEST PUSH2 0x9A4 PUSH2 0x997 JUMP JUMPDEST PUSH2 0x9AF DUP2 DUP5 DUP5 PUSH2 0x972 JUMP JUMPDEST POP POP POP JUMP JUMPDEST JUMPDEST DUP2 DUP2 LT ISZERO PUSH2 0x9D3 JUMPI PUSH2 0x9C8 PUSH1 0x0 DUP3 PUSH2 0x99C JUMP JUMPDEST PUSH1 0x1 DUP2 ADD SWAP1 POP PUSH2 0x9B5 JUMP JUMPDEST POP POP JUMP JUMPDEST PUSH1 0x1F DUP3 GT ISZERO PUSH2 0xA18 JUMPI PUSH2 0x9E9 DUP2 PUSH2 0x8B8 JUMP JUMPDEST PUSH2 0x9F2 DUP5 PUSH2 0x8CD JUMP JUMPDEST DUP2 ADD PUSH1 0x20 DUP6 LT ISZERO PUSH2 0xA01 JUMPI DUP2 SWAP1 POP JUMPDEST PUSH2 0xA15 PUSH2 0xA0D DUP6 PUSH2 0x8CD JUMP JUMPDEST DUP4 ADD DUP3 PUSH2 0x9B4 JUMP JUMPDEST POP POP JUMPDEST POP POP POP JUMP JUMPDEST PUSH1 0x0 DUP3 DUP3 SHR SWAP1 POP SWAP3 SWAP2 POP POP JUMP JUMPDEST PUSH1 0x0 PUSH2 0xA3B PUSH1 0x0 NOT DUP5 PUSH1 0x8 MUL PUSH2 0xA1D JUMP JUMPDEST NOT DUP1 DUP4 AND SWAP2 POP POP SWAP3 SWAP2 POP POP JUMP JUMPDEST PUSH1 0x0 PUSH2 0xA54 DUP4 DUP4 PUSH2 0xA2A JUMP JUMPDEST SWAP2 POP DUP3 PUSH1 0x2 MUL DUP3 OR SWAP1 POP SWAP3 SWAP2 POP POP JUMP JUMPDEST PUSH2 0xA6D DUP3 PUSH2 0x3BE JUMP JUMPDEST PUSH8 0xFFFFFFFFFFFFFFFF DUP2 GT ISZERO PUSH2 0xA86 JUMPI PUSH2 0xA85 PUSH2 0x5D2 JUMP JUMPDEST JUMPDEST PUSH2 0xA90 DUP3 SLOAD PUSH2 0x7A4 JUMP JUMPDEST PUSH2 0xA9B DUP3 DUP3 DUP6 PUSH2 0x9D7 JUMP JUMPDEST PUSH1 0x0 PUSH1 0x20 SWAP1 POP PUSH1 0x1F DUP4 GT PUSH1 0x1 DUP2 EQ PUSH2 0xACE JUMPI PUSH1 0x0 DUP5 ISZERO PUSH2 0xABC JUMPI DUP3 DUP8 ADD MLOAD SWAP1 POP JUMPDEST PUSH2 0xAC6 DUP6 DUP3 PUSH2 0xA48 JUMP JUMPDEST DUP7 SSTORE POP PUSH2 0xB2E JUMP JUMPDEST PUSH1 0x1F NOT DUP5 AND PUSH2 0xADC DUP7 PUSH2 0x8B8 JUMP JUMPDEST PUSH1 0x0 JUMPDEST DUP3 DUP2 LT ISZERO PUSH2 0xB04 JUMPI DUP5 DUP10 ADD MLOAD DUP3 SSTORE PUSH1 0x1 DUP3 ADD SWAP2 POP PUSH1 0x20 DUP6 ADD SWAP5 POP PUSH1 0x20 DUP2 ADD SWAP1 POP PUSH2 0xADF JUMP JUMPDEST DUP7 DUP4 LT ISZERO PUSH2 0xB21 JUMPI DUP5 DUP10 ADD MLOAD PUSH2 0xB1D PUSH1 0x1F DUP10 AND DUP3 PUSH2 0xA2A JUMP JUMPDEST DUP4 SSTORE POP JUMPDEST PUSH1 0x1 PUSH1 0x2 DUP9 MUL ADD DUP9 SSTORE POP POP POP JUMPDEST POP POP POP POP POP POP JUMP INVALID LOG2 PUSH5 0x6970667358 0x22 SLT KECCAK256 0xC2 0xBE GASLIMIT 0xCD 0xA9 0xD1 DUP8 0x2B 0xD8 DUP14 0xE0 COINBASE SWAP5 0xAE 0xB3 0xC6 0xD9 LOG2 SWAP13 0xE2 0xEE LOG0 0xD8 0x5E BALANCE DUP13 PUSH18 0xC90140ACB664736F6C634300081200330000 "
				},
				"gasEstimates": {
					"creation": {
						"codeDepositCost": "584800",
						"executionCost": "infinite",
						"totalCost": "infinite"
					},
					"external": {
						"addCity(string)": "infinite",
						"getCityByIndex(uint256)": "infinite",
						"getCityCount()": "2459",
						"getCityList()": "infinite"
					}
				},
				"methodIdentifiers": {
					"addCity(string)": "f025b8fa",
					"getCityByIndex(uint256)": "712bb28c",
					"getCityCount()": "c7f43ec1",
					"getCityList()": "99653161"
				}
			},
			"storageLayout": {
				"storage": [
					{
						"astId": 6,
						"contract": "contracts/FixedSizeArray.sol:FixedSizeArray",
						"label": "cityList",
						"offset": 0,
						"slot": "0",
						"type": "t_array(t_string_storage)3_storage"
					},
					{
						"astId": 8,
						"contract": "contracts/FixedSizeArray.sol:FixedSizeArray",
						"label": "index",
						"offset": 0,
						"slot": "3",
						"type": "t_uint256"
					}
				],
				"types": {
					"t_array(t_string_storage)3_storage": {
						"base": "t_string_storage",
						"encoding": "inplace",
						"label": "string[3]",
						"numberOfBytes": "96"
					},
					"t_string_storage": {
						"encoding": "bytes",
						"label": "string",
						"numberOfBytes": "32"
					},
					"t_uint256": {
						"encoding": "inplace",
						"label": "uint256",
						"numberOfBytes": "32"
					}
				}
			},
			"userdoc": {
				"kind": "user",
				"methods": {},
				"version": 1
			}
		}
	}
}