{
	"contracts/Struct.sol": {
		"Struct": {
			"abi": [
				{
					"inputs": [],
					"name": "getAccount",
					"outputs": [
						{
							"components": [
								{
									"internalType": "address",
									"name": "contractAddress",
									"type": "address"
								},
								{
									"internalType": "uint256",
									"name": "balance",
									"type": "uint256"
								}
							],
							"internalType": "struct Struct.Account",
							"name": "",
							"type": "tuple"
						}
					],
					"stateMutability": "view",
					"type": "function"
				},
				{
					"inputs": [],
					"name": "getBalance",
					"outputs": [
						{
							"internalType": "uint256",
							"name": "",
							"type": "uint256"
						}
					],
					"stateMutability": "view",
					"type": "function"
				},
				{
					"inputs": [],
					"name": "getContractAddress",
					"outputs": [
						{
							"internalType": "address",
							"name": "",
							"type": "address"
						}
					],
					"stateMutability": "view",
					"type": "function"
				},
				{
					"inputs": [
						{
							"internalType": "address",
							"name": "_address",
							"type": "address"
						},
						{
							"internalType": "uint256",
							"name": "_balance",
							"type": "uint256"
						}
					],
					"name": "setAccount",
					"outputs": [],
					"stateMutability": "nonpayable",
					"type": "function"
				},
				{
					"inputs": [
						{
							"internalType": "uint256",
							"name": "_balance",
							"type": "uint256"
						}
					],
					"name": "setBalance",
					"outputs": [],
					"stateMutability": "nonpayable",
					"type": "function"
				},
				{
					"inputs": [
						{
							"internalType": "address",
							"name": "_address",
							"type": "address"
						}
					],
					"name": "setContractAddress",
					"outputs": [],
					"stateMutability": "nonpayable",
					"type": "function"
				}
			],
			"devdoc": {
				"author": "0xVeliUysal",
				"details": "Struct Example",
				"kind": "dev",
				"methods": {},
				"version": 1
			},
			"evm": {
				"assembly": "    /* \"contracts/Struct.sol\":127:918  contract Struct {... */\n  mstore(0x40, 0x80)\n  callvalue\n  dup1\n  iszero\n  tag_1\n  jumpi\n  0x00\n  dup1\n  revert\ntag_1:\n  pop\n  dataSize(sub_0)\n  dup1\n  dataOffset(sub_0)\n  0x00\n  codecopy\n  0x00\n  return\nstop\n\nsub_0: assembly {\n        /* \"contracts/Struct.sol\":127:918  contract Struct {... */\n      mstore(0x40, 0x80)\n      callvalue\n      dup1\n      iszero\n      tag_1\n      jumpi\n      0x00\n      dup1\n      revert\n    tag_1:\n      pop\n      jumpi(tag_2, lt(calldatasize, 0x04))\n      shr(0xe0, calldataload(0x00))\n      dup1\n      0x12065fe0\n      eq\n      tag_3\n      jumpi\n      dup1\n      0x32a2c5d0\n      eq\n      tag_4\n      jumpi\n      dup1\n      0x477bddaa\n      eq\n      tag_5\n      jumpi\n      dup1\n      0xcb6890d9\n      eq\n      tag_6\n      jumpi\n      dup1\n      0xdb613e81\n      eq\n      tag_7\n      jumpi\n      dup1\n      0xfb1669ca\n      eq\n      tag_8\n      jumpi\n    tag_2:\n      0x00\n      dup1\n      revert\n        /* \"contracts/Struct.sol\":352:442  function getBalance() public view returns(uint256) {... */\n    tag_3:\n      tag_9\n      tag_10\n      jump\t// in\n    tag_9:\n      mload(0x40)\n      tag_11\n      swap2\n      swap1\n      tag_12\n      jump\t// in\n    tag_11:\n      mload(0x40)\n      dup1\n      swap2\n      sub\n      swap1\n      return\n        /* \"contracts/Struct.sol\":558:664  function getContractAddress() public view returns(address) {... */\n    tag_4:\n      tag_13\n      tag_14\n      jump\t// in\n    tag_13:\n      mload(0x40)\n      tag_15\n      swap2\n      swap1\n      tag_16\n      jump\t// in\n    tag_15:\n      mload(0x40)\n      dup1\n      swap2\n      sub\n      swap1\n      return\n        /* \"contracts/Struct.sol\":448:552  function setContractAddress(address _address) public {... */\n    tag_5:\n      tag_17\n      0x04\n      dup1\n      calldatasize\n      sub\n      dup2\n      add\n      swap1\n      tag_18\n      swap2\n      swap1\n      tag_19\n      jump\t// in\n    tag_18:\n      tag_20\n      jump\t// in\n    tag_17:\n      stop\n        /* \"contracts/Struct.sol\":670:820  function setAccount(address _address, uint256 _balance) public {... */\n    tag_6:\n      tag_21\n      0x04\n      dup1\n      calldatasize\n      sub\n      dup2\n      add\n      swap1\n      tag_22\n      swap2\n      swap1\n      tag_23\n      jump\t// in\n    tag_22:\n      tag_24\n      jump\t// in\n    tag_21:\n      stop\n        /* \"contracts/Struct.sol\":826:915  function getAccount() public view returns(Account memory) {... */\n    tag_7:\n      tag_25\n      tag_26\n      jump\t// in\n    tag_25:\n      mload(0x40)\n      tag_27\n      swap2\n      swap1\n      tag_28\n      jump\t// in\n    tag_27:\n      mload(0x40)\n      dup1\n      swap2\n      sub\n      swap1\n      return\n        /* \"contracts/Struct.sol\":258:346  function setBalance(uint256 _balance) public {... */\n    tag_8:\n      tag_29\n      0x04\n      dup1\n      calldatasize\n      sub\n      dup2\n      add\n      swap1\n      tag_30\n      swap2\n      swap1\n      tag_31\n      jump\t// in\n    tag_30:\n      tag_32\n      jump\t// in\n    tag_29:\n      stop\n        /* \"contracts/Struct.sol\":352:442  function getBalance() public view returns(uint256) {... */\n    tag_10:\n        /* \"contracts/Struct.sol\":394:401  uint256 */\n      0x00\n        /* \"contracts/Struct.sol\":420:427  account */\n      dup1\n        /* \"contracts/Struct.sol\":420:435  account.balance */\n      0x01\n      add\n      sload\n        /* \"contracts/Struct.sol\":413:435  return account.balance */\n      swap1\n      pop\n        /* \"contracts/Struct.sol\":352:442  function getBalance() public view returns(uint256) {... */\n      swap1\n      jump\t// out\n        /* \"contracts/Struct.sol\":558:664  function getContractAddress() public view returns(address) {... */\n    tag_14:\n        /* \"contracts/Struct.sol\":608:615  address */\n      0x00\n        /* \"contracts/Struct.sol\":634:641  account */\n      dup1\n        /* \"contracts/Struct.sol\":634:657  account.contractAddress */\n      0x00\n      add\n      0x00\n      swap1\n      sload\n      swap1\n      0x0100\n      exp\n      swap1\n      div\n      0xffffffffffffffffffffffffffffffffffffffff\n      and\n        /* \"contracts/Struct.sol\":627:657  return account.contractAddress */\n      swap1\n      pop\n        /* \"contracts/Struct.sol\":558:664  function getContractAddress() public view returns(address) {... */\n      swap1\n      jump\t// out\n        /* \"contracts/Struct.sol\":448:552  function setContractAddress(address _address) public {... */\n    tag_20:\n        /* \"contracts/Struct.sol\":537:545  _address */\n      dup1\n        /* \"contracts/Struct.sol\":511:518  account */\n      0x00\n        /* \"contracts/Struct.sol\":511:534  account.contractAddress */\n      dup1\n      add\n      0x00\n        /* \"contracts/Struct.sol\":511:545  account.contractAddress = _address */\n      0x0100\n      exp\n      dup2\n      sload\n      dup2\n      0xffffffffffffffffffffffffffffffffffffffff\n      mul\n      not\n      and\n      swap1\n      dup4\n      0xffffffffffffffffffffffffffffffffffffffff\n      and\n      mul\n      or\n      swap1\n      sstore\n      pop\n        /* \"contracts/Struct.sol\":448:552  function setContractAddress(address _address) public {... */\n      pop\n      jump\t// out\n        /* \"contracts/Struct.sol\":670:820  function setAccount(address _address, uint256 _balance) public {... */\n    tag_24:\n        /* \"contracts/Struct.sol\":761:769  _balance */\n      dup1\n        /* \"contracts/Struct.sol\":743:750  account */\n      0x00\n        /* \"contracts/Struct.sol\":743:758  account.balance */\n      0x01\n      add\n        /* \"contracts/Struct.sol\":743:769  account.balance = _balance */\n      dup2\n      swap1\n      sstore\n      pop\n        /* \"contracts/Struct.sol\":805:813  _address */\n      dup2\n        /* \"contracts/Struct.sol\":779:786  account */\n      0x00\n        /* \"contracts/Struct.sol\":779:802  account.contractAddress */\n      dup1\n      add\n      0x00\n        /* \"contracts/Struct.sol\":779:813  account.contractAddress = _address */\n      0x0100\n      exp\n      dup2\n      sload\n      dup2\n      0xffffffffffffffffffffffffffffffffffffffff\n      mul\n      not\n      and\n      swap1\n      dup4\n      0xffffffffffffffffffffffffffffffffffffffff\n      and\n      mul\n      or\n      swap1\n      sstore\n      pop\n        /* \"contracts/Struct.sol\":670:820  function setAccount(address _address, uint256 _balance) public {... */\n      pop\n      pop\n      jump\t// out\n        /* \"contracts/Struct.sol\":826:915  function getAccount() public view returns(Account memory) {... */\n    tag_26:\n        /* \"contracts/Struct.sol\":868:882  Account memory */\n      tag_37\n      tag_38\n      jump\t// in\n    tag_37:\n        /* \"contracts/Struct.sol\":901:908  account */\n      0x00\n        /* \"contracts/Struct.sol\":894:908  return account */\n      mload(0x40)\n      dup1\n      0x40\n      add\n      0x40\n      mstore\n      swap1\n      dup2\n      0x00\n      dup3\n      add\n      0x00\n      swap1\n      sload\n      swap1\n      0x0100\n      exp\n      swap1\n      div\n      0xffffffffffffffffffffffffffffffffffffffff\n      and\n      0xffffffffffffffffffffffffffffffffffffffff\n      and\n      0xffffffffffffffffffffffffffffffffffffffff\n      and\n      dup2\n      mstore\n      0x20\n      add\n      0x01\n      dup3\n      add\n      sload\n      dup2\n      mstore\n      pop\n      pop\n      swap1\n      pop\n        /* \"contracts/Struct.sol\":826:915  function getAccount() public view returns(Account memory) {... */\n      swap1\n      jump\t// out\n        /* \"contracts/Struct.sol\":258:346  function setBalance(uint256 _balance) public {... */\n    tag_32:\n        /* \"contracts/Struct.sol\":331:339  _balance */\n      dup1\n        /* \"contracts/Struct.sol\":313:320  account */\n      0x00\n        /* \"contracts/Struct.sol\":313:328  account.balance */\n      0x01\n      add\n        /* \"contracts/Struct.sol\":313:339  account.balance = _balance */\n      dup2\n      swap1\n      sstore\n      pop\n        /* \"contracts/Struct.sol\":258:346  function setBalance(uint256 _balance) public {... */\n      pop\n      jump\t// out\n    tag_38:\n      mload(0x40)\n      dup1\n      0x40\n      add\n      0x40\n      mstore\n      dup1\n      and(0xffffffffffffffffffffffffffffffffffffffff, 0x00)\n      dup2\n      mstore\n      0x20\n      add\n      0x00\n      dup2\n      mstore\n      pop\n      swap1\n      jump\t// out\n        /* \"#utility.yul\":7:146   */\n    tag_42:\n        /* \"#utility.yul\":53:58   */\n      0x00\n        /* \"#utility.yul\":91:97   */\n      dup2\n        /* \"#utility.yul\":78:98   */\n      calldataload\n        /* \"#utility.yul\":69:98   */\n      swap1\n      pop\n        /* \"#utility.yul\":107:140   */\n      tag_44\n        /* \"#utility.yul\":134:139   */\n      dup2\n        /* \"#utility.yul\":107:140   */\n      tag_45\n      jump\t// in\n    tag_44:\n        /* \"#utility.yul\":7:146   */\n      swap3\n      swap2\n      pop\n      pop\n      jump\t// out\n        /* \"#utility.yul\":152:291   */\n    tag_46:\n        /* \"#utility.yul\":198:203   */\n      0x00\n        /* \"#utility.yul\":236:242   */\n      dup2\n        /* \"#utility.yul\":223:243   */\n      calldataload\n        /* \"#utility.yul\":214:243   */\n      swap1\n      pop\n        /* \"#utility.yul\":252:285   */\n      tag_48\n        /* \"#utility.yul\":279:284   */\n      dup2\n        /* \"#utility.yul\":252:285   */\n      tag_49\n      jump\t// in\n    tag_48:\n        /* \"#utility.yul\":152:291   */\n      swap3\n      swap2\n      pop\n      pop\n      jump\t// out\n        /* \"#utility.yul\":297:626   */\n    tag_19:\n        /* \"#utility.yul\":356:362   */\n      0x00\n        /* \"#utility.yul\":405:407   */\n      0x20\n        /* \"#utility.yul\":393:402   */\n      dup3\n        /* \"#utility.yul\":384:391   */\n      dup5\n        /* \"#utility.yul\":380:403   */\n      sub\n        /* \"#utility.yul\":376:408   */\n      slt\n        /* \"#utility.yul\":373:492   */\n      iszero\n      tag_51\n      jumpi\n        /* \"#utility.yul\":411:490   */\n      tag_52\n      tag_53\n      jump\t// in\n    tag_52:\n        /* \"#utility.yul\":373:492   */\n    tag_51:\n        /* \"#utility.yul\":531:532   */\n      0x00\n        /* \"#utility.yul\":556:609   */\n      tag_54\n        /* \"#utility.yul\":601:608   */\n      dup5\n        /* \"#utility.yul\":592:598   */\n      dup3\n        /* \"#utility.yul\":581:590   */\n      dup6\n        /* \"#utility.yul\":577:599   */\n      add\n        /* \"#utility.yul\":556:609   */\n      tag_42\n      jump\t// in\n    tag_54:\n        /* \"#utility.yul\":546:609   */\n      swap2\n      pop\n        /* \"#utility.yul\":502:619   */\n      pop\n        /* \"#utility.yul\":297:626   */\n      swap3\n      swap2\n      pop\n      pop\n      jump\t// out\n        /* \"#utility.yul\":632:1106   */\n    tag_23:\n        /* \"#utility.yul\":700:706   */\n      0x00\n        /* \"#utility.yul\":708:714   */\n      dup1\n        /* \"#utility.yul\":757:759   */\n      0x40\n        /* \"#utility.yul\":745:754   */\n      dup4\n        /* \"#utility.yul\":736:743   */\n      dup6\n        /* \"#utility.yul\":732:755   */\n      sub\n        /* \"#utility.yul\":728:760   */\n      slt\n        /* \"#utility.yul\":725:844   */\n      iszero\n      tag_56\n      jumpi\n        /* \"#utility.yul\":763:842   */\n      tag_57\n      tag_53\n      jump\t// in\n    tag_57:\n        /* \"#utility.yul\":725:844   */\n    tag_56:\n        /* \"#utility.yul\":883:884   */\n      0x00\n        /* \"#utility.yul\":908:961   */\n      tag_58\n        /* \"#utility.yul\":953:960   */\n      dup6\n        /* \"#utility.yul\":944:950   */\n      dup3\n        /* \"#utility.yul\":933:942   */\n      dup7\n        /* \"#utility.yul\":929:951   */\n      add\n        /* \"#utility.yul\":908:961   */\n      tag_42\n      jump\t// in\n    tag_58:\n        /* \"#utility.yul\":898:961   */\n      swap3\n      pop\n        /* \"#utility.yul\":854:971   */\n      pop\n        /* \"#utility.yul\":1010:1012   */\n      0x20\n        /* \"#utility.yul\":1036:1089   */\n      tag_59\n        /* \"#utility.yul\":1081:1088   */\n      dup6\n        /* \"#utility.yul\":1072:1078   */\n      dup3\n        /* \"#utility.yul\":1061:1070   */\n      dup7\n        /* \"#utility.yul\":1057:1079   */\n      add\n        /* \"#utility.yul\":1036:1089   */\n      tag_46\n      jump\t// in\n    tag_59:\n        /* \"#utility.yul\":1026:1089   */\n      swap2\n      pop\n        /* \"#utility.yul\":981:1099   */\n      pop\n        /* \"#utility.yul\":632:1106   */\n      swap3\n      pop\n      swap3\n      swap1\n      pop\n      jump\t// out\n        /* \"#utility.yul\":1112:1441   */\n    tag_31:\n        /* \"#utility.yul\":1171:1177   */\n      0x00\n        /* \"#utility.yul\":1220:1222   */\n      0x20\n        /* \"#utility.yul\":1208:1217   */\n      dup3\n        /* \"#utility.yul\":1199:1206   */\n      dup5\n        /* \"#utility.yul\":1195:1218   */\n      sub\n        /* \"#utility.yul\":1191:1223   */\n      slt\n        /* \"#utility.yul\":1188:1307   */\n      iszero\n      tag_61\n      jumpi\n        /* \"#utility.yul\":1226:1305   */\n      tag_62\n      tag_53\n      jump\t// in\n    tag_62:\n        /* \"#utility.yul\":1188:1307   */\n    tag_61:\n        /* \"#utility.yul\":1346:1347   */\n      0x00\n        /* \"#utility.yul\":1371:1424   */\n      tag_63\n        /* \"#utility.yul\":1416:1423   */\n      dup5\n        /* \"#utility.yul\":1407:1413   */\n      dup3\n        /* \"#utility.yul\":1396:1405   */\n      dup6\n        /* \"#utility.yul\":1392:1414   */\n      add\n        /* \"#utility.yul\":1371:1424   */\n      tag_46\n      jump\t// in\n    tag_63:\n        /* \"#utility.yul\":1361:1424   */\n      swap2\n      pop\n        /* \"#utility.yul\":1317:1434   */\n      pop\n        /* \"#utility.yul\":1112:1441   */\n      swap3\n      swap2\n      pop\n      pop\n      jump\t// out\n        /* \"#utility.yul\":1447:1555   */\n    tag_64:\n        /* \"#utility.yul\":1524:1548   */\n      tag_66\n        /* \"#utility.yul\":1542:1547   */\n      dup2\n        /* \"#utility.yul\":1524:1548   */\n      tag_67\n      jump\t// in\n    tag_66:\n        /* \"#utility.yul\":1519:1522   */\n      dup3\n        /* \"#utility.yul\":1512:1549   */\n      mstore\n        /* \"#utility.yul\":1447:1555   */\n      pop\n      pop\n      jump\t// out\n        /* \"#utility.yul\":1561:1679   */\n    tag_68:\n        /* \"#utility.yul\":1648:1672   */\n      tag_70\n        /* \"#utility.yul\":1666:1671   */\n      dup2\n        /* \"#utility.yul\":1648:1672   */\n      tag_67\n      jump\t// in\n    tag_70:\n        /* \"#utility.yul\":1643:1646   */\n      dup3\n        /* \"#utility.yul\":1636:1673   */\n      mstore\n        /* \"#utility.yul\":1561:1679   */\n      pop\n      pop\n      jump\t// out\n        /* \"#utility.yul\":1739:2254   */\n    tag_71:\n        /* \"#utility.yul\":1880:1884   */\n      0x40\n        /* \"#utility.yul\":1875:1878   */\n      dup3\n        /* \"#utility.yul\":1871:1885   */\n      add\n        /* \"#utility.yul\":1978:1982   */\n      0x00\n        /* \"#utility.yul\":1971:1976   */\n      dup3\n        /* \"#utility.yul\":1967:1983   */\n      add\n        /* \"#utility.yul\":1961:1984   */\n      mload\n        /* \"#utility.yul\":1997:2060   */\n      tag_73\n        /* \"#utility.yul\":2054:2058   */\n      0x00\n        /* \"#utility.yul\":2049:2052   */\n      dup6\n        /* \"#utility.yul\":2045:2059   */\n      add\n        /* \"#utility.yul\":2031:2043   */\n      dup3\n        /* \"#utility.yul\":1997:2060   */\n      tag_64\n      jump\t// in\n    tag_73:\n        /* \"#utility.yul\":1895:2070   */\n      pop\n        /* \"#utility.yul\":2155:2159   */\n      0x20\n        /* \"#utility.yul\":2148:2153   */\n      dup3\n        /* \"#utility.yul\":2144:2160   */\n      add\n        /* \"#utility.yul\":2138:2161   */\n      mload\n        /* \"#utility.yul\":2174:2237   */\n      tag_74\n        /* \"#utility.yul\":2231:2235   */\n      0x20\n        /* \"#utility.yul\":2226:2229   */\n      dup6\n        /* \"#utility.yul\":2222:2236   */\n      add\n        /* \"#utility.yul\":2208:2220   */\n      dup3\n        /* \"#utility.yul\":2174:2237   */\n      tag_75\n      jump\t// in\n    tag_74:\n        /* \"#utility.yul\":2080:2247   */\n      pop\n        /* \"#utility.yul\":1849:2254   */\n      pop\n        /* \"#utility.yul\":1739:2254   */\n      pop\n      pop\n      jump\t// out\n        /* \"#utility.yul\":2260:2368   */\n    tag_75:\n        /* \"#utility.yul\":2337:2361   */\n      tag_77\n        /* \"#utility.yul\":2355:2360   */\n      dup2\n        /* \"#utility.yul\":2337:2361   */\n      tag_78\n      jump\t// in\n    tag_77:\n        /* \"#utility.yul\":2332:2335   */\n      dup3\n        /* \"#utility.yul\":2325:2362   */\n      mstore\n        /* \"#utility.yul\":2260:2368   */\n      pop\n      pop\n      jump\t// out\n        /* \"#utility.yul\":2374:2492   */\n    tag_79:\n        /* \"#utility.yul\":2461:2485   */\n      tag_81\n        /* \"#utility.yul\":2479:2484   */\n      dup2\n        /* \"#utility.yul\":2461:2485   */\n      tag_78\n      jump\t// in\n    tag_81:\n        /* \"#utility.yul\":2456:2459   */\n      dup3\n        /* \"#utility.yul\":2449:2486   */\n      mstore\n        /* \"#utility.yul\":2374:2492   */\n      pop\n      pop\n      jump\t// out\n        /* \"#utility.yul\":2498:2720   */\n    tag_16:\n        /* \"#utility.yul\":2591:2595   */\n      0x00\n        /* \"#utility.yul\":2629:2631   */\n      0x20\n        /* \"#utility.yul\":2618:2627   */\n      dup3\n        /* \"#utility.yul\":2614:2632   */\n      add\n        /* \"#utility.yul\":2606:2632   */\n      swap1\n      pop\n        /* \"#utility.yul\":2642:2713   */\n      tag_83\n        /* \"#utility.yul\":2710:2711   */\n      0x00\n        /* \"#utility.yul\":2699:2708   */\n      dup4\n        /* \"#utility.yul\":2695:2712   */\n      add\n        /* \"#utility.yul\":2686:2692   */\n      dup5\n        /* \"#utility.yul\":2642:2713   */\n      tag_68\n      jump\t// in\n    tag_83:\n        /* \"#utility.yul\":2498:2720   */\n      swap3\n      swap2\n      pop\n      pop\n      jump\t// out\n        /* \"#utility.yul\":2726:3036   */\n    tag_28:\n        /* \"#utility.yul\":2863:2867   */\n      0x00\n        /* \"#utility.yul\":2901:2903   */\n      0x40\n        /* \"#utility.yul\":2890:2899   */\n      dup3\n        /* \"#utility.yul\":2886:2904   */\n      add\n        /* \"#utility.yul\":2878:2904   */\n      swap1\n      pop\n        /* \"#utility.yul\":2914:3029   */\n      tag_85\n        /* \"#utility.yul\":3026:3027   */\n      0x00\n        /* \"#utility.yul\":3015:3024   */\n      dup4\n        /* \"#utility.yul\":3011:3028   */\n      add\n        /* \"#utility.yul\":3002:3008   */\n      dup5\n        /* \"#utility.yul\":2914:3029   */\n      tag_71\n      jump\t// in\n    tag_85:\n        /* \"#utility.yul\":2726:3036   */\n      swap3\n      swap2\n      pop\n      pop\n      jump\t// out\n        /* \"#utility.yul\":3042:3264   */\n    tag_12:\n        /* \"#utility.yul\":3135:3139   */\n      0x00\n        /* \"#utility.yul\":3173:3175   */\n      0x20\n        /* \"#utility.yul\":3162:3171   */\n      dup3\n        /* \"#utility.yul\":3158:3176   */\n      add\n        /* \"#utility.yul\":3150:3176   */\n      swap1\n      pop\n        /* \"#utility.yul\":3186:3257   */\n      tag_87\n        /* \"#utility.yul\":3254:3255   */\n      0x00\n        /* \"#utility.yul\":3243:3252   */\n      dup4\n        /* \"#utility.yul\":3239:3256   */\n      add\n        /* \"#utility.yul\":3230:3236   */\n      dup5\n        /* \"#utility.yul\":3186:3257   */\n      tag_79\n      jump\t// in\n    tag_87:\n        /* \"#utility.yul\":3042:3264   */\n      swap3\n      swap2\n      pop\n      pop\n      jump\t// out\n        /* \"#utility.yul\":3351:3447   */\n    tag_67:\n        /* \"#utility.yul\":3388:3395   */\n      0x00\n        /* \"#utility.yul\":3417:3441   */\n      tag_91\n        /* \"#utility.yul\":3435:3440   */\n      dup3\n        /* \"#utility.yul\":3417:3441   */\n      tag_92\n      jump\t// in\n    tag_91:\n        /* \"#utility.yul\":3406:3441   */\n      swap1\n      pop\n        /* \"#utility.yul\":3351:3447   */\n      swap2\n      swap1\n      pop\n      jump\t// out\n        /* \"#utility.yul\":3453:3579   */\n    tag_92:\n        /* \"#utility.yul\":3490:3497   */\n      0x00\n        /* \"#utility.yul\":3530:3572   */\n      0xffffffffffffffffffffffffffffffffffffffff\n        /* \"#utility.yul\":3523:3528   */\n      dup3\n        /* \"#utility.yul\":3519:3573   */\n      and\n        /* \"#utility.yul\":3508:3573   */\n      swap1\n      pop\n        /* \"#utility.yul\":3453:3579   */\n      swap2\n      swap1\n      pop\n      jump\t// out\n        /* \"#utility.yul\":3585:3662   */\n    tag_78:\n        /* \"#utility.yul\":3622:3629   */\n      0x00\n        /* \"#utility.yul\":3651:3656   */\n      dup2\n        /* \"#utility.yul\":3640:3656   */\n      swap1\n      pop\n        /* \"#utility.yul\":3585:3662   */\n      swap2\n      swap1\n      pop\n      jump\t// out\n        /* \"#utility.yul\":3791:3908   */\n    tag_53:\n        /* \"#utility.yul\":3900:3901   */\n      0x00\n        /* \"#utility.yul\":3897:3898   */\n      dup1\n        /* \"#utility.yul\":3890:3902   */\n      revert\n        /* \"#utility.yul\":3914:4036   */\n    tag_45:\n        /* \"#utility.yul\":3987:4011   */\n      tag_99\n        /* \"#utility.yul\":4005:4010   */\n      dup2\n        /* \"#utility.yul\":3987:4011   */\n      tag_67\n      jump\t// in\n    tag_99:\n        /* \"#utility.yul\":3980:3985   */\n      dup2\n        /* \"#utility.yul\":3977:4012   */\n      eq\n        /* \"#utility.yul\":3967:4030   */\n      tag_100\n      jumpi\n        /* \"#utility.yul\":4026:4027   */\n      0x00\n        /* \"#utility.yul\":4023:4024   */\n      dup1\n        /* \"#utility.yul\":4016:4028   */\n      revert\n        /* \"#utility.yul\":3967:4030   */\n    tag_100:\n        /* \"#utility.yul\":3914:4036   */\n      pop\n      jump\t// out\n        /* \"#utility.yul\":4042:4164   */\n    tag_49:\n        /* \"#utility.yul\":4115:4139   */\n      tag_102\n        /* \"#utility.yul\":4133:4138   */\n      dup2\n        /* \"#utility.yul\":4115:4139   */\n      tag_78\n      jump\t// in\n    tag_102:\n        /* \"#utility.yul\":4108:4113   */\n      dup2\n        /* \"#utility.yul\":4105:4140   */\n      eq\n        /* \"#utility.yul\":4095:4158   */\n      tag_103\n      jumpi\n        /* \"#utility.yul\":4154:4155   */\n      0x00\n        /* \"#utility.yul\":4151:4152   */\n      dup1\n        /* \"#utility.yul\":4144:4156   */\n      revert\n        /* \"#utility.yul\":4095:4158   */\n    tag_103:\n        /* \"#utility.yul\":4042:4164   */\n      pop\n      jump\t// out\n\n    auxdata: 0xa2646970667358221220937f173cd42d73c4fb85360c5736d43eee100f93f6303c9c51c220b72806077d64736f6c63430008070033\n}\n",
				"bytecode": {
					"linkReferences": {},
					"object": "608060405234801561001057600080fd5b506104c0806100206000396000f3fe608060405234801561001057600080fd5b50600436106100625760003560e01c806312065fe01461006757806332a2c5d014610085578063477bddaa146100a3578063cb6890d9146100bf578063db613e81146100db578063fb1669ca146100f9575b600080fd5b61006f610115565b60405161007c9190610400565b60405180910390f35b61008d610121565b60405161009a91906103ca565b60405180910390f35b6100bd60048036038101906100b891906102c5565b61014d565b005b6100d960048036038101906100d491906102f2565b610193565b005b6100e36101e4565b6040516100f091906103e5565b60405180910390f35b610113600480360381019061010e9190610332565b61025e565b005b60008060010154905090565b60008060000160009054906101000a900473ffffffffffffffffffffffffffffffffffffffff16905090565b806000800160006101000a81548173ffffffffffffffffffffffffffffffffffffffff021916908373ffffffffffffffffffffffffffffffffffffffff16021790555050565b80600060010181905550816000800160006101000a81548173ffffffffffffffffffffffffffffffffffffffff021916908373ffffffffffffffffffffffffffffffffffffffff1602179055505050565b6101ec61026b565b60006040518060400160405290816000820160009054906101000a900473ffffffffffffffffffffffffffffffffffffffff1673ffffffffffffffffffffffffffffffffffffffff1673ffffffffffffffffffffffffffffffffffffffff168152602001600182015481525050905090565b8060006001018190555050565b6040518060400160405280600073ffffffffffffffffffffffffffffffffffffffff168152602001600081525090565b6000813590506102aa8161045c565b92915050565b6000813590506102bf81610473565b92915050565b6000602082840312156102db576102da610457565b5b60006102e98482850161029b565b91505092915050565b6000806040838503121561030957610308610457565b5b60006103178582860161029b565b9250506020610328858286016102b0565b9150509250929050565b60006020828403121561034857610347610457565b5b6000610356848285016102b0565b91505092915050565b6103688161041b565b82525050565b6103778161041b565b82525050565b604082016000820151610393600085018261035f565b5060208201516103a660208501826103ac565b50505050565b6103b58161044d565b82525050565b6103c48161044d565b82525050565b60006020820190506103df600083018461036e565b92915050565b60006040820190506103fa600083018461037d565b92915050565b600060208201905061041560008301846103bb565b92915050565b60006104268261042d565b9050919050565b600073ffffffffffffffffffffffffffffffffffffffff82169050919050565b6000819050919050565b600080fd5b6104658161041b565b811461047057600080fd5b50565b61047c8161044d565b811461048757600080fd5b5056fea2646970667358221220937f173cd42d73c4fb85360c5736d43eee100f93f6303c9c51c220b72806077d64736f6c63430008070033",
					"opcodes": "PUSH1 0x80 PUSH1 0x40 MSTORE CALLVALUE DUP1 ISZERO PUSH2 0x10 JUMPI PUSH1 0x0 DUP1 REVERT JUMPDEST POP PUSH2 0x4C0 DUP1 PUSH2 0x20 PUSH1 0x0 CODECOPY PUSH1 0x0 RETURN INVALID PUSH1 0x80 PUSH1 0x40 MSTORE CALLVALUE DUP1 ISZERO PUSH2 0x10 JUMPI PUSH1 0x0 DUP1 REVERT JUMPDEST POP PUSH1 0x4 CALLDATASIZE LT PUSH2 0x62 JUMPI PUSH1 0x0 CALLDATALOAD PUSH1 0xE0 SHR DUP1 PUSH4 0x12065FE0 EQ PUSH2 0x67 JUMPI DUP1 PUSH4 0x32A2C5D0 EQ PUSH2 0x85 JUMPI DUP1 PUSH4 0x477BDDAA EQ PUSH2 0xA3 JUMPI DUP1 PUSH4 0xCB6890D9 EQ PUSH2 0xBF JUMPI DUP1 PUSH4 0xDB613E81 EQ PUSH2 0xDB JUMPI DUP1 PUSH4 0xFB1669CA EQ PUSH2 0xF9 JUMPI JUMPDEST PUSH1 0x0 DUP1 REVERT JUMPDEST PUSH2 0x6F PUSH2 0x115 JUMP JUMPDEST PUSH1 0x40 MLOAD PUSH2 0x7C SWAP2 SWAP1 PUSH2 0x400 JUMP JUMPDEST PUSH1 0x40 MLOAD DUP1 SWAP2 SUB SWAP1 RETURN JUMPDEST PUSH2 0x8D PUSH2 0x121 JUMP JUMPDEST PUSH1 0x40 MLOAD PUSH2 0x9A SWAP2 SWAP1 PUSH2 0x3CA JUMP JUMPDEST PUSH1 0x40 MLOAD DUP1 SWAP2 SUB SWAP1 RETURN JUMPDEST PUSH2 0xBD PUSH1 0x4 DUP1 CALLDATASIZE SUB DUP2 ADD SWAP1 PUSH2 0xB8 SWAP2 SWAP1 PUSH2 0x2C5 JUMP JUMPDEST PUSH2 0x14D JUMP JUMPDEST STOP JUMPDEST PUSH2 0xD9 PUSH1 0x4 DUP1 CALLDATASIZE SUB DUP2 ADD SWAP1 PUSH2 0xD4 SWAP2 SWAP1 PUSH2 0x2F2 JUMP JUMPDEST PUSH2 0x193 JUMP JUMPDEST STOP JUMPDEST PUSH2 0xE3 PUSH2 0x1E4 JUMP JUMPDEST PUSH1 0x40 MLOAD PUSH2 0xF0 SWAP2 SWAP1 PUSH2 0x3E5 JUMP JUMPDEST PUSH1 0x40 MLOAD DUP1 SWAP2 SUB SWAP1 RETURN JUMPDEST PUSH2 0x113 PUSH1 0x4 DUP1 CALLDATASIZE SUB DUP2 ADD SWAP1 PUSH2 0x10E SWAP2 SWAP1 PUSH2 0x332 JUMP JUMPDEST PUSH2 0x25E JUMP JUMPDEST STOP JUMPDEST PUSH1 0x0 DUP1 PUSH1 0x1 ADD SLOAD SWAP1 POP SWAP1 JUMP JUMPDEST PUSH1 0x0 DUP1 PUSH1 0x0 ADD PUSH1 0x0 SWAP1 SLOAD SWAP1 PUSH2 0x100 EXP SWAP1 DIV PUSH20 0xFFFFFFFFFFFFFFFFFFFFFFFFFFFFFFFFFFFFFFFF AND SWAP1 POP SWAP1 JUMP JUMPDEST DUP1 PUSH1 0x0 DUP1 ADD PUSH1 0x0 PUSH2 0x100 EXP DUP2 SLOAD DUP2 PUSH20 0xFFFFFFFFFFFFFFFFFFFFFFFFFFFFFFFFFFFFFFFF MUL NOT AND SWAP1 DUP4 PUSH20 0xFFFFFFFFFFFFFFFFFFFFFFFFFFFFFFFFFFFFFFFF AND MUL OR SWAP1 SSTORE POP POP JUMP JUMPDEST DUP1 PUSH1 0x0 PUSH1 0x1 ADD DUP2 SWAP1 SSTORE POP DUP2 PUSH1 0x0 DUP1 ADD PUSH1 0x0 PUSH2 0x100 EXP DUP2 SLOAD DUP2 PUSH20 0xFFFFFFFFFFFFFFFFFFFFFFFFFFFFFFFFFFFFFFFF MUL NOT AND SWAP1 DUP4 PUSH20 0xFFFFFFFFFFFFFFFFFFFFFFFFFFFFFFFFFFFFFFFF AND MUL OR SWAP1 SSTORE POP POP POP JUMP JUMPDEST PUSH2 0x1EC PUSH2 0x26B JUMP JUMPDEST PUSH1 0x0 PUSH1 0x40 MLOAD DUP1 PUSH1 0x40 ADD PUSH1 0x40 MSTORE SWAP1 DUP2 PUSH1 0x0 DUP3 ADD PUSH1 0x0 SWAP1 SLOAD SWAP1 PUSH2 0x100 EXP SWAP1 DIV PUSH20 0xFFFFFFFFFFFFFFFFFFFFFFFFFFFFFFFFFFFFFFFF AND PUSH20 0xFFFFFFFFFFFFFFFFFFFFFFFFFFFFFFFFFFFFFFFF AND PUSH20 0xFFFFFFFFFFFFFFFFFFFFFFFFFFFFFFFFFFFFFFFF AND DUP2 MSTORE PUSH1 0x20 ADD PUSH1 0x1 DUP3 ADD SLOAD DUP2 MSTORE POP POP SWAP1 POP SWAP1 JUMP JUMPDEST DUP1 PUSH1 0x0 PUSH1 0x1 ADD DUP2 SWAP1 SSTORE POP POP JUMP JUMPDEST PUSH1 0x40 MLOAD DUP1 PUSH1 0x40 ADD PUSH1 0x40 MSTORE DUP1 PUSH1 0x0 PUSH20 0xFFFFFFFFFFFFFFFFFFFFFFFFFFFFFFFFFFFFFFFF AND DUP2 MSTORE PUSH1 0x20 ADD PUSH1 0x0 DUP2 MSTORE POP SWAP1 JUMP JUMPDEST PUSH1 0x0 DUP2 CALLDATALOAD SWAP1 POP PUSH2 0x2AA DUP2 PUSH2 0x45C JUMP JUMPDEST SWAP3 SWAP2 POP POP JUMP JUMPDEST PUSH1 0x0 DUP2 CALLDATALOAD SWAP1 POP PUSH2 0x2BF DUP2 PUSH2 0x473 JUMP JUMPDEST SWAP3 SWAP2 POP POP JUMP JUMPDEST PUSH1 0x0 PUSH1 0x20 DUP3 DUP5 SUB SLT ISZERO PUSH2 0x2DB JUMPI PUSH2 0x2DA PUSH2 0x457 JUMP JUMPDEST JUMPDEST PUSH1 0x0 PUSH2 0x2E9 DUP5 DUP3 DUP6 ADD PUSH2 0x29B JUMP JUMPDEST SWAP2 POP POP SWAP3 SWAP2 POP POP JUMP JUMPDEST PUSH1 0x0 DUP1 PUSH1 0x40 DUP4 DUP6 SUB SLT ISZERO PUSH2 0x309 JUMPI PUSH2 0x308 PUSH2 0x457 JUMP JUMPDEST JUMPDEST PUSH1 0x0 PUSH2 0x317 DUP6 DUP3 DUP7 ADD PUSH2 0x29B JUMP JUMPDEST SWAP3 POP POP PUSH1 0x20 PUSH2 0x328 DUP6 DUP3 DUP7 ADD PUSH2 0x2B0 JUMP JUMPDEST SWAP2 POP POP SWAP3 POP SWAP3 SWAP1 POP JUMP JUMPDEST PUSH1 0x0 PUSH1 0x20 DUP3 DUP5 SUB SLT ISZERO PUSH2 0x348 JUMPI PUSH2 0x347 PUSH2 0x457 JUMP JUMPDEST JUMPDEST PUSH1 0x0 PUSH2 0x356 DUP5 DUP3 DUP6 ADD PUSH2 0x2B0 JUMP JUMPDEST SWAP2 POP POP SWAP3 SWAP2 POP POP JUMP JUMPDEST PUSH2 0x368 DUP2 PUSH2 0x41B JUMP JUMPDEST DUP3 MSTORE POP POP JUMP JUMPDEST PUSH2 0x377 DUP2 PUSH2 0x41B JUMP JUMPDEST DUP3 MSTORE POP POP JUMP JUMPDEST PUSH1 0x40 DUP3 ADD PUSH1 0x0 DUP3 ADD MLOAD PUSH2 0x393 PUSH1 0x0 DUP6 ADD DUP3 PUSH2 0x35F JUMP JUMPDEST POP PUSH1 0x20 DUP3 ADD MLOAD PUSH2 0x3A6 PUSH1 0x20 DUP6 ADD DUP3 PUSH2 0x3AC JUMP JUMPDEST POP POP POP POP JUMP JUMPDEST PUSH2 0x3B5 DUP2 PUSH2 0x44D JUMP JUMPDEST DUP3 MSTORE POP POP JUMP JUMPDEST PUSH2 0x3C4 DUP2 PUSH2 0x44D JUMP JUMPDEST DUP3 MSTORE POP POP JUMP JUMPDEST PUSH1 0x0 PUSH1 0x20 DUP3 ADD SWAP1 POP PUSH2 0x3DF PUSH1 0x0 DUP4 ADD DUP5 PUSH2 0x36E JUMP JUMPDEST SWAP3 SWAP2 POP POP JUMP JUMPDEST PUSH1 0x0 PUSH1 0x40 DUP3 ADD SWAP1 POP PUSH2 0x3FA PUSH1 0x0 DUP4 ADD DUP5 PUSH2 0x37D JUMP JUMPDEST SWAP3 SWAP2 POP POP JUMP JUMPDEST PUSH1 0x0 PUSH1 0x20 DUP3 ADD SWAP1 POP PUSH2 0x415 PUSH1 0x0 DUP4 ADD DUP5 PUSH2 0x3BB JUMP JUMPDEST SWAP3 SWAP2 POP POP JUMP JUMPDEST PUSH1 0x0 PUSH2 0x426 DUP3 PUSH2 0x42D JUMP JUMPDEST SWAP1 POP SWAP2 SWAP1 POP JUMP JUMPDEST PUSH1 0x0 PUSH20 0xFFFFFFFFFFFFFFFFFFFFFFFFFFFFFFFFFFFFFFFF DUP3 AND SWAP1 POP SWAP2 SWAP1 POP JUMP JUMPDEST PUSH1 0x0 DUP2 SWAP1 POP SWAP2 SWAP1 POP JUMP JUMPDEST PUSH1 0x0 DUP1 REVERT JUMPDEST PUSH2 0x465 DUP2 PUSH2 0x41B JUMP JUMPDEST DUP2 EQ PUSH2 0x470 JUMPI PUSH1 0x0 DUP1 REVERT JUMPDEST POP JUMP JUMPDEST PUSH2 0x47C DUP2 PUSH2 0x44D JUMP JUMPDEST DUP2 EQ PUSH2 0x487 JUMPI PUSH1 0x0 DUP1 REVERT JUMPDEST POP JUMP INVALID LOG2 PUSH5 0x6970667358 0x22 SLT KECCAK256 SWAP4 PUSH32 0x173CD42D73C4FB85360C5736D43EEE100F93F6303C9C51C220B72806077D6473 PUSH16 0x6C634300080700330000000000000000 "
				},
				"gasEstimates": {
					"creation": {
						"codeDepositCost": "243200",
						"executionCost": "281",
						"totalCost": "243481"
					},
					"external": {
						"getAccount()": "5033",
						"getBalance()": "2421",
						"getContractAddress()": "2528",
						"setAccount(address,uint256)": "47065",
						"setBalance(uint256)": "22614",
						"setContractAddress(address)": "24750"
					}
				},
				"methodIdentifiers": {
					"getAccount()": "db613e81",
					"getBalance()": "12065fe0",
					"getContractAddress()": "32a2c5d0",
					"setAccount(address,uint256)": "cb6890d9",
					"setBalance(uint256)": "fb1669ca",
					"setContractAddress(address)": "477bddaa"
				}
			},
			"storageLayout": {
				"storage": [
					{
						"astId": 10,
						"contract": "contracts/Struct.sol:Struct",
						"label": "account",
						"offset": 0,
						"slot": "0",
						"type": "t_struct(Account)7_storage"
					}
				],
				"types": {
					"t_address": {
						"encoding": "inplace",
						"label": "address",
						"numberOfBytes": "20"
					},
					"t_struct(Account)7_storage": {
						"encoding": "inplace",
						"label": "struct Struct.Account",
						"members": [
							{
								"astId": 4,
								"contract": "contracts/Struct.sol:Struct",
								"label": "contractAddress",
								"offset": 0,
								"slot": "0",
								"type": "t_address"
							},
							{
								"astId": 6,
								"contract": "contracts/Struct.sol:Struct",
								"label": "balance",
								"offset": 0,
								"slot": "1",
								"type": "t_uint256"
							}
						],
						"numberOfBytes": "64"
					},
					"t_uint256": {
						"encoding": "inplace",
						"label": "uint256",
						"numberOfBytes": "32"
					}
				}
			},
			"userdoc": {
				"kind": "user",
				"methods": {},
				"version": 1
			}
		}
	}
}