{
	"contracts/Integer.sol": {
		"Integer": {
			"abi": [
				{
					"inputs": [
						{
							"internalType": "uint256",
							"name": "number1",
							"type": "uint256"
						},
						{
							"internalType": "uint256",
							"name": "number2",
							"type": "uint256"
						}
					],
					"name": "bitwiseAnd",
					"outputs": [
						{
							"internalType": "uint256",
							"name": "",
							"type": "uint256"
						}
					],
					"stateMutability": "pure",
					"type": "function"
				},
				{
					"inputs": [
						{
							"internalType": "uint256",
							"name": "_number",
							"type": "uint256"
						}
					],
					"name": "bitwiseNot",
					"outputs": [
						{
							"internalType": "uint256",
							"name": "",
							"type": "uint256"
						}
					],
					"stateMutability": "pure",
					"type": "function"
				},
				{
					"inputs": [
						{
							"internalType": "uint256",
							"name": "number1",
							"type": "uint256"
						},
						{
							"internalType": "uint256",
							"name": "number2",
							"type": "uint256"
						}
					],
					"name": "bitwiseXOR",
					"outputs": [
						{
							"internalType": "uint256",
							"name": "",
							"type": "uint256"
						}
					],
					"stateMutability": "pure",
					"type": "function"
				},
				{
					"inputs": [
						{
							"internalType": "uint256",
							"name": "number1",
							"type": "uint256"
						},
						{
							"internalType": "uint256",
							"name": "number2",
							"type": "uint256"
						}
					],
					"name": "division",
					"outputs": [
						{
							"internalType": "uint256",
							"name": "",
							"type": "uint256"
						}
					],
					"stateMutability": "pure",
					"type": "function"
				},
				{
					"inputs": [
						{
							"internalType": "uint256",
							"name": "_number",
							"type": "uint256"
						}
					],
					"name": "isEqual",
					"outputs": [
						{
							"internalType": "bool",
							"name": "",
							"type": "bool"
						}
					],
					"stateMutability": "view",
					"type": "function"
				},
				{
					"inputs": [
						{
							"internalType": "uint256",
							"name": "_number",
							"type": "uint256"
						}
					],
					"name": "isGreater",
					"outputs": [
						{
							"internalType": "bool",
							"name": "",
							"type": "bool"
						}
					],
					"stateMutability": "pure",
					"type": "function"
				},
				{
					"inputs": [
						{
							"internalType": "uint256",
							"name": "_number",
							"type": "uint256"
						}
					],
					"name": "isGreaterOrEqual",
					"outputs": [
						{
							"internalType": "bool",
							"name": "",
							"type": "bool"
						}
					],
					"stateMutability": "pure",
					"type": "function"
				},
				{
					"inputs": [
						{
							"internalType": "uint256",
							"name": "_number",
							"type": "uint256"
						}
					],
					"name": "isLess",
					"outputs": [
						{
							"internalType": "bool",
							"name": "",
							"type": "bool"
						}
					],
					"stateMutability": "pure",
					"type": "function"
				},
				{
					"inputs": [
						{
							"internalType": "uint256",
							"name": "_number",
							"type": "uint256"
						}
					],
					"name": "isLessOrEqual",
					"outputs": [
						{
							"internalType": "bool",
							"name": "",
							"type": "bool"
						}
					],
					"stateMutability": "pure",
					"type": "function"
				},
				{
					"inputs": [
						{
							"internalType": "uint256",
							"name": "_number",
							"type": "uint256"
						}
					],
					"name": "isNotEqual",
					"outputs": [
						{
							"internalType": "bool",
							"name": "",
							"type": "bool"
						}
					],
					"stateMutability": "view",
					"type": "function"
				},
				{
					"inputs": [
						{
							"internalType": "uint256",
							"name": "number1",
							"type": "uint256"
						},
						{
							"internalType": "uint256",
							"name": "number2",
							"type": "uint256"
						}
					],
					"name": "multiply",
					"outputs": [
						{
							"internalType": "uint256",
							"name": "",
							"type": "uint256"
						}
					],
					"stateMutability": "pure",
					"type": "function"
				},
				{
					"inputs": [
						{
							"internalType": "uint256",
							"name": "_number",
							"type": "uint256"
						},
						{
							"internalType": "uint256",
							"name": "bitCount",
							"type": "uint256"
						}
					],
					"name": "shiftLeft",
					"outputs": [
						{
							"internalType": "uint256",
							"name": "",
							"type": "uint256"
						}
					],
					"stateMutability": "pure",
					"type": "function"
				},
				{
					"inputs": [
						{
							"internalType": "uint256",
							"name": "_number",
							"type": "uint256"
						},
						{
							"internalType": "uint256",
							"name": "bitCount",
							"type": "uint256"
						}
					],
					"name": "shiftRight",
					"outputs": [
						{
							"internalType": "uint256",
							"name": "",
							"type": "uint256"
						}
					],
					"stateMutability": "pure",
					"type": "function"
				},
				{
					"inputs": [
						{
							"internalType": "uint256",
							"name": "number1",
							"type": "uint256"
						},
						{
							"internalType": "uint256",
							"name": "number2",
							"type": "uint256"
						}
					],
					"name": "substraction",
					"outputs": [
						{
							"internalType": "uint256",
							"name": "",
							"type": "uint256"
						}
					],
					"stateMutability": "pure",
					"type": "function"
				},
				{
					"inputs": [
						{
							"internalType": "uint256",
							"name": "number1",
							"type": "uint256"
						},
						{
							"internalType": "uint256",
							"name": "number2",
							"type": "uint256"
						}
					],
					"name": "sum",
					"outputs": [
						{
							"internalType": "uint256",
							"name": "",
							"type": "uint256"
						}
					],
					"stateMutability": "pure",
					"type": "function"
				}
			],
			"devdoc": {
				"author": "0xVeliUysal",
				"details": "Integer Example",
				"kind": "dev",
				"methods": {},
				"version": 1
			},
			"evm": {
				"assembly": "    /* \"contracts/Integer.sol\":128:1986  contract Integer {... */\n  mstore(0x40, 0x80)\n    /* \"contracts/Integer.sol\":177:179  23 */\n  0x17\n    /* \"contracts/Integer.sol\":152:179  uint256 private number = 23 */\n  0x00\n  sstore\n    /* \"contracts/Integer.sol\":128:1986  contract Integer {... */\n  callvalue\n  dup1\n  iszero\n  tag_1\n  jumpi\n  0x00\n  dup1\n  revert\ntag_1:\n  pop\n  dataSize(sub_0)\n  dup1\n  dataOffset(sub_0)\n  0x00\n  codecopy\n  0x00\n  return\nstop\n\nsub_0: assembly {\n        /* \"contracts/Integer.sol\":128:1986  contract Integer {... */\n      mstore(0x40, 0x80)\n      callvalue\n      dup1\n      iszero\n      tag_1\n      jumpi\n      0x00\n      dup1\n      revert\n    tag_1:\n      pop\n      jumpi(tag_2, lt(calldatasize, 0x04))\n      shr(0xe0, calldataload(0x00))\n      dup1\n      0x643a5366\n      gt\n      tag_18\n      jumpi\n      dup1\n      0xcad0899b\n      gt\n      tag_19\n      jumpi\n      dup1\n      0xcad0899b\n      eq\n      tag_14\n      jumpi\n      dup1\n      0xcdeb3314\n      eq\n      tag_15\n      jumpi\n      dup1\n      0xe0068052\n      eq\n      tag_16\n      jumpi\n      dup1\n      0xe37caed8\n      eq\n      tag_17\n      jumpi\n      jump(tag_2)\n    tag_19:\n      dup1\n      0x643a5366\n      eq\n      tag_10\n      jumpi\n      dup1\n      0x7602448b\n      eq\n      tag_11\n      jumpi\n      dup1\n      0x8a3759b9\n      eq\n      tag_12\n      jumpi\n      dup1\n      0xa589d212\n      eq\n      tag_13\n      jumpi\n      jump(tag_2)\n    tag_18:\n      dup1\n      0x1685fa98\n      gt\n      tag_20\n      jumpi\n      dup1\n      0x1685fa98\n      eq\n      tag_6\n      jumpi\n      dup1\n      0x225ba612\n      eq\n      tag_7\n      jumpi\n      dup1\n      0x27377754\n      eq\n      tag_8\n      jumpi\n      dup1\n      0x3f775f6d\n      eq\n      tag_9\n      jumpi\n      jump(tag_2)\n    tag_20:\n      dup1\n      0x09a32210\n      eq\n      tag_3\n      jumpi\n      dup1\n      0x0be237cf\n      eq\n      tag_4\n      jumpi\n      dup1\n      0x165c4a16\n      eq\n      tag_5\n      jumpi\n    tag_2:\n      0x00\n      dup1\n      revert\n        /* \"contracts/Integer.sol\":403:506  function isGreater(uint256 _number) public pure returns(bool) {... */\n    tag_3:\n      tag_21\n      0x04\n      dup1\n      calldatasize\n      sub\n      dup2\n      add\n      swap1\n      tag_22\n      swap2\n      swap1\n      tag_23\n      jump\t// in\n    tag_22:\n      tag_24\n      jump\t// in\n    tag_21:\n      mload(0x40)\n      tag_25\n      swap2\n      swap1\n      tag_26\n      jump\t// in\n    tag_25:\n      mload(0x40)\n      dup1\n      swap2\n      sub\n      swap1\n      return\n        /* \"contracts/Integer.sol\":512:623  function isGreaterOrEqual(uint256 _number) public pure returns(bool) {... */\n    tag_4:\n      tag_27\n      0x04\n      dup1\n      calldatasize\n      sub\n      dup2\n      add\n      swap1\n      tag_28\n      swap2\n      swap1\n      tag_23\n      jump\t// in\n    tag_28:\n      tag_29\n      jump\t// in\n    tag_27:\n      mload(0x40)\n      tag_30\n      swap2\n      swap1\n      tag_26\n      jump\t// in\n    tag_30:\n      mload(0x40)\n      dup1\n      swap2\n      sub\n      swap1\n      return\n        /* \"contracts/Integer.sol\":1733:1855  function multiply(uint256 number1, uint256 number2) public pure returns(uint256) {... */\n    tag_5:\n      tag_31\n      0x04\n      dup1\n      calldatasize\n      sub\n      dup2\n      add\n      swap1\n      tag_32\n      swap2\n      swap1\n      tag_33\n      jump\t// in\n    tag_32:\n      tag_34\n      jump\t// in\n    tag_31:\n      mload(0x40)\n      tag_35\n      swap2\n      swap1\n      tag_36\n      jump\t// in\n    tag_35:\n      mload(0x40)\n      dup1\n      swap2\n      sub\n      swap1\n      return\n        /* \"contracts/Integer.sol\":1345:1472  function shiftRight(uint256 _number, uint256 bitCount) public pure returns(uint256) {... */\n    tag_6:\n      tag_37\n      0x04\n      dup1\n      calldatasize\n      sub\n      dup2\n      add\n      swap1\n      tag_38\n      swap2\n      swap1\n      tag_33\n      jump\t// in\n    tag_38:\n      tag_39\n      jump\t// in\n    tag_37:\n      mload(0x40)\n      tag_40\n      swap2\n      swap1\n      tag_36\n      jump\t// in\n    tag_40:\n      mload(0x40)\n      dup1\n      swap2\n      sub\n      swap1\n      return\n        /* \"contracts/Integer.sol\":293:397  function isNotEqual(uint256 _number) public view returns(bool) {... */\n    tag_7:\n      tag_41\n      0x04\n      dup1\n      calldatasize\n      sub\n      dup2\n      add\n      swap1\n      tag_42\n      swap2\n      swap1\n      tag_23\n      jump\t// in\n    tag_42:\n      tag_43\n      jump\t// in\n    tag_41:\n      mload(0x40)\n      tag_44\n      swap2\n      swap1\n      tag_26\n      jump\t// in\n    tag_44:\n      mload(0x40)\n      dup1\n      swap2\n      sub\n      swap1\n      return\n        /* \"contracts/Integer.sol\":629:729  function isLess(uint256 _number) public pure returns(bool) {... */\n    tag_8:\n      tag_45\n      0x04\n      dup1\n      calldatasize\n      sub\n      dup2\n      add\n      swap1\n      tag_46\n      swap2\n      swap1\n      tag_23\n      jump\t// in\n    tag_46:\n      tag_47\n      jump\t// in\n    tag_45:\n      mload(0x40)\n      tag_48\n      swap2\n      swap1\n      tag_26\n      jump\t// in\n    tag_48:\n      mload(0x40)\n      dup1\n      swap2\n      sub\n      swap1\n      return\n        /* \"contracts/Integer.sol\":186:287  function isEqual(uint256 _number) public view returns(bool) {... */\n    tag_9:\n      tag_49\n      0x04\n      dup1\n      calldatasize\n      sub\n      dup2\n      add\n      swap1\n      tag_50\n      swap2\n      swap1\n      tag_23\n      jump\t// in\n    tag_50:\n      tag_51\n      jump\t// in\n    tag_49:\n      mload(0x40)\n      tag_52\n      swap2\n      swap1\n      tag_26\n      jump\t// in\n    tag_52:\n      mload(0x40)\n      dup1\n      swap2\n      sub\n      swap1\n      return\n        /* \"contracts/Integer.sol\":849:973  function bitwiseAnd(uint256 number1, uint256 number2) public pure returns(uint256) {... */\n    tag_10:\n      tag_53\n      0x04\n      dup1\n      calldatasize\n      sub\n      dup2\n      add\n      swap1\n      tag_54\n      swap2\n      swap1\n      tag_33\n      jump\t// in\n    tag_54:\n      tag_55\n      jump\t// in\n    tag_53:\n      mload(0x40)\n      tag_56\n      swap2\n      swap1\n      tag_36\n      jump\t// in\n    tag_56:\n      mload(0x40)\n      dup1\n      swap2\n      sub\n      swap1\n      return\n        /* \"contracts/Integer.sol\":1109:1207  function bitwiseNot(uint256 _number) public pure returns(uint256) {... */\n    tag_11:\n      tag_57\n      0x04\n      dup1\n      calldatasize\n      sub\n      dup2\n      add\n      swap1\n      tag_58\n      swap2\n      swap1\n      tag_23\n      jump\t// in\n    tag_58:\n      tag_59\n      jump\t// in\n    tag_57:\n      mload(0x40)\n      tag_60\n      swap2\n      swap1\n      tag_36\n      jump\t// in\n    tag_60:\n      mload(0x40)\n      dup1\n      swap2\n      sub\n      swap1\n      return\n        /* \"contracts/Integer.sol\":735:843  function isLessOrEqual(uint256 _number) public pure returns(bool) {... */\n    tag_12:\n      tag_61\n      0x04\n      dup1\n      calldatasize\n      sub\n      dup2\n      add\n      swap1\n      tag_62\n      swap2\n      swap1\n      tag_23\n      jump\t// in\n    tag_62:\n      tag_63\n      jump\t// in\n    tag_61:\n      mload(0x40)\n      tag_64\n      swap2\n      swap1\n      tag_26\n      jump\t// in\n    tag_64:\n      mload(0x40)\n      dup1\n      swap2\n      sub\n      swap1\n      return\n        /* \"contracts/Integer.sol\":1213:1339  function shiftLeft(uint256 _number, uint256 bitCount) public pure returns(uint256) {... */\n    tag_13:\n      tag_65\n      0x04\n      dup1\n      calldatasize\n      sub\n      dup2\n      add\n      swap1\n      tag_66\n      swap2\n      swap1\n      tag_33\n      jump\t// in\n    tag_66:\n      tag_67\n      jump\t// in\n    tag_65:\n      mload(0x40)\n      tag_68\n      swap2\n      swap1\n      tag_36\n      jump\t// in\n    tag_68:\n      mload(0x40)\n      dup1\n      swap2\n      sub\n      swap1\n      return\n        /* \"contracts/Integer.sol\":1478:1595  function sum(uint256 number1, uint256 number2) public pure returns(uint256) {... */\n    tag_14:\n      tag_69\n      0x04\n      dup1\n      calldatasize\n      sub\n      dup2\n      add\n      swap1\n      tag_70\n      swap2\n      swap1\n      tag_33\n      jump\t// in\n    tag_70:\n      tag_71\n      jump\t// in\n    tag_69:\n      mload(0x40)\n      tag_72\n      swap2\n      swap1\n      tag_36\n      jump\t// in\n    tag_72:\n      mload(0x40)\n      dup1\n      swap2\n      sub\n      swap1\n      return\n        /* \"contracts/Integer.sol\":1601:1727  function substraction(uint256 number1, uint256 number2) public pure returns(uint256) {... */\n    tag_15:\n      tag_73\n      0x04\n      dup1\n      calldatasize\n      sub\n      dup2\n      add\n      swap1\n      tag_74\n      swap2\n      swap1\n      tag_33\n      jump\t// in\n    tag_74:\n      tag_75\n      jump\t// in\n    tag_73:\n      mload(0x40)\n      tag_76\n      swap2\n      swap1\n      tag_36\n      jump\t// in\n    tag_76:\n      mload(0x40)\n      dup1\n      swap2\n      sub\n      swap1\n      return\n        /* \"contracts/Integer.sol\":1861:1983  function division(uint256 number1, uint256 number2) public pure returns(uint256) {... */\n    tag_16:\n      tag_77\n      0x04\n      dup1\n      calldatasize\n      sub\n      dup2\n      add\n      swap1\n      tag_78\n      swap2\n      swap1\n      tag_33\n      jump\t// in\n    tag_78:\n      tag_79\n      jump\t// in\n    tag_77:\n      mload(0x40)\n      tag_80\n      swap2\n      swap1\n      tag_36\n      jump\t// in\n    tag_80:\n      mload(0x40)\n      dup1\n      swap2\n      sub\n      swap1\n      return\n        /* \"contracts/Integer.sol\":979:1103  function bitwiseXOR(uint256 number1, uint256 number2) public pure returns(uint256) {... */\n    tag_17:\n      tag_81\n      0x04\n      dup1\n      calldatasize\n      sub\n      dup2\n      add\n      swap1\n      tag_82\n      swap2\n      swap1\n      tag_33\n      jump\t// in\n    tag_82:\n      tag_83\n      jump\t// in\n    tag_81:\n      mload(0x40)\n      tag_84\n      swap2\n      swap1\n      tag_36\n      jump\t// in\n    tag_84:\n      mload(0x40)\n      dup1\n      swap2\n      sub\n      swap1\n      return\n        /* \"contracts/Integer.sol\":403:506  function isGreater(uint256 _number) public pure returns(bool) {... */\n    tag_24:\n        /* \"contracts/Integer.sol\":459:463  bool */\n      0x00\n        /* \"contracts/Integer.sol\":492:499  _number */\n      dup2\n        /* \"contracts/Integer.sol\":482:489  _number */\n      dup3\n        /* \"contracts/Integer.sol\":482:499  _number > _number */\n      gt\n        /* \"contracts/Integer.sol\":475:499  return _number > _number */\n      swap1\n      pop\n        /* \"contracts/Integer.sol\":403:506  function isGreater(uint256 _number) public pure returns(bool) {... */\n      swap2\n      swap1\n      pop\n      jump\t// out\n        /* \"contracts/Integer.sol\":512:623  function isGreaterOrEqual(uint256 _number) public pure returns(bool) {... */\n    tag_29:\n        /* \"contracts/Integer.sol\":575:579  bool */\n      0x00\n        /* \"contracts/Integer.sol\":609:616  _number */\n      dup2\n        /* \"contracts/Integer.sol\":598:605  _number */\n      dup3\n        /* \"contracts/Integer.sol\":598:616  _number >= _number */\n      lt\n      iszero\n        /* \"contracts/Integer.sol\":591:616  return _number >= _number */\n      swap1\n      pop\n        /* \"contracts/Integer.sol\":512:623  function isGreaterOrEqual(uint256 _number) public pure returns(bool) {... */\n      swap2\n      swap1\n      pop\n      jump\t// out\n        /* \"contracts/Integer.sol\":1733:1855  function multiply(uint256 number1, uint256 number2) public pure returns(uint256) {... */\n    tag_34:\n        /* \"contracts/Integer.sol\":1805:1812  uint256 */\n      0x00\n        /* \"contracts/Integer.sol\":1841:1848  number2 */\n      dup2\n        /* \"contracts/Integer.sol\":1831:1838  number1 */\n      dup4\n        /* \"contracts/Integer.sol\":1831:1848  number1 * number2 */\n      tag_88\n      swap2\n      swap1\n      tag_89\n      jump\t// in\n    tag_88:\n        /* \"contracts/Integer.sol\":1824:1848  return number1 * number2 */\n      swap1\n      pop\n        /* \"contracts/Integer.sol\":1733:1855  function multiply(uint256 number1, uint256 number2) public pure returns(uint256) {... */\n      swap3\n      swap2\n      pop\n      pop\n      jump\t// out\n        /* \"contracts/Integer.sol\":1345:1472  function shiftRight(uint256 _number, uint256 bitCount) public pure returns(uint256) {... */\n    tag_39:\n        /* \"contracts/Integer.sol\":1420:1427  uint256 */\n      0x00\n        /* \"contracts/Integer.sol\":1457:1465  bitCount */\n      dup2\n        /* \"contracts/Integer.sol\":1446:1453  _number */\n      dup4\n        /* \"contracts/Integer.sol\":1446:1465  _number >> bitCount */\n      swap1\n      shr\n        /* \"contracts/Integer.sol\":1439:1465  return _number >> bitCount */\n      swap1\n      pop\n        /* \"contracts/Integer.sol\":1345:1472  function shiftRight(uint256 _number, uint256 bitCount) public pure returns(uint256) {... */\n      swap3\n      swap2\n      pop\n      pop\n      jump\t// out\n        /* \"contracts/Integer.sol\":293:397  function isNotEqual(uint256 _number) public view returns(bool) {... */\n    tag_43:\n        /* \"contracts/Integer.sol\":350:354  bool */\n      0x00\n        /* \"contracts/Integer.sol\":383:390  _number */\n      dup2\n        /* \"contracts/Integer.sol\":373:379  number */\n      sload(0x00)\n        /* \"contracts/Integer.sol\":373:390  number != _number */\n      eq\n      iszero\n        /* \"contracts/Integer.sol\":366:390  return number != _number */\n      swap1\n      pop\n        /* \"contracts/Integer.sol\":293:397  function isNotEqual(uint256 _number) public view returns(bool) {... */\n      swap2\n      swap1\n      pop\n      jump\t// out\n        /* \"contracts/Integer.sol\":629:729  function isLess(uint256 _number) public pure returns(bool) {... */\n    tag_47:\n        /* \"contracts/Integer.sol\":682:686  bool */\n      0x00\n        /* \"contracts/Integer.sol\":715:722  _number */\n      dup2\n        /* \"contracts/Integer.sol\":705:712  _number */\n      dup3\n        /* \"contracts/Integer.sol\":705:722  _number < _number */\n      lt\n        /* \"contracts/Integer.sol\":698:722  return _number < _number */\n      swap1\n      pop\n        /* \"contracts/Integer.sol\":629:729  function isLess(uint256 _number) public pure returns(bool) {... */\n      swap2\n      swap1\n      pop\n      jump\t// out\n        /* \"contracts/Integer.sol\":186:287  function isEqual(uint256 _number) public view returns(bool) {... */\n    tag_51:\n        /* \"contracts/Integer.sol\":240:244  bool */\n      0x00\n        /* \"contracts/Integer.sol\":273:280  _number */\n      dup2\n        /* \"contracts/Integer.sol\":263:269  number */\n      sload(0x00)\n        /* \"contracts/Integer.sol\":263:280  number == _number */\n      eq\n        /* \"contracts/Integer.sol\":256:280  return number == _number */\n      swap1\n      pop\n        /* \"contracts/Integer.sol\":186:287  function isEqual(uint256 _number) public view returns(bool) {... */\n      swap2\n      swap1\n      pop\n      jump\t// out\n        /* \"contracts/Integer.sol\":849:973  function bitwiseAnd(uint256 number1, uint256 number2) public pure returns(uint256) {... */\n    tag_55:\n        /* \"contracts/Integer.sol\":923:930  uint256 */\n      0x00\n        /* \"contracts/Integer.sol\":959:966  number2 */\n      dup2\n        /* \"contracts/Integer.sol\":949:956  number1 */\n      dup4\n        /* \"contracts/Integer.sol\":949:966  number1 & number2 */\n      and\n        /* \"contracts/Integer.sol\":942:966  return number1 & number2 */\n      swap1\n      pop\n        /* \"contracts/Integer.sol\":849:973  function bitwiseAnd(uint256 number1, uint256 number2) public pure returns(uint256) {... */\n      swap3\n      swap2\n      pop\n      pop\n      jump\t// out\n        /* \"contracts/Integer.sol\":1109:1207  function bitwiseNot(uint256 _number) public pure returns(uint256) {... */\n    tag_59:\n        /* \"contracts/Integer.sol\":1166:1173  uint256 */\n      0x00\n        /* \"contracts/Integer.sol\":1193:1200  _number */\n      dup2\n        /* \"contracts/Integer.sol\":1192:1200  ~_number */\n      not\n        /* \"contracts/Integer.sol\":1185:1200  return ~_number */\n      swap1\n      pop\n        /* \"contracts/Integer.sol\":1109:1207  function bitwiseNot(uint256 _number) public pure returns(uint256) {... */\n      swap2\n      swap1\n      pop\n      jump\t// out\n        /* \"contracts/Integer.sol\":735:843  function isLessOrEqual(uint256 _number) public pure returns(bool) {... */\n    tag_63:\n        /* \"contracts/Integer.sol\":795:799  bool */\n      0x00\n        /* \"contracts/Integer.sol\":829:836  _number */\n      dup2\n        /* \"contracts/Integer.sol\":818:825  _number */\n      dup3\n        /* \"contracts/Integer.sol\":818:836  _number <= _number */\n      gt\n      iszero\n        /* \"contracts/Integer.sol\":811:836  return _number <= _number */\n      swap1\n      pop\n        /* \"contracts/Integer.sol\":735:843  function isLessOrEqual(uint256 _number) public pure returns(bool) {... */\n      swap2\n      swap1\n      pop\n      jump\t// out\n        /* \"contracts/Integer.sol\":1213:1339  function shiftLeft(uint256 _number, uint256 bitCount) public pure returns(uint256) {... */\n    tag_67:\n        /* \"contracts/Integer.sol\":1287:1294  uint256 */\n      0x00\n        /* \"contracts/Integer.sol\":1324:1332  bitCount */\n      dup2\n        /* \"contracts/Integer.sol\":1313:1320  _number */\n      dup4\n        /* \"contracts/Integer.sol\":1313:1332  _number << bitCount */\n      swap1\n      shl\n        /* \"contracts/Integer.sol\":1306:1332  return _number << bitCount */\n      swap1\n      pop\n        /* \"contracts/Integer.sol\":1213:1339  function shiftLeft(uint256 _number, uint256 bitCount) public pure returns(uint256) {... */\n      swap3\n      swap2\n      pop\n      pop\n      jump\t// out\n        /* \"contracts/Integer.sol\":1478:1595  function sum(uint256 number1, uint256 number2) public pure returns(uint256) {... */\n    tag_71:\n        /* \"contracts/Integer.sol\":1545:1552  uint256 */\n      0x00\n        /* \"contracts/Integer.sol\":1581:1588  number2 */\n      dup2\n        /* \"contracts/Integer.sol\":1571:1578  number1 */\n      dup4\n        /* \"contracts/Integer.sol\":1571:1588  number1 + number2 */\n      tag_99\n      swap2\n      swap1\n      tag_100\n      jump\t// in\n    tag_99:\n        /* \"contracts/Integer.sol\":1564:1588  return number1 + number2 */\n      swap1\n      pop\n        /* \"contracts/Integer.sol\":1478:1595  function sum(uint256 number1, uint256 number2) public pure returns(uint256) {... */\n      swap3\n      swap2\n      pop\n      pop\n      jump\t// out\n        /* \"contracts/Integer.sol\":1601:1727  function substraction(uint256 number1, uint256 number2) public pure returns(uint256) {... */\n    tag_75:\n        /* \"contracts/Integer.sol\":1677:1684  uint256 */\n      0x00\n        /* \"contracts/Integer.sol\":1713:1720  number2 */\n      dup2\n        /* \"contracts/Integer.sol\":1703:1710  number1 */\n      dup4\n        /* \"contracts/Integer.sol\":1703:1720  number1 - number2 */\n      tag_102\n      swap2\n      swap1\n      tag_103\n      jump\t// in\n    tag_102:\n        /* \"contracts/Integer.sol\":1696:1720  return number1 - number2 */\n      swap1\n      pop\n        /* \"contracts/Integer.sol\":1601:1727  function substraction(uint256 number1, uint256 number2) public pure returns(uint256) {... */\n      swap3\n      swap2\n      pop\n      pop\n      jump\t// out\n        /* \"contracts/Integer.sol\":1861:1983  function division(uint256 number1, uint256 number2) public pure returns(uint256) {... */\n    tag_79:\n        /* \"contracts/Integer.sol\":1933:1940  uint256 */\n      0x00\n        /* \"contracts/Integer.sol\":1969:1976  number2 */\n      dup2\n        /* \"contracts/Integer.sol\":1959:1966  number1 */\n      dup4\n        /* \"contracts/Integer.sol\":1959:1976  number1 / number2 */\n      tag_105\n      swap2\n      swap1\n      tag_106\n      jump\t// in\n    tag_105:\n        /* \"contracts/Integer.sol\":1952:1976  return number1 / number2 */\n      swap1\n      pop\n        /* \"contracts/Integer.sol\":1861:1983  function division(uint256 number1, uint256 number2) public pure returns(uint256) {... */\n      swap3\n      swap2\n      pop\n      pop\n      jump\t// out\n        /* \"contracts/Integer.sol\":979:1103  function bitwiseXOR(uint256 number1, uint256 number2) public pure returns(uint256) {... */\n    tag_83:\n        /* \"contracts/Integer.sol\":1053:1060  uint256 */\n      0x00\n        /* \"contracts/Integer.sol\":1089:1096  number2 */\n      dup2\n        /* \"contracts/Integer.sol\":1079:1086  number1 */\n      dup4\n        /* \"contracts/Integer.sol\":1079:1096  number1 ^ number2 */\n      xor\n        /* \"contracts/Integer.sol\":1072:1096  return number1 ^ number2 */\n      swap1\n      pop\n        /* \"contracts/Integer.sol\":979:1103  function bitwiseXOR(uint256 number1, uint256 number2) public pure returns(uint256) {... */\n      swap3\n      swap2\n      pop\n      pop\n      jump\t// out\n        /* \"#utility.yul\":88:205   */\n    tag_109:\n        /* \"#utility.yul\":197:198   */\n      0x00\n        /* \"#utility.yul\":194:195   */\n      dup1\n        /* \"#utility.yul\":187:199   */\n      revert\n        /* \"#utility.yul\":334:411   */\n    tag_111:\n        /* \"#utility.yul\":371:378   */\n      0x00\n        /* \"#utility.yul\":400:405   */\n      dup2\n        /* \"#utility.yul\":389:405   */\n      swap1\n      pop\n        /* \"#utility.yul\":334:411   */\n      swap2\n      swap1\n      pop\n      jump\t// out\n        /* \"#utility.yul\":417:539   */\n    tag_112:\n        /* \"#utility.yul\":490:514   */\n      tag_125\n        /* \"#utility.yul\":508:513   */\n      dup2\n        /* \"#utility.yul\":490:514   */\n      tag_111\n      jump\t// in\n    tag_125:\n        /* \"#utility.yul\":483:488   */\n      dup2\n        /* \"#utility.yul\":480:515   */\n      eq\n        /* \"#utility.yul\":470:533   */\n      tag_126\n      jumpi\n        /* \"#utility.yul\":529:530   */\n      0x00\n        /* \"#utility.yul\":526:527   */\n      dup1\n        /* \"#utility.yul\":519:531   */\n      revert\n        /* \"#utility.yul\":470:533   */\n    tag_126:\n        /* \"#utility.yul\":417:539   */\n      pop\n      jump\t// out\n        /* \"#utility.yul\":545:684   */\n    tag_113:\n        /* \"#utility.yul\":591:596   */\n      0x00\n        /* \"#utility.yul\":629:635   */\n      dup2\n        /* \"#utility.yul\":616:636   */\n      calldataload\n        /* \"#utility.yul\":607:636   */\n      swap1\n      pop\n        /* \"#utility.yul\":645:678   */\n      tag_128\n        /* \"#utility.yul\":672:677   */\n      dup2\n        /* \"#utility.yul\":645:678   */\n      tag_112\n      jump\t// in\n    tag_128:\n        /* \"#utility.yul\":545:684   */\n      swap3\n      swap2\n      pop\n      pop\n      jump\t// out\n        /* \"#utility.yul\":690:1019   */\n    tag_23:\n        /* \"#utility.yul\":749:755   */\n      0x00\n        /* \"#utility.yul\":798:800   */\n      0x20\n        /* \"#utility.yul\":786:795   */\n      dup3\n        /* \"#utility.yul\":777:784   */\n      dup5\n        /* \"#utility.yul\":773:796   */\n      sub\n        /* \"#utility.yul\":769:801   */\n      slt\n        /* \"#utility.yul\":766:885   */\n      iszero\n      tag_130\n      jumpi\n        /* \"#utility.yul\":804:883   */\n      tag_131\n      tag_109\n      jump\t// in\n    tag_131:\n        /* \"#utility.yul\":766:885   */\n    tag_130:\n        /* \"#utility.yul\":924:925   */\n      0x00\n        /* \"#utility.yul\":949:1002   */\n      tag_132\n        /* \"#utility.yul\":994:1001   */\n      dup5\n        /* \"#utility.yul\":985:991   */\n      dup3\n        /* \"#utility.yul\":974:983   */\n      dup6\n        /* \"#utility.yul\":970:992   */\n      add\n        /* \"#utility.yul\":949:1002   */\n      tag_113\n      jump\t// in\n    tag_132:\n        /* \"#utility.yul\":939:1002   */\n      swap2\n      pop\n        /* \"#utility.yul\":895:1012   */\n      pop\n        /* \"#utility.yul\":690:1019   */\n      swap3\n      swap2\n      pop\n      pop\n      jump\t// out\n        /* \"#utility.yul\":1025:1115   */\n    tag_114:\n        /* \"#utility.yul\":1059:1066   */\n      0x00\n        /* \"#utility.yul\":1102:1107   */\n      dup2\n        /* \"#utility.yul\":1095:1108   */\n      iszero\n        /* \"#utility.yul\":1088:1109   */\n      iszero\n        /* \"#utility.yul\":1077:1109   */\n      swap1\n      pop\n        /* \"#utility.yul\":1025:1115   */\n      swap2\n      swap1\n      pop\n      jump\t// out\n        /* \"#utility.yul\":1121:1230   */\n    tag_115:\n        /* \"#utility.yul\":1202:1223   */\n      tag_135\n        /* \"#utility.yul\":1217:1222   */\n      dup2\n        /* \"#utility.yul\":1202:1223   */\n      tag_114\n      jump\t// in\n    tag_135:\n        /* \"#utility.yul\":1197:1200   */\n      dup3\n        /* \"#utility.yul\":1190:1224   */\n      mstore\n        /* \"#utility.yul\":1121:1230   */\n      pop\n      pop\n      jump\t// out\n        /* \"#utility.yul\":1236:1446   */\n    tag_26:\n        /* \"#utility.yul\":1323:1327   */\n      0x00\n        /* \"#utility.yul\":1361:1363   */\n      0x20\n        /* \"#utility.yul\":1350:1359   */\n      dup3\n        /* \"#utility.yul\":1346:1364   */\n      add\n        /* \"#utility.yul\":1338:1364   */\n      swap1\n      pop\n        /* \"#utility.yul\":1374:1439   */\n      tag_137\n        /* \"#utility.yul\":1436:1437   */\n      0x00\n        /* \"#utility.yul\":1425:1434   */\n      dup4\n        /* \"#utility.yul\":1421:1438   */\n      add\n        /* \"#utility.yul\":1412:1418   */\n      dup5\n        /* \"#utility.yul\":1374:1439   */\n      tag_115\n      jump\t// in\n    tag_137:\n        /* \"#utility.yul\":1236:1446   */\n      swap3\n      swap2\n      pop\n      pop\n      jump\t// out\n        /* \"#utility.yul\":1452:1926   */\n    tag_33:\n        /* \"#utility.yul\":1520:1526   */\n      0x00\n        /* \"#utility.yul\":1528:1534   */\n      dup1\n        /* \"#utility.yul\":1577:1579   */\n      0x40\n        /* \"#utility.yul\":1565:1574   */\n      dup4\n        /* \"#utility.yul\":1556:1563   */\n      dup6\n        /* \"#utility.yul\":1552:1575   */\n      sub\n        /* \"#utility.yul\":1548:1580   */\n      slt\n        /* \"#utility.yul\":1545:1664   */\n      iszero\n      tag_139\n      jumpi\n        /* \"#utility.yul\":1583:1662   */\n      tag_140\n      tag_109\n      jump\t// in\n    tag_140:\n        /* \"#utility.yul\":1545:1664   */\n    tag_139:\n        /* \"#utility.yul\":1703:1704   */\n      0x00\n        /* \"#utility.yul\":1728:1781   */\n      tag_141\n        /* \"#utility.yul\":1773:1780   */\n      dup6\n        /* \"#utility.yul\":1764:1770   */\n      dup3\n        /* \"#utility.yul\":1753:1762   */\n      dup7\n        /* \"#utility.yul\":1749:1771   */\n      add\n        /* \"#utility.yul\":1728:1781   */\n      tag_113\n      jump\t// in\n    tag_141:\n        /* \"#utility.yul\":1718:1781   */\n      swap3\n      pop\n        /* \"#utility.yul\":1674:1791   */\n      pop\n        /* \"#utility.yul\":1830:1832   */\n      0x20\n        /* \"#utility.yul\":1856:1909   */\n      tag_142\n        /* \"#utility.yul\":1901:1908   */\n      dup6\n        /* \"#utility.yul\":1892:1898   */\n      dup3\n        /* \"#utility.yul\":1881:1890   */\n      dup7\n        /* \"#utility.yul\":1877:1899   */\n      add\n        /* \"#utility.yul\":1856:1909   */\n      tag_113\n      jump\t// in\n    tag_142:\n        /* \"#utility.yul\":1846:1909   */\n      swap2\n      pop\n        /* \"#utility.yul\":1801:1919   */\n      pop\n        /* \"#utility.yul\":1452:1926   */\n      swap3\n      pop\n      swap3\n      swap1\n      pop\n      jump\t// out\n        /* \"#utility.yul\":1932:2050   */\n    tag_116:\n        /* \"#utility.yul\":2019:2043   */\n      tag_144\n        /* \"#utility.yul\":2037:2042   */\n      dup2\n        /* \"#utility.yul\":2019:2043   */\n      tag_111\n      jump\t// in\n    tag_144:\n        /* \"#utility.yul\":2014:2017   */\n      dup3\n        /* \"#utility.yul\":2007:2044   */\n      mstore\n        /* \"#utility.yul\":1932:2050   */\n      pop\n      pop\n      jump\t// out\n        /* \"#utility.yul\":2056:2278   */\n    tag_36:\n        /* \"#utility.yul\":2149:2153   */\n      0x00\n        /* \"#utility.yul\":2187:2189   */\n      0x20\n        /* \"#utility.yul\":2176:2185   */\n      dup3\n        /* \"#utility.yul\":2172:2190   */\n      add\n        /* \"#utility.yul\":2164:2190   */\n      swap1\n      pop\n        /* \"#utility.yul\":2200:2271   */\n      tag_146\n        /* \"#utility.yul\":2268:2269   */\n      0x00\n        /* \"#utility.yul\":2257:2266   */\n      dup4\n        /* \"#utility.yul\":2253:2270   */\n      add\n        /* \"#utility.yul\":2244:2250   */\n      dup5\n        /* \"#utility.yul\":2200:2271   */\n      tag_116\n      jump\t// in\n    tag_146:\n        /* \"#utility.yul\":2056:2278   */\n      swap3\n      swap2\n      pop\n      pop\n      jump\t// out\n        /* \"#utility.yul\":2284:2464   */\n    tag_117:\n        /* \"#utility.yul\":2332:2409   */\n      0x4e487b7100000000000000000000000000000000000000000000000000000000\n        /* \"#utility.yul\":2329:2330   */\n      0x00\n        /* \"#utility.yul\":2322:2410   */\n      mstore\n        /* \"#utility.yul\":2429:2433   */\n      0x11\n        /* \"#utility.yul\":2426:2427   */\n      0x04\n        /* \"#utility.yul\":2419:2434   */\n      mstore\n        /* \"#utility.yul\":2453:2457   */\n      0x24\n        /* \"#utility.yul\":2450:2451   */\n      0x00\n        /* \"#utility.yul\":2443:2458   */\n      revert\n        /* \"#utility.yul\":2470:2818   */\n    tag_89:\n        /* \"#utility.yul\":2510:2517   */\n      0x00\n        /* \"#utility.yul\":2533:2553   */\n      tag_149\n        /* \"#utility.yul\":2551:2552   */\n      dup3\n        /* \"#utility.yul\":2533:2553   */\n      tag_111\n      jump\t// in\n    tag_149:\n        /* \"#utility.yul\":2528:2553   */\n      swap2\n      pop\n        /* \"#utility.yul\":2567:2587   */\n      tag_150\n        /* \"#utility.yul\":2585:2586   */\n      dup4\n        /* \"#utility.yul\":2567:2587   */\n      tag_111\n      jump\t// in\n    tag_150:\n        /* \"#utility.yul\":2562:2587   */\n      swap3\n      pop\n        /* \"#utility.yul\":2755:2756   */\n      dup2\n        /* \"#utility.yul\":2687:2753   */\n      0xffffffffffffffffffffffffffffffffffffffffffffffffffffffffffffffff\n        /* \"#utility.yul\":2683:2757   */\n      div\n        /* \"#utility.yul\":2680:2681   */\n      dup4\n        /* \"#utility.yul\":2677:2758   */\n      gt\n        /* \"#utility.yul\":2672:2673   */\n      dup3\n        /* \"#utility.yul\":2665:2674   */\n      iszero\n        /* \"#utility.yul\":2658:2675   */\n      iszero\n        /* \"#utility.yul\":2654:2759   */\n      and\n        /* \"#utility.yul\":2651:2782   */\n      iszero\n      tag_151\n      jumpi\n        /* \"#utility.yul\":2762:2780   */\n      tag_152\n      tag_117\n      jump\t// in\n    tag_152:\n        /* \"#utility.yul\":2651:2782   */\n    tag_151:\n        /* \"#utility.yul\":2810:2811   */\n      dup3\n        /* \"#utility.yul\":2807:2808   */\n      dup3\n        /* \"#utility.yul\":2803:2812   */\n      mul\n        /* \"#utility.yul\":2792:2812   */\n      swap1\n      pop\n        /* \"#utility.yul\":2470:2818   */\n      swap3\n      swap2\n      pop\n      pop\n      jump\t// out\n        /* \"#utility.yul\":2824:3129   */\n    tag_100:\n        /* \"#utility.yul\":2864:2867   */\n      0x00\n        /* \"#utility.yul\":2883:2903   */\n      tag_154\n        /* \"#utility.yul\":2901:2902   */\n      dup3\n        /* \"#utility.yul\":2883:2903   */\n      tag_111\n      jump\t// in\n    tag_154:\n        /* \"#utility.yul\":2878:2903   */\n      swap2\n      pop\n        /* \"#utility.yul\":2917:2937   */\n      tag_155\n        /* \"#utility.yul\":2935:2936   */\n      dup4\n        /* \"#utility.yul\":2917:2937   */\n      tag_111\n      jump\t// in\n    tag_155:\n        /* \"#utility.yul\":2912:2937   */\n      swap3\n      pop\n        /* \"#utility.yul\":3071:3072   */\n      dup3\n        /* \"#utility.yul\":3003:3069   */\n      0xffffffffffffffffffffffffffffffffffffffffffffffffffffffffffffffff\n        /* \"#utility.yul\":2999:3073   */\n      sub\n        /* \"#utility.yul\":2996:2997   */\n      dup3\n        /* \"#utility.yul\":2993:3074   */\n      gt\n        /* \"#utility.yul\":2990:3097   */\n      iszero\n      tag_156\n      jumpi\n        /* \"#utility.yul\":3077:3095   */\n      tag_157\n      tag_117\n      jump\t// in\n    tag_157:\n        /* \"#utility.yul\":2990:3097   */\n    tag_156:\n        /* \"#utility.yul\":3121:3122   */\n      dup3\n        /* \"#utility.yul\":3118:3119   */\n      dup3\n        /* \"#utility.yul\":3114:3123   */\n      add\n        /* \"#utility.yul\":3107:3123   */\n      swap1\n      pop\n        /* \"#utility.yul\":2824:3129   */\n      swap3\n      swap2\n      pop\n      pop\n      jump\t// out\n        /* \"#utility.yul\":3135:3326   */\n    tag_103:\n        /* \"#utility.yul\":3175:3179   */\n      0x00\n        /* \"#utility.yul\":3195:3215   */\n      tag_159\n        /* \"#utility.yul\":3213:3214   */\n      dup3\n        /* \"#utility.yul\":3195:3215   */\n      tag_111\n      jump\t// in\n    tag_159:\n        /* \"#utility.yul\":3190:3215   */\n      swap2\n      pop\n        /* \"#utility.yul\":3229:3249   */\n      tag_160\n        /* \"#utility.yul\":3247:3248   */\n      dup4\n        /* \"#utility.yul\":3229:3249   */\n      tag_111\n      jump\t// in\n    tag_160:\n        /* \"#utility.yul\":3224:3249   */\n      swap3\n      pop\n        /* \"#utility.yul\":3268:3269   */\n      dup3\n        /* \"#utility.yul\":3265:3266   */\n      dup3\n        /* \"#utility.yul\":3262:3270   */\n      lt\n        /* \"#utility.yul\":3259:3293   */\n      iszero\n      tag_161\n      jumpi\n        /* \"#utility.yul\":3273:3291   */\n      tag_162\n      tag_117\n      jump\t// in\n    tag_162:\n        /* \"#utility.yul\":3259:3293   */\n    tag_161:\n        /* \"#utility.yul\":3318:3319   */\n      dup3\n        /* \"#utility.yul\":3315:3316   */\n      dup3\n        /* \"#utility.yul\":3311:3320   */\n      sub\n        /* \"#utility.yul\":3303:3320   */\n      swap1\n      pop\n        /* \"#utility.yul\":3135:3326   */\n      swap3\n      swap2\n      pop\n      pop\n      jump\t// out\n        /* \"#utility.yul\":3332:3512   */\n    tag_118:\n        /* \"#utility.yul\":3380:3457   */\n      0x4e487b7100000000000000000000000000000000000000000000000000000000\n        /* \"#utility.yul\":3377:3378   */\n      0x00\n        /* \"#utility.yul\":3370:3458   */\n      mstore\n        /* \"#utility.yul\":3477:3481   */\n      0x12\n        /* \"#utility.yul\":3474:3475   */\n      0x04\n        /* \"#utility.yul\":3467:3482   */\n      mstore\n        /* \"#utility.yul\":3501:3505   */\n      0x24\n        /* \"#utility.yul\":3498:3499   */\n      0x00\n        /* \"#utility.yul\":3491:3506   */\n      revert\n        /* \"#utility.yul\":3518:3703   */\n    tag_106:\n        /* \"#utility.yul\":3558:3559   */\n      0x00\n        /* \"#utility.yul\":3575:3595   */\n      tag_165\n        /* \"#utility.yul\":3593:3594   */\n      dup3\n        /* \"#utility.yul\":3575:3595   */\n      tag_111\n      jump\t// in\n    tag_165:\n        /* \"#utility.yul\":3570:3595   */\n      swap2\n      pop\n        /* \"#utility.yul\":3609:3629   */\n      tag_166\n        /* \"#utility.yul\":3627:3628   */\n      dup4\n        /* \"#utility.yul\":3609:3629   */\n      tag_111\n      jump\t// in\n    tag_166:\n        /* \"#utility.yul\":3604:3629   */\n      swap3\n      pop\n        /* \"#utility.yul\":3648:3649   */\n      dup3\n        /* \"#utility.yul\":3638:3673   */\n      tag_167\n      jumpi\n        /* \"#utility.yul\":3653:3671   */\n      tag_168\n      tag_118\n      jump\t// in\n    tag_168:\n        /* \"#utility.yul\":3638:3673   */\n    tag_167:\n        /* \"#utility.yul\":3695:3696   */\n      dup3\n        /* \"#utility.yul\":3692:3693   */\n      dup3\n        /* \"#utility.yul\":3688:3697   */\n      div\n        /* \"#utility.yul\":3683:3697   */\n      swap1\n      pop\n        /* \"#utility.yul\":3518:3703   */\n      swap3\n      swap2\n      pop\n      pop\n      jump\t// out\n\n    auxdata: 0xa2646970667358221220f47f1cee029c693215363a8da14ae7f12886bc4c80ca2de541512154f1b3990964736f6c634300080d0033\n}\n",
				"bytecode": {
					"linkReferences": {},
					"object": "6080604052601760005534801561001557600080fd5b50610763806100256000396000f3fe608060405234801561001057600080fd5b50600436106100f55760003560e01c8063643a536611610097578063cad0899b11610066578063cad0899b1461030a578063cdeb33141461033a578063e00680521461036a578063e37caed81461039a576100f5565b8063643a53661461024a5780637602448b1461027a5780638a3759b9146102aa578063a589d212146102da576100f5565b80631685fa98116100d35780631685fa981461018a578063225ba612146101ba57806327377754146101ea5780633f775f6d1461021a576100f5565b806309a32210146100fa5780630be237cf1461012a578063165c4a161461015a575b600080fd5b610114600480360381019061010f91906104ed565b6103ca565b6040516101219190610535565b60405180910390f35b610144600480360381019061013f91906104ed565b6103d6565b6040516101519190610535565b60405180910390f35b610174600480360381019061016f9190610550565b6103e3565b604051610181919061059f565b60405180910390f35b6101a4600480360381019061019f9190610550565b6103f9565b6040516101b1919061059f565b60405180910390f35b6101d460048036038101906101cf91906104ed565b610407565b6040516101e19190610535565b60405180910390f35b61020460048036038101906101ff91906104ed565b610416565b6040516102119190610535565b60405180910390f35b610234600480360381019061022f91906104ed565b610422565b6040516102419190610535565b60405180910390f35b610264600480360381019061025f9190610550565b610430565b604051610271919061059f565b60405180910390f35b610294600480360381019061028f91906104ed565b61043d565b6040516102a1919061059f565b60405180910390f35b6102c460048036038101906102bf91906104ed565b610448565b6040516102d19190610535565b60405180910390f35b6102f460048036038101906102ef9190610550565b610455565b604051610301919061059f565b60405180910390f35b610324600480360381019061031f9190610550565b610463565b604051610331919061059f565b60405180910390f35b610354600480360381019061034f9190610550565b610479565b604051610361919061059f565b60405180910390f35b610384600480360381019061037f9190610550565b61048f565b604051610391919061059f565b60405180910390f35b6103b460048036038101906103af9190610550565b6104a5565b6040516103c1919061059f565b60405180910390f35b60008182119050919050565b6000818210159050919050565b600081836103f191906105e9565b905092915050565b60008183901c905092915050565b60008160005414159050919050565b60008182109050919050565b600081600054149050919050565b6000818316905092915050565b600081199050919050565b6000818211159050919050565b60008183901b905092915050565b600081836104719190610643565b905092915050565b600081836104879190610699565b905092915050565b6000818361049d91906106fc565b905092915050565b6000818318905092915050565b600080fd5b6000819050919050565b6104ca816104b7565b81146104d557600080fd5b50565b6000813590506104e7816104c1565b92915050565b600060208284031215610503576105026104b2565b5b6000610511848285016104d8565b91505092915050565b60008115159050919050565b61052f8161051a565b82525050565b600060208201905061054a6000830184610526565b92915050565b60008060408385031215610567576105666104b2565b5b6000610575858286016104d8565b9250506020610586858286016104d8565b9150509250929050565b610599816104b7565b82525050565b60006020820190506105b46000830184610590565b92915050565b7f4e487b7100000000000000000000000000000000000000000000000000000000600052601160045260246000fd5b60006105f4826104b7565b91506105ff836104b7565b9250817fffffffffffffffffffffffffffffffffffffffffffffffffffffffffffffffff0483118215151615610638576106376105ba565b5b828202905092915050565b600061064e826104b7565b9150610659836104b7565b9250827fffffffffffffffffffffffffffffffffffffffffffffffffffffffffffffffff0382111561068e5761068d6105ba565b5b828201905092915050565b60006106a4826104b7565b91506106af836104b7565b9250828210156106c2576106c16105ba565b5b828203905092915050565b7f4e487b7100000000000000000000000000000000000000000000000000000000600052601260045260246000fd5b6000610707826104b7565b9150610712836104b7565b925082610722576107216106cd565b5b82820490509291505056fea2646970667358221220f47f1cee029c693215363a8da14ae7f12886bc4c80ca2de541512154f1b3990964736f6c634300080d0033",
					"opcodes": "PUSH1 0x80 PUSH1 0x40 MSTORE PUSH1 0x17 PUSH1 0x0 SSTORE CALLVALUE DUP1 ISZERO PUSH2 0x15 JUMPI PUSH1 0x0 DUP1 REVERT JUMPDEST POP PUSH2 0x763 DUP1 PUSH2 0x25 PUSH1 0x0 CODECOPY PUSH1 0x0 RETURN INVALID PUSH1 0x80 PUSH1 0x40 MSTORE CALLVALUE DUP1 ISZERO PUSH2 0x10 JUMPI PUSH1 0x0 DUP1 REVERT JUMPDEST POP PUSH1 0x4 CALLDATASIZE LT PUSH2 0xF5 JUMPI PUSH1 0x0 CALLDATALOAD PUSH1 0xE0 SHR DUP1 PUSH4 0x643A5366 GT PUSH2 0x97 JUMPI DUP1 PUSH4 0xCAD0899B GT PUSH2 0x66 JUMPI DUP1 PUSH4 0xCAD0899B EQ PUSH2 0x30A JUMPI DUP1 PUSH4 0xCDEB3314 EQ PUSH2 0x33A JUMPI DUP1 PUSH4 0xE0068052 EQ PUSH2 0x36A JUMPI DUP1 PUSH4 0xE37CAED8 EQ PUSH2 0x39A JUMPI PUSH2 0xF5 JUMP JUMPDEST DUP1 PUSH4 0x643A5366 EQ PUSH2 0x24A JUMPI DUP1 PUSH4 0x7602448B EQ PUSH2 0x27A JUMPI DUP1 PUSH4 0x8A3759B9 EQ PUSH2 0x2AA JUMPI DUP1 PUSH4 0xA589D212 EQ PUSH2 0x2DA JUMPI PUSH2 0xF5 JUMP JUMPDEST DUP1 PUSH4 0x1685FA98 GT PUSH2 0xD3 JUMPI DUP1 PUSH4 0x1685FA98 EQ PUSH2 0x18A JUMPI DUP1 PUSH4 0x225BA612 EQ PUSH2 0x1BA JUMPI DUP1 PUSH4 0x27377754 EQ PUSH2 0x1EA JUMPI DUP1 PUSH4 0x3F775F6D EQ PUSH2 0x21A JUMPI PUSH2 0xF5 JUMP JUMPDEST DUP1 PUSH4 0x9A32210 EQ PUSH2 0xFA JUMPI DUP1 PUSH4 0xBE237CF EQ PUSH2 0x12A JUMPI DUP1 PUSH4 0x165C4A16 EQ PUSH2 0x15A JUMPI JUMPDEST PUSH1 0x0 DUP1 REVERT JUMPDEST PUSH2 0x114 PUSH1 0x4 DUP1 CALLDATASIZE SUB DUP2 ADD SWAP1 PUSH2 0x10F SWAP2 SWAP1 PUSH2 0x4ED JUMP JUMPDEST PUSH2 0x3CA JUMP JUMPDEST PUSH1 0x40 MLOAD PUSH2 0x121 SWAP2 SWAP1 PUSH2 0x535 JUMP JUMPDEST PUSH1 0x40 MLOAD DUP1 SWAP2 SUB SWAP1 RETURN JUMPDEST PUSH2 0x144 PUSH1 0x4 DUP1 CALLDATASIZE SUB DUP2 ADD SWAP1 PUSH2 0x13F SWAP2 SWAP1 PUSH2 0x4ED JUMP JUMPDEST PUSH2 0x3D6 JUMP JUMPDEST PUSH1 0x40 MLOAD PUSH2 0x151 SWAP2 SWAP1 PUSH2 0x535 JUMP JUMPDEST PUSH1 0x40 MLOAD DUP1 SWAP2 SUB SWAP1 RETURN JUMPDEST PUSH2 0x174 PUSH1 0x4 DUP1 CALLDATASIZE SUB DUP2 ADD SWAP1 PUSH2 0x16F SWAP2 SWAP1 PUSH2 0x550 JUMP JUMPDEST PUSH2 0x3E3 JUMP JUMPDEST PUSH1 0x40 MLOAD PUSH2 0x181 SWAP2 SWAP1 PUSH2 0x59F JUMP JUMPDEST PUSH1 0x40 MLOAD DUP1 SWAP2 SUB SWAP1 RETURN JUMPDEST PUSH2 0x1A4 PUSH1 0x4 DUP1 CALLDATASIZE SUB DUP2 ADD SWAP1 PUSH2 0x19F SWAP2 SWAP1 PUSH2 0x550 JUMP JUMPDEST PUSH2 0x3F9 JUMP JUMPDEST PUSH1 0x40 MLOAD PUSH2 0x1B1 SWAP2 SWAP1 PUSH2 0x59F JUMP JUMPDEST PUSH1 0x40 MLOAD DUP1 SWAP2 SUB SWAP1 RETURN JUMPDEST PUSH2 0x1D4 PUSH1 0x4 DUP1 CALLDATASIZE SUB DUP2 ADD SWAP1 PUSH2 0x1CF SWAP2 SWAP1 PUSH2 0x4ED JUMP JUMPDEST PUSH2 0x407 JUMP JUMPDEST PUSH1 0x40 MLOAD PUSH2 0x1E1 SWAP2 SWAP1 PUSH2 0x535 JUMP JUMPDEST PUSH1 0x40 MLOAD DUP1 SWAP2 SUB SWAP1 RETURN JUMPDEST PUSH2 0x204 PUSH1 0x4 DUP1 CALLDATASIZE SUB DUP2 ADD SWAP1 PUSH2 0x1FF SWAP2 SWAP1 PUSH2 0x4ED JUMP JUMPDEST PUSH2 0x416 JUMP JUMPDEST PUSH1 0x40 MLOAD PUSH2 0x211 SWAP2 SWAP1 PUSH2 0x535 JUMP JUMPDEST PUSH1 0x40 MLOAD DUP1 SWAP2 SUB SWAP1 RETURN JUMPDEST PUSH2 0x234 PUSH1 0x4 DUP1 CALLDATASIZE SUB DUP2 ADD SWAP1 PUSH2 0x22F SWAP2 SWAP1 PUSH2 0x4ED JUMP JUMPDEST PUSH2 0x422 JUMP JUMPDEST PUSH1 0x40 MLOAD PUSH2 0x241 SWAP2 SWAP1 PUSH2 0x535 JUMP JUMPDEST PUSH1 0x40 MLOAD DUP1 SWAP2 SUB SWAP1 RETURN JUMPDEST PUSH2 0x264 PUSH1 0x4 DUP1 CALLDATASIZE SUB DUP2 ADD SWAP1 PUSH2 0x25F SWAP2 SWAP1 PUSH2 0x550 JUMP JUMPDEST PUSH2 0x430 JUMP JUMPDEST PUSH1 0x40 MLOAD PUSH2 0x271 SWAP2 SWAP1 PUSH2 0x59F JUMP JUMPDEST PUSH1 0x40 MLOAD DUP1 SWAP2 SUB SWAP1 RETURN JUMPDEST PUSH2 0x294 PUSH1 0x4 DUP1 CALLDATASIZE SUB DUP2 ADD SWAP1 PUSH2 0x28F SWAP2 SWAP1 PUSH2 0x4ED JUMP JUMPDEST PUSH2 0x43D JUMP JUMPDEST PUSH1 0x40 MLOAD PUSH2 0x2A1 SWAP2 SWAP1 PUSH2 0x59F JUMP JUMPDEST PUSH1 0x40 MLOAD DUP1 SWAP2 SUB SWAP1 RETURN JUMPDEST PUSH2 0x2C4 PUSH1 0x4 DUP1 CALLDATASIZE SUB DUP2 ADD SWAP1 PUSH2 0x2BF SWAP2 SWAP1 PUSH2 0x4ED JUMP JUMPDEST PUSH2 0x448 JUMP JUMPDEST PUSH1 0x40 MLOAD PUSH2 0x2D1 SWAP2 SWAP1 PUSH2 0x535 JUMP JUMPDEST PUSH1 0x40 MLOAD DUP1 SWAP2 SUB SWAP1 RETURN JUMPDEST PUSH2 0x2F4 PUSH1 0x4 DUP1 CALLDATASIZE SUB DUP2 ADD SWAP1 PUSH2 0x2EF SWAP2 SWAP1 PUSH2 0x550 JUMP JUMPDEST PUSH2 0x455 JUMP JUMPDEST PUSH1 0x40 MLOAD PUSH2 0x301 SWAP2 SWAP1 PUSH2 0x59F JUMP JUMPDEST PUSH1 0x40 MLOAD DUP1 SWAP2 SUB SWAP1 RETURN JUMPDEST PUSH2 0x324 PUSH1 0x4 DUP1 CALLDATASIZE SUB DUP2 ADD SWAP1 PUSH2 0x31F SWAP2 SWAP1 PUSH2 0x550 JUMP JUMPDEST PUSH2 0x463 JUMP JUMPDEST PUSH1 0x40 MLOAD PUSH2 0x331 SWAP2 SWAP1 PUSH2 0x59F JUMP JUMPDEST PUSH1 0x40 MLOAD DUP1 SWAP2 SUB SWAP1 RETURN JUMPDEST PUSH2 0x354 PUSH1 0x4 DUP1 CALLDATASIZE SUB DUP2 ADD SWAP1 PUSH2 0x34F SWAP2 SWAP1 PUSH2 0x550 JUMP JUMPDEST PUSH2 0x479 JUMP JUMPDEST PUSH1 0x40 MLOAD PUSH2 0x361 SWAP2 SWAP1 PUSH2 0x59F JUMP JUMPDEST PUSH1 0x40 MLOAD DUP1 SWAP2 SUB SWAP1 RETURN JUMPDEST PUSH2 0x384 PUSH1 0x4 DUP1 CALLDATASIZE SUB DUP2 ADD SWAP1 PUSH2 0x37F SWAP2 SWAP1 PUSH2 0x550 JUMP JUMPDEST PUSH2 0x48F JUMP JUMPDEST PUSH1 0x40 MLOAD PUSH2 0x391 SWAP2 SWAP1 PUSH2 0x59F JUMP JUMPDEST PUSH1 0x40 MLOAD DUP1 SWAP2 SUB SWAP1 RETURN JUMPDEST PUSH2 0x3B4 PUSH1 0x4 DUP1 CALLDATASIZE SUB DUP2 ADD SWAP1 PUSH2 0x3AF SWAP2 SWAP1 PUSH2 0x550 JUMP JUMPDEST PUSH2 0x4A5 JUMP JUMPDEST PUSH1 0x40 MLOAD PUSH2 0x3C1 SWAP2 SWAP1 PUSH2 0x59F JUMP JUMPDEST PUSH1 0x40 MLOAD DUP1 SWAP2 SUB SWAP1 RETURN JUMPDEST PUSH1 0x0 DUP2 DUP3 GT SWAP1 POP SWAP2 SWAP1 POP JUMP JUMPDEST PUSH1 0x0 DUP2 DUP3 LT ISZERO SWAP1 POP SWAP2 SWAP1 POP JUMP JUMPDEST PUSH1 0x0 DUP2 DUP4 PUSH2 0x3F1 SWAP2 SWAP1 PUSH2 0x5E9 JUMP JUMPDEST SWAP1 POP SWAP3 SWAP2 POP POP JUMP JUMPDEST PUSH1 0x0 DUP2 DUP4 SWAP1 SHR SWAP1 POP SWAP3 SWAP2 POP POP JUMP JUMPDEST PUSH1 0x0 DUP2 PUSH1 0x0 SLOAD EQ ISZERO SWAP1 POP SWAP2 SWAP1 POP JUMP JUMPDEST PUSH1 0x0 DUP2 DUP3 LT SWAP1 POP SWAP2 SWAP1 POP JUMP JUMPDEST PUSH1 0x0 DUP2 PUSH1 0x0 SLOAD EQ SWAP1 POP SWAP2 SWAP1 POP JUMP JUMPDEST PUSH1 0x0 DUP2 DUP4 AND SWAP1 POP SWAP3 SWAP2 POP POP JUMP JUMPDEST PUSH1 0x0 DUP2 NOT SWAP1 POP SWAP2 SWAP1 POP JUMP JUMPDEST PUSH1 0x0 DUP2 DUP3 GT ISZERO SWAP1 POP SWAP2 SWAP1 POP JUMP JUMPDEST PUSH1 0x0 DUP2 DUP4 SWAP1 SHL SWAP1 POP SWAP3 SWAP2 POP POP JUMP JUMPDEST PUSH1 0x0 DUP2 DUP4 PUSH2 0x471 SWAP2 SWAP1 PUSH2 0x643 JUMP JUMPDEST SWAP1 POP SWAP3 SWAP2 POP POP JUMP JUMPDEST PUSH1 0x0 DUP2 DUP4 PUSH2 0x487 SWAP2 SWAP1 PUSH2 0x699 JUMP JUMPDEST SWAP1 POP SWAP3 SWAP2 POP POP JUMP JUMPDEST PUSH1 0x0 DUP2 DUP4 PUSH2 0x49D SWAP2 SWAP1 PUSH2 0x6FC JUMP JUMPDEST SWAP1 POP SWAP3 SWAP2 POP POP JUMP JUMPDEST PUSH1 0x0 DUP2 DUP4 XOR SWAP1 POP SWAP3 SWAP2 POP POP JUMP JUMPDEST PUSH1 0x0 DUP1 REVERT JUMPDEST PUSH1 0x0 DUP2 SWAP1 POP SWAP2 SWAP1 POP JUMP JUMPDEST PUSH2 0x4CA DUP2 PUSH2 0x4B7 JUMP JUMPDEST DUP2 EQ PUSH2 0x4D5 JUMPI PUSH1 0x0 DUP1 REVERT JUMPDEST POP JUMP JUMPDEST PUSH1 0x0 DUP2 CALLDATALOAD SWAP1 POP PUSH2 0x4E7 DUP2 PUSH2 0x4C1 JUMP JUMPDEST SWAP3 SWAP2 POP POP JUMP JUMPDEST PUSH1 0x0 PUSH1 0x20 DUP3 DUP5 SUB SLT ISZERO PUSH2 0x503 JUMPI PUSH2 0x502 PUSH2 0x4B2 JUMP JUMPDEST JUMPDEST PUSH1 0x0 PUSH2 0x511 DUP5 DUP3 DUP6 ADD PUSH2 0x4D8 JUMP JUMPDEST SWAP2 POP POP SWAP3 SWAP2 POP POP JUMP JUMPDEST PUSH1 0x0 DUP2 ISZERO ISZERO SWAP1 POP SWAP2 SWAP1 POP JUMP JUMPDEST PUSH2 0x52F DUP2 PUSH2 0x51A JUMP JUMPDEST DUP3 MSTORE POP POP JUMP JUMPDEST PUSH1 0x0 PUSH1 0x20 DUP3 ADD SWAP1 POP PUSH2 0x54A PUSH1 0x0 DUP4 ADD DUP5 PUSH2 0x526 JUMP JUMPDEST SWAP3 SWAP2 POP POP JUMP JUMPDEST PUSH1 0x0 DUP1 PUSH1 0x40 DUP4 DUP6 SUB SLT ISZERO PUSH2 0x567 JUMPI PUSH2 0x566 PUSH2 0x4B2 JUMP JUMPDEST JUMPDEST PUSH1 0x0 PUSH2 0x575 DUP6 DUP3 DUP7 ADD PUSH2 0x4D8 JUMP JUMPDEST SWAP3 POP POP PUSH1 0x20 PUSH2 0x586 DUP6 DUP3 DUP7 ADD PUSH2 0x4D8 JUMP JUMPDEST SWAP2 POP POP SWAP3 POP SWAP3 SWAP1 POP JUMP JUMPDEST PUSH2 0x599 DUP2 PUSH2 0x4B7 JUMP JUMPDEST DUP3 MSTORE POP POP JUMP JUMPDEST PUSH1 0x0 PUSH1 0x20 DUP3 ADD SWAP1 POP PUSH2 0x5B4 PUSH1 0x0 DUP4 ADD DUP5 PUSH2 0x590 JUMP JUMPDEST SWAP3 SWAP2 POP POP JUMP JUMPDEST PUSH32 0x4E487B7100000000000000000000000000000000000000000000000000000000 PUSH1 0x0 MSTORE PUSH1 0x11 PUSH1 0x4 MSTORE PUSH1 0x24 PUSH1 0x0 REVERT JUMPDEST PUSH1 0x0 PUSH2 0x5F4 DUP3 PUSH2 0x4B7 JUMP JUMPDEST SWAP2 POP PUSH2 0x5FF DUP4 PUSH2 0x4B7 JUMP JUMPDEST SWAP3 POP DUP2 PUSH32 0xFFFFFFFFFFFFFFFFFFFFFFFFFFFFFFFFFFFFFFFFFFFFFFFFFFFFFFFFFFFFFFFF DIV DUP4 GT DUP3 ISZERO ISZERO AND ISZERO PUSH2 0x638 JUMPI PUSH2 0x637 PUSH2 0x5BA JUMP JUMPDEST JUMPDEST DUP3 DUP3 MUL SWAP1 POP SWAP3 SWAP2 POP POP JUMP JUMPDEST PUSH1 0x0 PUSH2 0x64E DUP3 PUSH2 0x4B7 JUMP JUMPDEST SWAP2 POP PUSH2 0x659 DUP4 PUSH2 0x4B7 JUMP JUMPDEST SWAP3 POP DUP3 PUSH32 0xFFFFFFFFFFFFFFFFFFFFFFFFFFFFFFFFFFFFFFFFFFFFFFFFFFFFFFFFFFFFFFFF SUB DUP3 GT ISZERO PUSH2 0x68E JUMPI PUSH2 0x68D PUSH2 0x5BA JUMP JUMPDEST JUMPDEST DUP3 DUP3 ADD SWAP1 POP SWAP3 SWAP2 POP POP JUMP JUMPDEST PUSH1 0x0 PUSH2 0x6A4 DUP3 PUSH2 0x4B7 JUMP JUMPDEST SWAP2 POP PUSH2 0x6AF DUP4 PUSH2 0x4B7 JUMP JUMPDEST SWAP3 POP DUP3 DUP3 LT ISZERO PUSH2 0x6C2 JUMPI PUSH2 0x6C1 PUSH2 0x5BA JUMP JUMPDEST JUMPDEST DUP3 DUP3 SUB SWAP1 POP SWAP3 SWAP2 POP POP JUMP JUMPDEST PUSH32 0x4E487B7100000000000000000000000000000000000000000000000000000000 PUSH1 0x0 MSTORE PUSH1 0x12 PUSH1 0x4 MSTORE PUSH1 0x24 PUSH1 0x0 REVERT JUMPDEST PUSH1 0x0 PUSH2 0x707 DUP3 PUSH2 0x4B7 JUMP JUMPDEST SWAP2 POP PUSH2 0x712 DUP4 PUSH2 0x4B7 JUMP JUMPDEST SWAP3 POP DUP3 PUSH2 0x722 JUMPI PUSH2 0x721 PUSH2 0x6CD JUMP JUMPDEST JUMPDEST DUP3 DUP3 DIV SWAP1 POP SWAP3 SWAP2 POP POP JUMP INVALID LOG2 PUSH5 0x6970667358 0x22 SLT KECCAK256 DELEGATECALL PUSH32 0x1CEE029C693215363A8DA14AE7F12886BC4C80CA2DE541512154F1B399096473 PUSH16 0x6C634300080D00330000000000000000 "
				},
				"gasEstimates": {
					"creation": {
						"codeDepositCost": "378200",
						"executionCost": "22524",
						"totalCost": "400724"
					},
					"external": {
						"bitwiseAnd(uint256,uint256)": "infinite",
						"bitwiseNot(uint256)": "infinite",
						"bitwiseXOR(uint256,uint256)": "infinite",
						"division(uint256,uint256)": "infinite",
						"isEqual(uint256)": "2803",
						"isGreater(uint256)": "638",
						"isGreaterOrEqual(uint256)": "663",
						"isLess(uint256)": "681",
						"isLessOrEqual(uint256)": "684",
						"isNotEqual(uint256)": "2762",
						"multiply(uint256,uint256)": "infinite",
						"shiftLeft(uint256,uint256)": "infinite",
						"shiftRight(uint256,uint256)": "infinite",
						"substraction(uint256,uint256)": "infinite",
						"sum(uint256,uint256)": "infinite"
					}
				},
				"methodIdentifiers": {
					"bitwiseAnd(uint256,uint256)": "643a5366",
					"bitwiseNot(uint256)": "7602448b",
					"bitwiseXOR(uint256,uint256)": "e37caed8",
					"division(uint256,uint256)": "e0068052",
					"isEqual(uint256)": "3f775f6d",
					"isGreater(uint256)": "09a32210",
					"isGreaterOrEqual(uint256)": "0be237cf",
					"isLess(uint256)": "27377754",
					"isLessOrEqual(uint256)": "8a3759b9",
					"isNotEqual(uint256)": "225ba612",
					"multiply(uint256,uint256)": "165c4a16",
					"shiftLeft(uint256,uint256)": "a589d212",
					"shiftRight(uint256,uint256)": "1685fa98",
					"substraction(uint256,uint256)": "cdeb3314",
					"sum(uint256,uint256)": "cad0899b"
				}
			},
			"storageLayout": {
				"storage": [
					{
						"astId": 5,
						"contract": "contracts/Integer.sol:Integer",
						"label": "number",
						"offset": 0,
						"slot": "0",
						"type": "t_uint256"
					}
				],
				"types": {
					"t_uint256": {
						"encoding": "inplace",
						"label": "uint256",
						"numberOfBytes": "32"
					}
				}
			},
			"userdoc": {
				"kind": "user",
				"methods": {},
				"version": 1
			}
		}
	}
}