{
	"contracts/CrowdFunding.sol": {
		"CrowdFunding": {
			"abi": [
				{
					"inputs": [
						{
							"internalType": "uint256",
							"name": "_targetAmount",
							"type": "uint256"
						},
						{
							"internalType": "uint256",
							"name": "_deadline",
							"type": "uint256"
						}
					],
					"stateMutability": "nonpayable",
					"type": "constructor"
				},
				{
					"inputs": [
						{
							"internalType": "address",
							"name": "",
							"type": "address"
						}
					],
					"name": "contributors",
					"outputs": [
						{
							"internalType": "uint256",
							"name": "",
							"type": "uint256"
						}
					],
					"stateMutability": "view",
					"type": "function"
				},
				{
					"inputs": [
						{
							"internalType": "string",
							"name": "_cause",
							"type": "string"
						},
						{
							"internalType": "address payable",
							"name": "_recipient",
							"type": "address"
						},
						{
							"internalType": "uint256",
							"name": "_value",
							"type": "uint256"
						}
					],
					"name": "createFundRequest",
					"outputs": [],
					"stateMutability": "nonpayable",
					"type": "function"
				},
				{
					"inputs": [],
					"name": "deadline",
					"outputs": [
						{
							"internalType": "uint256",
							"name": "",
							"type": "uint256"
						}
					],
					"stateMutability": "view",
					"type": "function"
				},
				{
					"inputs": [],
					"name": "getContractBalance",
					"outputs": [
						{
							"internalType": "uint256",
							"name": "",
							"type": "uint256"
						}
					],
					"stateMutability": "view",
					"type": "function"
				},
				{
					"inputs": [
						{
							"internalType": "uint256",
							"name": "_requestNumber",
							"type": "uint256"
						}
					],
					"name": "makePaymentToRecipient",
					"outputs": [],
					"stateMutability": "nonpayable",
					"type": "function"
				},
				{
					"inputs": [],
					"name": "manager",
					"outputs": [
						{
							"internalType": "address",
							"name": "",
							"type": "address"
						}
					],
					"stateMutability": "view",
					"type": "function"
				},
				{
					"inputs": [],
					"name": "minimumContribution",
					"outputs": [
						{
							"internalType": "uint256",
							"name": "",
							"type": "uint256"
						}
					],
					"stateMutability": "view",
					"type": "function"
				},
				{
					"inputs": [],
					"name": "raisedAmount",
					"outputs": [
						{
							"internalType": "uint256",
							"name": "",
							"type": "uint256"
						}
					],
					"stateMutability": "view",
					"type": "function"
				},
				{
					"inputs": [],
					"name": "refundEther",
					"outputs": [],
					"stateMutability": "nonpayable",
					"type": "function"
				},
				{
					"inputs": [],
					"name": "requestNumber",
					"outputs": [
						{
							"internalType": "uint256",
							"name": "",
							"type": "uint256"
						}
					],
					"stateMutability": "view",
					"type": "function"
				},
				{
					"inputs": [
						{
							"internalType": "uint256",
							"name": "",
							"type": "uint256"
						}
					],
					"name": "requests",
					"outputs": [
						{
							"internalType": "string",
							"name": "cause",
							"type": "string"
						},
						{
							"internalType": "uint256",
							"name": "value",
							"type": "uint256"
						},
						{
							"internalType": "address payable",
							"name": "recipient",
							"type": "address"
						},
						{
							"internalType": "bool",
							"name": "completed",
							"type": "bool"
						},
						{
							"internalType": "uint256",
							"name": "totalVoters",
							"type": "uint256"
						}
					],
					"stateMutability": "view",
					"type": "function"
				},
				{
					"inputs": [],
					"name": "sendEther",
					"outputs": [],
					"stateMutability": "payable",
					"type": "function"
				},
				{
					"inputs": [],
					"name": "target",
					"outputs": [
						{
							"internalType": "uint256",
							"name": "",
							"type": "uint256"
						}
					],
					"stateMutability": "view",
					"type": "function"
				},
				{
					"inputs": [],
					"name": "totalContibutors",
					"outputs": [
						{
							"internalType": "uint256",
							"name": "",
							"type": "uint256"
						}
					],
					"stateMutability": "view",
					"type": "function"
				},
				{
					"inputs": [
						{
							"internalType": "uint256",
							"name": "_requestNumber",
							"type": "uint256"
						}
					],
					"name": "voteRequest",
					"outputs": [],
					"stateMutability": "nonpayable",
					"type": "function"
				}
			],
			"devdoc": {
				"author": "0xVeliUysal",
				"details": "Simple Crowd Funding Example",
				"kind": "dev",
				"methods": {},
				"version": 1
			},
			"evm": {
				"assembly": "    /* \"contracts/CrowdFunding.sol\":141:4204  contract CrowdFunding {... */\n  mstore(0x40, 0x80)\n    /* \"contracts/CrowdFunding.sol\":786:991  constructor (uint _targetAmount, uint _deadline){... */\n  callvalue\n  dup1\n  iszero\n  tag_1\n  jumpi\n  0x00\n  dup1\n  revert\ntag_1:\n  pop\n  mload(0x40)\n  sub(codesize, bytecodeSize)\n  dup1\n  bytecodeSize\n  dup4\n  codecopy\n  dup2\n  dup2\n  add\n  0x40\n  mstore\n  dup2\n  add\n  swap1\n  tag_2\n  swap2\n  swap1\n  tag_3\n  jump\t// in\ntag_2:\n    /* \"contracts/CrowdFunding.sol\":853:866  _targetAmount */\n  dup2\n    /* \"contracts/CrowdFunding.sol\":844:850  target */\n  0x04\n    /* \"contracts/CrowdFunding.sol\":844:866  target = _targetAmount */\n  dup2\n  swap1\n  sstore\n  pop\n    /* \"contracts/CrowdFunding.sol\":898:906  .1 ether */\n  0x016345785d8a0000\n    /* \"contracts/CrowdFunding.sol\":876:895  minimumContribution */\n  0x02\n    /* \"contracts/CrowdFunding.sol\":876:906  minimumContribution = .1 ether */\n  dup2\n  swap1\n  sstore\n  pop\n    /* \"contracts/CrowdFunding.sol\":945:954  _deadline */\n  dup1\n    /* \"contracts/CrowdFunding.sol\":927:942  block.timestamp */\n  timestamp\n    /* \"contracts/CrowdFunding.sol\":927:954  block.timestamp + _deadline */\n  tag_6\n  swap2\n  swap1\n  tag_7\n  jump\t// in\ntag_6:\n    /* \"contracts/CrowdFunding.sol\":916:924  deadline */\n  0x03\n    /* \"contracts/CrowdFunding.sol\":916:954  deadline = block.timestamp + _deadline */\n  dup2\n  swap1\n  sstore\n  pop\n    /* \"contracts/CrowdFunding.sol\":974:984  msg.sender */\n  caller\n    /* \"contracts/CrowdFunding.sol\":964:971  manager */\n  0x01\n  0x00\n    /* \"contracts/CrowdFunding.sol\":964:984  manager = msg.sender */\n  0x0100\n  exp\n  dup2\n  sload\n  dup2\n  0xffffffffffffffffffffffffffffffffffffffff\n  mul\n  not\n  and\n  swap1\n  dup4\n  0xffffffffffffffffffffffffffffffffffffffff\n  and\n  mul\n  or\n  swap1\n  sstore\n  pop\n    /* \"contracts/CrowdFunding.sol\":786:991  constructor (uint _targetAmount, uint _deadline){... */\n  pop\n  pop\n    /* \"contracts/CrowdFunding.sol\":141:4204  contract CrowdFunding {... */\n  jump(tag_8)\n    /* \"#utility.yul\":88:205   */\ntag_10:\n    /* \"#utility.yul\":197:198   */\n  0x00\n    /* \"#utility.yul\":194:195   */\n  dup1\n    /* \"#utility.yul\":187:199   */\n  revert\n    /* \"#utility.yul\":334:411   */\ntag_12:\n    /* \"#utility.yul\":371:378   */\n  0x00\n    /* \"#utility.yul\":400:405   */\n  dup2\n    /* \"#utility.yul\":389:405   */\n  swap1\n  pop\n    /* \"#utility.yul\":334:411   */\n  swap2\n  swap1\n  pop\n  jump\t// out\n    /* \"#utility.yul\":417:539   */\ntag_13:\n    /* \"#utility.yul\":490:514   */\n  tag_22\n    /* \"#utility.yul\":508:513   */\n  dup2\n    /* \"#utility.yul\":490:514   */\n  tag_12\n  jump\t// in\ntag_22:\n    /* \"#utility.yul\":483:488   */\n  dup2\n    /* \"#utility.yul\":480:515   */\n  eq\n    /* \"#utility.yul\":470:533   */\n  tag_23\n  jumpi\n    /* \"#utility.yul\":529:530   */\n  0x00\n    /* \"#utility.yul\":526:527   */\n  dup1\n    /* \"#utility.yul\":519:531   */\n  revert\n    /* \"#utility.yul\":470:533   */\ntag_23:\n    /* \"#utility.yul\":417:539   */\n  pop\n  jump\t// out\n    /* \"#utility.yul\":545:688   */\ntag_14:\n    /* \"#utility.yul\":602:607   */\n  0x00\n    /* \"#utility.yul\":633:639   */\n  dup2\n    /* \"#utility.yul\":627:640   */\n  mload\n    /* \"#utility.yul\":618:640   */\n  swap1\n  pop\n    /* \"#utility.yul\":649:682   */\n  tag_25\n    /* \"#utility.yul\":676:681   */\n  dup2\n    /* \"#utility.yul\":649:682   */\n  tag_13\n  jump\t// in\ntag_25:\n    /* \"#utility.yul\":545:688   */\n  swap3\n  swap2\n  pop\n  pop\n  jump\t// out\n    /* \"#utility.yul\":694:1201   */\ntag_3:\n    /* \"#utility.yul\":773:779   */\n  0x00\n    /* \"#utility.yul\":781:787   */\n  dup1\n    /* \"#utility.yul\":830:832   */\n  0x40\n    /* \"#utility.yul\":818:827   */\n  dup4\n    /* \"#utility.yul\":809:816   */\n  dup6\n    /* \"#utility.yul\":805:828   */\n  sub\n    /* \"#utility.yul\":801:833   */\n  slt\n    /* \"#utility.yul\":798:917   */\n  iszero\n  tag_27\n  jumpi\n    /* \"#utility.yul\":836:915   */\n  tag_28\n  tag_10\n  jump\t// in\ntag_28:\n    /* \"#utility.yul\":798:917   */\ntag_27:\n    /* \"#utility.yul\":956:957   */\n  0x00\n    /* \"#utility.yul\":981:1045   */\n  tag_29\n    /* \"#utility.yul\":1037:1044   */\n  dup6\n    /* \"#utility.yul\":1028:1034   */\n  dup3\n    /* \"#utility.yul\":1017:1026   */\n  dup7\n    /* \"#utility.yul\":1013:1035   */\n  add\n    /* \"#utility.yul\":981:1045   */\n  tag_14\n  jump\t// in\ntag_29:\n    /* \"#utility.yul\":971:1045   */\n  swap3\n  pop\n    /* \"#utility.yul\":927:1055   */\n  pop\n    /* \"#utility.yul\":1094:1096   */\n  0x20\n    /* \"#utility.yul\":1120:1184   */\n  tag_30\n    /* \"#utility.yul\":1176:1183   */\n  dup6\n    /* \"#utility.yul\":1167:1173   */\n  dup3\n    /* \"#utility.yul\":1156:1165   */\n  dup7\n    /* \"#utility.yul\":1152:1174   */\n  add\n    /* \"#utility.yul\":1120:1184   */\n  tag_14\n  jump\t// in\ntag_30:\n    /* \"#utility.yul\":1110:1184   */\n  swap2\n  pop\n    /* \"#utility.yul\":1065:1194   */\n  pop\n    /* \"#utility.yul\":694:1201   */\n  swap3\n  pop\n  swap3\n  swap1\n  pop\n  jump\t// out\n    /* \"#utility.yul\":1207:1387   */\ntag_15:\n    /* \"#utility.yul\":1255:1332   */\n  0x4e487b7100000000000000000000000000000000000000000000000000000000\n    /* \"#utility.yul\":1252:1253   */\n  0x00\n    /* \"#utility.yul\":1245:1333   */\n  mstore\n    /* \"#utility.yul\":1352:1356   */\n  0x11\n    /* \"#utility.yul\":1349:1350   */\n  0x04\n    /* \"#utility.yul\":1342:1357   */\n  mstore\n    /* \"#utility.yul\":1376:1380   */\n  0x24\n    /* \"#utility.yul\":1373:1374   */\n  0x00\n    /* \"#utility.yul\":1366:1381   */\n  revert\n    /* \"#utility.yul\":1393:1698   */\ntag_7:\n    /* \"#utility.yul\":1433:1436   */\n  0x00\n    /* \"#utility.yul\":1452:1472   */\n  tag_33\n    /* \"#utility.yul\":1470:1471   */\n  dup3\n    /* \"#utility.yul\":1452:1472   */\n  tag_12\n  jump\t// in\ntag_33:\n    /* \"#utility.yul\":1447:1472   */\n  swap2\n  pop\n    /* \"#utility.yul\":1486:1506   */\n  tag_34\n    /* \"#utility.yul\":1504:1505   */\n  dup4\n    /* \"#utility.yul\":1486:1506   */\n  tag_12\n  jump\t// in\ntag_34:\n    /* \"#utility.yul\":1481:1506   */\n  swap3\n  pop\n    /* \"#utility.yul\":1640:1641   */\n  dup3\n    /* \"#utility.yul\":1572:1638   */\n  0xffffffffffffffffffffffffffffffffffffffffffffffffffffffffffffffff\n    /* \"#utility.yul\":1568:1642   */\n  sub\n    /* \"#utility.yul\":1565:1566   */\n  dup3\n    /* \"#utility.yul\":1562:1643   */\n  gt\n    /* \"#utility.yul\":1559:1666   */\n  iszero\n  tag_35\n  jumpi\n    /* \"#utility.yul\":1646:1664   */\n  tag_36\n  tag_15\n  jump\t// in\ntag_36:\n    /* \"#utility.yul\":1559:1666   */\ntag_35:\n    /* \"#utility.yul\":1690:1691   */\n  dup3\n    /* \"#utility.yul\":1687:1688   */\n  dup3\n    /* \"#utility.yul\":1683:1692   */\n  add\n    /* \"#utility.yul\":1676:1692   */\n  swap1\n  pop\n    /* \"#utility.yul\":1393:1698   */\n  swap3\n  swap2\n  pop\n  pop\n  jump\t// out\n    /* \"contracts/CrowdFunding.sol\":141:4204  contract CrowdFunding {... */\ntag_8:\n  dataSize(sub_0)\n  dup1\n  dataOffset(sub_0)\n  0x00\n  codecopy\n  0x00\n  return\nstop\n\nsub_0: assembly {\n        /* \"contracts/CrowdFunding.sol\":141:4204  contract CrowdFunding {... */\n      mstore(0x40, 0x80)\n      jumpi(tag_1, lt(calldatasize, 0x04))\n      shr(0xe0, calldataload(0x00))\n      dup1\n      0x6f9fb98a\n      gt\n      tag_17\n      jumpi\n      dup1\n      0xa77ede95\n      gt\n      tag_18\n      jumpi\n      dup1\n      0xa77ede95\n      eq\n      tag_13\n      jumpi\n      dup1\n      0xc59ee1dc\n      eq\n      tag_14\n      jumpi\n      dup1\n      0xcfd1a7e2\n      eq\n      tag_15\n      jumpi\n      dup1\n      0xd4b83992\n      eq\n      tag_16\n      jumpi\n      jump(tag_1)\n    tag_18:\n      dup1\n      0x6f9fb98a\n      eq\n      tag_9\n      jumpi\n      dup1\n      0x81d12c58\n      eq\n      tag_10\n      jumpi\n      dup1\n      0x84bc06f1\n      eq\n      tag_11\n      jumpi\n      dup1\n      0x937e09b1\n      eq\n      tag_12\n      jumpi\n      jump(tag_1)\n    tag_17:\n      dup1\n      0x29dcb0cf\n      gt\n      tag_19\n      jumpi\n      dup1\n      0x29dcb0cf\n      eq\n      tag_5\n      jumpi\n      dup1\n      0x481c6a75\n      eq\n      tag_6\n      jumpi\n      dup1\n      0x4cb6f4a5\n      eq\n      tag_7\n      jumpi\n      dup1\n      0x560ed6a1\n      eq\n      tag_8\n      jumpi\n      jump(tag_1)\n    tag_19:\n      dup1\n      0x092476fc\n      eq\n      tag_2\n      jumpi\n      dup1\n      0x0e29df22\n      eq\n      tag_3\n      jumpi\n      dup1\n      0x1f6d4942\n      eq\n      tag_4\n      jumpi\n    tag_1:\n      0x00\n      dup1\n      revert\n        /* \"contracts/CrowdFunding.sol\":367:395  uint public totalContibutors */\n    tag_2:\n      callvalue\n      dup1\n      iszero\n      tag_20\n      jumpi\n      0x00\n      dup1\n      revert\n    tag_20:\n      pop\n      tag_21\n      tag_22\n      jump\t// in\n    tag_21:\n      mload(0x40)\n      tag_23\n      swap2\n      swap1\n      tag_24\n      jump\t// in\n    tag_23:\n      mload(0x40)\n      dup1\n      swap2\n      sub\n      swap1\n      return\n        /* \"contracts/CrowdFunding.sol\":1050:1557  function sendEther() public payable {... */\n    tag_3:\n      tag_25\n      tag_26\n      jump\t// in\n    tag_25:\n      stop\n        /* \"contracts/CrowdFunding.sol\":170:214  mapping(address => uint) public contributors */\n    tag_4:\n      callvalue\n      dup1\n      iszero\n      tag_27\n      jumpi\n      0x00\n      dup1\n      revert\n    tag_27:\n      pop\n      tag_28\n      0x04\n      dup1\n      calldatasize\n      sub\n      dup2\n      add\n      swap1\n      tag_29\n      swap2\n      swap1\n      tag_30\n      jump\t// in\n    tag_29:\n      tag_31\n      jump\t// in\n    tag_28:\n      mload(0x40)\n      tag_32\n      swap2\n      swap1\n      tag_24\n      jump\t// in\n    tag_32:\n      mload(0x40)\n      dup1\n      swap2\n      sub\n      swap1\n      return\n        /* \"contracts/CrowdFunding.sol\":287:307  uint public deadline */\n    tag_5:\n      callvalue\n      dup1\n      iszero\n      tag_33\n      jumpi\n      0x00\n      dup1\n      revert\n    tag_33:\n      pop\n      tag_34\n      tag_35\n      jump\t// in\n    tag_34:\n      mload(0x40)\n      tag_36\n      swap2\n      swap1\n      tag_24\n      jump\t// in\n    tag_36:\n      mload(0x40)\n      dup1\n      swap2\n      sub\n      swap1\n      return\n        /* \"contracts/CrowdFunding.sol\":221:243  address public manager */\n    tag_6:\n      callvalue\n      dup1\n      iszero\n      tag_37\n      jumpi\n      0x00\n      dup1\n      revert\n    tag_37:\n      pop\n      tag_38\n      tag_39\n      jump\t// in\n    tag_38:\n      mload(0x40)\n      tag_40\n      swap2\n      swap1\n      tag_41\n      jump\t// in\n    tag_40:\n      mload(0x40)\n      dup1\n      swap2\n      sub\n      swap1\n      return\n        /* \"contracts/CrowdFunding.sol\":3222:3643  function voteRequest(uint _requestNumber) public{... */\n    tag_7:\n      callvalue\n      dup1\n      iszero\n      tag_42\n      jumpi\n      0x00\n      dup1\n      revert\n    tag_42:\n      pop\n      tag_43\n      0x04\n      dup1\n      calldatasize\n      sub\n      dup2\n      add\n      swap1\n      tag_44\n      swap2\n      swap1\n      tag_45\n      jump\t// in\n    tag_44:\n      tag_46\n      jump\t// in\n    tag_43:\n      stop\n        /* \"contracts/CrowdFunding.sol\":1753:2374  function refundEther() public {... */\n    tag_8:\n      callvalue\n      dup1\n      iszero\n      tag_47\n      jumpi\n      0x00\n      dup1\n      revert\n    tag_47:\n      pop\n      tag_48\n      tag_49\n      jump\t// in\n    tag_48:\n      stop\n        /* \"contracts/CrowdFunding.sol\":1604:1704  function getContractBalance() public view returns(uint){... */\n    tag_9:\n      callvalue\n      dup1\n      iszero\n      tag_50\n      jumpi\n      0x00\n      dup1\n      revert\n    tag_50:\n      pop\n      tag_51\n      tag_52\n      jump\t// in\n    tag_51:\n      mload(0x40)\n      tag_53\n      swap2\n      swap1\n      tag_24\n      jump\t// in\n    tag_53:\n      mload(0x40)\n      dup1\n      swap2\n      sub\n      swap1\n      return\n        /* \"contracts/CrowdFunding.sol\":643:683  mapping(uint => Request) public requests */\n    tag_10:\n      callvalue\n      dup1\n      iszero\n      tag_54\n      jumpi\n      0x00\n      dup1\n      revert\n    tag_54:\n      pop\n      tag_55\n      0x04\n      dup1\n      calldatasize\n      sub\n      dup2\n      add\n      swap1\n      tag_56\n      swap2\n      swap1\n      tag_45\n      jump\t// in\n    tag_56:\n      tag_57\n      jump\t// in\n    tag_55:\n      mload(0x40)\n      tag_58\n      swap6\n      swap5\n      swap4\n      swap3\n      swap2\n      swap1\n      tag_59\n      jump\t// in\n    tag_58:\n      mload(0x40)\n      dup1\n      swap2\n      sub\n      swap1\n      return\n        /* \"contracts/CrowdFunding.sol\":2547:3127  function createFundRequest(string memory _cause, address payable _recipient, uint _value ) public onlyManager {... */\n    tag_11:\n      callvalue\n      dup1\n      iszero\n      tag_60\n      jumpi\n      0x00\n      dup1\n      revert\n    tag_60:\n      pop\n      tag_61\n      0x04\n      dup1\n      calldatasize\n      sub\n      dup2\n      add\n      swap1\n      tag_62\n      swap2\n      swap1\n      tag_63\n      jump\t// in\n    tag_62:\n      tag_64\n      jump\t// in\n    tag_61:\n      stop\n        /* \"contracts/CrowdFunding.sol\":250:281  uint public minimumContribution */\n    tag_12:\n      callvalue\n      dup1\n      iszero\n      tag_65\n      jumpi\n      0x00\n      dup1\n      revert\n    tag_65:\n      pop\n      tag_66\n      tag_67\n      jump\t// in\n    tag_66:\n      mload(0x40)\n      tag_68\n      swap2\n      swap1\n      tag_24\n      jump\t// in\n    tag_68:\n      mload(0x40)\n      dup1\n      swap2\n      sub\n      swap1\n      return\n        /* \"contracts/CrowdFunding.sol\":3706:4200  function makePaymentToRecipient(uint _requestNumber) public onlyManager{... */\n    tag_13:\n      callvalue\n      dup1\n      iszero\n      tag_69\n      jumpi\n      0x00\n      dup1\n      revert\n    tag_69:\n      pop\n      tag_70\n      0x04\n      dup1\n      calldatasize\n      sub\n      dup2\n      add\n      swap1\n      tag_71\n      swap2\n      swap1\n      tag_45\n      jump\t// in\n    tag_71:\n      tag_72\n      jump\t// in\n    tag_70:\n      stop\n        /* \"contracts/CrowdFunding.sol\":337:361  uint public raisedAmount */\n    tag_14:\n      callvalue\n      dup1\n      iszero\n      tag_73\n      jumpi\n      0x00\n      dup1\n      revert\n    tag_73:\n      pop\n      tag_74\n      tag_75\n      jump\t// in\n    tag_74:\n      mload(0x40)\n      tag_76\n      swap2\n      swap1\n      tag_24\n      jump\t// in\n    tag_76:\n      mload(0x40)\n      dup1\n      swap2\n      sub\n      swap1\n      return\n        /* \"contracts/CrowdFunding.sol\":753:778  uint public requestNumber */\n    tag_15:\n      callvalue\n      dup1\n      iszero\n      tag_77\n      jumpi\n      0x00\n      dup1\n      revert\n    tag_77:\n      pop\n      tag_78\n      tag_79\n      jump\t// in\n    tag_78:\n      mload(0x40)\n      tag_80\n      swap2\n      swap1\n      tag_24\n      jump\t// in\n    tag_80:\n      mload(0x40)\n      dup1\n      swap2\n      sub\n      swap1\n      return\n        /* \"contracts/CrowdFunding.sol\":313:331  uint public target */\n    tag_16:\n      callvalue\n      dup1\n      iszero\n      tag_81\n      jumpi\n      0x00\n      dup1\n      revert\n    tag_81:\n      pop\n      tag_82\n      tag_83\n      jump\t// in\n    tag_82:\n      mload(0x40)\n      tag_84\n      swap2\n      swap1\n      tag_24\n      jump\t// in\n    tag_84:\n      mload(0x40)\n      dup1\n      swap2\n      sub\n      swap1\n      return\n        /* \"contracts/CrowdFunding.sol\":367:395  uint public totalContibutors */\n    tag_22:\n      sload(0x06)\n      dup2\n      jump\t// out\n        /* \"contracts/CrowdFunding.sol\":1050:1557  function sendEther() public payable {... */\n    tag_26:\n        /* \"contracts/CrowdFunding.sol\":1122:1130  deadline */\n      sload(0x03)\n        /* \"contracts/CrowdFunding.sol\":1104:1119  block.timestamp */\n      timestamp\n        /* \"contracts/CrowdFunding.sol\":1104:1130  block.timestamp < deadline */\n      lt\n        /* \"contracts/CrowdFunding.sol\":1096:1161  require(block.timestamp < deadline, 'Sorry, deadline has passed') */\n      tag_86\n      jumpi\n      mload(0x40)\n      0x08c379a000000000000000000000000000000000000000000000000000000000\n      dup2\n      mstore\n      0x04\n      add\n      tag_87\n      swap1\n      tag_88\n      jump\t// in\n    tag_87:\n      mload(0x40)\n      dup1\n      swap2\n      sub\n      swap1\n      revert\n    tag_86:\n        /* \"contracts/CrowdFunding.sol\":1192:1211  minimumContribution */\n      sload(0x02)\n        /* \"contracts/CrowdFunding.sol\":1179:1188  msg.value */\n      callvalue\n        /* \"contracts/CrowdFunding.sol\":1179:1211  msg.value >= minimumContribution */\n      lt\n      iszero\n        /* \"contracts/CrowdFunding.sol\":1171:1254  require(msg.value >= minimumContribution, 'Sorry, minimum contribution is not met') */\n      tag_89\n      jumpi\n      mload(0x40)\n      0x08c379a000000000000000000000000000000000000000000000000000000000\n      dup2\n      mstore\n      0x04\n      add\n      tag_90\n      swap1\n      tag_91\n      jump\t// in\n    tag_90:\n      mload(0x40)\n      dup1\n      swap2\n      sub\n      swap1\n      revert\n    tag_89:\n        /* \"contracts/CrowdFunding.sol\":1349:1350  0 */\n      0x00\n        /* \"contracts/CrowdFunding.sol\":1321:1333  contributors */\n      dup1\n        /* \"contracts/CrowdFunding.sol\":1321:1345  contributors[msg.sender] */\n      0x00\n        /* \"contracts/CrowdFunding.sol\":1334:1344  msg.sender */\n      caller\n        /* \"contracts/CrowdFunding.sol\":1321:1345  contributors[msg.sender] */\n      0xffffffffffffffffffffffffffffffffffffffff\n      and\n      0xffffffffffffffffffffffffffffffffffffffff\n      and\n      dup2\n      mstore\n      0x20\n      add\n      swap1\n      dup2\n      mstore\n      0x20\n      add\n      0x00\n      keccak256\n      sload\n        /* \"contracts/CrowdFunding.sol\":1321:1350  contributors[msg.sender] == 0 */\n      sub\n        /* \"contracts/CrowdFunding.sol\":1318:1394  if(contributors[msg.sender] == 0){... */\n      tag_92\n      jumpi\n        /* \"contracts/CrowdFunding.sol\":1365:1381  totalContibutors */\n      0x06\n      0x00\n        /* \"contracts/CrowdFunding.sol\":1365:1383  totalContibutors++ */\n      dup2\n      sload\n      dup1\n      swap3\n      swap2\n      swap1\n      tag_93\n      swap1\n      tag_94\n      jump\t// in\n    tag_93:\n      swap2\n      swap1\n      pop\n      sstore\n      pop\n        /* \"contracts/CrowdFunding.sol\":1318:1394  if(contributors[msg.sender] == 0){... */\n    tag_92:\n        /* \"contracts/CrowdFunding.sol\":1432:1441  msg.value */\n      callvalue\n        /* \"contracts/CrowdFunding.sol\":1404:1416  contributors */\n      0x00\n        /* \"contracts/CrowdFunding.sol\":1404:1428  contributors[msg.sender] */\n      dup1\n        /* \"contracts/CrowdFunding.sol\":1417:1427  msg.sender */\n      caller\n        /* \"contracts/CrowdFunding.sol\":1404:1428  contributors[msg.sender] */\n      0xffffffffffffffffffffffffffffffffffffffff\n      and\n      0xffffffffffffffffffffffffffffffffffffffff\n      and\n      dup2\n      mstore\n      0x20\n      add\n      swap1\n      dup2\n      mstore\n      0x20\n      add\n      0x00\n      keccak256\n      0x00\n        /* \"contracts/CrowdFunding.sol\":1404:1441  contributors[msg.sender] += msg.value */\n      dup3\n      dup3\n      sload\n      tag_95\n      swap2\n      swap1\n      tag_96\n      jump\t// in\n    tag_95:\n      swap3\n      pop\n      pop\n      dup2\n      swap1\n      sstore\n      pop\n        /* \"contracts/CrowdFunding.sol\":1510:1519  msg.value */\n      callvalue\n        /* \"contracts/CrowdFunding.sol\":1494:1506  raisedAmount */\n      0x05\n      0x00\n        /* \"contracts/CrowdFunding.sol\":1494:1519  raisedAmount += msg.value */\n      dup3\n      dup3\n      sload\n      tag_97\n      swap2\n      swap1\n      tag_96\n      jump\t// in\n    tag_97:\n      swap3\n      pop\n      pop\n      dup2\n      swap1\n      sstore\n      pop\n        /* \"contracts/CrowdFunding.sol\":1050:1557  function sendEther() public payable {... */\n      jump\t// out\n        /* \"contracts/CrowdFunding.sol\":170:214  mapping(address => uint) public contributors */\n    tag_31:\n      mstore(0x20, 0x00)\n      dup1\n      0x00\n      mstore\n      keccak256(0x00, 0x40)\n      0x00\n      swap2\n      pop\n      swap1\n      pop\n      sload\n      dup2\n      jump\t// out\n        /* \"contracts/CrowdFunding.sol\":287:307  uint public deadline */\n    tag_35:\n      sload(0x03)\n      dup2\n      jump\t// out\n        /* \"contracts/CrowdFunding.sol\":221:243  address public manager */\n    tag_39:\n      0x01\n      0x00\n      swap1\n      sload\n      swap1\n      0x0100\n      exp\n      swap1\n      div\n      0xffffffffffffffffffffffffffffffffffffffff\n      and\n      dup2\n      jump\t// out\n        /* \"contracts/CrowdFunding.sol\":3222:3643  function voteRequest(uint _requestNumber) public{... */\n    tag_46:\n        /* \"contracts/CrowdFunding.sol\":3315:3316  0 */\n      0x00\n        /* \"contracts/CrowdFunding.sol\":3288:3300  contributors */\n      dup1\n        /* \"contracts/CrowdFunding.sol\":3288:3312  contributors[msg.sender] */\n      0x00\n        /* \"contracts/CrowdFunding.sol\":3301:3311  msg.sender */\n      caller\n        /* \"contracts/CrowdFunding.sol\":3288:3312  contributors[msg.sender] */\n      0xffffffffffffffffffffffffffffffffffffffff\n      and\n      0xffffffffffffffffffffffffffffffffffffffff\n      and\n      dup2\n      mstore\n      0x20\n      add\n      swap1\n      dup2\n      mstore\n      0x20\n      add\n      0x00\n      keccak256\n      sload\n        /* \"contracts/CrowdFunding.sol\":3288:3316  contributors[msg.sender] > 0 */\n      gt\n        /* \"contracts/CrowdFunding.sol\":3280:3351  require(contributors[msg.sender] > 0, 'You are not eligile for voting') */\n      tag_99\n      jumpi\n      mload(0x40)\n      0x08c379a000000000000000000000000000000000000000000000000000000000\n      dup2\n      mstore\n      0x04\n      add\n      tag_100\n      swap1\n      tag_101\n      jump\t// in\n    tag_100:\n      mload(0x40)\n      dup1\n      swap2\n      sub\n      swap1\n      revert\n    tag_99:\n        /* \"contracts/CrowdFunding.sol\":3361:3388  Request storage thisRequest */\n      0x00\n        /* \"contracts/CrowdFunding.sol\":3391:3399  requests */\n      0x07\n        /* \"contracts/CrowdFunding.sol\":3391:3415  requests[_requestNumber] */\n      0x00\n        /* \"contracts/CrowdFunding.sol\":3400:3414  _requestNumber */\n      dup4\n        /* \"contracts/CrowdFunding.sol\":3391:3415  requests[_requestNumber] */\n      dup2\n      mstore\n      0x20\n      add\n      swap1\n      dup2\n      mstore\n      0x20\n      add\n      0x00\n      keccak256\n        /* \"contracts/CrowdFunding.sol\":3361:3415  Request storage thisRequest = requests[_requestNumber] */\n      swap1\n      pop\n        /* \"contracts/CrowdFunding.sol\":3521:3526  false */\n      0x00\n        /* \"contracts/CrowdFunding.sol\":3487:3526  thisRequest.voters[msg.sender] == false */\n      iszero\n      iszero\n        /* \"contracts/CrowdFunding.sol\":3487:3498  thisRequest */\n      dup2\n        /* \"contracts/CrowdFunding.sol\":3487:3505  thisRequest.voters */\n      0x04\n      add\n        /* \"contracts/CrowdFunding.sol\":3487:3517  thisRequest.voters[msg.sender] */\n      0x00\n        /* \"contracts/CrowdFunding.sol\":3506:3516  msg.sender */\n      caller\n        /* \"contracts/CrowdFunding.sol\":3487:3517  thisRequest.voters[msg.sender] */\n      0xffffffffffffffffffffffffffffffffffffffff\n      and\n      0xffffffffffffffffffffffffffffffffffffffff\n      and\n      dup2\n      mstore\n      0x20\n      add\n      swap1\n      dup2\n      mstore\n      0x20\n      add\n      0x00\n      keccak256\n      0x00\n      swap1\n      sload\n      swap1\n      0x0100\n      exp\n      swap1\n      div\n      0xff\n      and\n        /* \"contracts/CrowdFunding.sol\":3487:3526  thisRequest.voters[msg.sender] == false */\n      iszero\n      iszero\n      eq\n        /* \"contracts/CrowdFunding.sol\":3479:3554  require(thisRequest.voters[msg.sender] == false, 'You have already voted!') */\n      tag_102\n      jumpi\n      mload(0x40)\n      0x08c379a000000000000000000000000000000000000000000000000000000000\n      dup2\n      mstore\n      0x04\n      add\n      tag_103\n      swap1\n      tag_104\n      jump\t// in\n    tag_103:\n      mload(0x40)\n      dup1\n      swap2\n      sub\n      swap1\n      revert\n    tag_102:\n        /* \"contracts/CrowdFunding.sol\":3597:3601  true */\n      0x01\n        /* \"contracts/CrowdFunding.sol\":3564:3575  thisRequest */\n      dup2\n        /* \"contracts/CrowdFunding.sol\":3564:3582  thisRequest.voters */\n      0x04\n      add\n        /* \"contracts/CrowdFunding.sol\":3564:3594  thisRequest.voters[msg.sender] */\n      0x00\n        /* \"contracts/CrowdFunding.sol\":3583:3593  msg.sender */\n      caller\n        /* \"contracts/CrowdFunding.sol\":3564:3594  thisRequest.voters[msg.sender] */\n      0xffffffffffffffffffffffffffffffffffffffff\n      and\n      0xffffffffffffffffffffffffffffffffffffffff\n      and\n      dup2\n      mstore\n      0x20\n      add\n      swap1\n      dup2\n      mstore\n      0x20\n      add\n      0x00\n      keccak256\n      0x00\n        /* \"contracts/CrowdFunding.sol\":3564:3601  thisRequest.voters[msg.sender] = true */\n      0x0100\n      exp\n      dup2\n      sload\n      dup2\n      0xff\n      mul\n      not\n      and\n      swap1\n      dup4\n      iszero\n      iszero\n      mul\n      or\n      swap1\n      sstore\n      pop\n        /* \"contracts/CrowdFunding.sol\":3611:3622  thisRequest */\n      dup1\n        /* \"contracts/CrowdFunding.sol\":3611:3634  thisRequest.totalVoters */\n      0x03\n      add\n      0x00\n        /* \"contracts/CrowdFunding.sol\":3611:3636  thisRequest.totalVoters++ */\n      dup2\n      sload\n      dup1\n      swap3\n      swap2\n      swap1\n      tag_105\n      swap1\n      tag_94\n      jump\t// in\n    tag_105:\n      swap2\n      swap1\n      pop\n      sstore\n      pop\n        /* \"contracts/CrowdFunding.sol\":3270:3643  {... */\n      pop\n        /* \"contracts/CrowdFunding.sol\":3222:3643  function voteRequest(uint _requestNumber) public{... */\n      pop\n      jump\t// out\n        /* \"contracts/CrowdFunding.sol\":1753:2374  function refundEther() public {... */\n    tag_49:\n        /* \"contracts/CrowdFunding.sol\":1924:1930  target */\n      sload(0x04)\n        /* \"contracts/CrowdFunding.sol\":1909:1921  raisedAmount */\n      sload(0x05)\n        /* \"contracts/CrowdFunding.sol\":1909:1930  raisedAmount < target */\n      lt\n        /* \"contracts/CrowdFunding.sol\":1909:1960  raisedAmount < target && block.timestamp > deadline */\n      dup1\n      iszero\n      tag_107\n      jumpi\n      pop\n        /* \"contracts/CrowdFunding.sol\":1952:1960  deadline */\n      sload(0x03)\n        /* \"contracts/CrowdFunding.sol\":1934:1949  block.timestamp */\n      timestamp\n        /* \"contracts/CrowdFunding.sol\":1934:1960  block.timestamp > deadline */\n      gt\n        /* \"contracts/CrowdFunding.sol\":1909:1960  raisedAmount < target && block.timestamp > deadline */\n    tag_107:\n        /* \"contracts/CrowdFunding.sol\":1900:2000  require( raisedAmount < target && block.timestamp > deadline ,'You are not eligible for refunding' ) */\n      tag_108\n      jumpi\n      mload(0x40)\n      0x08c379a000000000000000000000000000000000000000000000000000000000\n      dup2\n      mstore\n      0x04\n      add\n      tag_109\n      swap1\n      tag_110\n      jump\t// in\n    tag_109:\n      mload(0x40)\n      dup1\n      swap2\n      sub\n      swap1\n      revert\n    tag_108:\n        /* \"contracts/CrowdFunding.sol\":2046:2047  0 */\n      0x00\n        /* \"contracts/CrowdFunding.sol\":2019:2031  contributors */\n      dup1\n        /* \"contracts/CrowdFunding.sol\":2019:2043  contributors[msg.sender] */\n      0x00\n        /* \"contracts/CrowdFunding.sol\":2032:2042  msg.sender */\n      caller\n        /* \"contracts/CrowdFunding.sol\":2019:2043  contributors[msg.sender] */\n      0xffffffffffffffffffffffffffffffffffffffff\n      and\n      0xffffffffffffffffffffffffffffffffffffffff\n      and\n      dup2\n      mstore\n      0x20\n      add\n      swap1\n      dup2\n      mstore\n      0x20\n      add\n      0x00\n      keccak256\n      sload\n        /* \"contracts/CrowdFunding.sol\":2019:2047  contributors[msg.sender] > 0 */\n      gt\n        /* \"contracts/CrowdFunding.sol\":2011:2048  require(contributors[msg.sender] > 0) */\n      tag_111\n      jumpi\n      0x00\n      dup1\n      revert\n    tag_111:\n        /* \"contracts/CrowdFunding.sol\":2060:2080  address payable user */\n      0x00\n        /* \"contracts/CrowdFunding.sol\":2091:2101  msg.sender */\n      caller\n        /* \"contracts/CrowdFunding.sol\":2060:2102  address payable user = payable(msg.sender) */\n      swap1\n      pop\n        /* \"contracts/CrowdFunding.sol\":2164:2168  user */\n      dup1\n        /* \"contracts/CrowdFunding.sol\":2164:2177  user.transfer */\n      0xffffffffffffffffffffffffffffffffffffffff\n      and\n        /* \"contracts/CrowdFunding.sol\":2164:2203  user.transfer(contributors[msg.sender]) */\n      0x08fc\n        /* \"contracts/CrowdFunding.sol\":2178:2190  contributors */\n      0x00\n        /* \"contracts/CrowdFunding.sol\":2178:2202  contributors[msg.sender] */\n      dup1\n        /* \"contracts/CrowdFunding.sol\":2191:2201  msg.sender */\n      caller\n        /* \"contracts/CrowdFunding.sol\":2178:2202  contributors[msg.sender] */\n      0xffffffffffffffffffffffffffffffffffffffff\n      and\n      0xffffffffffffffffffffffffffffffffffffffff\n      and\n      dup2\n      mstore\n      0x20\n      add\n      swap1\n      dup2\n      mstore\n      0x20\n      add\n      0x00\n      keccak256\n      sload\n        /* \"contracts/CrowdFunding.sol\":2164:2203  user.transfer(contributors[msg.sender]) */\n      swap1\n      dup2\n      iszero\n      mul\n      swap1\n      mload(0x40)\n      0x00\n      mload(0x40)\n      dup1\n      dup4\n      sub\n      dup2\n      dup6\n      dup9\n      dup9\n      call\n      swap4\n      pop\n      pop\n      pop\n      pop\n      iszero\n      dup1\n      iszero\n      tag_113\n      jumpi\n      returndatasize\n      0x00\n      dup1\n      returndatacopy\n      revert(0x00, returndatasize)\n    tag_113:\n      pop\n        /* \"contracts/CrowdFunding.sol\":2301:2302  0 */\n      0x00\n        /* \"contracts/CrowdFunding.sol\":2274:2286  contributors */\n      dup1\n        /* \"contracts/CrowdFunding.sol\":2274:2298  contributors[msg.sender] */\n      0x00\n        /* \"contracts/CrowdFunding.sol\":2287:2297  msg.sender */\n      caller\n        /* \"contracts/CrowdFunding.sol\":2274:2298  contributors[msg.sender] */\n      0xffffffffffffffffffffffffffffffffffffffff\n      and\n      0xffffffffffffffffffffffffffffffffffffffff\n      and\n      dup2\n      mstore\n      0x20\n      add\n      swap1\n      dup2\n      mstore\n      0x20\n      add\n      0x00\n      keccak256\n        /* \"contracts/CrowdFunding.sol\":2274:2302  contributors[msg.sender] = 0 */\n      dup2\n      swap1\n      sstore\n      pop\n        /* \"contracts/CrowdFunding.sol\":1783:2374  {... */\n      pop\n        /* \"contracts/CrowdFunding.sol\":1753:2374  function refundEther() public {... */\n      jump\t// out\n        /* \"contracts/CrowdFunding.sol\":1604:1704  function getContractBalance() public view returns(uint){... */\n    tag_52:\n        /* \"contracts/CrowdFunding.sol\":1654:1658  uint */\n      0x00\n        /* \"contracts/CrowdFunding.sol\":1676:1697  address(this).balance */\n      selfbalance\n        /* \"contracts/CrowdFunding.sol\":1669:1697  return address(this).balance */\n      swap1\n      pop\n        /* \"contracts/CrowdFunding.sol\":1604:1704  function getContractBalance() public view returns(uint){... */\n      swap1\n      jump\t// out\n        /* \"contracts/CrowdFunding.sol\":643:683  mapping(uint => Request) public requests */\n    tag_57:\n      mstore(0x20, 0x07)\n      dup1\n      0x00\n      mstore\n      keccak256(0x00, 0x40)\n      0x00\n      swap2\n      pop\n      swap1\n      pop\n      dup1\n      0x00\n      add\n      dup1\n      sload\n      tag_115\n      swap1\n      tag_116\n      jump\t// in\n    tag_115:\n      dup1\n      0x1f\n      add\n      0x20\n      dup1\n      swap2\n      div\n      mul\n      0x20\n      add\n      mload(0x40)\n      swap1\n      dup2\n      add\n      0x40\n      mstore\n      dup1\n      swap3\n      swap2\n      swap1\n      dup2\n      dup2\n      mstore\n      0x20\n      add\n      dup3\n      dup1\n      sload\n      tag_117\n      swap1\n      tag_116\n      jump\t// in\n    tag_117:\n      dup1\n      iszero\n      tag_118\n      jumpi\n      dup1\n      0x1f\n      lt\n      tag_119\n      jumpi\n      0x0100\n      dup1\n      dup4\n      sload\n      div\n      mul\n      dup4\n      mstore\n      swap2\n      0x20\n      add\n      swap2\n      jump(tag_118)\n    tag_119:\n      dup3\n      add\n      swap2\n      swap1\n      0x00\n      mstore\n      keccak256(0x00, 0x20)\n      swap1\n    tag_120:\n      dup2\n      sload\n      dup2\n      mstore\n      swap1\n      0x01\n      add\n      swap1\n      0x20\n      add\n      dup1\n      dup4\n      gt\n      tag_120\n      jumpi\n      dup3\n      swap1\n      sub\n      0x1f\n      and\n      dup3\n      add\n      swap2\n    tag_118:\n      pop\n      pop\n      pop\n      pop\n      pop\n      swap1\n      dup1\n      0x01\n      add\n      sload\n      swap1\n      dup1\n      0x02\n      add\n      0x00\n      swap1\n      sload\n      swap1\n      0x0100\n      exp\n      swap1\n      div\n      0xffffffffffffffffffffffffffffffffffffffff\n      and\n      swap1\n      dup1\n      0x02\n      add\n      0x14\n      swap1\n      sload\n      swap1\n      0x0100\n      exp\n      swap1\n      div\n      0xff\n      and\n      swap1\n      dup1\n      0x03\n      add\n      sload\n      swap1\n      pop\n      dup6\n      jump\t// out\n        /* \"contracts/CrowdFunding.sol\":2547:3127  function createFundRequest(string memory _cause, address payable _recipient, uint _value ) public onlyManager {... */\n    tag_64:\n        /* \"contracts/CrowdFunding.sol\":2435:2442  manager */\n      0x01\n      0x00\n      swap1\n      sload\n      swap1\n      0x0100\n      exp\n      swap1\n      div\n      0xffffffffffffffffffffffffffffffffffffffff\n      and\n        /* \"contracts/CrowdFunding.sol\":2421:2442  msg.sender == manager */\n      0xffffffffffffffffffffffffffffffffffffffff\n      and\n        /* \"contracts/CrowdFunding.sol\":2421:2431  msg.sender */\n      caller\n        /* \"contracts/CrowdFunding.sol\":2421:2442  msg.sender == manager */\n      0xffffffffffffffffffffffffffffffffffffffff\n      and\n      eq\n        /* \"contracts/CrowdFunding.sol\":2413:2459  require(msg.sender == manager, \"Only manager\") */\n      tag_122\n      jumpi\n      mload(0x40)\n      0x08c379a000000000000000000000000000000000000000000000000000000000\n      dup2\n      mstore\n      0x04\n      add\n      tag_123\n      swap1\n      tag_124\n      jump\t// in\n    tag_123:\n      mload(0x40)\n      dup1\n      swap2\n      sub\n      swap1\n      revert\n    tag_122:\n        /* \"contracts/CrowdFunding.sol\":2668:2694  Request storage newRequest */\n      0x00\n        /* \"contracts/CrowdFunding.sol\":2697:2705  requests */\n      0x07\n        /* \"contracts/CrowdFunding.sol\":2697:2720  requests[requestNumber] */\n      0x00\n        /* \"contracts/CrowdFunding.sol\":2706:2719  requestNumber */\n      sload(0x08)\n        /* \"contracts/CrowdFunding.sol\":2697:2720  requests[requestNumber] */\n      dup2\n      mstore\n      0x20\n      add\n      swap1\n      dup2\n      mstore\n      0x20\n      add\n      0x00\n      keccak256\n        /* \"contracts/CrowdFunding.sol\":2668:2720  Request storage newRequest = requests[requestNumber] */\n      swap1\n      pop\n        /* \"contracts/CrowdFunding.sol\":2811:2824  requestNumber */\n      0x08\n      0x00\n        /* \"contracts/CrowdFunding.sol\":2811:2826  requestNumber++ */\n      dup2\n      sload\n      dup1\n      swap3\n      swap2\n      swap1\n      tag_126\n      swap1\n      tag_94\n      jump\t// in\n    tag_126:\n      swap2\n      swap1\n      pop\n      sstore\n      pop\n        /* \"contracts/CrowdFunding.sol\":2958:2964  _cause */\n      dup4\n        /* \"contracts/CrowdFunding.sol\":2939:2949  newRequest */\n      dup2\n        /* \"contracts/CrowdFunding.sol\":2939:2955  newRequest.cause */\n      0x00\n      add\n        /* \"contracts/CrowdFunding.sol\":2939:2964  newRequest.cause = _cause */\n      swap1\n      dup1\n      mload\n      swap1\n      0x20\n      add\n      swap1\n      tag_127\n      swap3\n      swap2\n      swap1\n      tag_128\n      jump\t// in\n    tag_127:\n      pop\n        /* \"contracts/CrowdFunding.sol\":2998:3008  _recipient */\n      dup3\n        /* \"contracts/CrowdFunding.sol\":2975:2985  newRequest */\n      dup2\n        /* \"contracts/CrowdFunding.sol\":2975:2995  newRequest.recipient */\n      0x02\n      add\n      0x00\n        /* \"contracts/CrowdFunding.sol\":2975:3008  newRequest.recipient = _recipient */\n      0x0100\n      exp\n      dup2\n      sload\n      dup2\n      0xffffffffffffffffffffffffffffffffffffffff\n      mul\n      not\n      and\n      swap1\n      dup4\n      0xffffffffffffffffffffffffffffffffffffffff\n      and\n      mul\n      or\n      swap1\n      sstore\n      pop\n        /* \"contracts/CrowdFunding.sol\":3038:3044  _value */\n      dup2\n        /* \"contracts/CrowdFunding.sol\":3019:3029  newRequest */\n      dup2\n        /* \"contracts/CrowdFunding.sol\":3019:3035  newRequest.value */\n      0x01\n      add\n        /* \"contracts/CrowdFunding.sol\":3019:3044  newRequest.value = _value */\n      dup2\n      swap1\n      sstore\n      pop\n        /* \"contracts/CrowdFunding.sol\":3078:3083  false */\n      0x00\n        /* \"contracts/CrowdFunding.sol\":3055:3065  newRequest */\n      dup2\n        /* \"contracts/CrowdFunding.sol\":3055:3075  newRequest.completed */\n      0x02\n      add\n      0x14\n        /* \"contracts/CrowdFunding.sol\":3055:3083  newRequest.completed = false */\n      0x0100\n      exp\n      dup2\n      sload\n      dup2\n      0xff\n      mul\n      not\n      and\n      swap1\n      dup4\n      iszero\n      iszero\n      mul\n      or\n      swap1\n      sstore\n      pop\n        /* \"contracts/CrowdFunding.sol\":3119:3120  0 */\n      0x00\n        /* \"contracts/CrowdFunding.sol\":3094:3104  newRequest */\n      dup2\n        /* \"contracts/CrowdFunding.sol\":3094:3116  newRequest.totalVoters */\n      0x03\n      add\n        /* \"contracts/CrowdFunding.sol\":3094:3120  newRequest.totalVoters = 0 */\n      dup2\n      swap1\n      sstore\n      pop\n        /* \"contracts/CrowdFunding.sol\":2657:3127  {... */\n      pop\n        /* \"contracts/CrowdFunding.sol\":2547:3127  function createFundRequest(string memory _cause, address payable _recipient, uint _value ) public onlyManager {... */\n      pop\n      pop\n      pop\n      jump\t// out\n        /* \"contracts/CrowdFunding.sol\":250:281  uint public minimumContribution */\n    tag_67:\n      sload(0x02)\n      dup2\n      jump\t// out\n        /* \"contracts/CrowdFunding.sol\":3706:4200  function makePaymentToRecipient(uint _requestNumber) public onlyManager{... */\n    tag_72:\n        /* \"contracts/CrowdFunding.sol\":2435:2442  manager */\n      0x01\n      0x00\n      swap1\n      sload\n      swap1\n      0x0100\n      exp\n      swap1\n      div\n      0xffffffffffffffffffffffffffffffffffffffff\n      and\n        /* \"contracts/CrowdFunding.sol\":2421:2442  msg.sender == manager */\n      0xffffffffffffffffffffffffffffffffffffffff\n      and\n        /* \"contracts/CrowdFunding.sol\":2421:2431  msg.sender */\n      caller\n        /* \"contracts/CrowdFunding.sol\":2421:2442  msg.sender == manager */\n      0xffffffffffffffffffffffffffffffffffffffff\n      and\n      eq\n        /* \"contracts/CrowdFunding.sol\":2413:2459  require(msg.sender == manager, \"Only manager\") */\n      tag_130\n      jumpi\n      mload(0x40)\n      0x08c379a000000000000000000000000000000000000000000000000000000000\n      dup2\n      mstore\n      0x04\n      add\n      tag_131\n      swap1\n      tag_124\n      jump\t// in\n    tag_131:\n      mload(0x40)\n      dup1\n      swap2\n      sub\n      swap1\n      revert\n    tag_130:\n        /* \"contracts/CrowdFunding.sol\":3811:3817  target */\n      sload(0x04)\n        /* \"contracts/CrowdFunding.sol\":3795:3807  raisedAmount */\n      sload(0x05)\n        /* \"contracts/CrowdFunding.sol\":3795:3817  raisedAmount >= target */\n      lt\n      iszero\n        /* \"contracts/CrowdFunding.sol\":3787:3818  require(raisedAmount >= target) */\n      tag_133\n      jumpi\n      0x00\n      dup1\n      revert\n    tag_133:\n        /* \"contracts/CrowdFunding.sol\":3828:3855  Request storage thisRequest */\n      0x00\n        /* \"contracts/CrowdFunding.sol\":3858:3866  requests */\n      0x07\n        /* \"contracts/CrowdFunding.sol\":3858:3882  requests[_requestNumber] */\n      0x00\n        /* \"contracts/CrowdFunding.sol\":3867:3881  _requestNumber */\n      dup4\n        /* \"contracts/CrowdFunding.sol\":3858:3882  requests[_requestNumber] */\n      dup2\n      mstore\n      0x20\n      add\n      swap1\n      dup2\n      mstore\n      0x20\n      add\n      0x00\n      keccak256\n        /* \"contracts/CrowdFunding.sol\":3828:3882  Request storage thisRequest = requests[_requestNumber] */\n      swap1\n      pop\n        /* \"contracts/CrowdFunding.sol\":3927:3932  false */\n      0x00\n        /* \"contracts/CrowdFunding.sol\":3902:3932  thisRequest.completed == false */\n      iszero\n      iszero\n        /* \"contracts/CrowdFunding.sol\":3902:3913  thisRequest */\n      dup2\n        /* \"contracts/CrowdFunding.sol\":3902:3923  thisRequest.completed */\n      0x02\n      add\n      0x14\n      swap1\n      sload\n      swap1\n      0x0100\n      exp\n      swap1\n      div\n      0xff\n      and\n        /* \"contracts/CrowdFunding.sol\":3902:3932  thisRequest.completed == false */\n      iszero\n      iszero\n      eq\n        /* \"contracts/CrowdFunding.sol\":3894:3968  require(thisRequest.completed == false, 'Recipient has already been paid') */\n      tag_134\n      jumpi\n      mload(0x40)\n      0x08c379a000000000000000000000000000000000000000000000000000000000\n      dup2\n      mstore\n      0x04\n      add\n      tag_135\n      swap1\n      tag_136\n      jump\t// in\n    tag_135:\n      mload(0x40)\n      dup1\n      swap2\n      sub\n      swap1\n      revert\n    tag_134:\n        /* \"contracts/CrowdFunding.sol\":4029:4030  2 */\n      0x02\n        /* \"contracts/CrowdFunding.sol\":4012:4028  totalContibutors */\n      sload(0x06)\n        /* \"contracts/CrowdFunding.sol\":4012:4030  totalContibutors/2 */\n      tag_137\n      swap2\n      swap1\n      tag_138\n      jump\t// in\n    tag_137:\n        /* \"contracts/CrowdFunding.sol\":3986:3997  thisRequest */\n      dup2\n        /* \"contracts/CrowdFunding.sol\":3986:4009  thisRequest.totalVoters */\n      0x03\n      add\n      sload\n        /* \"contracts/CrowdFunding.sol\":3986:4030  thisRequest.totalVoters > totalContibutors/2 */\n      gt\n        /* \"contracts/CrowdFunding.sol\":3978:4058  require(thisRequest.totalVoters > totalContibutors/2, 'Majority support needed') */\n      tag_139\n      jumpi\n      mload(0x40)\n      0x08c379a000000000000000000000000000000000000000000000000000000000\n      dup2\n      mstore\n      0x04\n      add\n      tag_140\n      swap1\n      tag_141\n      jump\t// in\n    tag_140:\n      mload(0x40)\n      dup1\n      swap2\n      sub\n      swap1\n      revert\n    tag_139:\n        /* \"contracts/CrowdFunding.sol\":4106:4117  thisRequest */\n      dup1\n        /* \"contracts/CrowdFunding.sol\":4106:4127  thisRequest.recipient */\n      0x02\n      add\n      0x00\n      swap1\n      sload\n      swap1\n      0x0100\n      exp\n      swap1\n      div\n      0xffffffffffffffffffffffffffffffffffffffff\n      and\n        /* \"contracts/CrowdFunding.sol\":4106:4136  thisRequest.recipient.transfer */\n      0xffffffffffffffffffffffffffffffffffffffff\n      and\n        /* \"contracts/CrowdFunding.sol\":4106:4155  thisRequest.recipient.transfer(thisRequest.value) */\n      0x08fc\n        /* \"contracts/CrowdFunding.sol\":4137:4148  thisRequest */\n      dup3\n        /* \"contracts/CrowdFunding.sol\":4137:4154  thisRequest.value */\n      0x01\n      add\n      sload\n        /* \"contracts/CrowdFunding.sol\":4106:4155  thisRequest.recipient.transfer(thisRequest.value) */\n      swap1\n      dup2\n      iszero\n      mul\n      swap1\n      mload(0x40)\n      0x00\n      mload(0x40)\n      dup1\n      dup4\n      sub\n      dup2\n      dup6\n      dup9\n      dup9\n      call\n      swap4\n      pop\n      pop\n      pop\n      pop\n      iszero\n      dup1\n      iszero\n      tag_143\n      jumpi\n      returndatasize\n      0x00\n      dup1\n      returndatacopy\n      revert(0x00, returndatasize)\n    tag_143:\n      pop\n        /* \"contracts/CrowdFunding.sol\":4189:4193  true */\n      0x01\n        /* \"contracts/CrowdFunding.sol\":4165:4176  thisRequest */\n      dup2\n        /* \"contracts/CrowdFunding.sol\":4165:4186  thisRequest.completed */\n      0x02\n      add\n      0x14\n        /* \"contracts/CrowdFunding.sol\":4165:4193  thisRequest.completed = true */\n      0x0100\n      exp\n      dup2\n      sload\n      dup2\n      0xff\n      mul\n      not\n      and\n      swap1\n      dup4\n      iszero\n      iszero\n      mul\n      or\n      swap1\n      sstore\n      pop\n        /* \"contracts/CrowdFunding.sol\":3777:4200  {... */\n      pop\n        /* \"contracts/CrowdFunding.sol\":3706:4200  function makePaymentToRecipient(uint _requestNumber) public onlyManager{... */\n      pop\n      jump\t// out\n        /* \"contracts/CrowdFunding.sol\":337:361  uint public raisedAmount */\n    tag_75:\n      sload(0x05)\n      dup2\n      jump\t// out\n        /* \"contracts/CrowdFunding.sol\":753:778  uint public requestNumber */\n    tag_79:\n      sload(0x08)\n      dup2\n      jump\t// out\n        /* \"contracts/CrowdFunding.sol\":313:331  uint public target */\n    tag_83:\n      sload(0x04)\n      dup2\n      jump\t// out\n    tag_128:\n      dup3\n      dup1\n      sload\n      tag_144\n      swap1\n      tag_116\n      jump\t// in\n    tag_144:\n      swap1\n      0x00\n      mstore\n      keccak256(0x00, 0x20)\n      swap1\n      0x1f\n      add\n      0x20\n      swap1\n      div\n      dup2\n      add\n      swap3\n      dup3\n      tag_146\n      jumpi\n      0x00\n      dup6\n      sstore\n      jump(tag_145)\n    tag_146:\n      dup3\n      0x1f\n      lt\n      tag_147\n      jumpi\n      dup1\n      mload\n      not(0xff)\n      and\n      dup4\n      dup1\n      add\n      or\n      dup6\n      sstore\n      jump(tag_145)\n    tag_147:\n      dup3\n      dup1\n      add\n      0x01\n      add\n      dup6\n      sstore\n      dup3\n      iszero\n      tag_145\n      jumpi\n      swap2\n      dup3\n      add\n    tag_148:\n      dup3\n      dup2\n      gt\n      iszero\n      tag_149\n      jumpi\n      dup3\n      mload\n      dup3\n      sstore\n      swap2\n      0x20\n      add\n      swap2\n      swap1\n      0x01\n      add\n      swap1\n      jump(tag_148)\n    tag_149:\n    tag_145:\n      pop\n      swap1\n      pop\n      tag_150\n      swap2\n      swap1\n      tag_151\n      jump\t// in\n    tag_150:\n      pop\n      swap1\n      jump\t// out\n    tag_151:\n    tag_152:\n      dup1\n      dup3\n      gt\n      iszero\n      tag_153\n      jumpi\n      0x00\n      dup2\n      0x00\n      swap1\n      sstore\n      pop\n      0x01\n      add\n      jump(tag_152)\n    tag_153:\n      pop\n      swap1\n      jump\t// out\n        /* \"#utility.yul\":7:84   */\n    tag_154:\n        /* \"#utility.yul\":44:51   */\n      0x00\n        /* \"#utility.yul\":73:78   */\n      dup2\n        /* \"#utility.yul\":62:78   */\n      swap1\n      pop\n        /* \"#utility.yul\":7:84   */\n      swap2\n      swap1\n      pop\n      jump\t// out\n        /* \"#utility.yul\":90:208   */\n    tag_155:\n        /* \"#utility.yul\":177:201   */\n      tag_208\n        /* \"#utility.yul\":195:200   */\n      dup2\n        /* \"#utility.yul\":177:201   */\n      tag_154\n      jump\t// in\n    tag_208:\n        /* \"#utility.yul\":172:175   */\n      dup3\n        /* \"#utility.yul\":165:202   */\n      mstore\n        /* \"#utility.yul\":90:208   */\n      pop\n      pop\n      jump\t// out\n        /* \"#utility.yul\":214:436   */\n    tag_24:\n        /* \"#utility.yul\":307:311   */\n      0x00\n        /* \"#utility.yul\":345:347   */\n      0x20\n        /* \"#utility.yul\":334:343   */\n      dup3\n        /* \"#utility.yul\":330:348   */\n      add\n        /* \"#utility.yul\":322:348   */\n      swap1\n      pop\n        /* \"#utility.yul\":358:429   */\n      tag_210\n        /* \"#utility.yul\":426:427   */\n      0x00\n        /* \"#utility.yul\":415:424   */\n      dup4\n        /* \"#utility.yul\":411:428   */\n      add\n        /* \"#utility.yul\":402:408   */\n      dup5\n        /* \"#utility.yul\":358:429   */\n      tag_155\n      jump\t// in\n    tag_210:\n        /* \"#utility.yul\":214:436   */\n      swap3\n      swap2\n      pop\n      pop\n      jump\t// out\n        /* \"#utility.yul\":442:517   */\n    tag_156:\n        /* \"#utility.yul\":475:481   */\n      0x00\n        /* \"#utility.yul\":508:510   */\n      0x40\n        /* \"#utility.yul\":502:511   */\n      mload\n        /* \"#utility.yul\":492:511   */\n      swap1\n      pop\n        /* \"#utility.yul\":442:517   */\n      swap1\n      jump\t// out\n        /* \"#utility.yul\":523:640   */\n    tag_157:\n        /* \"#utility.yul\":632:633   */\n      0x00\n        /* \"#utility.yul\":629:630   */\n      dup1\n        /* \"#utility.yul\":622:634   */\n      revert\n        /* \"#utility.yul\":646:763   */\n    tag_158:\n        /* \"#utility.yul\":755:756   */\n      0x00\n        /* \"#utility.yul\":752:753   */\n      dup1\n        /* \"#utility.yul\":745:757   */\n      revert\n        /* \"#utility.yul\":769:895   */\n    tag_159:\n        /* \"#utility.yul\":806:813   */\n      0x00\n        /* \"#utility.yul\":846:888   */\n      0xffffffffffffffffffffffffffffffffffffffff\n        /* \"#utility.yul\":839:844   */\n      dup3\n        /* \"#utility.yul\":835:889   */\n      and\n        /* \"#utility.yul\":824:889   */\n      swap1\n      pop\n        /* \"#utility.yul\":769:895   */\n      swap2\n      swap1\n      pop\n      jump\t// out\n        /* \"#utility.yul\":901:997   */\n    tag_160:\n        /* \"#utility.yul\":938:945   */\n      0x00\n        /* \"#utility.yul\":967:991   */\n      tag_216\n        /* \"#utility.yul\":985:990   */\n      dup3\n        /* \"#utility.yul\":967:991   */\n      tag_159\n      jump\t// in\n    tag_216:\n        /* \"#utility.yul\":956:991   */\n      swap1\n      pop\n        /* \"#utility.yul\":901:997   */\n      swap2\n      swap1\n      pop\n      jump\t// out\n        /* \"#utility.yul\":1003:1125   */\n    tag_161:\n        /* \"#utility.yul\":1076:1100   */\n      tag_218\n        /* \"#utility.yul\":1094:1099   */\n      dup2\n        /* \"#utility.yul\":1076:1100   */\n      tag_160\n      jump\t// in\n    tag_218:\n        /* \"#utility.yul\":1069:1074   */\n      dup2\n        /* \"#utility.yul\":1066:1101   */\n      eq\n        /* \"#utility.yul\":1056:1119   */\n      tag_219\n      jumpi\n        /* \"#utility.yul\":1115:1116   */\n      0x00\n        /* \"#utility.yul\":1112:1113   */\n      dup1\n        /* \"#utility.yul\":1105:1117   */\n      revert\n        /* \"#utility.yul\":1056:1119   */\n    tag_219:\n        /* \"#utility.yul\":1003:1125   */\n      pop\n      jump\t// out\n        /* \"#utility.yul\":1131:1270   */\n    tag_162:\n        /* \"#utility.yul\":1177:1182   */\n      0x00\n        /* \"#utility.yul\":1215:1221   */\n      dup2\n        /* \"#utility.yul\":1202:1222   */\n      calldataload\n        /* \"#utility.yul\":1193:1222   */\n      swap1\n      pop\n        /* \"#utility.yul\":1231:1264   */\n      tag_221\n        /* \"#utility.yul\":1258:1263   */\n      dup2\n        /* \"#utility.yul\":1231:1264   */\n      tag_161\n      jump\t// in\n    tag_221:\n        /* \"#utility.yul\":1131:1270   */\n      swap3\n      swap2\n      pop\n      pop\n      jump\t// out\n        /* \"#utility.yul\":1276:1605   */\n    tag_30:\n        /* \"#utility.yul\":1335:1341   */\n      0x00\n        /* \"#utility.yul\":1384:1386   */\n      0x20\n        /* \"#utility.yul\":1372:1381   */\n      dup3\n        /* \"#utility.yul\":1363:1370   */\n      dup5\n        /* \"#utility.yul\":1359:1382   */\n      sub\n        /* \"#utility.yul\":1355:1387   */\n      slt\n        /* \"#utility.yul\":1352:1471   */\n      iszero\n      tag_223\n      jumpi\n        /* \"#utility.yul\":1390:1469   */\n      tag_224\n      tag_157\n      jump\t// in\n    tag_224:\n        /* \"#utility.yul\":1352:1471   */\n    tag_223:\n        /* \"#utility.yul\":1510:1511   */\n      0x00\n        /* \"#utility.yul\":1535:1588   */\n      tag_225\n        /* \"#utility.yul\":1580:1587   */\n      dup5\n        /* \"#utility.yul\":1571:1577   */\n      dup3\n        /* \"#utility.yul\":1560:1569   */\n      dup6\n        /* \"#utility.yul\":1556:1578   */\n      add\n        /* \"#utility.yul\":1535:1588   */\n      tag_162\n      jump\t// in\n    tag_225:\n        /* \"#utility.yul\":1525:1588   */\n      swap2\n      pop\n        /* \"#utility.yul\":1481:1598   */\n      pop\n        /* \"#utility.yul\":1276:1605   */\n      swap3\n      swap2\n      pop\n      pop\n      jump\t// out\n        /* \"#utility.yul\":1611:1729   */\n    tag_163:\n        /* \"#utility.yul\":1698:1722   */\n      tag_227\n        /* \"#utility.yul\":1716:1721   */\n      dup2\n        /* \"#utility.yul\":1698:1722   */\n      tag_160\n      jump\t// in\n    tag_227:\n        /* \"#utility.yul\":1693:1696   */\n      dup3\n        /* \"#utility.yul\":1686:1723   */\n      mstore\n        /* \"#utility.yul\":1611:1729   */\n      pop\n      pop\n      jump\t// out\n        /* \"#utility.yul\":1735:1957   */\n    tag_41:\n        /* \"#utility.yul\":1828:1832   */\n      0x00\n        /* \"#utility.yul\":1866:1868   */\n      0x20\n        /* \"#utility.yul\":1855:1864   */\n      dup3\n        /* \"#utility.yul\":1851:1869   */\n      add\n        /* \"#utility.yul\":1843:1869   */\n      swap1\n      pop\n        /* \"#utility.yul\":1879:1950   */\n      tag_229\n        /* \"#utility.yul\":1947:1948   */\n      0x00\n        /* \"#utility.yul\":1936:1945   */\n      dup4\n        /* \"#utility.yul\":1932:1949   */\n      add\n        /* \"#utility.yul\":1923:1929   */\n      dup5\n        /* \"#utility.yul\":1879:1950   */\n      tag_163\n      jump\t// in\n    tag_229:\n        /* \"#utility.yul\":1735:1957   */\n      swap3\n      swap2\n      pop\n      pop\n      jump\t// out\n        /* \"#utility.yul\":1963:2085   */\n    tag_164:\n        /* \"#utility.yul\":2036:2060   */\n      tag_231\n        /* \"#utility.yul\":2054:2059   */\n      dup2\n        /* \"#utility.yul\":2036:2060   */\n      tag_154\n      jump\t// in\n    tag_231:\n        /* \"#utility.yul\":2029:2034   */\n      dup2\n        /* \"#utility.yul\":2026:2061   */\n      eq\n        /* \"#utility.yul\":2016:2079   */\n      tag_232\n      jumpi\n        /* \"#utility.yul\":2075:2076   */\n      0x00\n        /* \"#utility.yul\":2072:2073   */\n      dup1\n        /* \"#utility.yul\":2065:2077   */\n      revert\n        /* \"#utility.yul\":2016:2079   */\n    tag_232:\n        /* \"#utility.yul\":1963:2085   */\n      pop\n      jump\t// out\n        /* \"#utility.yul\":2091:2230   */\n    tag_165:\n        /* \"#utility.yul\":2137:2142   */\n      0x00\n        /* \"#utility.yul\":2175:2181   */\n      dup2\n        /* \"#utility.yul\":2162:2182   */\n      calldataload\n        /* \"#utility.yul\":2153:2182   */\n      swap1\n      pop\n        /* \"#utility.yul\":2191:2224   */\n      tag_234\n        /* \"#utility.yul\":2218:2223   */\n      dup2\n        /* \"#utility.yul\":2191:2224   */\n      tag_164\n      jump\t// in\n    tag_234:\n        /* \"#utility.yul\":2091:2230   */\n      swap3\n      swap2\n      pop\n      pop\n      jump\t// out\n        /* \"#utility.yul\":2236:2565   */\n    tag_45:\n        /* \"#utility.yul\":2295:2301   */\n      0x00\n        /* \"#utility.yul\":2344:2346   */\n      0x20\n        /* \"#utility.yul\":2332:2341   */\n      dup3\n        /* \"#utility.yul\":2323:2330   */\n      dup5\n        /* \"#utility.yul\":2319:2342   */\n      sub\n        /* \"#utility.yul\":2315:2347   */\n      slt\n        /* \"#utility.yul\":2312:2431   */\n      iszero\n      tag_236\n      jumpi\n        /* \"#utility.yul\":2350:2429   */\n      tag_237\n      tag_157\n      jump\t// in\n    tag_237:\n        /* \"#utility.yul\":2312:2431   */\n    tag_236:\n        /* \"#utility.yul\":2470:2471   */\n      0x00\n        /* \"#utility.yul\":2495:2548   */\n      tag_238\n        /* \"#utility.yul\":2540:2547   */\n      dup5\n        /* \"#utility.yul\":2531:2537   */\n      dup3\n        /* \"#utility.yul\":2520:2529   */\n      dup6\n        /* \"#utility.yul\":2516:2538   */\n      add\n        /* \"#utility.yul\":2495:2548   */\n      tag_165\n      jump\t// in\n    tag_238:\n        /* \"#utility.yul\":2485:2548   */\n      swap2\n      pop\n        /* \"#utility.yul\":2441:2558   */\n      pop\n        /* \"#utility.yul\":2236:2565   */\n      swap3\n      swap2\n      pop\n      pop\n      jump\t// out\n        /* \"#utility.yul\":2571:2670   */\n    tag_166:\n        /* \"#utility.yul\":2623:2629   */\n      0x00\n        /* \"#utility.yul\":2657:2662   */\n      dup2\n        /* \"#utility.yul\":2651:2663   */\n      mload\n        /* \"#utility.yul\":2641:2663   */\n      swap1\n      pop\n        /* \"#utility.yul\":2571:2670   */\n      swap2\n      swap1\n      pop\n      jump\t// out\n        /* \"#utility.yul\":2676:2845   */\n    tag_167:\n        /* \"#utility.yul\":2760:2771   */\n      0x00\n        /* \"#utility.yul\":2794:2800   */\n      dup3\n        /* \"#utility.yul\":2789:2792   */\n      dup3\n        /* \"#utility.yul\":2782:2801   */\n      mstore\n        /* \"#utility.yul\":2834:2838   */\n      0x20\n        /* \"#utility.yul\":2829:2832   */\n      dup3\n        /* \"#utility.yul\":2825:2839   */\n      add\n        /* \"#utility.yul\":2810:2839   */\n      swap1\n      pop\n        /* \"#utility.yul\":2676:2845   */\n      swap3\n      swap2\n      pop\n      pop\n      jump\t// out\n        /* \"#utility.yul\":2851:3158   */\n    tag_168:\n        /* \"#utility.yul\":2919:2920   */\n      0x00\n        /* \"#utility.yul\":2929:3042   */\n    tag_242:\n        /* \"#utility.yul\":2943:2949   */\n      dup4\n        /* \"#utility.yul\":2940:2941   */\n      dup2\n        /* \"#utility.yul\":2937:2950   */\n      lt\n        /* \"#utility.yul\":2929:3042   */\n      iszero\n      tag_244\n      jumpi\n        /* \"#utility.yul\":3028:3029   */\n      dup1\n        /* \"#utility.yul\":3023:3026   */\n      dup3\n        /* \"#utility.yul\":3019:3030   */\n      add\n        /* \"#utility.yul\":3013:3031   */\n      mload\n        /* \"#utility.yul\":3009:3010   */\n      dup2\n        /* \"#utility.yul\":3004:3007   */\n      dup5\n        /* \"#utility.yul\":3000:3011   */\n      add\n        /* \"#utility.yul\":2993:3032   */\n      mstore\n        /* \"#utility.yul\":2965:2967   */\n      0x20\n        /* \"#utility.yul\":2962:2963   */\n      dup2\n        /* \"#utility.yul\":2958:2968   */\n      add\n        /* \"#utility.yul\":2953:2968   */\n      swap1\n      pop\n        /* \"#utility.yul\":2929:3042   */\n      jump(tag_242)\n    tag_244:\n        /* \"#utility.yul\":3060:3066   */\n      dup4\n        /* \"#utility.yul\":3057:3058   */\n      dup2\n        /* \"#utility.yul\":3054:3067   */\n      gt\n        /* \"#utility.yul\":3051:3152   */\n      iszero\n      tag_245\n      jumpi\n        /* \"#utility.yul\":3140:3141   */\n      0x00\n        /* \"#utility.yul\":3131:3137   */\n      dup5\n        /* \"#utility.yul\":3126:3129   */\n      dup5\n        /* \"#utility.yul\":3122:3138   */\n      add\n        /* \"#utility.yul\":3115:3142   */\n      mstore\n        /* \"#utility.yul\":3051:3152   */\n    tag_245:\n        /* \"#utility.yul\":2900:3158   */\n      pop\n        /* \"#utility.yul\":2851:3158   */\n      pop\n      pop\n      pop\n      jump\t// out\n        /* \"#utility.yul\":3164:3266   */\n    tag_169:\n        /* \"#utility.yul\":3205:3211   */\n      0x00\n        /* \"#utility.yul\":3256:3258   */\n      0x1f\n        /* \"#utility.yul\":3252:3259   */\n      not\n        /* \"#utility.yul\":3247:3249   */\n      0x1f\n        /* \"#utility.yul\":3240:3245   */\n      dup4\n        /* \"#utility.yul\":3236:3250   */\n      add\n        /* \"#utility.yul\":3232:3260   */\n      and\n        /* \"#utility.yul\":3222:3260   */\n      swap1\n      pop\n        /* \"#utility.yul\":3164:3266   */\n      swap2\n      swap1\n      pop\n      jump\t// out\n        /* \"#utility.yul\":3272:3636   */\n    tag_170:\n        /* \"#utility.yul\":3360:3363   */\n      0x00\n        /* \"#utility.yul\":3388:3427   */\n      tag_248\n        /* \"#utility.yul\":3421:3426   */\n      dup3\n        /* \"#utility.yul\":3388:3427   */\n      tag_166\n      jump\t// in\n    tag_248:\n        /* \"#utility.yul\":3443:3514   */\n      tag_249\n        /* \"#utility.yul\":3507:3513   */\n      dup2\n        /* \"#utility.yul\":3502:3505   */\n      dup6\n        /* \"#utility.yul\":3443:3514   */\n      tag_167\n      jump\t// in\n    tag_249:\n        /* \"#utility.yul\":3436:3514   */\n      swap4\n      pop\n        /* \"#utility.yul\":3523:3575   */\n      tag_250\n        /* \"#utility.yul\":3568:3574   */\n      dup2\n        /* \"#utility.yul\":3563:3566   */\n      dup6\n        /* \"#utility.yul\":3556:3560   */\n      0x20\n        /* \"#utility.yul\":3549:3554   */\n      dup7\n        /* \"#utility.yul\":3545:3561   */\n      add\n        /* \"#utility.yul\":3523:3575   */\n      tag_168\n      jump\t// in\n    tag_250:\n        /* \"#utility.yul\":3600:3629   */\n      tag_251\n        /* \"#utility.yul\":3622:3628   */\n      dup2\n        /* \"#utility.yul\":3600:3629   */\n      tag_169\n      jump\t// in\n    tag_251:\n        /* \"#utility.yul\":3595:3598   */\n      dup5\n        /* \"#utility.yul\":3591:3630   */\n      add\n        /* \"#utility.yul\":3584:3630   */\n      swap2\n      pop\n        /* \"#utility.yul\":3364:3636   */\n      pop\n        /* \"#utility.yul\":3272:3636   */\n      swap3\n      swap2\n      pop\n      pop\n      jump\t// out\n        /* \"#utility.yul\":3642:3746   */\n    tag_171:\n        /* \"#utility.yul\":3687:3694   */\n      0x00\n        /* \"#utility.yul\":3716:3740   */\n      tag_253\n        /* \"#utility.yul\":3734:3739   */\n      dup3\n        /* \"#utility.yul\":3716:3740   */\n      tag_159\n      jump\t// in\n    tag_253:\n        /* \"#utility.yul\":3705:3740   */\n      swap1\n      pop\n        /* \"#utility.yul\":3642:3746   */\n      swap2\n      swap1\n      pop\n      jump\t// out\n        /* \"#utility.yul\":3752:3894   */\n    tag_172:\n        /* \"#utility.yul\":3855:3887   */\n      tag_255\n        /* \"#utility.yul\":3881:3886   */\n      dup2\n        /* \"#utility.yul\":3855:3887   */\n      tag_171\n      jump\t// in\n    tag_255:\n        /* \"#utility.yul\":3850:3853   */\n      dup3\n        /* \"#utility.yul\":3843:3888   */\n      mstore\n        /* \"#utility.yul\":3752:3894   */\n      pop\n      pop\n      jump\t// out\n        /* \"#utility.yul\":3900:3990   */\n    tag_173:\n        /* \"#utility.yul\":3934:3941   */\n      0x00\n        /* \"#utility.yul\":3977:3982   */\n      dup2\n        /* \"#utility.yul\":3970:3983   */\n      iszero\n        /* \"#utility.yul\":3963:3984   */\n      iszero\n        /* \"#utility.yul\":3952:3984   */\n      swap1\n      pop\n        /* \"#utility.yul\":3900:3990   */\n      swap2\n      swap1\n      pop\n      jump\t// out\n        /* \"#utility.yul\":3996:4105   */\n    tag_174:\n        /* \"#utility.yul\":4077:4098   */\n      tag_258\n        /* \"#utility.yul\":4092:4097   */\n      dup2\n        /* \"#utility.yul\":4077:4098   */\n      tag_173\n      jump\t// in\n    tag_258:\n        /* \"#utility.yul\":4072:4075   */\n      dup3\n        /* \"#utility.yul\":4065:4099   */\n      mstore\n        /* \"#utility.yul\":3996:4105   */\n      pop\n      pop\n      jump\t// out\n        /* \"#utility.yul\":4111:4886   */\n    tag_59:\n        /* \"#utility.yul\":4346:4350   */\n      0x00\n        /* \"#utility.yul\":4384:4387   */\n      0xa0\n        /* \"#utility.yul\":4373:4382   */\n      dup3\n        /* \"#utility.yul\":4369:4388   */\n      add\n        /* \"#utility.yul\":4361:4388   */\n      swap1\n      pop\n        /* \"#utility.yul\":4434:4443   */\n      dup2\n        /* \"#utility.yul\":4428:4432   */\n      dup2\n        /* \"#utility.yul\":4424:4444   */\n      sub\n        /* \"#utility.yul\":4420:4421   */\n      0x00\n        /* \"#utility.yul\":4409:4418   */\n      dup4\n        /* \"#utility.yul\":4405:4422   */\n      add\n        /* \"#utility.yul\":4398:4445   */\n      mstore\n        /* \"#utility.yul\":4462:4540   */\n      tag_260\n        /* \"#utility.yul\":4535:4539   */\n      dup2\n        /* \"#utility.yul\":4526:4532   */\n      dup9\n        /* \"#utility.yul\":4462:4540   */\n      tag_170\n      jump\t// in\n    tag_260:\n        /* \"#utility.yul\":4454:4540   */\n      swap1\n      pop\n        /* \"#utility.yul\":4550:4622   */\n      tag_261\n        /* \"#utility.yul\":4618:4620   */\n      0x20\n        /* \"#utility.yul\":4607:4616   */\n      dup4\n        /* \"#utility.yul\":4603:4621   */\n      add\n        /* \"#utility.yul\":4594:4600   */\n      dup8\n        /* \"#utility.yul\":4550:4622   */\n      tag_155\n      jump\t// in\n    tag_261:\n        /* \"#utility.yul\":4632:4720   */\n      tag_262\n        /* \"#utility.yul\":4716:4718   */\n      0x40\n        /* \"#utility.yul\":4705:4714   */\n      dup4\n        /* \"#utility.yul\":4701:4719   */\n      add\n        /* \"#utility.yul\":4692:4698   */\n      dup7\n        /* \"#utility.yul\":4632:4720   */\n      tag_172\n      jump\t// in\n    tag_262:\n        /* \"#utility.yul\":4730:4796   */\n      tag_263\n        /* \"#utility.yul\":4792:4794   */\n      0x60\n        /* \"#utility.yul\":4781:4790   */\n      dup4\n        /* \"#utility.yul\":4777:4795   */\n      add\n        /* \"#utility.yul\":4768:4774   */\n      dup6\n        /* \"#utility.yul\":4730:4796   */\n      tag_174\n      jump\t// in\n    tag_263:\n        /* \"#utility.yul\":4806:4879   */\n      tag_264\n        /* \"#utility.yul\":4874:4877   */\n      0x80\n        /* \"#utility.yul\":4863:4872   */\n      dup4\n        /* \"#utility.yul\":4859:4878   */\n      add\n        /* \"#utility.yul\":4850:4856   */\n      dup5\n        /* \"#utility.yul\":4806:4879   */\n      tag_155\n      jump\t// in\n    tag_264:\n        /* \"#utility.yul\":4111:4886   */\n      swap7\n      swap6\n      pop\n      pop\n      pop\n      pop\n      pop\n      pop\n      jump\t// out\n        /* \"#utility.yul\":4892:5009   */\n    tag_175:\n        /* \"#utility.yul\":5001:5002   */\n      0x00\n        /* \"#utility.yul\":4998:4999   */\n      dup1\n        /* \"#utility.yul\":4991:5003   */\n      revert\n        /* \"#utility.yul\":5015:5132   */\n    tag_176:\n        /* \"#utility.yul\":5124:5125   */\n      0x00\n        /* \"#utility.yul\":5121:5122   */\n      dup1\n        /* \"#utility.yul\":5114:5126   */\n      revert\n        /* \"#utility.yul\":5138:5318   */\n    tag_177:\n        /* \"#utility.yul\":5186:5263   */\n      0x4e487b7100000000000000000000000000000000000000000000000000000000\n        /* \"#utility.yul\":5183:5184   */\n      0x00\n        /* \"#utility.yul\":5176:5264   */\n      mstore\n        /* \"#utility.yul\":5283:5287   */\n      0x41\n        /* \"#utility.yul\":5280:5281   */\n      0x04\n        /* \"#utility.yul\":5273:5288   */\n      mstore\n        /* \"#utility.yul\":5307:5311   */\n      0x24\n        /* \"#utility.yul\":5304:5305   */\n      0x00\n        /* \"#utility.yul\":5297:5312   */\n      revert\n        /* \"#utility.yul\":5324:5605   */\n    tag_178:\n        /* \"#utility.yul\":5407:5434   */\n      tag_269\n        /* \"#utility.yul\":5429:5433   */\n      dup3\n        /* \"#utility.yul\":5407:5434   */\n      tag_169\n      jump\t// in\n    tag_269:\n        /* \"#utility.yul\":5399:5405   */\n      dup2\n        /* \"#utility.yul\":5395:5435   */\n      add\n        /* \"#utility.yul\":5537:5543   */\n      dup2\n        /* \"#utility.yul\":5525:5535   */\n      dup2\n        /* \"#utility.yul\":5522:5544   */\n      lt\n        /* \"#utility.yul\":5501:5519   */\n      0xffffffffffffffff\n        /* \"#utility.yul\":5489:5499   */\n      dup3\n        /* \"#utility.yul\":5486:5520   */\n      gt\n        /* \"#utility.yul\":5483:5545   */\n      or\n        /* \"#utility.yul\":5480:5568   */\n      iszero\n      tag_270\n      jumpi\n        /* \"#utility.yul\":5548:5566   */\n      tag_271\n      tag_177\n      jump\t// in\n    tag_271:\n        /* \"#utility.yul\":5480:5568   */\n    tag_270:\n        /* \"#utility.yul\":5588:5598   */\n      dup1\n        /* \"#utility.yul\":5584:5586   */\n      0x40\n        /* \"#utility.yul\":5577:5599   */\n      mstore\n        /* \"#utility.yul\":5367:5605   */\n      pop\n        /* \"#utility.yul\":5324:5605   */\n      pop\n      pop\n      jump\t// out\n        /* \"#utility.yul\":5611:5740   */\n    tag_179:\n        /* \"#utility.yul\":5645:5651   */\n      0x00\n        /* \"#utility.yul\":5672:5692   */\n      tag_273\n      tag_156\n      jump\t// in\n    tag_273:\n        /* \"#utility.yul\":5662:5692   */\n      swap1\n      pop\n        /* \"#utility.yul\":5701:5734   */\n      tag_274\n        /* \"#utility.yul\":5729:5733   */\n      dup3\n        /* \"#utility.yul\":5721:5727   */\n      dup3\n        /* \"#utility.yul\":5701:5734   */\n      tag_178\n      jump\t// in\n    tag_274:\n        /* \"#utility.yul\":5611:5740   */\n      swap2\n      swap1\n      pop\n      jump\t// out\n        /* \"#utility.yul\":5746:6054   */\n    tag_180:\n        /* \"#utility.yul\":5808:5812   */\n      0x00\n        /* \"#utility.yul\":5898:5916   */\n      0xffffffffffffffff\n        /* \"#utility.yul\":5890:5896   */\n      dup3\n        /* \"#utility.yul\":5887:5917   */\n      gt\n        /* \"#utility.yul\":5884:5940   */\n      iszero\n      tag_276\n      jumpi\n        /* \"#utility.yul\":5920:5938   */\n      tag_277\n      tag_177\n      jump\t// in\n    tag_277:\n        /* \"#utility.yul\":5884:5940   */\n    tag_276:\n        /* \"#utility.yul\":5958:5987   */\n      tag_278\n        /* \"#utility.yul\":5980:5986   */\n      dup3\n        /* \"#utility.yul\":5958:5987   */\n      tag_169\n      jump\t// in\n    tag_278:\n        /* \"#utility.yul\":5950:5987   */\n      swap1\n      pop\n        /* \"#utility.yul\":6042:6046   */\n      0x20\n        /* \"#utility.yul\":6036:6040   */\n      dup2\n        /* \"#utility.yul\":6032:6047   */\n      add\n        /* \"#utility.yul\":6024:6047   */\n      swap1\n      pop\n        /* \"#utility.yul\":5746:6054   */\n      swap2\n      swap1\n      pop\n      jump\t// out\n        /* \"#utility.yul\":6060:6214   */\n    tag_181:\n        /* \"#utility.yul\":6144:6150   */\n      dup3\n        /* \"#utility.yul\":6139:6142   */\n      dup2\n        /* \"#utility.yul\":6134:6137   */\n      dup4\n        /* \"#utility.yul\":6121:6151   */\n      calldatacopy\n        /* \"#utility.yul\":6206:6207   */\n      0x00\n        /* \"#utility.yul\":6197:6203   */\n      dup4\n        /* \"#utility.yul\":6192:6195   */\n      dup4\n        /* \"#utility.yul\":6188:6204   */\n      add\n        /* \"#utility.yul\":6181:6208   */\n      mstore\n        /* \"#utility.yul\":6060:6214   */\n      pop\n      pop\n      pop\n      jump\t// out\n        /* \"#utility.yul\":6220:6632   */\n    tag_182:\n        /* \"#utility.yul\":6298:6303   */\n      0x00\n        /* \"#utility.yul\":6323:6389   */\n      tag_281\n        /* \"#utility.yul\":6339:6388   */\n      tag_282\n        /* \"#utility.yul\":6381:6387   */\n      dup5\n        /* \"#utility.yul\":6339:6388   */\n      tag_180\n      jump\t// in\n    tag_282:\n        /* \"#utility.yul\":6323:6389   */\n      tag_179\n      jump\t// in\n    tag_281:\n        /* \"#utility.yul\":6314:6389   */\n      swap1\n      pop\n        /* \"#utility.yul\":6412:6418   */\n      dup3\n        /* \"#utility.yul\":6405:6410   */\n      dup2\n        /* \"#utility.yul\":6398:6419   */\n      mstore\n        /* \"#utility.yul\":6450:6454   */\n      0x20\n        /* \"#utility.yul\":6443:6448   */\n      dup2\n        /* \"#utility.yul\":6439:6455   */\n      add\n        /* \"#utility.yul\":6488:6491   */\n      dup5\n        /* \"#utility.yul\":6479:6485   */\n      dup5\n        /* \"#utility.yul\":6474:6477   */\n      dup5\n        /* \"#utility.yul\":6470:6486   */\n      add\n        /* \"#utility.yul\":6467:6492   */\n      gt\n        /* \"#utility.yul\":6464:6576   */\n      iszero\n      tag_283\n      jumpi\n        /* \"#utility.yul\":6495:6574   */\n      tag_284\n      tag_176\n      jump\t// in\n    tag_284:\n        /* \"#utility.yul\":6464:6576   */\n    tag_283:\n        /* \"#utility.yul\":6585:6626   */\n      tag_285\n        /* \"#utility.yul\":6619:6625   */\n      dup5\n        /* \"#utility.yul\":6614:6617   */\n      dup3\n        /* \"#utility.yul\":6609:6612   */\n      dup6\n        /* \"#utility.yul\":6585:6626   */\n      tag_181\n      jump\t// in\n    tag_285:\n        /* \"#utility.yul\":6304:6632   */\n      pop\n        /* \"#utility.yul\":6220:6632   */\n      swap4\n      swap3\n      pop\n      pop\n      pop\n      jump\t// out\n        /* \"#utility.yul\":6652:6992   */\n    tag_183:\n        /* \"#utility.yul\":6708:6713   */\n      0x00\n        /* \"#utility.yul\":6757:6760   */\n      dup3\n        /* \"#utility.yul\":6750:6754   */\n      0x1f\n        /* \"#utility.yul\":6742:6748   */\n      dup4\n        /* \"#utility.yul\":6738:6755   */\n      add\n        /* \"#utility.yul\":6734:6761   */\n      slt\n        /* \"#utility.yul\":6724:6846   */\n      tag_287\n      jumpi\n        /* \"#utility.yul\":6765:6844   */\n      tag_288\n      tag_175\n      jump\t// in\n    tag_288:\n        /* \"#utility.yul\":6724:6846   */\n    tag_287:\n        /* \"#utility.yul\":6882:6888   */\n      dup2\n        /* \"#utility.yul\":6869:6889   */\n      calldataload\n        /* \"#utility.yul\":6907:6986   */\n      tag_289\n        /* \"#utility.yul\":6982:6985   */\n      dup5\n        /* \"#utility.yul\":6974:6980   */\n      dup3\n        /* \"#utility.yul\":6967:6971   */\n      0x20\n        /* \"#utility.yul\":6959:6965   */\n      dup7\n        /* \"#utility.yul\":6955:6972   */\n      add\n        /* \"#utility.yul\":6907:6986   */\n      tag_182\n      jump\t// in\n    tag_289:\n        /* \"#utility.yul\":6898:6986   */\n      swap2\n      pop\n        /* \"#utility.yul\":6714:6992   */\n      pop\n        /* \"#utility.yul\":6652:6992   */\n      swap3\n      swap2\n      pop\n      pop\n      jump\t// out\n        /* \"#utility.yul\":6998:7136   */\n    tag_184:\n        /* \"#utility.yul\":7079:7111   */\n      tag_291\n        /* \"#utility.yul\":7105:7110   */\n      dup2\n        /* \"#utility.yul\":7079:7111   */\n      tag_171\n      jump\t// in\n    tag_291:\n        /* \"#utility.yul\":7072:7077   */\n      dup2\n        /* \"#utility.yul\":7069:7112   */\n      eq\n        /* \"#utility.yul\":7059:7130   */\n      tag_292\n      jumpi\n        /* \"#utility.yul\":7126:7127   */\n      0x00\n        /* \"#utility.yul\":7123:7124   */\n      dup1\n        /* \"#utility.yul\":7116:7128   */\n      revert\n        /* \"#utility.yul\":7059:7130   */\n    tag_292:\n        /* \"#utility.yul\":6998:7136   */\n      pop\n      jump\t// out\n        /* \"#utility.yul\":7142:7297   */\n    tag_185:\n        /* \"#utility.yul\":7196:7201   */\n      0x00\n        /* \"#utility.yul\":7234:7240   */\n      dup2\n        /* \"#utility.yul\":7221:7241   */\n      calldataload\n        /* \"#utility.yul\":7212:7241   */\n      swap1\n      pop\n        /* \"#utility.yul\":7250:7291   */\n      tag_294\n        /* \"#utility.yul\":7285:7290   */\n      dup2\n        /* \"#utility.yul\":7250:7291   */\n      tag_184\n      jump\t// in\n    tag_294:\n        /* \"#utility.yul\":7142:7297   */\n      swap3\n      swap2\n      pop\n      pop\n      jump\t// out\n        /* \"#utility.yul\":7303:8118   */\n    tag_63:\n        /* \"#utility.yul\":7398:7404   */\n      0x00\n        /* \"#utility.yul\":7406:7412   */\n      dup1\n        /* \"#utility.yul\":7414:7420   */\n      0x00\n        /* \"#utility.yul\":7463:7465   */\n      0x60\n        /* \"#utility.yul\":7451:7460   */\n      dup5\n        /* \"#utility.yul\":7442:7449   */\n      dup7\n        /* \"#utility.yul\":7438:7461   */\n      sub\n        /* \"#utility.yul\":7434:7466   */\n      slt\n        /* \"#utility.yul\":7431:7550   */\n      iszero\n      tag_296\n      jumpi\n        /* \"#utility.yul\":7469:7548   */\n      tag_297\n      tag_157\n      jump\t// in\n    tag_297:\n        /* \"#utility.yul\":7431:7550   */\n    tag_296:\n        /* \"#utility.yul\":7617:7618   */\n      0x00\n        /* \"#utility.yul\":7606:7615   */\n      dup5\n        /* \"#utility.yul\":7602:7619   */\n      add\n        /* \"#utility.yul\":7589:7620   */\n      calldataload\n        /* \"#utility.yul\":7647:7665   */\n      0xffffffffffffffff\n        /* \"#utility.yul\":7639:7645   */\n      dup2\n        /* \"#utility.yul\":7636:7666   */\n      gt\n        /* \"#utility.yul\":7633:7750   */\n      iszero\n      tag_298\n      jumpi\n        /* \"#utility.yul\":7669:7748   */\n      tag_299\n      tag_158\n      jump\t// in\n    tag_299:\n        /* \"#utility.yul\":7633:7750   */\n    tag_298:\n        /* \"#utility.yul\":7774:7837   */\n      tag_300\n        /* \"#utility.yul\":7829:7836   */\n      dup7\n        /* \"#utility.yul\":7820:7826   */\n      dup3\n        /* \"#utility.yul\":7809:7818   */\n      dup8\n        /* \"#utility.yul\":7805:7827   */\n      add\n        /* \"#utility.yul\":7774:7837   */\n      tag_183\n      jump\t// in\n    tag_300:\n        /* \"#utility.yul\":7764:7837   */\n      swap4\n      pop\n        /* \"#utility.yul\":7560:7847   */\n      pop\n        /* \"#utility.yul\":7886:7888   */\n      0x20\n        /* \"#utility.yul\":7912:7973   */\n      tag_301\n        /* \"#utility.yul\":7965:7972   */\n      dup7\n        /* \"#utility.yul\":7956:7962   */\n      dup3\n        /* \"#utility.yul\":7945:7954   */\n      dup8\n        /* \"#utility.yul\":7941:7963   */\n      add\n        /* \"#utility.yul\":7912:7973   */\n      tag_185\n      jump\t// in\n    tag_301:\n        /* \"#utility.yul\":7902:7973   */\n      swap3\n      pop\n        /* \"#utility.yul\":7857:7983   */\n      pop\n        /* \"#utility.yul\":8022:8024   */\n      0x40\n        /* \"#utility.yul\":8048:8101   */\n      tag_302\n        /* \"#utility.yul\":8093:8100   */\n      dup7\n        /* \"#utility.yul\":8084:8090   */\n      dup3\n        /* \"#utility.yul\":8073:8082   */\n      dup8\n        /* \"#utility.yul\":8069:8091   */\n      add\n        /* \"#utility.yul\":8048:8101   */\n      tag_165\n      jump\t// in\n    tag_302:\n        /* \"#utility.yul\":8038:8101   */\n      swap2\n      pop\n        /* \"#utility.yul\":7993:8111   */\n      pop\n        /* \"#utility.yul\":7303:8118   */\n      swap3\n      pop\n      swap3\n      pop\n      swap3\n      jump\t// out\n        /* \"#utility.yul\":8124:8300   */\n    tag_186:\n        /* \"#utility.yul\":8264:8292   */\n      0x536f7272792c20646561646c696e652068617320706173736564000000000000\n        /* \"#utility.yul\":8260:8261   */\n      0x00\n        /* \"#utility.yul\":8252:8258   */\n      dup3\n        /* \"#utility.yul\":8248:8262   */\n      add\n        /* \"#utility.yul\":8241:8293   */\n      mstore\n        /* \"#utility.yul\":8124:8300   */\n      pop\n      jump\t// out\n        /* \"#utility.yul\":8306:8672   */\n    tag_187:\n        /* \"#utility.yul\":8448:8451   */\n      0x00\n        /* \"#utility.yul\":8469:8536   */\n      tag_305\n        /* \"#utility.yul\":8533:8535   */\n      0x1a\n        /* \"#utility.yul\":8528:8531   */\n      dup4\n        /* \"#utility.yul\":8469:8536   */\n      tag_167\n      jump\t// in\n    tag_305:\n        /* \"#utility.yul\":8462:8536   */\n      swap2\n      pop\n        /* \"#utility.yul\":8545:8638   */\n      tag_306\n        /* \"#utility.yul\":8634:8637   */\n      dup3\n        /* \"#utility.yul\":8545:8638   */\n      tag_186\n      jump\t// in\n    tag_306:\n        /* \"#utility.yul\":8663:8665   */\n      0x20\n        /* \"#utility.yul\":8658:8661   */\n      dup3\n        /* \"#utility.yul\":8654:8666   */\n      add\n        /* \"#utility.yul\":8647:8666   */\n      swap1\n      pop\n        /* \"#utility.yul\":8306:8672   */\n      swap2\n      swap1\n      pop\n      jump\t// out\n        /* \"#utility.yul\":8678:9097   */\n    tag_88:\n        /* \"#utility.yul\":8844:8848   */\n      0x00\n        /* \"#utility.yul\":8882:8884   */\n      0x20\n        /* \"#utility.yul\":8871:8880   */\n      dup3\n        /* \"#utility.yul\":8867:8885   */\n      add\n        /* \"#utility.yul\":8859:8885   */\n      swap1\n      pop\n        /* \"#utility.yul\":8931:8940   */\n      dup2\n        /* \"#utility.yul\":8925:8929   */\n      dup2\n        /* \"#utility.yul\":8921:8941   */\n      sub\n        /* \"#utility.yul\":8917:8918   */\n      0x00\n        /* \"#utility.yul\":8906:8915   */\n      dup4\n        /* \"#utility.yul\":8902:8919   */\n      add\n        /* \"#utility.yul\":8895:8942   */\n      mstore\n        /* \"#utility.yul\":8959:9090   */\n      tag_308\n        /* \"#utility.yul\":9085:9089   */\n      dup2\n        /* \"#utility.yul\":8959:9090   */\n      tag_187\n      jump\t// in\n    tag_308:\n        /* \"#utility.yul\":8951:9090   */\n      swap1\n      pop\n        /* \"#utility.yul\":8678:9097   */\n      swap2\n      swap1\n      pop\n      jump\t// out\n        /* \"#utility.yul\":9103:9328   */\n    tag_188:\n        /* \"#utility.yul\":9243:9277   */\n      0x536f7272792c206d696e696d756d20636f6e747269627574696f6e206973206e\n        /* \"#utility.yul\":9239:9240   */\n      0x00\n        /* \"#utility.yul\":9231:9237   */\n      dup3\n        /* \"#utility.yul\":9227:9241   */\n      add\n        /* \"#utility.yul\":9220:9278   */\n      mstore\n        /* \"#utility.yul\":9312:9320   */\n      0x6f74206d65740000000000000000000000000000000000000000000000000000\n        /* \"#utility.yul\":9307:9309   */\n      0x20\n        /* \"#utility.yul\":9299:9305   */\n      dup3\n        /* \"#utility.yul\":9295:9310   */\n      add\n        /* \"#utility.yul\":9288:9321   */\n      mstore\n        /* \"#utility.yul\":9103:9328   */\n      pop\n      jump\t// out\n        /* \"#utility.yul\":9334:9700   */\n    tag_189:\n        /* \"#utility.yul\":9476:9479   */\n      0x00\n        /* \"#utility.yul\":9497:9564   */\n      tag_311\n        /* \"#utility.yul\":9561:9563   */\n      0x26\n        /* \"#utility.yul\":9556:9559   */\n      dup4\n        /* \"#utility.yul\":9497:9564   */\n      tag_167\n      jump\t// in\n    tag_311:\n        /* \"#utility.yul\":9490:9564   */\n      swap2\n      pop\n        /* \"#utility.yul\":9573:9666   */\n      tag_312\n        /* \"#utility.yul\":9662:9665   */\n      dup3\n        /* \"#utility.yul\":9573:9666   */\n      tag_188\n      jump\t// in\n    tag_312:\n        /* \"#utility.yul\":9691:9693   */\n      0x40\n        /* \"#utility.yul\":9686:9689   */\n      dup3\n        /* \"#utility.yul\":9682:9694   */\n      add\n        /* \"#utility.yul\":9675:9694   */\n      swap1\n      pop\n        /* \"#utility.yul\":9334:9700   */\n      swap2\n      swap1\n      pop\n      jump\t// out\n        /* \"#utility.yul\":9706:10125   */\n    tag_91:\n        /* \"#utility.yul\":9872:9876   */\n      0x00\n        /* \"#utility.yul\":9910:9912   */\n      0x20\n        /* \"#utility.yul\":9899:9908   */\n      dup3\n        /* \"#utility.yul\":9895:9913   */\n      add\n        /* \"#utility.yul\":9887:9913   */\n      swap1\n      pop\n        /* \"#utility.yul\":9959:9968   */\n      dup2\n        /* \"#utility.yul\":9953:9957   */\n      dup2\n        /* \"#utility.yul\":9949:9969   */\n      sub\n        /* \"#utility.yul\":9945:9946   */\n      0x00\n        /* \"#utility.yul\":9934:9943   */\n      dup4\n        /* \"#utility.yul\":9930:9947   */\n      add\n        /* \"#utility.yul\":9923:9970   */\n      mstore\n        /* \"#utility.yul\":9987:10118   */\n      tag_314\n        /* \"#utility.yul\":10113:10117   */\n      dup2\n        /* \"#utility.yul\":9987:10118   */\n      tag_189\n      jump\t// in\n    tag_314:\n        /* \"#utility.yul\":9979:10118   */\n      swap1\n      pop\n        /* \"#utility.yul\":9706:10125   */\n      swap2\n      swap1\n      pop\n      jump\t// out\n        /* \"#utility.yul\":10131:10311   */\n    tag_190:\n        /* \"#utility.yul\":10179:10256   */\n      0x4e487b7100000000000000000000000000000000000000000000000000000000\n        /* \"#utility.yul\":10176:10177   */\n      0x00\n        /* \"#utility.yul\":10169:10257   */\n      mstore\n        /* \"#utility.yul\":10276:10280   */\n      0x11\n        /* \"#utility.yul\":10273:10274   */\n      0x04\n        /* \"#utility.yul\":10266:10281   */\n      mstore\n        /* \"#utility.yul\":10300:10304   */\n      0x24\n        /* \"#utility.yul\":10297:10298   */\n      0x00\n        /* \"#utility.yul\":10290:10305   */\n      revert\n        /* \"#utility.yul\":10317:10550   */\n    tag_94:\n        /* \"#utility.yul\":10356:10359   */\n      0x00\n        /* \"#utility.yul\":10379:10403   */\n      tag_317\n        /* \"#utility.yul\":10397:10402   */\n      dup3\n        /* \"#utility.yul\":10379:10403   */\n      tag_154\n      jump\t// in\n    tag_317:\n        /* \"#utility.yul\":10370:10403   */\n      swap2\n      pop\n        /* \"#utility.yul\":10425:10491   */\n      0xffffffffffffffffffffffffffffffffffffffffffffffffffffffffffffffff\n        /* \"#utility.yul\":10418:10423   */\n      dup3\n        /* \"#utility.yul\":10415:10492   */\n      sub\n        /* \"#utility.yul\":10412:10515   */\n      tag_318\n      jumpi\n        /* \"#utility.yul\":10495:10513   */\n      tag_319\n      tag_190\n      jump\t// in\n    tag_319:\n        /* \"#utility.yul\":10412:10515   */\n    tag_318:\n        /* \"#utility.yul\":10542:10543   */\n      0x01\n        /* \"#utility.yul\":10535:10540   */\n      dup3\n        /* \"#utility.yul\":10531:10544   */\n      add\n        /* \"#utility.yul\":10524:10544   */\n      swap1\n      pop\n        /* \"#utility.yul\":10317:10550   */\n      swap2\n      swap1\n      pop\n      jump\t// out\n        /* \"#utility.yul\":10556:10861   */\n    tag_96:\n        /* \"#utility.yul\":10596:10599   */\n      0x00\n        /* \"#utility.yul\":10615:10635   */\n      tag_321\n        /* \"#utility.yul\":10633:10634   */\n      dup3\n        /* \"#utility.yul\":10615:10635   */\n      tag_154\n      jump\t// in\n    tag_321:\n        /* \"#utility.yul\":10610:10635   */\n      swap2\n      pop\n        /* \"#utility.yul\":10649:10669   */\n      tag_322\n        /* \"#utility.yul\":10667:10668   */\n      dup4\n        /* \"#utility.yul\":10649:10669   */\n      tag_154\n      jump\t// in\n    tag_322:\n        /* \"#utility.yul\":10644:10669   */\n      swap3\n      pop\n        /* \"#utility.yul\":10803:10804   */\n      dup3\n        /* \"#utility.yul\":10735:10801   */\n      0xffffffffffffffffffffffffffffffffffffffffffffffffffffffffffffffff\n        /* \"#utility.yul\":10731:10805   */\n      sub\n        /* \"#utility.yul\":10728:10729   */\n      dup3\n        /* \"#utility.yul\":10725:10806   */\n      gt\n        /* \"#utility.yul\":10722:10829   */\n      iszero\n      tag_323\n      jumpi\n        /* \"#utility.yul\":10809:10827   */\n      tag_324\n      tag_190\n      jump\t// in\n    tag_324:\n        /* \"#utility.yul\":10722:10829   */\n    tag_323:\n        /* \"#utility.yul\":10853:10854   */\n      dup3\n        /* \"#utility.yul\":10850:10851   */\n      dup3\n        /* \"#utility.yul\":10846:10855   */\n      add\n        /* \"#utility.yul\":10839:10855   */\n      swap1\n      pop\n        /* \"#utility.yul\":10556:10861   */\n      swap3\n      swap2\n      pop\n      pop\n      jump\t// out\n        /* \"#utility.yul\":10867:11047   */\n    tag_191:\n        /* \"#utility.yul\":11007:11039   */\n      0x596f7520617265206e6f7420656c6967696c6520666f7220766f74696e670000\n        /* \"#utility.yul\":11003:11004   */\n      0x00\n        /* \"#utility.yul\":10995:11001   */\n      dup3\n        /* \"#utility.yul\":10991:11005   */\n      add\n        /* \"#utility.yul\":10984:11040   */\n      mstore\n        /* \"#utility.yul\":10867:11047   */\n      pop\n      jump\t// out\n        /* \"#utility.yul\":11053:11419   */\n    tag_192:\n        /* \"#utility.yul\":11195:11198   */\n      0x00\n        /* \"#utility.yul\":11216:11283   */\n      tag_327\n        /* \"#utility.yul\":11280:11282   */\n      0x1e\n        /* \"#utility.yul\":11275:11278   */\n      dup4\n        /* \"#utility.yul\":11216:11283   */\n      tag_167\n      jump\t// in\n    tag_327:\n        /* \"#utility.yul\":11209:11283   */\n      swap2\n      pop\n        /* \"#utility.yul\":11292:11385   */\n      tag_328\n        /* \"#utility.yul\":11381:11384   */\n      dup3\n        /* \"#utility.yul\":11292:11385   */\n      tag_191\n      jump\t// in\n    tag_328:\n        /* \"#utility.yul\":11410:11412   */\n      0x20\n        /* \"#utility.yul\":11405:11408   */\n      dup3\n        /* \"#utility.yul\":11401:11413   */\n      add\n        /* \"#utility.yul\":11394:11413   */\n      swap1\n      pop\n        /* \"#utility.yul\":11053:11419   */\n      swap2\n      swap1\n      pop\n      jump\t// out\n        /* \"#utility.yul\":11425:11844   */\n    tag_101:\n        /* \"#utility.yul\":11591:11595   */\n      0x00\n        /* \"#utility.yul\":11629:11631   */\n      0x20\n        /* \"#utility.yul\":11618:11627   */\n      dup3\n        /* \"#utility.yul\":11614:11632   */\n      add\n        /* \"#utility.yul\":11606:11632   */\n      swap1\n      pop\n        /* \"#utility.yul\":11678:11687   */\n      dup2\n        /* \"#utility.yul\":11672:11676   */\n      dup2\n        /* \"#utility.yul\":11668:11688   */\n      sub\n        /* \"#utility.yul\":11664:11665   */\n      0x00\n        /* \"#utility.yul\":11653:11662   */\n      dup4\n        /* \"#utility.yul\":11649:11666   */\n      add\n        /* \"#utility.yul\":11642:11689   */\n      mstore\n        /* \"#utility.yul\":11706:11837   */\n      tag_330\n        /* \"#utility.yul\":11832:11836   */\n      dup2\n        /* \"#utility.yul\":11706:11837   */\n      tag_192\n      jump\t// in\n    tag_330:\n        /* \"#utility.yul\":11698:11837   */\n      swap1\n      pop\n        /* \"#utility.yul\":11425:11844   */\n      swap2\n      swap1\n      pop\n      jump\t// out\n        /* \"#utility.yul\":11850:12023   */\n    tag_193:\n        /* \"#utility.yul\":11990:12015   */\n      0x596f75206861766520616c726561647920766f74656421000000000000000000\n        /* \"#utility.yul\":11986:11987   */\n      0x00\n        /* \"#utility.yul\":11978:11984   */\n      dup3\n        /* \"#utility.yul\":11974:11988   */\n      add\n        /* \"#utility.yul\":11967:12016   */\n      mstore\n        /* \"#utility.yul\":11850:12023   */\n      pop\n      jump\t// out\n        /* \"#utility.yul\":12029:12395   */\n    tag_194:\n        /* \"#utility.yul\":12171:12174   */\n      0x00\n        /* \"#utility.yul\":12192:12259   */\n      tag_333\n        /* \"#utility.yul\":12256:12258   */\n      0x17\n        /* \"#utility.yul\":12251:12254   */\n      dup4\n        /* \"#utility.yul\":12192:12259   */\n      tag_167\n      jump\t// in\n    tag_333:\n        /* \"#utility.yul\":12185:12259   */\n      swap2\n      pop\n        /* \"#utility.yul\":12268:12361   */\n      tag_334\n        /* \"#utility.yul\":12357:12360   */\n      dup3\n        /* \"#utility.yul\":12268:12361   */\n      tag_193\n      jump\t// in\n    tag_334:\n        /* \"#utility.yul\":12386:12388   */\n      0x20\n        /* \"#utility.yul\":12381:12384   */\n      dup3\n        /* \"#utility.yul\":12377:12389   */\n      add\n        /* \"#utility.yul\":12370:12389   */\n      swap1\n      pop\n        /* \"#utility.yul\":12029:12395   */\n      swap2\n      swap1\n      pop\n      jump\t// out\n        /* \"#utility.yul\":12401:12820   */\n    tag_104:\n        /* \"#utility.yul\":12567:12571   */\n      0x00\n        /* \"#utility.yul\":12605:12607   */\n      0x20\n        /* \"#utility.yul\":12594:12603   */\n      dup3\n        /* \"#utility.yul\":12590:12608   */\n      add\n        /* \"#utility.yul\":12582:12608   */\n      swap1\n      pop\n        /* \"#utility.yul\":12654:12663   */\n      dup2\n        /* \"#utility.yul\":12648:12652   */\n      dup2\n        /* \"#utility.yul\":12644:12664   */\n      sub\n        /* \"#utility.yul\":12640:12641   */\n      0x00\n        /* \"#utility.yul\":12629:12638   */\n      dup4\n        /* \"#utility.yul\":12625:12642   */\n      add\n        /* \"#utility.yul\":12618:12665   */\n      mstore\n        /* \"#utility.yul\":12682:12813   */\n      tag_336\n        /* \"#utility.yul\":12808:12812   */\n      dup2\n        /* \"#utility.yul\":12682:12813   */\n      tag_194\n      jump\t// in\n    tag_336:\n        /* \"#utility.yul\":12674:12813   */\n      swap1\n      pop\n        /* \"#utility.yul\":12401:12820   */\n      swap2\n      swap1\n      pop\n      jump\t// out\n        /* \"#utility.yul\":12826:13047   */\n    tag_195:\n        /* \"#utility.yul\":12966:13000   */\n      0x596f7520617265206e6f7420656c696769626c6520666f7220726566756e6469\n        /* \"#utility.yul\":12962:12963   */\n      0x00\n        /* \"#utility.yul\":12954:12960   */\n      dup3\n        /* \"#utility.yul\":12950:12964   */\n      add\n        /* \"#utility.yul\":12943:13001   */\n      mstore\n        /* \"#utility.yul\":13035:13039   */\n      0x6e67000000000000000000000000000000000000000000000000000000000000\n        /* \"#utility.yul\":13030:13032   */\n      0x20\n        /* \"#utility.yul\":13022:13028   */\n      dup3\n        /* \"#utility.yul\":13018:13033   */\n      add\n        /* \"#utility.yul\":13011:13040   */\n      mstore\n        /* \"#utility.yul\":12826:13047   */\n      pop\n      jump\t// out\n        /* \"#utility.yul\":13053:13419   */\n    tag_196:\n        /* \"#utility.yul\":13195:13198   */\n      0x00\n        /* \"#utility.yul\":13216:13283   */\n      tag_339\n        /* \"#utility.yul\":13280:13282   */\n      0x22\n        /* \"#utility.yul\":13275:13278   */\n      dup4\n        /* \"#utility.yul\":13216:13283   */\n      tag_167\n      jump\t// in\n    tag_339:\n        /* \"#utility.yul\":13209:13283   */\n      swap2\n      pop\n        /* \"#utility.yul\":13292:13385   */\n      tag_340\n        /* \"#utility.yul\":13381:13384   */\n      dup3\n        /* \"#utility.yul\":13292:13385   */\n      tag_195\n      jump\t// in\n    tag_340:\n        /* \"#utility.yul\":13410:13412   */\n      0x40\n        /* \"#utility.yul\":13405:13408   */\n      dup3\n        /* \"#utility.yul\":13401:13413   */\n      add\n        /* \"#utility.yul\":13394:13413   */\n      swap1\n      pop\n        /* \"#utility.yul\":13053:13419   */\n      swap2\n      swap1\n      pop\n      jump\t// out\n        /* \"#utility.yul\":13425:13844   */\n    tag_110:\n        /* \"#utility.yul\":13591:13595   */\n      0x00\n        /* \"#utility.yul\":13629:13631   */\n      0x20\n        /* \"#utility.yul\":13618:13627   */\n      dup3\n        /* \"#utility.yul\":13614:13632   */\n      add\n        /* \"#utility.yul\":13606:13632   */\n      swap1\n      pop\n        /* \"#utility.yul\":13678:13687   */\n      dup2\n        /* \"#utility.yul\":13672:13676   */\n      dup2\n        /* \"#utility.yul\":13668:13688   */\n      sub\n        /* \"#utility.yul\":13664:13665   */\n      0x00\n        /* \"#utility.yul\":13653:13662   */\n      dup4\n        /* \"#utility.yul\":13649:13666   */\n      add\n        /* \"#utility.yul\":13642:13689   */\n      mstore\n        /* \"#utility.yul\":13706:13837   */\n      tag_342\n        /* \"#utility.yul\":13832:13836   */\n      dup2\n        /* \"#utility.yul\":13706:13837   */\n      tag_196\n      jump\t// in\n    tag_342:\n        /* \"#utility.yul\":13698:13837   */\n      swap1\n      pop\n        /* \"#utility.yul\":13425:13844   */\n      swap2\n      swap1\n      pop\n      jump\t// out\n        /* \"#utility.yul\":13850:14030   */\n    tag_197:\n        /* \"#utility.yul\":13898:13975   */\n      0x4e487b7100000000000000000000000000000000000000000000000000000000\n        /* \"#utility.yul\":13895:13896   */\n      0x00\n        /* \"#utility.yul\":13888:13976   */\n      mstore\n        /* \"#utility.yul\":13995:13999   */\n      0x22\n        /* \"#utility.yul\":13992:13993   */\n      0x04\n        /* \"#utility.yul\":13985:14000   */\n      mstore\n        /* \"#utility.yul\":14019:14023   */\n      0x24\n        /* \"#utility.yul\":14016:14017   */\n      0x00\n        /* \"#utility.yul\":14009:14024   */\n      revert\n        /* \"#utility.yul\":14036:14356   */\n    tag_116:\n        /* \"#utility.yul\":14080:14086   */\n      0x00\n        /* \"#utility.yul\":14117:14118   */\n      0x02\n        /* \"#utility.yul\":14111:14115   */\n      dup3\n        /* \"#utility.yul\":14107:14119   */\n      div\n        /* \"#utility.yul\":14097:14119   */\n      swap1\n      pop\n        /* \"#utility.yul\":14164:14165   */\n      0x01\n        /* \"#utility.yul\":14158:14162   */\n      dup3\n        /* \"#utility.yul\":14154:14166   */\n      and\n        /* \"#utility.yul\":14185:14203   */\n      dup1\n        /* \"#utility.yul\":14175:14256   */\n      tag_345\n      jumpi\n        /* \"#utility.yul\":14241:14245   */\n      0x7f\n        /* \"#utility.yul\":14233:14239   */\n      dup3\n        /* \"#utility.yul\":14229:14246   */\n      and\n        /* \"#utility.yul\":14219:14246   */\n      swap2\n      pop\n        /* \"#utility.yul\":14175:14256   */\n    tag_345:\n        /* \"#utility.yul\":14303:14305   */\n      0x20\n        /* \"#utility.yul\":14295:14301   */\n      dup3\n        /* \"#utility.yul\":14292:14306   */\n      lt\n        /* \"#utility.yul\":14272:14290   */\n      dup2\n        /* \"#utility.yul\":14269:14307   */\n      sub\n        /* \"#utility.yul\":14266:14350   */\n      tag_346\n      jumpi\n        /* \"#utility.yul\":14322:14340   */\n      tag_347\n      tag_197\n      jump\t// in\n    tag_347:\n        /* \"#utility.yul\":14266:14350   */\n    tag_346:\n        /* \"#utility.yul\":14087:14356   */\n      pop\n        /* \"#utility.yul\":14036:14356   */\n      swap2\n      swap1\n      pop\n      jump\t// out\n        /* \"#utility.yul\":14362:14524   */\n    tag_198:\n        /* \"#utility.yul\":14502:14516   */\n      0x4f6e6c79206d616e616765720000000000000000000000000000000000000000\n        /* \"#utility.yul\":14498:14499   */\n      0x00\n        /* \"#utility.yul\":14490:14496   */\n      dup3\n        /* \"#utility.yul\":14486:14500   */\n      add\n        /* \"#utility.yul\":14479:14517   */\n      mstore\n        /* \"#utility.yul\":14362:14524   */\n      pop\n      jump\t// out\n        /* \"#utility.yul\":14530:14896   */\n    tag_199:\n        /* \"#utility.yul\":14672:14675   */\n      0x00\n        /* \"#utility.yul\":14693:14760   */\n      tag_350\n        /* \"#utility.yul\":14757:14759   */\n      0x0c\n        /* \"#utility.yul\":14752:14755   */\n      dup4\n        /* \"#utility.yul\":14693:14760   */\n      tag_167\n      jump\t// in\n    tag_350:\n        /* \"#utility.yul\":14686:14760   */\n      swap2\n      pop\n        /* \"#utility.yul\":14769:14862   */\n      tag_351\n        /* \"#utility.yul\":14858:14861   */\n      dup3\n        /* \"#utility.yul\":14769:14862   */\n      tag_198\n      jump\t// in\n    tag_351:\n        /* \"#utility.yul\":14887:14889   */\n      0x20\n        /* \"#utility.yul\":14882:14885   */\n      dup3\n        /* \"#utility.yul\":14878:14890   */\n      add\n        /* \"#utility.yul\":14871:14890   */\n      swap1\n      pop\n        /* \"#utility.yul\":14530:14896   */\n      swap2\n      swap1\n      pop\n      jump\t// out\n        /* \"#utility.yul\":14902:15321   */\n    tag_124:\n        /* \"#utility.yul\":15068:15072   */\n      0x00\n        /* \"#utility.yul\":15106:15108   */\n      0x20\n        /* \"#utility.yul\":15095:15104   */\n      dup3\n        /* \"#utility.yul\":15091:15109   */\n      add\n        /* \"#utility.yul\":15083:15109   */\n      swap1\n      pop\n        /* \"#utility.yul\":15155:15164   */\n      dup2\n        /* \"#utility.yul\":15149:15153   */\n      dup2\n        /* \"#utility.yul\":15145:15165   */\n      sub\n        /* \"#utility.yul\":15141:15142   */\n      0x00\n        /* \"#utility.yul\":15130:15139   */\n      dup4\n        /* \"#utility.yul\":15126:15143   */\n      add\n        /* \"#utility.yul\":15119:15166   */\n      mstore\n        /* \"#utility.yul\":15183:15314   */\n      tag_353\n        /* \"#utility.yul\":15309:15313   */\n      dup2\n        /* \"#utility.yul\":15183:15314   */\n      tag_199\n      jump\t// in\n    tag_353:\n        /* \"#utility.yul\":15175:15314   */\n      swap1\n      pop\n        /* \"#utility.yul\":14902:15321   */\n      swap2\n      swap1\n      pop\n      jump\t// out\n        /* \"#utility.yul\":15327:15508   */\n    tag_200:\n        /* \"#utility.yul\":15467:15500   */\n      0x526563697069656e742068617320616c7265616479206265656e207061696400\n        /* \"#utility.yul\":15463:15464   */\n      0x00\n        /* \"#utility.yul\":15455:15461   */\n      dup3\n        /* \"#utility.yul\":15451:15465   */\n      add\n        /* \"#utility.yul\":15444:15501   */\n      mstore\n        /* \"#utility.yul\":15327:15508   */\n      pop\n      jump\t// out\n        /* \"#utility.yul\":15514:15880   */\n    tag_201:\n        /* \"#utility.yul\":15656:15659   */\n      0x00\n        /* \"#utility.yul\":15677:15744   */\n      tag_356\n        /* \"#utility.yul\":15741:15743   */\n      0x1f\n        /* \"#utility.yul\":15736:15739   */\n      dup4\n        /* \"#utility.yul\":15677:15744   */\n      tag_167\n      jump\t// in\n    tag_356:\n        /* \"#utility.yul\":15670:15744   */\n      swap2\n      pop\n        /* \"#utility.yul\":15753:15846   */\n      tag_357\n        /* \"#utility.yul\":15842:15845   */\n      dup3\n        /* \"#utility.yul\":15753:15846   */\n      tag_200\n      jump\t// in\n    tag_357:\n        /* \"#utility.yul\":15871:15873   */\n      0x20\n        /* \"#utility.yul\":15866:15869   */\n      dup3\n        /* \"#utility.yul\":15862:15874   */\n      add\n        /* \"#utility.yul\":15855:15874   */\n      swap1\n      pop\n        /* \"#utility.yul\":15514:15880   */\n      swap2\n      swap1\n      pop\n      jump\t// out\n        /* \"#utility.yul\":15886:16305   */\n    tag_136:\n        /* \"#utility.yul\":16052:16056   */\n      0x00\n        /* \"#utility.yul\":16090:16092   */\n      0x20\n        /* \"#utility.yul\":16079:16088   */\n      dup3\n        /* \"#utility.yul\":16075:16093   */\n      add\n        /* \"#utility.yul\":16067:16093   */\n      swap1\n      pop\n        /* \"#utility.yul\":16139:16148   */\n      dup2\n        /* \"#utility.yul\":16133:16137   */\n      dup2\n        /* \"#utility.yul\":16129:16149   */\n      sub\n        /* \"#utility.yul\":16125:16126   */\n      0x00\n        /* \"#utility.yul\":16114:16123   */\n      dup4\n        /* \"#utility.yul\":16110:16127   */\n      add\n        /* \"#utility.yul\":16103:16150   */\n      mstore\n        /* \"#utility.yul\":16167:16298   */\n      tag_359\n        /* \"#utility.yul\":16293:16297   */\n      dup2\n        /* \"#utility.yul\":16167:16298   */\n      tag_201\n      jump\t// in\n    tag_359:\n        /* \"#utility.yul\":16159:16298   */\n      swap1\n      pop\n        /* \"#utility.yul\":15886:16305   */\n      swap2\n      swap1\n      pop\n      jump\t// out\n        /* \"#utility.yul\":16311:16491   */\n    tag_202:\n        /* \"#utility.yul\":16359:16436   */\n      0x4e487b7100000000000000000000000000000000000000000000000000000000\n        /* \"#utility.yul\":16356:16357   */\n      0x00\n        /* \"#utility.yul\":16349:16437   */\n      mstore\n        /* \"#utility.yul\":16456:16460   */\n      0x12\n        /* \"#utility.yul\":16453:16454   */\n      0x04\n        /* \"#utility.yul\":16446:16461   */\n      mstore\n        /* \"#utility.yul\":16480:16484   */\n      0x24\n        /* \"#utility.yul\":16477:16478   */\n      0x00\n        /* \"#utility.yul\":16470:16485   */\n      revert\n        /* \"#utility.yul\":16497:16682   */\n    tag_138:\n        /* \"#utility.yul\":16537:16538   */\n      0x00\n        /* \"#utility.yul\":16554:16574   */\n      tag_362\n        /* \"#utility.yul\":16572:16573   */\n      dup3\n        /* \"#utility.yul\":16554:16574   */\n      tag_154\n      jump\t// in\n    tag_362:\n        /* \"#utility.yul\":16549:16574   */\n      swap2\n      pop\n        /* \"#utility.yul\":16588:16608   */\n      tag_363\n        /* \"#utility.yul\":16606:16607   */\n      dup4\n        /* \"#utility.yul\":16588:16608   */\n      tag_154\n      jump\t// in\n    tag_363:\n        /* \"#utility.yul\":16583:16608   */\n      swap3\n      pop\n        /* \"#utility.yul\":16627:16628   */\n      dup3\n        /* \"#utility.yul\":16617:16652   */\n      tag_364\n      jumpi\n        /* \"#utility.yul\":16632:16650   */\n      tag_365\n      tag_202\n      jump\t// in\n    tag_365:\n        /* \"#utility.yul\":16617:16652   */\n    tag_364:\n        /* \"#utility.yul\":16674:16675   */\n      dup3\n        /* \"#utility.yul\":16671:16672   */\n      dup3\n        /* \"#utility.yul\":16667:16676   */\n      div\n        /* \"#utility.yul\":16662:16676   */\n      swap1\n      pop\n        /* \"#utility.yul\":16497:16682   */\n      swap3\n      swap2\n      pop\n      pop\n      jump\t// out\n        /* \"#utility.yul\":16688:16861   */\n    tag_203:\n        /* \"#utility.yul\":16828:16853   */\n      0x4d616a6f7269747920737570706f7274206e6565646564000000000000000000\n        /* \"#utility.yul\":16824:16825   */\n      0x00\n        /* \"#utility.yul\":16816:16822   */\n      dup3\n        /* \"#utility.yul\":16812:16826   */\n      add\n        /* \"#utility.yul\":16805:16854   */\n      mstore\n        /* \"#utility.yul\":16688:16861   */\n      pop\n      jump\t// out\n        /* \"#utility.yul\":16867:17233   */\n    tag_204:\n        /* \"#utility.yul\":17009:17012   */\n      0x00\n        /* \"#utility.yul\":17030:17097   */\n      tag_368\n        /* \"#utility.yul\":17094:17096   */\n      0x17\n        /* \"#utility.yul\":17089:17092   */\n      dup4\n        /* \"#utility.yul\":17030:17097   */\n      tag_167\n      jump\t// in\n    tag_368:\n        /* \"#utility.yul\":17023:17097   */\n      swap2\n      pop\n        /* \"#utility.yul\":17106:17199   */\n      tag_369\n        /* \"#utility.yul\":17195:17198   */\n      dup3\n        /* \"#utility.yul\":17106:17199   */\n      tag_203\n      jump\t// in\n    tag_369:\n        /* \"#utility.yul\":17224:17226   */\n      0x20\n        /* \"#utility.yul\":17219:17222   */\n      dup3\n        /* \"#utility.yul\":17215:17227   */\n      add\n        /* \"#utility.yul\":17208:17227   */\n      swap1\n      pop\n        /* \"#utility.yul\":16867:17233   */\n      swap2\n      swap1\n      pop\n      jump\t// out\n        /* \"#utility.yul\":17239:17658   */\n    tag_141:\n        /* \"#utility.yul\":17405:17409   */\n      0x00\n        /* \"#utility.yul\":17443:17445   */\n      0x20\n        /* \"#utility.yul\":17432:17441   */\n      dup3\n        /* \"#utility.yul\":17428:17446   */\n      add\n        /* \"#utility.yul\":17420:17446   */\n      swap1\n      pop\n        /* \"#utility.yul\":17492:17501   */\n      dup2\n        /* \"#utility.yul\":17486:17490   */\n      dup2\n        /* \"#utility.yul\":17482:17502   */\n      sub\n        /* \"#utility.yul\":17478:17479   */\n      0x00\n        /* \"#utility.yul\":17467:17476   */\n      dup4\n        /* \"#utility.yul\":17463:17480   */\n      add\n        /* \"#utility.yul\":17456:17503   */\n      mstore\n        /* \"#utility.yul\":17520:17651   */\n      tag_371\n        /* \"#utility.yul\":17646:17650   */\n      dup2\n        /* \"#utility.yul\":17520:17651   */\n      tag_204\n      jump\t// in\n    tag_371:\n        /* \"#utility.yul\":17512:17651   */\n      swap1\n      pop\n        /* \"#utility.yul\":17239:17658   */\n      swap2\n      swap1\n      pop\n      jump\t// out\n\n    auxdata: 0xa26469706673582212208dad973fa0045a7b2392e844d00de40c3284d8e237a9b608ac9558571b5ce67464736f6c634300080d0033\n}\n",
				"bytecode": {
					"linkReferences": {},
					"object": "60806040523480156200001157600080fd5b506040516200189b3803806200189b8339818101604052810190620000379190620000ea565b8160048190555067016345785d8a000060028190555080426200005b919062000160565b60038190555033600160006101000a81548173ffffffffffffffffffffffffffffffffffffffff021916908373ffffffffffffffffffffffffffffffffffffffff1602179055505050620001bd565b600080fd5b6000819050919050565b620000c481620000af565b8114620000d057600080fd5b50565b600081519050620000e481620000b9565b92915050565b60008060408385031215620001045762000103620000aa565b5b60006200011485828601620000d3565b92505060206200012785828601620000d3565b9150509250929050565b7f4e487b7100000000000000000000000000000000000000000000000000000000600052601160045260246000fd5b60006200016d82620000af565b91506200017a83620000af565b9250827fffffffffffffffffffffffffffffffffffffffffffffffffffffffffffffffff03821115620001b257620001b162000131565b5b828201905092915050565b6116ce80620001cd6000396000f3fe6080604052600436106100e85760003560e01c80636f9fb98a1161008a578063a77ede9511610059578063a77ede95146102b5578063c59ee1dc146102de578063cfd1a7e214610309578063d4b8399214610334576100e8565b80636f9fb98a146101f557806381d12c581461022057806384bc06f114610261578063937e09b11461028a576100e8565b806329dcb0cf116100c657806329dcb0cf1461015f578063481c6a751461018a5780634cb6f4a5146101b5578063560ed6a1146101de576100e8565b8063092476fc146100ed5780630e29df22146101185780631f6d494214610122575b600080fd5b3480156100f957600080fd5b5061010261035f565b60405161010f9190610d23565b60405180910390f35b610120610365565b005b34801561012e57600080fd5b5061014960048036038101906101449190610db0565b6104bd565b6040516101569190610d23565b60405180910390f35b34801561016b57600080fd5b506101746104d5565b6040516101819190610d23565b60405180910390f35b34801561019657600080fd5b5061019f6104db565b6040516101ac9190610dec565b60405180910390f35b3480156101c157600080fd5b506101dc60048036038101906101d79190610e33565b610501565b005b3480156101ea57600080fd5b506101f36106a6565b005b34801561020157600080fd5b5061020a610815565b6040516102179190610d23565b60405180910390f35b34801561022c57600080fd5b5061024760048036038101906102429190610e33565b61081d565b604051610258959493929190610f35565b60405180910390f35b34801561026d57600080fd5b50610288600480360381019061028391906110f0565b610908565b005b34801561029657600080fd5b5061029f610a5b565b6040516102ac9190610d23565b60405180910390f35b3480156102c157600080fd5b506102dc60048036038101906102d79190610e33565b610a61565b005b3480156102ea57600080fd5b506102f3610c55565b6040516103009190610d23565b60405180910390f35b34801561031557600080fd5b5061031e610c5b565b60405161032b9190610d23565b60405180910390f35b34801561034057600080fd5b50610349610c61565b6040516103569190610d23565b60405180910390f35b60065481565b60035442106103a9576040517f08c379a00000000000000000000000000000000000000000000000000000000081526004016103a0906111ab565b60405180910390fd5b6002543410156103ee576040517f08c379a00000000000000000000000000000000000000000000000000000000081526004016103e59061123d565b60405180910390fd5b60008060003373ffffffffffffffffffffffffffffffffffffffff1673ffffffffffffffffffffffffffffffffffffffff168152602001908152602001600020540361044d57600660008154809291906104479061128c565b91905055505b346000803373ffffffffffffffffffffffffffffffffffffffff1673ffffffffffffffffffffffffffffffffffffffff168152602001908152602001600020600082825461049b91906112d4565b9250508190555034600560008282546104b491906112d4565b92505081905550565b60006020528060005260406000206000915090505481565b60035481565b600160009054906101000a900473ffffffffffffffffffffffffffffffffffffffff1681565b60008060003373ffffffffffffffffffffffffffffffffffffffff1673ffffffffffffffffffffffffffffffffffffffff1681526020019081526020016000205411610582576040517f08c379a000000000000000000000000000000000000000000000000000000000815260040161057990611376565b60405180910390fd5b6000600760008381526020019081526020016000209050600015158160040160003373ffffffffffffffffffffffffffffffffffffffff1673ffffffffffffffffffffffffffffffffffffffff16815260200190815260200160002060009054906101000a900460ff1615151461062e576040517f08c379a0000000000000000000000000000000000000000000000000000000008152600401610625906113e2565b60405180910390fd5b60018160040160003373ffffffffffffffffffffffffffffffffffffffff1673ffffffffffffffffffffffffffffffffffffffff16815260200190815260200160002060006101000a81548160ff02191690831515021790555080600301600081548092919061069d9061128c565b91905055505050565b6004546005541080156106ba575060035442115b6106f9576040517f08c379a00000000000000000000000000000000000000000000000000000000081526004016106f090611474565b60405180910390fd5b60008060003373ffffffffffffffffffffffffffffffffffffffff1673ffffffffffffffffffffffffffffffffffffffff168152602001908152602001600020541161074457600080fd5b60003390508073ffffffffffffffffffffffffffffffffffffffff166108fc6000803373ffffffffffffffffffffffffffffffffffffffff1673ffffffffffffffffffffffffffffffffffffffff168152602001908152602001600020549081150290604051600060405180830381858888f193505050501580156107cd573d6000803e3d6000fd5b5060008060003373ffffffffffffffffffffffffffffffffffffffff1673ffffffffffffffffffffffffffffffffffffffff1681526020019081526020016000208190555050565b600047905090565b6007602052806000526040600020600091509050806000018054610840906114c3565b80601f016020809104026020016040519081016040528092919081815260200182805461086c906114c3565b80156108b95780601f1061088e576101008083540402835291602001916108b9565b820191906000526020600020905b81548152906001019060200180831161089c57829003601f168201915b5050505050908060010154908060020160009054906101000a900473ffffffffffffffffffffffffffffffffffffffff16908060020160149054906101000a900460ff16908060030154905085565b600160009054906101000a900473ffffffffffffffffffffffffffffffffffffffff1673ffffffffffffffffffffffffffffffffffffffff163373ffffffffffffffffffffffffffffffffffffffff1614610998576040517f08c379a000000000000000000000000000000000000000000000000000000000815260040161098f90611540565b60405180910390fd5b60006007600060085481526020019081526020016000209050600860008154809291906109c49061128c565b9190505550838160000190805190602001906109e1929190610c67565b50828160020160006101000a81548173ffffffffffffffffffffffffffffffffffffffff021916908373ffffffffffffffffffffffffffffffffffffffff16021790555081816001018190555060008160020160146101000a81548160ff0219169083151502179055506000816003018190555050505050565b60025481565b600160009054906101000a900473ffffffffffffffffffffffffffffffffffffffff1673ffffffffffffffffffffffffffffffffffffffff163373ffffffffffffffffffffffffffffffffffffffff1614610af1576040517f08c379a0000000000000000000000000000000000000000000000000000000008152600401610ae890611540565b60405180910390fd5b6004546005541015610b0257600080fd5b6000600760008381526020019081526020016000209050600015158160020160149054906101000a900460ff16151514610b71576040517f08c379a0000000000000000000000000000000000000000000000000000000008152600401610b68906115ac565b60405180910390fd5b6002600654610b8091906115fb565b816003015411610bc5576040517f08c379a0000000000000000000000000000000000000000000000000000000008152600401610bbc90611678565b60405180910390fd5b8060020160009054906101000a900473ffffffffffffffffffffffffffffffffffffffff1673ffffffffffffffffffffffffffffffffffffffff166108fc82600101549081150290604051600060405180830381858888f19350505050158015610c33573d6000803e3d6000fd5b5060018160020160146101000a81548160ff0219169083151502179055505050565b60055481565b60085481565b60045481565b828054610c73906114c3565b90600052602060002090601f016020900481019282610c955760008555610cdc565b82601f10610cae57805160ff1916838001178555610cdc565b82800160010185558215610cdc579182015b82811115610cdb578251825591602001919060010190610cc0565b5b509050610ce99190610ced565b5090565b5b80821115610d06576000816000905550600101610cee565b5090565b6000819050919050565b610d1d81610d0a565b82525050565b6000602082019050610d386000830184610d14565b92915050565b6000604051905090565b600080fd5b600080fd5b600073ffffffffffffffffffffffffffffffffffffffff82169050919050565b6000610d7d82610d52565b9050919050565b610d8d81610d72565b8114610d9857600080fd5b50565b600081359050610daa81610d84565b92915050565b600060208284031215610dc657610dc5610d48565b5b6000610dd484828501610d9b565b91505092915050565b610de681610d72565b82525050565b6000602082019050610e016000830184610ddd565b92915050565b610e1081610d0a565b8114610e1b57600080fd5b50565b600081359050610e2d81610e07565b92915050565b600060208284031215610e4957610e48610d48565b5b6000610e5784828501610e1e565b91505092915050565b600081519050919050565b600082825260208201905092915050565b60005b83811015610e9a578082015181840152602081019050610e7f565b83811115610ea9576000848401525b50505050565b6000601f19601f8301169050919050565b6000610ecb82610e60565b610ed58185610e6b565b9350610ee5818560208601610e7c565b610eee81610eaf565b840191505092915050565b6000610f0482610d52565b9050919050565b610f1481610ef9565b82525050565b60008115159050919050565b610f2f81610f1a565b82525050565b600060a0820190508181036000830152610f4f8188610ec0565b9050610f5e6020830187610d14565b610f6b6040830186610f0b565b610f786060830185610f26565b610f856080830184610d14565b9695505050505050565b600080fd5b600080fd5b7f4e487b7100000000000000000000000000000000000000000000000000000000600052604160045260246000fd5b610fd182610eaf565b810181811067ffffffffffffffff82111715610ff057610fef610f99565b5b80604052505050565b6000611003610d3e565b905061100f8282610fc8565b919050565b600067ffffffffffffffff82111561102f5761102e610f99565b5b61103882610eaf565b9050602081019050919050565b82818337600083830152505050565b600061106761106284611014565b610ff9565b90508281526020810184848401111561108357611082610f94565b5b61108e848285611045565b509392505050565b600082601f8301126110ab576110aa610f8f565b5b81356110bb848260208601611054565b91505092915050565b6110cd81610ef9565b81146110d857600080fd5b50565b6000813590506110ea816110c4565b92915050565b60008060006060848603121561110957611108610d48565b5b600084013567ffffffffffffffff81111561112757611126610d4d565b5b61113386828701611096565b9350506020611144868287016110db565b925050604061115586828701610e1e565b9150509250925092565b7f536f7272792c20646561646c696e652068617320706173736564000000000000600082015250565b6000611195601a83610e6b565b91506111a08261115f565b602082019050919050565b600060208201905081810360008301526111c481611188565b9050919050565b7f536f7272792c206d696e696d756d20636f6e747269627574696f6e206973206e60008201527f6f74206d65740000000000000000000000000000000000000000000000000000602082015250565b6000611227602683610e6b565b9150611232826111cb565b604082019050919050565b600060208201905081810360008301526112568161121a565b9050919050565b7f4e487b7100000000000000000000000000000000000000000000000000000000600052601160045260246000fd5b600061129782610d0a565b91507fffffffffffffffffffffffffffffffffffffffffffffffffffffffffffffffff82036112c9576112c861125d565b5b600182019050919050565b60006112df82610d0a565b91506112ea83610d0a565b9250827fffffffffffffffffffffffffffffffffffffffffffffffffffffffffffffffff0382111561131f5761131e61125d565b5b828201905092915050565b7f596f7520617265206e6f7420656c6967696c6520666f7220766f74696e670000600082015250565b6000611360601e83610e6b565b915061136b8261132a565b602082019050919050565b6000602082019050818103600083015261138f81611353565b9050919050565b7f596f75206861766520616c726561647920766f74656421000000000000000000600082015250565b60006113cc601783610e6b565b91506113d782611396565b602082019050919050565b600060208201905081810360008301526113fb816113bf565b9050919050565b7f596f7520617265206e6f7420656c696769626c6520666f7220726566756e646960008201527f6e67000000000000000000000000000000000000000000000000000000000000602082015250565b600061145e602283610e6b565b915061146982611402565b604082019050919050565b6000602082019050818103600083015261148d81611451565b9050919050565b7f4e487b7100000000000000000000000000000000000000000000000000000000600052602260045260246000fd5b600060028204905060018216806114db57607f821691505b6020821081036114ee576114ed611494565b5b50919050565b7f4f6e6c79206d616e616765720000000000000000000000000000000000000000600082015250565b600061152a600c83610e6b565b9150611535826114f4565b602082019050919050565b600060208201905081810360008301526115598161151d565b9050919050565b7f526563697069656e742068617320616c7265616479206265656e207061696400600082015250565b6000611596601f83610e6b565b91506115a182611560565b602082019050919050565b600060208201905081810360008301526115c581611589565b9050919050565b7f4e487b7100000000000000000000000000000000000000000000000000000000600052601260045260246000fd5b600061160682610d0a565b915061161183610d0a565b925082611621576116206115cc565b5b828204905092915050565b7f4d616a6f7269747920737570706f7274206e6565646564000000000000000000600082015250565b6000611662601783610e6b565b915061166d8261162c565b602082019050919050565b6000602082019050818103600083015261169181611655565b905091905056fea26469706673582212208dad973fa0045a7b2392e844d00de40c3284d8e237a9b608ac9558571b5ce67464736f6c634300080d0033",
					"opcodes": "PUSH1 0x80 PUSH1 0x40 MSTORE CALLVALUE DUP1 ISZERO PUSH3 0x11 JUMPI PUSH1 0x0 DUP1 REVERT JUMPDEST POP PUSH1 0x40 MLOAD PUSH3 0x189B CODESIZE SUB DUP1 PUSH3 0x189B DUP4 CODECOPY DUP2 DUP2 ADD PUSH1 0x40 MSTORE DUP2 ADD SWAP1 PUSH3 0x37 SWAP2 SWAP1 PUSH3 0xEA JUMP JUMPDEST DUP2 PUSH1 0x4 DUP2 SWAP1 SSTORE POP PUSH8 0x16345785D8A0000 PUSH1 0x2 DUP2 SWAP1 SSTORE POP DUP1 TIMESTAMP PUSH3 0x5B SWAP2 SWAP1 PUSH3 0x160 JUMP JUMPDEST PUSH1 0x3 DUP2 SWAP1 SSTORE POP CALLER PUSH1 0x1 PUSH1 0x0 PUSH2 0x100 EXP DUP2 SLOAD DUP2 PUSH20 0xFFFFFFFFFFFFFFFFFFFFFFFFFFFFFFFFFFFFFFFF MUL NOT AND SWAP1 DUP4 PUSH20 0xFFFFFFFFFFFFFFFFFFFFFFFFFFFFFFFFFFFFFFFF AND MUL OR SWAP1 SSTORE POP POP POP PUSH3 0x1BD JUMP JUMPDEST PUSH1 0x0 DUP1 REVERT JUMPDEST PUSH1 0x0 DUP2 SWAP1 POP SWAP2 SWAP1 POP JUMP JUMPDEST PUSH3 0xC4 DUP2 PUSH3 0xAF JUMP JUMPDEST DUP2 EQ PUSH3 0xD0 JUMPI PUSH1 0x0 DUP1 REVERT JUMPDEST POP JUMP JUMPDEST PUSH1 0x0 DUP2 MLOAD SWAP1 POP PUSH3 0xE4 DUP2 PUSH3 0xB9 JUMP JUMPDEST SWAP3 SWAP2 POP POP JUMP JUMPDEST PUSH1 0x0 DUP1 PUSH1 0x40 DUP4 DUP6 SUB SLT ISZERO PUSH3 0x104 JUMPI PUSH3 0x103 PUSH3 0xAA JUMP JUMPDEST JUMPDEST PUSH1 0x0 PUSH3 0x114 DUP6 DUP3 DUP7 ADD PUSH3 0xD3 JUMP JUMPDEST SWAP3 POP POP PUSH1 0x20 PUSH3 0x127 DUP6 DUP3 DUP7 ADD PUSH3 0xD3 JUMP JUMPDEST SWAP2 POP POP SWAP3 POP SWAP3 SWAP1 POP JUMP JUMPDEST PUSH32 0x4E487B7100000000000000000000000000000000000000000000000000000000 PUSH1 0x0 MSTORE PUSH1 0x11 PUSH1 0x4 MSTORE PUSH1 0x24 PUSH1 0x0 REVERT JUMPDEST PUSH1 0x0 PUSH3 0x16D DUP3 PUSH3 0xAF JUMP JUMPDEST SWAP2 POP PUSH3 0x17A DUP4 PUSH3 0xAF JUMP JUMPDEST SWAP3 POP DUP3 PUSH32 0xFFFFFFFFFFFFFFFFFFFFFFFFFFFFFFFFFFFFFFFFFFFFFFFFFFFFFFFFFFFFFFFF SUB DUP3 GT ISZERO PUSH3 0x1B2 JUMPI PUSH3 0x1B1 PUSH3 0x131 JUMP JUMPDEST JUMPDEST DUP3 DUP3 ADD SWAP1 POP SWAP3 SWAP2 POP POP JUMP JUMPDEST PUSH2 0x16CE DUP1 PUSH3 0x1CD PUSH1 0x0 CODECOPY PUSH1 0x0 RETURN INVALID PUSH1 0x80 PUSH1 0x40 MSTORE PUSH1 0x4 CALLDATASIZE LT PUSH2 0xE8 JUMPI PUSH1 0x0 CALLDATALOAD PUSH1 0xE0 SHR DUP1 PUSH4 0x6F9FB98A GT PUSH2 0x8A JUMPI DUP1 PUSH4 0xA77EDE95 GT PUSH2 0x59 JUMPI DUP1 PUSH4 0xA77EDE95 EQ PUSH2 0x2B5 JUMPI DUP1 PUSH4 0xC59EE1DC EQ PUSH2 0x2DE JUMPI DUP1 PUSH4 0xCFD1A7E2 EQ PUSH2 0x309 JUMPI DUP1 PUSH4 0xD4B83992 EQ PUSH2 0x334 JUMPI PUSH2 0xE8 JUMP JUMPDEST DUP1 PUSH4 0x6F9FB98A EQ PUSH2 0x1F5 JUMPI DUP1 PUSH4 0x81D12C58 EQ PUSH2 0x220 JUMPI DUP1 PUSH4 0x84BC06F1 EQ PUSH2 0x261 JUMPI DUP1 PUSH4 0x937E09B1 EQ PUSH2 0x28A JUMPI PUSH2 0xE8 JUMP JUMPDEST DUP1 PUSH4 0x29DCB0CF GT PUSH2 0xC6 JUMPI DUP1 PUSH4 0x29DCB0CF EQ PUSH2 0x15F JUMPI DUP1 PUSH4 0x481C6A75 EQ PUSH2 0x18A JUMPI DUP1 PUSH4 0x4CB6F4A5 EQ PUSH2 0x1B5 JUMPI DUP1 PUSH4 0x560ED6A1 EQ PUSH2 0x1DE JUMPI PUSH2 0xE8 JUMP JUMPDEST DUP1 PUSH4 0x92476FC EQ PUSH2 0xED JUMPI DUP1 PUSH4 0xE29DF22 EQ PUSH2 0x118 JUMPI DUP1 PUSH4 0x1F6D4942 EQ PUSH2 0x122 JUMPI JUMPDEST PUSH1 0x0 DUP1 REVERT JUMPDEST CALLVALUE DUP1 ISZERO PUSH2 0xF9 JUMPI PUSH1 0x0 DUP1 REVERT JUMPDEST POP PUSH2 0x102 PUSH2 0x35F JUMP JUMPDEST PUSH1 0x40 MLOAD PUSH2 0x10F SWAP2 SWAP1 PUSH2 0xD23 JUMP JUMPDEST PUSH1 0x40 MLOAD DUP1 SWAP2 SUB SWAP1 RETURN JUMPDEST PUSH2 0x120 PUSH2 0x365 JUMP JUMPDEST STOP JUMPDEST CALLVALUE DUP1 ISZERO PUSH2 0x12E JUMPI PUSH1 0x0 DUP1 REVERT JUMPDEST POP PUSH2 0x149 PUSH1 0x4 DUP1 CALLDATASIZE SUB DUP2 ADD SWAP1 PUSH2 0x144 SWAP2 SWAP1 PUSH2 0xDB0 JUMP JUMPDEST PUSH2 0x4BD JUMP JUMPDEST PUSH1 0x40 MLOAD PUSH2 0x156 SWAP2 SWAP1 PUSH2 0xD23 JUMP JUMPDEST PUSH1 0x40 MLOAD DUP1 SWAP2 SUB SWAP1 RETURN JUMPDEST CALLVALUE DUP1 ISZERO PUSH2 0x16B JUMPI PUSH1 0x0 DUP1 REVERT JUMPDEST POP PUSH2 0x174 PUSH2 0x4D5 JUMP JUMPDEST PUSH1 0x40 MLOAD PUSH2 0x181 SWAP2 SWAP1 PUSH2 0xD23 JUMP JUMPDEST PUSH1 0x40 MLOAD DUP1 SWAP2 SUB SWAP1 RETURN JUMPDEST CALLVALUE DUP1 ISZERO PUSH2 0x196 JUMPI PUSH1 0x0 DUP1 REVERT JUMPDEST POP PUSH2 0x19F PUSH2 0x4DB JUMP JUMPDEST PUSH1 0x40 MLOAD PUSH2 0x1AC SWAP2 SWAP1 PUSH2 0xDEC JUMP JUMPDEST PUSH1 0x40 MLOAD DUP1 SWAP2 SUB SWAP1 RETURN JUMPDEST CALLVALUE DUP1 ISZERO PUSH2 0x1C1 JUMPI PUSH1 0x0 DUP1 REVERT JUMPDEST POP PUSH2 0x1DC PUSH1 0x4 DUP1 CALLDATASIZE SUB DUP2 ADD SWAP1 PUSH2 0x1D7 SWAP2 SWAP1 PUSH2 0xE33 JUMP JUMPDEST PUSH2 0x501 JUMP JUMPDEST STOP JUMPDEST CALLVALUE DUP1 ISZERO PUSH2 0x1EA JUMPI PUSH1 0x0 DUP1 REVERT JUMPDEST POP PUSH2 0x1F3 PUSH2 0x6A6 JUMP JUMPDEST STOP JUMPDEST CALLVALUE DUP1 ISZERO PUSH2 0x201 JUMPI PUSH1 0x0 DUP1 REVERT JUMPDEST POP PUSH2 0x20A PUSH2 0x815 JUMP JUMPDEST PUSH1 0x40 MLOAD PUSH2 0x217 SWAP2 SWAP1 PUSH2 0xD23 JUMP JUMPDEST PUSH1 0x40 MLOAD DUP1 SWAP2 SUB SWAP1 RETURN JUMPDEST CALLVALUE DUP1 ISZERO PUSH2 0x22C JUMPI PUSH1 0x0 DUP1 REVERT JUMPDEST POP PUSH2 0x247 PUSH1 0x4 DUP1 CALLDATASIZE SUB DUP2 ADD SWAP1 PUSH2 0x242 SWAP2 SWAP1 PUSH2 0xE33 JUMP JUMPDEST PUSH2 0x81D JUMP JUMPDEST PUSH1 0x40 MLOAD PUSH2 0x258 SWAP6 SWAP5 SWAP4 SWAP3 SWAP2 SWAP1 PUSH2 0xF35 JUMP JUMPDEST PUSH1 0x40 MLOAD DUP1 SWAP2 SUB SWAP1 RETURN JUMPDEST CALLVALUE DUP1 ISZERO PUSH2 0x26D JUMPI PUSH1 0x0 DUP1 REVERT JUMPDEST POP PUSH2 0x288 PUSH1 0x4 DUP1 CALLDATASIZE SUB DUP2 ADD SWAP1 PUSH2 0x283 SWAP2 SWAP1 PUSH2 0x10F0 JUMP JUMPDEST PUSH2 0x908 JUMP JUMPDEST STOP JUMPDEST CALLVALUE DUP1 ISZERO PUSH2 0x296 JUMPI PUSH1 0x0 DUP1 REVERT JUMPDEST POP PUSH2 0x29F PUSH2 0xA5B JUMP JUMPDEST PUSH1 0x40 MLOAD PUSH2 0x2AC SWAP2 SWAP1 PUSH2 0xD23 JUMP JUMPDEST PUSH1 0x40 MLOAD DUP1 SWAP2 SUB SWAP1 RETURN JUMPDEST CALLVALUE DUP1 ISZERO PUSH2 0x2C1 JUMPI PUSH1 0x0 DUP1 REVERT JUMPDEST POP PUSH2 0x2DC PUSH1 0x4 DUP1 CALLDATASIZE SUB DUP2 ADD SWAP1 PUSH2 0x2D7 SWAP2 SWAP1 PUSH2 0xE33 JUMP JUMPDEST PUSH2 0xA61 JUMP JUMPDEST STOP JUMPDEST CALLVALUE DUP1 ISZERO PUSH2 0x2EA JUMPI PUSH1 0x0 DUP1 REVERT JUMPDEST POP PUSH2 0x2F3 PUSH2 0xC55 JUMP JUMPDEST PUSH1 0x40 MLOAD PUSH2 0x300 SWAP2 SWAP1 PUSH2 0xD23 JUMP JUMPDEST PUSH1 0x40 MLOAD DUP1 SWAP2 SUB SWAP1 RETURN JUMPDEST CALLVALUE DUP1 ISZERO PUSH2 0x315 JUMPI PUSH1 0x0 DUP1 REVERT JUMPDEST POP PUSH2 0x31E PUSH2 0xC5B JUMP JUMPDEST PUSH1 0x40 MLOAD PUSH2 0x32B SWAP2 SWAP1 PUSH2 0xD23 JUMP JUMPDEST PUSH1 0x40 MLOAD DUP1 SWAP2 SUB SWAP1 RETURN JUMPDEST CALLVALUE DUP1 ISZERO PUSH2 0x340 JUMPI PUSH1 0x0 DUP1 REVERT JUMPDEST POP PUSH2 0x349 PUSH2 0xC61 JUMP JUMPDEST PUSH1 0x40 MLOAD PUSH2 0x356 SWAP2 SWAP1 PUSH2 0xD23 JUMP JUMPDEST PUSH1 0x40 MLOAD DUP1 SWAP2 SUB SWAP1 RETURN JUMPDEST PUSH1 0x6 SLOAD DUP2 JUMP JUMPDEST PUSH1 0x3 SLOAD TIMESTAMP LT PUSH2 0x3A9 JUMPI PUSH1 0x40 MLOAD PUSH32 0x8C379A000000000000000000000000000000000000000000000000000000000 DUP2 MSTORE PUSH1 0x4 ADD PUSH2 0x3A0 SWAP1 PUSH2 0x11AB JUMP JUMPDEST PUSH1 0x40 MLOAD DUP1 SWAP2 SUB SWAP1 REVERT JUMPDEST PUSH1 0x2 SLOAD CALLVALUE LT ISZERO PUSH2 0x3EE JUMPI PUSH1 0x40 MLOAD PUSH32 0x8C379A000000000000000000000000000000000000000000000000000000000 DUP2 MSTORE PUSH1 0x4 ADD PUSH2 0x3E5 SWAP1 PUSH2 0x123D JUMP JUMPDEST PUSH1 0x40 MLOAD DUP1 SWAP2 SUB SWAP1 REVERT JUMPDEST PUSH1 0x0 DUP1 PUSH1 0x0 CALLER PUSH20 0xFFFFFFFFFFFFFFFFFFFFFFFFFFFFFFFFFFFFFFFF AND PUSH20 0xFFFFFFFFFFFFFFFFFFFFFFFFFFFFFFFFFFFFFFFF AND DUP2 MSTORE PUSH1 0x20 ADD SWAP1 DUP2 MSTORE PUSH1 0x20 ADD PUSH1 0x0 KECCAK256 SLOAD SUB PUSH2 0x44D JUMPI PUSH1 0x6 PUSH1 0x0 DUP2 SLOAD DUP1 SWAP3 SWAP2 SWAP1 PUSH2 0x447 SWAP1 PUSH2 0x128C JUMP JUMPDEST SWAP2 SWAP1 POP SSTORE POP JUMPDEST CALLVALUE PUSH1 0x0 DUP1 CALLER PUSH20 0xFFFFFFFFFFFFFFFFFFFFFFFFFFFFFFFFFFFFFFFF AND PUSH20 0xFFFFFFFFFFFFFFFFFFFFFFFFFFFFFFFFFFFFFFFF AND DUP2 MSTORE PUSH1 0x20 ADD SWAP1 DUP2 MSTORE PUSH1 0x20 ADD PUSH1 0x0 KECCAK256 PUSH1 0x0 DUP3 DUP3 SLOAD PUSH2 0x49B SWAP2 SWAP1 PUSH2 0x12D4 JUMP JUMPDEST SWAP3 POP POP DUP2 SWAP1 SSTORE POP CALLVALUE PUSH1 0x5 PUSH1 0x0 DUP3 DUP3 SLOAD PUSH2 0x4B4 SWAP2 SWAP1 PUSH2 0x12D4 JUMP JUMPDEST SWAP3 POP POP DUP2 SWAP1 SSTORE POP JUMP JUMPDEST PUSH1 0x0 PUSH1 0x20 MSTORE DUP1 PUSH1 0x0 MSTORE PUSH1 0x40 PUSH1 0x0 KECCAK256 PUSH1 0x0 SWAP2 POP SWAP1 POP SLOAD DUP2 JUMP JUMPDEST PUSH1 0x3 SLOAD DUP2 JUMP JUMPDEST PUSH1 0x1 PUSH1 0x0 SWAP1 SLOAD SWAP1 PUSH2 0x100 EXP SWAP1 DIV PUSH20 0xFFFFFFFFFFFFFFFFFFFFFFFFFFFFFFFFFFFFFFFF AND DUP2 JUMP JUMPDEST PUSH1 0x0 DUP1 PUSH1 0x0 CALLER PUSH20 0xFFFFFFFFFFFFFFFFFFFFFFFFFFFFFFFFFFFFFFFF AND PUSH20 0xFFFFFFFFFFFFFFFFFFFFFFFFFFFFFFFFFFFFFFFF AND DUP2 MSTORE PUSH1 0x20 ADD SWAP1 DUP2 MSTORE PUSH1 0x20 ADD PUSH1 0x0 KECCAK256 SLOAD GT PUSH2 0x582 JUMPI PUSH1 0x40 MLOAD PUSH32 0x8C379A000000000000000000000000000000000000000000000000000000000 DUP2 MSTORE PUSH1 0x4 ADD PUSH2 0x579 SWAP1 PUSH2 0x1376 JUMP JUMPDEST PUSH1 0x40 MLOAD DUP1 SWAP2 SUB SWAP1 REVERT JUMPDEST PUSH1 0x0 PUSH1 0x7 PUSH1 0x0 DUP4 DUP2 MSTORE PUSH1 0x20 ADD SWAP1 DUP2 MSTORE PUSH1 0x20 ADD PUSH1 0x0 KECCAK256 SWAP1 POP PUSH1 0x0 ISZERO ISZERO DUP2 PUSH1 0x4 ADD PUSH1 0x0 CALLER PUSH20 0xFFFFFFFFFFFFFFFFFFFFFFFFFFFFFFFFFFFFFFFF AND PUSH20 0xFFFFFFFFFFFFFFFFFFFFFFFFFFFFFFFFFFFFFFFF AND DUP2 MSTORE PUSH1 0x20 ADD SWAP1 DUP2 MSTORE PUSH1 0x20 ADD PUSH1 0x0 KECCAK256 PUSH1 0x0 SWAP1 SLOAD SWAP1 PUSH2 0x100 EXP SWAP1 DIV PUSH1 0xFF AND ISZERO ISZERO EQ PUSH2 0x62E JUMPI PUSH1 0x40 MLOAD PUSH32 0x8C379A000000000000000000000000000000000000000000000000000000000 DUP2 MSTORE PUSH1 0x4 ADD PUSH2 0x625 SWAP1 PUSH2 0x13E2 JUMP JUMPDEST PUSH1 0x40 MLOAD DUP1 SWAP2 SUB SWAP1 REVERT JUMPDEST PUSH1 0x1 DUP2 PUSH1 0x4 ADD PUSH1 0x0 CALLER PUSH20 0xFFFFFFFFFFFFFFFFFFFFFFFFFFFFFFFFFFFFFFFF AND PUSH20 0xFFFFFFFFFFFFFFFFFFFFFFFFFFFFFFFFFFFFFFFF AND DUP2 MSTORE PUSH1 0x20 ADD SWAP1 DUP2 MSTORE PUSH1 0x20 ADD PUSH1 0x0 KECCAK256 PUSH1 0x0 PUSH2 0x100 EXP DUP2 SLOAD DUP2 PUSH1 0xFF MUL NOT AND SWAP1 DUP4 ISZERO ISZERO MUL OR SWAP1 SSTORE POP DUP1 PUSH1 0x3 ADD PUSH1 0x0 DUP2 SLOAD DUP1 SWAP3 SWAP2 SWAP1 PUSH2 0x69D SWAP1 PUSH2 0x128C JUMP JUMPDEST SWAP2 SWAP1 POP SSTORE POP POP POP JUMP JUMPDEST PUSH1 0x4 SLOAD PUSH1 0x5 SLOAD LT DUP1 ISZERO PUSH2 0x6BA JUMPI POP PUSH1 0x3 SLOAD TIMESTAMP GT JUMPDEST PUSH2 0x6F9 JUMPI PUSH1 0x40 MLOAD PUSH32 0x8C379A000000000000000000000000000000000000000000000000000000000 DUP2 MSTORE PUSH1 0x4 ADD PUSH2 0x6F0 SWAP1 PUSH2 0x1474 JUMP JUMPDEST PUSH1 0x40 MLOAD DUP1 SWAP2 SUB SWAP1 REVERT JUMPDEST PUSH1 0x0 DUP1 PUSH1 0x0 CALLER PUSH20 0xFFFFFFFFFFFFFFFFFFFFFFFFFFFFFFFFFFFFFFFF AND PUSH20 0xFFFFFFFFFFFFFFFFFFFFFFFFFFFFFFFFFFFFFFFF AND DUP2 MSTORE PUSH1 0x20 ADD SWAP1 DUP2 MSTORE PUSH1 0x20 ADD PUSH1 0x0 KECCAK256 SLOAD GT PUSH2 0x744 JUMPI PUSH1 0x0 DUP1 REVERT JUMPDEST PUSH1 0x0 CALLER SWAP1 POP DUP1 PUSH20 0xFFFFFFFFFFFFFFFFFFFFFFFFFFFFFFFFFFFFFFFF AND PUSH2 0x8FC PUSH1 0x0 DUP1 CALLER PUSH20 0xFFFFFFFFFFFFFFFFFFFFFFFFFFFFFFFFFFFFFFFF AND PUSH20 0xFFFFFFFFFFFFFFFFFFFFFFFFFFFFFFFFFFFFFFFF AND DUP2 MSTORE PUSH1 0x20 ADD SWAP1 DUP2 MSTORE PUSH1 0x20 ADD PUSH1 0x0 KECCAK256 SLOAD SWAP1 DUP2 ISZERO MUL SWAP1 PUSH1 0x40 MLOAD PUSH1 0x0 PUSH1 0x40 MLOAD DUP1 DUP4 SUB DUP2 DUP6 DUP9 DUP9 CALL SWAP4 POP POP POP POP ISZERO DUP1 ISZERO PUSH2 0x7CD JUMPI RETURNDATASIZE PUSH1 0x0 DUP1 RETURNDATACOPY RETURNDATASIZE PUSH1 0x0 REVERT JUMPDEST POP PUSH1 0x0 DUP1 PUSH1 0x0 CALLER PUSH20 0xFFFFFFFFFFFFFFFFFFFFFFFFFFFFFFFFFFFFFFFF AND PUSH20 0xFFFFFFFFFFFFFFFFFFFFFFFFFFFFFFFFFFFFFFFF AND DUP2 MSTORE PUSH1 0x20 ADD SWAP1 DUP2 MSTORE PUSH1 0x20 ADD PUSH1 0x0 KECCAK256 DUP2 SWAP1 SSTORE POP POP JUMP JUMPDEST PUSH1 0x0 SELFBALANCE SWAP1 POP SWAP1 JUMP JUMPDEST PUSH1 0x7 PUSH1 0x20 MSTORE DUP1 PUSH1 0x0 MSTORE PUSH1 0x40 PUSH1 0x0 KECCAK256 PUSH1 0x0 SWAP2 POP SWAP1 POP DUP1 PUSH1 0x0 ADD DUP1 SLOAD PUSH2 0x840 SWAP1 PUSH2 0x14C3 JUMP JUMPDEST DUP1 PUSH1 0x1F ADD PUSH1 0x20 DUP1 SWAP2 DIV MUL PUSH1 0x20 ADD PUSH1 0x40 MLOAD SWAP1 DUP2 ADD PUSH1 0x40 MSTORE DUP1 SWAP3 SWAP2 SWAP1 DUP2 DUP2 MSTORE PUSH1 0x20 ADD DUP3 DUP1 SLOAD PUSH2 0x86C SWAP1 PUSH2 0x14C3 JUMP JUMPDEST DUP1 ISZERO PUSH2 0x8B9 JUMPI DUP1 PUSH1 0x1F LT PUSH2 0x88E JUMPI PUSH2 0x100 DUP1 DUP4 SLOAD DIV MUL DUP4 MSTORE SWAP2 PUSH1 0x20 ADD SWAP2 PUSH2 0x8B9 JUMP JUMPDEST DUP3 ADD SWAP2 SWAP1 PUSH1 0x0 MSTORE PUSH1 0x20 PUSH1 0x0 KECCAK256 SWAP1 JUMPDEST DUP2 SLOAD DUP2 MSTORE SWAP1 PUSH1 0x1 ADD SWAP1 PUSH1 0x20 ADD DUP1 DUP4 GT PUSH2 0x89C JUMPI DUP3 SWAP1 SUB PUSH1 0x1F AND DUP3 ADD SWAP2 JUMPDEST POP POP POP POP POP SWAP1 DUP1 PUSH1 0x1 ADD SLOAD SWAP1 DUP1 PUSH1 0x2 ADD PUSH1 0x0 SWAP1 SLOAD SWAP1 PUSH2 0x100 EXP SWAP1 DIV PUSH20 0xFFFFFFFFFFFFFFFFFFFFFFFFFFFFFFFFFFFFFFFF AND SWAP1 DUP1 PUSH1 0x2 ADD PUSH1 0x14 SWAP1 SLOAD SWAP1 PUSH2 0x100 EXP SWAP1 DIV PUSH1 0xFF AND SWAP1 DUP1 PUSH1 0x3 ADD SLOAD SWAP1 POP DUP6 JUMP JUMPDEST PUSH1 0x1 PUSH1 0x0 SWAP1 SLOAD SWAP1 PUSH2 0x100 EXP SWAP1 DIV PUSH20 0xFFFFFFFFFFFFFFFFFFFFFFFFFFFFFFFFFFFFFFFF AND PUSH20 0xFFFFFFFFFFFFFFFFFFFFFFFFFFFFFFFFFFFFFFFF AND CALLER PUSH20 0xFFFFFFFFFFFFFFFFFFFFFFFFFFFFFFFFFFFFFFFF AND EQ PUSH2 0x998 JUMPI PUSH1 0x40 MLOAD PUSH32 0x8C379A000000000000000000000000000000000000000000000000000000000 DUP2 MSTORE PUSH1 0x4 ADD PUSH2 0x98F SWAP1 PUSH2 0x1540 JUMP JUMPDEST PUSH1 0x40 MLOAD DUP1 SWAP2 SUB SWAP1 REVERT JUMPDEST PUSH1 0x0 PUSH1 0x7 PUSH1 0x0 PUSH1 0x8 SLOAD DUP2 MSTORE PUSH1 0x20 ADD SWAP1 DUP2 MSTORE PUSH1 0x20 ADD PUSH1 0x0 KECCAK256 SWAP1 POP PUSH1 0x8 PUSH1 0x0 DUP2 SLOAD DUP1 SWAP3 SWAP2 SWAP1 PUSH2 0x9C4 SWAP1 PUSH2 0x128C JUMP JUMPDEST SWAP2 SWAP1 POP SSTORE POP DUP4 DUP2 PUSH1 0x0 ADD SWAP1 DUP1 MLOAD SWAP1 PUSH1 0x20 ADD SWAP1 PUSH2 0x9E1 SWAP3 SWAP2 SWAP1 PUSH2 0xC67 JUMP JUMPDEST POP DUP3 DUP2 PUSH1 0x2 ADD PUSH1 0x0 PUSH2 0x100 EXP DUP2 SLOAD DUP2 PUSH20 0xFFFFFFFFFFFFFFFFFFFFFFFFFFFFFFFFFFFFFFFF MUL NOT AND SWAP1 DUP4 PUSH20 0xFFFFFFFFFFFFFFFFFFFFFFFFFFFFFFFFFFFFFFFF AND MUL OR SWAP1 SSTORE POP DUP2 DUP2 PUSH1 0x1 ADD DUP2 SWAP1 SSTORE POP PUSH1 0x0 DUP2 PUSH1 0x2 ADD PUSH1 0x14 PUSH2 0x100 EXP DUP2 SLOAD DUP2 PUSH1 0xFF MUL NOT AND SWAP1 DUP4 ISZERO ISZERO MUL OR SWAP1 SSTORE POP PUSH1 0x0 DUP2 PUSH1 0x3 ADD DUP2 SWAP1 SSTORE POP POP POP POP POP JUMP JUMPDEST PUSH1 0x2 SLOAD DUP2 JUMP JUMPDEST PUSH1 0x1 PUSH1 0x0 SWAP1 SLOAD SWAP1 PUSH2 0x100 EXP SWAP1 DIV PUSH20 0xFFFFFFFFFFFFFFFFFFFFFFFFFFFFFFFFFFFFFFFF AND PUSH20 0xFFFFFFFFFFFFFFFFFFFFFFFFFFFFFFFFFFFFFFFF AND CALLER PUSH20 0xFFFFFFFFFFFFFFFFFFFFFFFFFFFFFFFFFFFFFFFF AND EQ PUSH2 0xAF1 JUMPI PUSH1 0x40 MLOAD PUSH32 0x8C379A000000000000000000000000000000000000000000000000000000000 DUP2 MSTORE PUSH1 0x4 ADD PUSH2 0xAE8 SWAP1 PUSH2 0x1540 JUMP JUMPDEST PUSH1 0x40 MLOAD DUP1 SWAP2 SUB SWAP1 REVERT JUMPDEST PUSH1 0x4 SLOAD PUSH1 0x5 SLOAD LT ISZERO PUSH2 0xB02 JUMPI PUSH1 0x0 DUP1 REVERT JUMPDEST PUSH1 0x0 PUSH1 0x7 PUSH1 0x0 DUP4 DUP2 MSTORE PUSH1 0x20 ADD SWAP1 DUP2 MSTORE PUSH1 0x20 ADD PUSH1 0x0 KECCAK256 SWAP1 POP PUSH1 0x0 ISZERO ISZERO DUP2 PUSH1 0x2 ADD PUSH1 0x14 SWAP1 SLOAD SWAP1 PUSH2 0x100 EXP SWAP1 DIV PUSH1 0xFF AND ISZERO ISZERO EQ PUSH2 0xB71 JUMPI PUSH1 0x40 MLOAD PUSH32 0x8C379A000000000000000000000000000000000000000000000000000000000 DUP2 MSTORE PUSH1 0x4 ADD PUSH2 0xB68 SWAP1 PUSH2 0x15AC JUMP JUMPDEST PUSH1 0x40 MLOAD DUP1 SWAP2 SUB SWAP1 REVERT JUMPDEST PUSH1 0x2 PUSH1 0x6 SLOAD PUSH2 0xB80 SWAP2 SWAP1 PUSH2 0x15FB JUMP JUMPDEST DUP2 PUSH1 0x3 ADD SLOAD GT PUSH2 0xBC5 JUMPI PUSH1 0x40 MLOAD PUSH32 0x8C379A000000000000000000000000000000000000000000000000000000000 DUP2 MSTORE PUSH1 0x4 ADD PUSH2 0xBBC SWAP1 PUSH2 0x1678 JUMP JUMPDEST PUSH1 0x40 MLOAD DUP1 SWAP2 SUB SWAP1 REVERT JUMPDEST DUP1 PUSH1 0x2 ADD PUSH1 0x0 SWAP1 SLOAD SWAP1 PUSH2 0x100 EXP SWAP1 DIV PUSH20 0xFFFFFFFFFFFFFFFFFFFFFFFFFFFFFFFFFFFFFFFF AND PUSH20 0xFFFFFFFFFFFFFFFFFFFFFFFFFFFFFFFFFFFFFFFF AND PUSH2 0x8FC DUP3 PUSH1 0x1 ADD SLOAD SWAP1 DUP2 ISZERO MUL SWAP1 PUSH1 0x40 MLOAD PUSH1 0x0 PUSH1 0x40 MLOAD DUP1 DUP4 SUB DUP2 DUP6 DUP9 DUP9 CALL SWAP4 POP POP POP POP ISZERO DUP1 ISZERO PUSH2 0xC33 JUMPI RETURNDATASIZE PUSH1 0x0 DUP1 RETURNDATACOPY RETURNDATASIZE PUSH1 0x0 REVERT JUMPDEST POP PUSH1 0x1 DUP2 PUSH1 0x2 ADD PUSH1 0x14 PUSH2 0x100 EXP DUP2 SLOAD DUP2 PUSH1 0xFF MUL NOT AND SWAP1 DUP4 ISZERO ISZERO MUL OR SWAP1 SSTORE POP POP POP JUMP JUMPDEST PUSH1 0x5 SLOAD DUP2 JUMP JUMPDEST PUSH1 0x8 SLOAD DUP2 JUMP JUMPDEST PUSH1 0x4 SLOAD DUP2 JUMP JUMPDEST DUP3 DUP1 SLOAD PUSH2 0xC73 SWAP1 PUSH2 0x14C3 JUMP JUMPDEST SWAP1 PUSH1 0x0 MSTORE PUSH1 0x20 PUSH1 0x0 KECCAK256 SWAP1 PUSH1 0x1F ADD PUSH1 0x20 SWAP1 DIV DUP2 ADD SWAP3 DUP3 PUSH2 0xC95 JUMPI PUSH1 0x0 DUP6 SSTORE PUSH2 0xCDC JUMP JUMPDEST DUP3 PUSH1 0x1F LT PUSH2 0xCAE JUMPI DUP1 MLOAD PUSH1 0xFF NOT AND DUP4 DUP1 ADD OR DUP6 SSTORE PUSH2 0xCDC JUMP JUMPDEST DUP3 DUP1 ADD PUSH1 0x1 ADD DUP6 SSTORE DUP3 ISZERO PUSH2 0xCDC JUMPI SWAP2 DUP3 ADD JUMPDEST DUP3 DUP2 GT ISZERO PUSH2 0xCDB JUMPI DUP3 MLOAD DUP3 SSTORE SWAP2 PUSH1 0x20 ADD SWAP2 SWAP1 PUSH1 0x1 ADD SWAP1 PUSH2 0xCC0 JUMP JUMPDEST JUMPDEST POP SWAP1 POP PUSH2 0xCE9 SWAP2 SWAP1 PUSH2 0xCED JUMP JUMPDEST POP SWAP1 JUMP JUMPDEST JUMPDEST DUP1 DUP3 GT ISZERO PUSH2 0xD06 JUMPI PUSH1 0x0 DUP2 PUSH1 0x0 SWAP1 SSTORE POP PUSH1 0x1 ADD PUSH2 0xCEE JUMP JUMPDEST POP SWAP1 JUMP JUMPDEST PUSH1 0x0 DUP2 SWAP1 POP SWAP2 SWAP1 POP JUMP JUMPDEST PUSH2 0xD1D DUP2 PUSH2 0xD0A JUMP JUMPDEST DUP3 MSTORE POP POP JUMP JUMPDEST PUSH1 0x0 PUSH1 0x20 DUP3 ADD SWAP1 POP PUSH2 0xD38 PUSH1 0x0 DUP4 ADD DUP5 PUSH2 0xD14 JUMP JUMPDEST SWAP3 SWAP2 POP POP JUMP JUMPDEST PUSH1 0x0 PUSH1 0x40 MLOAD SWAP1 POP SWAP1 JUMP JUMPDEST PUSH1 0x0 DUP1 REVERT JUMPDEST PUSH1 0x0 DUP1 REVERT JUMPDEST PUSH1 0x0 PUSH20 0xFFFFFFFFFFFFFFFFFFFFFFFFFFFFFFFFFFFFFFFF DUP3 AND SWAP1 POP SWAP2 SWAP1 POP JUMP JUMPDEST PUSH1 0x0 PUSH2 0xD7D DUP3 PUSH2 0xD52 JUMP JUMPDEST SWAP1 POP SWAP2 SWAP1 POP JUMP JUMPDEST PUSH2 0xD8D DUP2 PUSH2 0xD72 JUMP JUMPDEST DUP2 EQ PUSH2 0xD98 JUMPI PUSH1 0x0 DUP1 REVERT JUMPDEST POP JUMP JUMPDEST PUSH1 0x0 DUP2 CALLDATALOAD SWAP1 POP PUSH2 0xDAA DUP2 PUSH2 0xD84 JUMP JUMPDEST SWAP3 SWAP2 POP POP JUMP JUMPDEST PUSH1 0x0 PUSH1 0x20 DUP3 DUP5 SUB SLT ISZERO PUSH2 0xDC6 JUMPI PUSH2 0xDC5 PUSH2 0xD48 JUMP JUMPDEST JUMPDEST PUSH1 0x0 PUSH2 0xDD4 DUP5 DUP3 DUP6 ADD PUSH2 0xD9B JUMP JUMPDEST SWAP2 POP POP SWAP3 SWAP2 POP POP JUMP JUMPDEST PUSH2 0xDE6 DUP2 PUSH2 0xD72 JUMP JUMPDEST DUP3 MSTORE POP POP JUMP JUMPDEST PUSH1 0x0 PUSH1 0x20 DUP3 ADD SWAP1 POP PUSH2 0xE01 PUSH1 0x0 DUP4 ADD DUP5 PUSH2 0xDDD JUMP JUMPDEST SWAP3 SWAP2 POP POP JUMP JUMPDEST PUSH2 0xE10 DUP2 PUSH2 0xD0A JUMP JUMPDEST DUP2 EQ PUSH2 0xE1B JUMPI PUSH1 0x0 DUP1 REVERT JUMPDEST POP JUMP JUMPDEST PUSH1 0x0 DUP2 CALLDATALOAD SWAP1 POP PUSH2 0xE2D DUP2 PUSH2 0xE07 JUMP JUMPDEST SWAP3 SWAP2 POP POP JUMP JUMPDEST PUSH1 0x0 PUSH1 0x20 DUP3 DUP5 SUB SLT ISZERO PUSH2 0xE49 JUMPI PUSH2 0xE48 PUSH2 0xD48 JUMP JUMPDEST JUMPDEST PUSH1 0x0 PUSH2 0xE57 DUP5 DUP3 DUP6 ADD PUSH2 0xE1E JUMP JUMPDEST SWAP2 POP POP SWAP3 SWAP2 POP POP JUMP JUMPDEST PUSH1 0x0 DUP2 MLOAD SWAP1 POP SWAP2 SWAP1 POP JUMP JUMPDEST PUSH1 0x0 DUP3 DUP3 MSTORE PUSH1 0x20 DUP3 ADD SWAP1 POP SWAP3 SWAP2 POP POP JUMP JUMPDEST PUSH1 0x0 JUMPDEST DUP4 DUP2 LT ISZERO PUSH2 0xE9A JUMPI DUP1 DUP3 ADD MLOAD DUP2 DUP5 ADD MSTORE PUSH1 0x20 DUP2 ADD SWAP1 POP PUSH2 0xE7F JUMP JUMPDEST DUP4 DUP2 GT ISZERO PUSH2 0xEA9 JUMPI PUSH1 0x0 DUP5 DUP5 ADD MSTORE JUMPDEST POP POP POP POP JUMP JUMPDEST PUSH1 0x0 PUSH1 0x1F NOT PUSH1 0x1F DUP4 ADD AND SWAP1 POP SWAP2 SWAP1 POP JUMP JUMPDEST PUSH1 0x0 PUSH2 0xECB DUP3 PUSH2 0xE60 JUMP JUMPDEST PUSH2 0xED5 DUP2 DUP6 PUSH2 0xE6B JUMP JUMPDEST SWAP4 POP PUSH2 0xEE5 DUP2 DUP6 PUSH1 0x20 DUP7 ADD PUSH2 0xE7C JUMP JUMPDEST PUSH2 0xEEE DUP2 PUSH2 0xEAF JUMP JUMPDEST DUP5 ADD SWAP2 POP POP SWAP3 SWAP2 POP POP JUMP JUMPDEST PUSH1 0x0 PUSH2 0xF04 DUP3 PUSH2 0xD52 JUMP JUMPDEST SWAP1 POP SWAP2 SWAP1 POP JUMP JUMPDEST PUSH2 0xF14 DUP2 PUSH2 0xEF9 JUMP JUMPDEST DUP3 MSTORE POP POP JUMP JUMPDEST PUSH1 0x0 DUP2 ISZERO ISZERO SWAP1 POP SWAP2 SWAP1 POP JUMP JUMPDEST PUSH2 0xF2F DUP2 PUSH2 0xF1A JUMP JUMPDEST DUP3 MSTORE POP POP JUMP JUMPDEST PUSH1 0x0 PUSH1 0xA0 DUP3 ADD SWAP1 POP DUP2 DUP2 SUB PUSH1 0x0 DUP4 ADD MSTORE PUSH2 0xF4F DUP2 DUP9 PUSH2 0xEC0 JUMP JUMPDEST SWAP1 POP PUSH2 0xF5E PUSH1 0x20 DUP4 ADD DUP8 PUSH2 0xD14 JUMP JUMPDEST PUSH2 0xF6B PUSH1 0x40 DUP4 ADD DUP7 PUSH2 0xF0B JUMP JUMPDEST PUSH2 0xF78 PUSH1 0x60 DUP4 ADD DUP6 PUSH2 0xF26 JUMP JUMPDEST PUSH2 0xF85 PUSH1 0x80 DUP4 ADD DUP5 PUSH2 0xD14 JUMP JUMPDEST SWAP7 SWAP6 POP POP POP POP POP POP JUMP JUMPDEST PUSH1 0x0 DUP1 REVERT JUMPDEST PUSH1 0x0 DUP1 REVERT JUMPDEST PUSH32 0x4E487B7100000000000000000000000000000000000000000000000000000000 PUSH1 0x0 MSTORE PUSH1 0x41 PUSH1 0x4 MSTORE PUSH1 0x24 PUSH1 0x0 REVERT JUMPDEST PUSH2 0xFD1 DUP3 PUSH2 0xEAF JUMP JUMPDEST DUP2 ADD DUP2 DUP2 LT PUSH8 0xFFFFFFFFFFFFFFFF DUP3 GT OR ISZERO PUSH2 0xFF0 JUMPI PUSH2 0xFEF PUSH2 0xF99 JUMP JUMPDEST JUMPDEST DUP1 PUSH1 0x40 MSTORE POP POP POP JUMP JUMPDEST PUSH1 0x0 PUSH2 0x1003 PUSH2 0xD3E JUMP JUMPDEST SWAP1 POP PUSH2 0x100F DUP3 DUP3 PUSH2 0xFC8 JUMP JUMPDEST SWAP2 SWAP1 POP JUMP JUMPDEST PUSH1 0x0 PUSH8 0xFFFFFFFFFFFFFFFF DUP3 GT ISZERO PUSH2 0x102F JUMPI PUSH2 0x102E PUSH2 0xF99 JUMP JUMPDEST JUMPDEST PUSH2 0x1038 DUP3 PUSH2 0xEAF JUMP JUMPDEST SWAP1 POP PUSH1 0x20 DUP2 ADD SWAP1 POP SWAP2 SWAP1 POP JUMP JUMPDEST DUP3 DUP2 DUP4 CALLDATACOPY PUSH1 0x0 DUP4 DUP4 ADD MSTORE POP POP POP JUMP JUMPDEST PUSH1 0x0 PUSH2 0x1067 PUSH2 0x1062 DUP5 PUSH2 0x1014 JUMP JUMPDEST PUSH2 0xFF9 JUMP JUMPDEST SWAP1 POP DUP3 DUP2 MSTORE PUSH1 0x20 DUP2 ADD DUP5 DUP5 DUP5 ADD GT ISZERO PUSH2 0x1083 JUMPI PUSH2 0x1082 PUSH2 0xF94 JUMP JUMPDEST JUMPDEST PUSH2 0x108E DUP5 DUP3 DUP6 PUSH2 0x1045 JUMP JUMPDEST POP SWAP4 SWAP3 POP POP POP JUMP JUMPDEST PUSH1 0x0 DUP3 PUSH1 0x1F DUP4 ADD SLT PUSH2 0x10AB JUMPI PUSH2 0x10AA PUSH2 0xF8F JUMP JUMPDEST JUMPDEST DUP2 CALLDATALOAD PUSH2 0x10BB DUP5 DUP3 PUSH1 0x20 DUP7 ADD PUSH2 0x1054 JUMP JUMPDEST SWAP2 POP POP SWAP3 SWAP2 POP POP JUMP JUMPDEST PUSH2 0x10CD DUP2 PUSH2 0xEF9 JUMP JUMPDEST DUP2 EQ PUSH2 0x10D8 JUMPI PUSH1 0x0 DUP1 REVERT JUMPDEST POP JUMP JUMPDEST PUSH1 0x0 DUP2 CALLDATALOAD SWAP1 POP PUSH2 0x10EA DUP2 PUSH2 0x10C4 JUMP JUMPDEST SWAP3 SWAP2 POP POP JUMP JUMPDEST PUSH1 0x0 DUP1 PUSH1 0x0 PUSH1 0x60 DUP5 DUP7 SUB SLT ISZERO PUSH2 0x1109 JUMPI PUSH2 0x1108 PUSH2 0xD48 JUMP JUMPDEST JUMPDEST PUSH1 0x0 DUP5 ADD CALLDATALOAD PUSH8 0xFFFFFFFFFFFFFFFF DUP2 GT ISZERO PUSH2 0x1127 JUMPI PUSH2 0x1126 PUSH2 0xD4D JUMP JUMPDEST JUMPDEST PUSH2 0x1133 DUP7 DUP3 DUP8 ADD PUSH2 0x1096 JUMP JUMPDEST SWAP4 POP POP PUSH1 0x20 PUSH2 0x1144 DUP7 DUP3 DUP8 ADD PUSH2 0x10DB JUMP JUMPDEST SWAP3 POP POP PUSH1 0x40 PUSH2 0x1155 DUP7 DUP3 DUP8 ADD PUSH2 0xE1E JUMP JUMPDEST SWAP2 POP POP SWAP3 POP SWAP3 POP SWAP3 JUMP JUMPDEST PUSH32 0x536F7272792C20646561646C696E652068617320706173736564000000000000 PUSH1 0x0 DUP3 ADD MSTORE POP JUMP JUMPDEST PUSH1 0x0 PUSH2 0x1195 PUSH1 0x1A DUP4 PUSH2 0xE6B JUMP JUMPDEST SWAP2 POP PUSH2 0x11A0 DUP3 PUSH2 0x115F JUMP JUMPDEST PUSH1 0x20 DUP3 ADD SWAP1 POP SWAP2 SWAP1 POP JUMP JUMPDEST PUSH1 0x0 PUSH1 0x20 DUP3 ADD SWAP1 POP DUP2 DUP2 SUB PUSH1 0x0 DUP4 ADD MSTORE PUSH2 0x11C4 DUP2 PUSH2 0x1188 JUMP JUMPDEST SWAP1 POP SWAP2 SWAP1 POP JUMP JUMPDEST PUSH32 0x536F7272792C206D696E696D756D20636F6E747269627574696F6E206973206E PUSH1 0x0 DUP3 ADD MSTORE PUSH32 0x6F74206D65740000000000000000000000000000000000000000000000000000 PUSH1 0x20 DUP3 ADD MSTORE POP JUMP JUMPDEST PUSH1 0x0 PUSH2 0x1227 PUSH1 0x26 DUP4 PUSH2 0xE6B JUMP JUMPDEST SWAP2 POP PUSH2 0x1232 DUP3 PUSH2 0x11CB JUMP JUMPDEST PUSH1 0x40 DUP3 ADD SWAP1 POP SWAP2 SWAP1 POP JUMP JUMPDEST PUSH1 0x0 PUSH1 0x20 DUP3 ADD SWAP1 POP DUP2 DUP2 SUB PUSH1 0x0 DUP4 ADD MSTORE PUSH2 0x1256 DUP2 PUSH2 0x121A JUMP JUMPDEST SWAP1 POP SWAP2 SWAP1 POP JUMP JUMPDEST PUSH32 0x4E487B7100000000000000000000000000000000000000000000000000000000 PUSH1 0x0 MSTORE PUSH1 0x11 PUSH1 0x4 MSTORE PUSH1 0x24 PUSH1 0x0 REVERT JUMPDEST PUSH1 0x0 PUSH2 0x1297 DUP3 PUSH2 0xD0A JUMP JUMPDEST SWAP2 POP PUSH32 0xFFFFFFFFFFFFFFFFFFFFFFFFFFFFFFFFFFFFFFFFFFFFFFFFFFFFFFFFFFFFFFFF DUP3 SUB PUSH2 0x12C9 JUMPI PUSH2 0x12C8 PUSH2 0x125D JUMP JUMPDEST JUMPDEST PUSH1 0x1 DUP3 ADD SWAP1 POP SWAP2 SWAP1 POP JUMP JUMPDEST PUSH1 0x0 PUSH2 0x12DF DUP3 PUSH2 0xD0A JUMP JUMPDEST SWAP2 POP PUSH2 0x12EA DUP4 PUSH2 0xD0A JUMP JUMPDEST SWAP3 POP DUP3 PUSH32 0xFFFFFFFFFFFFFFFFFFFFFFFFFFFFFFFFFFFFFFFFFFFFFFFFFFFFFFFFFFFFFFFF SUB DUP3 GT ISZERO PUSH2 0x131F JUMPI PUSH2 0x131E PUSH2 0x125D JUMP JUMPDEST JUMPDEST DUP3 DUP3 ADD SWAP1 POP SWAP3 SWAP2 POP POP JUMP JUMPDEST PUSH32 0x596F7520617265206E6F7420656C6967696C6520666F7220766F74696E670000 PUSH1 0x0 DUP3 ADD MSTORE POP JUMP JUMPDEST PUSH1 0x0 PUSH2 0x1360 PUSH1 0x1E DUP4 PUSH2 0xE6B JUMP JUMPDEST SWAP2 POP PUSH2 0x136B DUP3 PUSH2 0x132A JUMP JUMPDEST PUSH1 0x20 DUP3 ADD SWAP1 POP SWAP2 SWAP1 POP JUMP JUMPDEST PUSH1 0x0 PUSH1 0x20 DUP3 ADD SWAP1 POP DUP2 DUP2 SUB PUSH1 0x0 DUP4 ADD MSTORE PUSH2 0x138F DUP2 PUSH2 0x1353 JUMP JUMPDEST SWAP1 POP SWAP2 SWAP1 POP JUMP JUMPDEST PUSH32 0x596F75206861766520616C726561647920766F74656421000000000000000000 PUSH1 0x0 DUP3 ADD MSTORE POP JUMP JUMPDEST PUSH1 0x0 PUSH2 0x13CC PUSH1 0x17 DUP4 PUSH2 0xE6B JUMP JUMPDEST SWAP2 POP PUSH2 0x13D7 DUP3 PUSH2 0x1396 JUMP JUMPDEST PUSH1 0x20 DUP3 ADD SWAP1 POP SWAP2 SWAP1 POP JUMP JUMPDEST PUSH1 0x0 PUSH1 0x20 DUP3 ADD SWAP1 POP DUP2 DUP2 SUB PUSH1 0x0 DUP4 ADD MSTORE PUSH2 0x13FB DUP2 PUSH2 0x13BF JUMP JUMPDEST SWAP1 POP SWAP2 SWAP1 POP JUMP JUMPDEST PUSH32 0x596F7520617265206E6F7420656C696769626C6520666F7220726566756E6469 PUSH1 0x0 DUP3 ADD MSTORE PUSH32 0x6E67000000000000000000000000000000000000000000000000000000000000 PUSH1 0x20 DUP3 ADD MSTORE POP JUMP JUMPDEST PUSH1 0x0 PUSH2 0x145E PUSH1 0x22 DUP4 PUSH2 0xE6B JUMP JUMPDEST SWAP2 POP PUSH2 0x1469 DUP3 PUSH2 0x1402 JUMP JUMPDEST PUSH1 0x40 DUP3 ADD SWAP1 POP SWAP2 SWAP1 POP JUMP JUMPDEST PUSH1 0x0 PUSH1 0x20 DUP3 ADD SWAP1 POP DUP2 DUP2 SUB PUSH1 0x0 DUP4 ADD MSTORE PUSH2 0x148D DUP2 PUSH2 0x1451 JUMP JUMPDEST SWAP1 POP SWAP2 SWAP1 POP JUMP JUMPDEST PUSH32 0x4E487B7100000000000000000000000000000000000000000000000000000000 PUSH1 0x0 MSTORE PUSH1 0x22 PUSH1 0x4 MSTORE PUSH1 0x24 PUSH1 0x0 REVERT JUMPDEST PUSH1 0x0 PUSH1 0x2 DUP3 DIV SWAP1 POP PUSH1 0x1 DUP3 AND DUP1 PUSH2 0x14DB JUMPI PUSH1 0x7F DUP3 AND SWAP2 POP JUMPDEST PUSH1 0x20 DUP3 LT DUP2 SUB PUSH2 0x14EE JUMPI PUSH2 0x14ED PUSH2 0x1494 JUMP JUMPDEST JUMPDEST POP SWAP2 SWAP1 POP JUMP JUMPDEST PUSH32 0x4F6E6C79206D616E616765720000000000000000000000000000000000000000 PUSH1 0x0 DUP3 ADD MSTORE POP JUMP JUMPDEST PUSH1 0x0 PUSH2 0x152A PUSH1 0xC DUP4 PUSH2 0xE6B JUMP JUMPDEST SWAP2 POP PUSH2 0x1535 DUP3 PUSH2 0x14F4 JUMP JUMPDEST PUSH1 0x20 DUP3 ADD SWAP1 POP SWAP2 SWAP1 POP JUMP JUMPDEST PUSH1 0x0 PUSH1 0x20 DUP3 ADD SWAP1 POP DUP2 DUP2 SUB PUSH1 0x0 DUP4 ADD MSTORE PUSH2 0x1559 DUP2 PUSH2 0x151D JUMP JUMPDEST SWAP1 POP SWAP2 SWAP1 POP JUMP JUMPDEST PUSH32 0x526563697069656E742068617320616C7265616479206265656E207061696400 PUSH1 0x0 DUP3 ADD MSTORE POP JUMP JUMPDEST PUSH1 0x0 PUSH2 0x1596 PUSH1 0x1F DUP4 PUSH2 0xE6B JUMP JUMPDEST SWAP2 POP PUSH2 0x15A1 DUP3 PUSH2 0x1560 JUMP JUMPDEST PUSH1 0x20 DUP3 ADD SWAP1 POP SWAP2 SWAP1 POP JUMP JUMPDEST PUSH1 0x0 PUSH1 0x20 DUP3 ADD SWAP1 POP DUP2 DUP2 SUB PUSH1 0x0 DUP4 ADD MSTORE PUSH2 0x15C5 DUP2 PUSH2 0x1589 JUMP JUMPDEST SWAP1 POP SWAP2 SWAP1 POP JUMP JUMPDEST PUSH32 0x4E487B7100000000000000000000000000000000000000000000000000000000 PUSH1 0x0 MSTORE PUSH1 0x12 PUSH1 0x4 MSTORE PUSH1 0x24 PUSH1 0x0 REVERT JUMPDEST PUSH1 0x0 PUSH2 0x1606 DUP3 PUSH2 0xD0A JUMP JUMPDEST SWAP2 POP PUSH2 0x1611 DUP4 PUSH2 0xD0A JUMP JUMPDEST SWAP3 POP DUP3 PUSH2 0x1621 JUMPI PUSH2 0x1620 PUSH2 0x15CC JUMP JUMPDEST JUMPDEST DUP3 DUP3 DIV SWAP1 POP SWAP3 SWAP2 POP POP JUMP JUMPDEST PUSH32 0x4D616A6F7269747920737570706F7274206E6565646564000000000000000000 PUSH1 0x0 DUP3 ADD MSTORE POP JUMP JUMPDEST PUSH1 0x0 PUSH2 0x1662 PUSH1 0x17 DUP4 PUSH2 0xE6B JUMP JUMPDEST SWAP2 POP PUSH2 0x166D DUP3 PUSH2 0x162C JUMP JUMPDEST PUSH1 0x20 DUP3 ADD SWAP1 POP SWAP2 SWAP1 POP JUMP JUMPDEST PUSH1 0x0 PUSH1 0x20 DUP3 ADD SWAP1 POP DUP2 DUP2 SUB PUSH1 0x0 DUP4 ADD MSTORE PUSH2 0x1691 DUP2 PUSH2 0x1655 JUMP JUMPDEST SWAP1 POP SWAP2 SWAP1 POP JUMP INVALID LOG2 PUSH5 0x6970667358 0x22 SLT KECCAK256 DUP14 0xAD SWAP8 EXTCODEHASH LOG0 DIV GAS PUSH28 0x2392E844D00DE40C3284D8E237A9B608AC9558571B5CE67464736F6C PUSH4 0x4300080D STOP CALLER "
				},
				"gasEstimates": {
					"creation": {
						"codeDepositCost": "1167600",
						"executionCost": "infinite",
						"totalCost": "infinite"
					},
					"external": {
						"contributors(address)": "2882",
						"createFundRequest(string,address,uint256)": "infinite",
						"deadline()": "2452",
						"getContractBalance()": "362",
						"makePaymentToRecipient(uint256)": "infinite",
						"manager()": "2559",
						"minimumContribution()": "2518",
						"raisedAmount()": "2473",
						"refundEther()": "infinite",
						"requestNumber()": "2495",
						"requests(uint256)": "infinite",
						"sendEther()": "infinite",
						"target()": "2517",
						"totalContibutors()": "2453",
						"voteRequest(uint256)": "infinite"
					}
				},
				"methodIdentifiers": {
					"contributors(address)": "1f6d4942",
					"createFundRequest(string,address,uint256)": "84bc06f1",
					"deadline()": "29dcb0cf",
					"getContractBalance()": "6f9fb98a",
					"makePaymentToRecipient(uint256)": "a77ede95",
					"manager()": "481c6a75",
					"minimumContribution()": "937e09b1",
					"raisedAmount()": "c59ee1dc",
					"refundEther()": "560ed6a1",
					"requestNumber()": "cfd1a7e2",
					"requests(uint256)": "81d12c58",
					"sendEther()": "0e29df22",
					"target()": "d4b83992",
					"totalContibutors()": "092476fc",
					"voteRequest(uint256)": "4cb6f4a5"
				}
			},
			"storageLayout": {
				"storage": [
					{
						"astId": 6,
						"contract": "contracts/CrowdFunding.sol:CrowdFunding",
						"label": "contributors",
						"offset": 0,
						"slot": "0",
						"type": "t_mapping(t_address,t_uint256)"
					},
					{
						"astId": 8,
						"contract": "contracts/CrowdFunding.sol:CrowdFunding",
						"label": "manager",
						"offset": 0,
						"slot": "1",
						"type": "t_address"
					},
					{
						"astId": 10,
						"contract": "contracts/CrowdFunding.sol:CrowdFunding",
						"label": "minimumContribution",
						"offset": 0,
						"slot": "2",
						"type": "t_uint256"
					},
					{
						"astId": 12,
						"contract": "contracts/CrowdFunding.sol:CrowdFunding",
						"label": "deadline",
						"offset": 0,
						"slot": "3",
						"type": "t_uint256"
					},
					{
						"astId": 14,
						"contract": "contracts/CrowdFunding.sol:CrowdFunding",
						"label": "target",
						"offset": 0,
						"slot": "4",
						"type": "t_uint256"
					},
					{
						"astId": 16,
						"contract": "contracts/CrowdFunding.sol:CrowdFunding",
						"label": "raisedAmount",
						"offset": 0,
						"slot": "5",
						"type": "t_uint256"
					},
					{
						"astId": 18,
						"contract": "contracts/CrowdFunding.sol:CrowdFunding",
						"label": "totalContibutors",
						"offset": 0,
						"slot": "6",
						"type": "t_uint256"
					},
					{
						"astId": 38,
						"contract": "contracts/CrowdFunding.sol:CrowdFunding",
						"label": "requests",
						"offset": 0,
						"slot": "7",
						"type": "t_mapping(t_uint256,t_struct(Request)33_storage)"
					},
					{
						"astId": 40,
						"contract": "contracts/CrowdFunding.sol:CrowdFunding",
						"label": "requestNumber",
						"offset": 0,
						"slot": "8",
						"type": "t_uint256"
					}
				],
				"types": {
					"t_address": {
						"encoding": "inplace",
						"label": "address",
						"numberOfBytes": "20"
					},
					"t_address_payable": {
						"encoding": "inplace",
						"label": "address payable",
						"numberOfBytes": "20"
					},
					"t_bool": {
						"encoding": "inplace",
						"label": "bool",
						"numberOfBytes": "1"
					},
					"t_mapping(t_address,t_bool)": {
						"encoding": "mapping",
						"key": "t_address",
						"label": "mapping(address => bool)",
						"numberOfBytes": "32",
						"value": "t_bool"
					},
					"t_mapping(t_address,t_uint256)": {
						"encoding": "mapping",
						"key": "t_address",
						"label": "mapping(address => uint256)",
						"numberOfBytes": "32",
						"value": "t_uint256"
					},
					"t_mapping(t_uint256,t_struct(Request)33_storage)": {
						"encoding": "mapping",
						"key": "t_uint256",
						"label": "mapping(uint256 => struct CrowdFunding.Request)",
						"numberOfBytes": "32",
						"value": "t_struct(Request)33_storage"
					},
					"t_string_storage": {
						"encoding": "bytes",
						"label": "string",
						"numberOfBytes": "32"
					},
					"t_struct(Request)33_storage": {
						"encoding": "inplace",
						"label": "struct CrowdFunding.Request",
						"members": [
							{
								"astId": 20,
								"contract": "contracts/CrowdFunding.sol:CrowdFunding",
								"label": "cause",
								"offset": 0,
								"slot": "0",
								"type": "t_string_storage"
							},
							{
								"astId": 22,
								"contract": "contracts/CrowdFunding.sol:CrowdFunding",
								"label": "value",
								"offset": 0,
								"slot": "1",
								"type": "t_uint256"
							},
							{
								"astId": 24,
								"contract": "contracts/CrowdFunding.sol:CrowdFunding",
								"label": "recipient",
								"offset": 0,
								"slot": "2",
								"type": "t_address_payable"
							},
							{
								"astId": 26,
								"contract": "contracts/CrowdFunding.sol:CrowdFunding",
								"label": "completed",
								"offset": 20,
								"slot": "2",
								"type": "t_bool"
							},
							{
								"astId": 28,
								"contract": "contracts/CrowdFunding.sol:CrowdFunding",
								"label": "totalVoters",
								"offset": 0,
								"slot": "3",
								"type": "t_uint256"
							},
							{
								"astId": 32,
								"contract": "contracts/CrowdFunding.sol:CrowdFunding",
								"label": "voters",
								"offset": 0,
								"slot": "4",
								"type": "t_mapping(t_address,t_bool)"
							}
						],
						"numberOfBytes": "160"
					},
					"t_uint256": {
						"encoding": "inplace",
						"label": "uint256",
						"numberOfBytes": "32"
					}
				}
			},
			"userdoc": {
				"kind": "user",
				"methods": {},
				"version": 1
			}
		}
	}
}