{
	"contracts/String.sol": {
		"String": {
			"abi": [
				{
					"inputs": [
						{
							"internalType": "string",
							"name": "expression1",
							"type": "string"
						},
						{
							"internalType": "string",
							"name": "expression2",
							"type": "string"
						}
					],
					"name": "concatenation",
					"outputs": [
						{
							"internalType": "string",
							"name": "",
							"type": "string"
						}
					],
					"stateMutability": "view",
					"type": "function"
				},
				{
					"inputs": [],
					"name": "getInstructor",
					"outputs": [
						{
							"internalType": "string",
							"name": "",
							"type": "string"
						}
					],
					"stateMutability": "view",
					"type": "function"
				},
				{
					"inputs": [],
					"name": "reverseInstructorLiteral",
					"outputs": [
						{
							"internalType": "uint256",
							"name": "",
							"type": "uint256"
						}
					],
					"stateMutability": "view",
					"type": "function"
				},
				{
					"inputs": [],
					"name": "sizeOfInstructorLiteral",
					"outputs": [
						{
							"internalType": "uint256",
							"name": "",
							"type": "uint256"
						}
					],
					"stateMutability": "view",
					"type": "function"
				},
				{
					"inputs": [
						{
							"internalType": "string",
							"name": "value",
							"type": "string"
						}
					],
					"name": "valueIsInstructor",
					"outputs": [
						{
							"internalType": "bool",
							"name": "",
							"type": "bool"
						}
					],
					"stateMutability": "view",
					"type": "function"
				}
			],
			"devdoc": {
				"author": "0xVeliUysal",
				"details": "String Example",
				"kind": "dev",
				"methods": {},
				"version": 1
			},
			"evm": {
				"assembly": "    /* \"contracts/String.sol\":127:864  contract String {... */\n  mstore(0x40, 0x80)\n    /* \"contracts/String.sol\":150:191  string private instructor = \"0xVeliUysal\" */\n  mload(0x40)\n  dup1\n  0x40\n  add\n  0x40\n  mstore\n  dup1\n  0x0b\n  dup2\n  mstore\n  0x20\n  add\n  0x307856656c69557973616c000000000000000000000000000000000000000000\n  dup2\n  mstore\n  pop\n  0x00\n  swap1\n  dup1\n  mload\n  swap1\n  0x20\n  add\n  swap1\n  tag_1\n  swap3\n  swap2\n  swap1\n  tag_2\n  jump\t// in\ntag_1:\n  pop\n    /* \"contracts/String.sol\":127:864  contract String {... */\n  callvalue\n  dup1\n  iszero\n  tag_3\n  jumpi\n  0x00\n  dup1\n  revert\ntag_3:\n  pop\n  jump(tag_4)\ntag_2:\n  dup3\n  dup1\n  sload\n  tag_5\n  swap1\n  tag_6\n  jump\t// in\ntag_5:\n  swap1\n  0x00\n  mstore\n  keccak256(0x00, 0x20)\n  swap1\n  0x1f\n  add\n  0x20\n  swap1\n  div\n  dup2\n  add\n  swap3\n  dup3\n  tag_8\n  jumpi\n  0x00\n  dup6\n  sstore\n  jump(tag_7)\ntag_8:\n  dup3\n  0x1f\n  lt\n  tag_9\n  jumpi\n  dup1\n  mload\n  not(0xff)\n  and\n  dup4\n  dup1\n  add\n  or\n  dup6\n  sstore\n  jump(tag_7)\ntag_9:\n  dup3\n  dup1\n  add\n  0x01\n  add\n  dup6\n  sstore\n  dup3\n  iszero\n  tag_7\n  jumpi\n  swap2\n  dup3\n  add\ntag_10:\n  dup3\n  dup2\n  gt\n  iszero\n  tag_11\n  jumpi\n  dup3\n  mload\n  dup3\n  sstore\n  swap2\n  0x20\n  add\n  swap2\n  swap1\n  0x01\n  add\n  swap1\n  jump(tag_10)\ntag_11:\ntag_7:\n  pop\n  swap1\n  pop\n  tag_12\n  swap2\n  swap1\n  tag_13\n  jump\t// in\ntag_12:\n  pop\n  swap1\n  jump\t// out\ntag_13:\ntag_14:\n  dup1\n  dup3\n  gt\n  iszero\n  tag_15\n  jumpi\n  0x00\n  dup2\n  0x00\n  swap1\n  sstore\n  pop\n  0x01\n  add\n  jump(tag_14)\ntag_15:\n  pop\n  swap1\n  jump\t// out\n    /* \"#utility.yul\":7:187   */\ntag_16:\n    /* \"#utility.yul\":55:132   */\n  0x4e487b7100000000000000000000000000000000000000000000000000000000\n    /* \"#utility.yul\":52:53   */\n  0x00\n    /* \"#utility.yul\":45:133   */\n  mstore\n    /* \"#utility.yul\":152:156   */\n  0x22\n    /* \"#utility.yul\":149:150   */\n  0x04\n    /* \"#utility.yul\":142:157   */\n  mstore\n    /* \"#utility.yul\":176:180   */\n  0x24\n    /* \"#utility.yul\":173:174   */\n  0x00\n    /* \"#utility.yul\":166:181   */\n  revert\n    /* \"#utility.yul\":193:513   */\ntag_6:\n    /* \"#utility.yul\":237:243   */\n  0x00\n    /* \"#utility.yul\":274:275   */\n  0x02\n    /* \"#utility.yul\":268:272   */\n  dup3\n    /* \"#utility.yul\":264:276   */\n  div\n    /* \"#utility.yul\":254:276   */\n  swap1\n  pop\n    /* \"#utility.yul\":321:322   */\n  0x01\n    /* \"#utility.yul\":315:319   */\n  dup3\n    /* \"#utility.yul\":311:323   */\n  and\n    /* \"#utility.yul\":342:360   */\n  dup1\n    /* \"#utility.yul\":332:413   */\n  tag_20\n  jumpi\n    /* \"#utility.yul\":398:402   */\n  0x7f\n    /* \"#utility.yul\":390:396   */\n  dup3\n    /* \"#utility.yul\":386:403   */\n  and\n    /* \"#utility.yul\":376:403   */\n  swap2\n  pop\n    /* \"#utility.yul\":332:413   */\ntag_20:\n    /* \"#utility.yul\":460:462   */\n  0x20\n    /* \"#utility.yul\":452:458   */\n  dup3\n    /* \"#utility.yul\":449:463   */\n  lt\n    /* \"#utility.yul\":429:447   */\n  dup2\n    /* \"#utility.yul\":426:464   */\n  sub\n    /* \"#utility.yul\":423:507   */\n  tag_21\n  jumpi\n    /* \"#utility.yul\":479:497   */\n  tag_22\n  tag_16\n  jump\t// in\ntag_22:\n    /* \"#utility.yul\":423:507   */\ntag_21:\n    /* \"#utility.yul\":244:513   */\n  pop\n    /* \"#utility.yul\":193:513   */\n  swap2\n  swap1\n  pop\n  jump\t// out\n    /* \"contracts/String.sol\":127:864  contract String {... */\ntag_4:\n  dataSize(sub_0)\n  dup1\n  dataOffset(sub_0)\n  0x00\n  codecopy\n  0x00\n  return\nstop\n\nsub_0: assembly {\n        /* \"contracts/String.sol\":127:864  contract String {... */\n      mstore(0x40, 0x80)\n      callvalue\n      dup1\n      iszero\n      tag_1\n      jumpi\n      0x00\n      dup1\n      revert\n    tag_1:\n      pop\n      jumpi(tag_2, lt(calldatasize, 0x04))\n      shr(0xe0, calldataload(0x00))\n      dup1\n      0x0a90f9c1\n      eq\n      tag_3\n      jumpi\n      dup1\n      0x0e329357\n      eq\n      tag_4\n      jumpi\n      dup1\n      0x3c1b81a5\n      eq\n      tag_5\n      jumpi\n      dup1\n      0x4e69ee39\n      eq\n      tag_6\n      jumpi\n      dup1\n      0x83f5de18\n      eq\n      tag_7\n      jumpi\n    tag_2:\n      0x00\n      dup1\n      revert\n        /* \"contracts/String.sol\":686:861  function valueIsInstructor(string memory value) public view returns(bool) {... */\n    tag_3:\n      tag_8\n      0x04\n      dup1\n      calldatasize\n      sub\n      dup2\n      add\n      swap1\n      tag_9\n      swap2\n      swap1\n      tag_10\n      jump\t// in\n    tag_9:\n      tag_11\n      jump\t// in\n    tag_8:\n      mload(0x40)\n      tag_12\n      swap2\n      swap1\n      tag_13\n      jump\t// in\n    tag_12:\n      mload(0x40)\n      dup1\n      swap2\n      sub\n      swap1\n      return\n        /* \"contracts/String.sol\":495:680  function concatenation(string memory expression1, string memory expression2) public view returns(string memory){... */\n    tag_4:\n      tag_14\n      0x04\n      dup1\n      calldatasize\n      sub\n      dup2\n      add\n      swap1\n      tag_15\n      swap2\n      swap1\n      tag_16\n      jump\t// in\n    tag_15:\n      tag_17\n      jump\t// in\n    tag_14:\n      mload(0x40)\n      tag_18\n      swap2\n      swap1\n      tag_19\n      jump\t// in\n    tag_18:\n      mload(0x40)\n      dup1\n      swap2\n      sub\n      swap1\n      return\n        /* \"contracts/String.sol\":198:292  function getInstructor() public view returns(string memory) {... */\n    tag_5:\n      tag_20\n      tag_21\n      jump\t// in\n    tag_20:\n      mload(0x40)\n      tag_22\n      swap2\n      swap1\n      tag_19\n      jump\t// in\n    tag_22:\n      mload(0x40)\n      dup1\n      swap2\n      sub\n      swap1\n      return\n        /* \"contracts/String.sol\":416:489  function reverseInstructorLiteral() public view returns(uint256) {... */\n    tag_6:\n      tag_23\n      tag_24\n      jump\t// in\n    tag_23:\n      mload(0x40)\n      tag_25\n      swap2\n      swap1\n      tag_26\n      jump\t// in\n    tag_25:\n      mload(0x40)\n      dup1\n      swap2\n      sub\n      swap1\n      return\n        /* \"contracts/String.sol\":298:410  function sizeOfInstructorLiteral() public view returns(uint256) {... */\n    tag_7:\n      tag_27\n      tag_28\n      jump\t// in\n    tag_27:\n      mload(0x40)\n      tag_29\n      swap2\n      swap1\n      tag_26\n      jump\t// in\n    tag_29:\n      mload(0x40)\n      dup1\n      swap2\n      sub\n      swap1\n      return\n        /* \"contracts/String.sol\":686:861  function valueIsInstructor(string memory value) public view returns(bool) {... */\n    tag_11:\n        /* \"contracts/String.sol\":754:758  bool */\n      0x00\n        /* \"contracts/String.sol\":842:852  instructor */\n      dup1\n        /* \"contracts/String.sol\":825:853  abi.encodePacked(instructor) */\n      add(0x20, mload(0x40))\n      tag_31\n      swap2\n      swap1\n      tag_32\n      jump\t// in\n    tag_31:\n      mload(0x40)\n      0x20\n      dup2\n      dup4\n      sub\n      sub\n      dup2\n      mstore\n      swap1\n      0x40\n      mstore\n        /* \"contracts/String.sol\":815:854  keccak256(abi.encodePacked(instructor)) */\n      dup1\n      mload\n      swap1\n      0x20\n      add\n      keccak256\n        /* \"contracts/String.sol\":804:809  value */\n      dup3\n        /* \"contracts/String.sol\":787:810  abi.encodePacked(value) */\n      add(0x20, mload(0x40))\n      tag_33\n      swap2\n      swap1\n      tag_34\n      jump\t// in\n    tag_33:\n      mload(0x40)\n      0x20\n      dup2\n      dup4\n      sub\n      sub\n      dup2\n      mstore\n      swap1\n      0x40\n      mstore\n        /* \"contracts/String.sol\":777:811  keccak256(abi.encodePacked(value)) */\n      dup1\n      mload\n      swap1\n      0x20\n      add\n      keccak256\n        /* \"contracts/String.sol\":777:854  keccak256(abi.encodePacked(value)) == keccak256(abi.encodePacked(instructor)) */\n      eq\n        /* \"contracts/String.sol\":770:854  return keccak256(abi.encodePacked(value)) == keccak256(abi.encodePacked(instructor)) */\n      swap1\n      pop\n        /* \"contracts/String.sol\":686:861  function valueIsInstructor(string memory value) public view returns(bool) {... */\n      swap2\n      swap1\n      pop\n      jump\t// out\n        /* \"contracts/String.sol\":495:680  function concatenation(string memory expression1, string memory expression2) public view returns(string memory){... */\n    tag_17:\n        /* \"contracts/String.sol\":592:605  string memory */\n      0x60\n        /* \"contracts/String.sol\":647:658  expression1 */\n      dup3\n        /* \"contracts/String.sol\":660:671  expression2 */\n      dup3\n        /* \"contracts/String.sol\":630:672  abi.encodePacked(expression1, expression2) */\n      add(0x20, mload(0x40))\n      tag_36\n      swap3\n      swap2\n      swap1\n      tag_37\n      jump\t// in\n    tag_36:\n      mload(0x40)\n      0x20\n      dup2\n      dup4\n      sub\n      sub\n      dup2\n      mstore\n      swap1\n      0x40\n      mstore\n        /* \"contracts/String.sol\":616:673  return string(abi.encodePacked(expression1, expression2)) */\n      swap1\n      pop\n        /* \"contracts/String.sol\":495:680  function concatenation(string memory expression1, string memory expression2) public view returns(string memory){... */\n      swap3\n      swap2\n      pop\n      pop\n      jump\t// out\n        /* \"contracts/String.sol\":198:292  function getInstructor() public view returns(string memory) {... */\n    tag_21:\n        /* \"contracts/String.sol\":243:256  string memory */\n      0x60\n        /* \"contracts/String.sol\":275:285  instructor */\n      0x00\n        /* \"contracts/String.sol\":268:285  return instructor */\n      dup1\n      sload\n      tag_39\n      swap1\n      tag_40\n      jump\t// in\n    tag_39:\n      dup1\n      0x1f\n      add\n      0x20\n      dup1\n      swap2\n      div\n      mul\n      0x20\n      add\n      mload(0x40)\n      swap1\n      dup2\n      add\n      0x40\n      mstore\n      dup1\n      swap3\n      swap2\n      swap1\n      dup2\n      dup2\n      mstore\n      0x20\n      add\n      dup3\n      dup1\n      sload\n      tag_41\n      swap1\n      tag_40\n      jump\t// in\n    tag_41:\n      dup1\n      iszero\n      tag_42\n      jumpi\n      dup1\n      0x1f\n      lt\n      tag_43\n      jumpi\n      0x0100\n      dup1\n      dup4\n      sload\n      div\n      mul\n      dup4\n      mstore\n      swap2\n      0x20\n      add\n      swap2\n      jump(tag_42)\n    tag_43:\n      dup3\n      add\n      swap2\n      swap1\n      0x00\n      mstore\n      keccak256(0x00, 0x20)\n      swap1\n    tag_44:\n      dup2\n      sload\n      dup2\n      mstore\n      swap1\n      0x01\n      add\n      swap1\n      0x20\n      add\n      dup1\n      dup4\n      gt\n      tag_44\n      jumpi\n      dup3\n      swap1\n      sub\n      0x1f\n      and\n      dup3\n      add\n      swap2\n    tag_42:\n      pop\n      pop\n      pop\n      pop\n      pop\n      swap1\n      pop\n        /* \"contracts/String.sol\":198:292  function getInstructor() public view returns(string memory) {... */\n      swap1\n      jump\t// out\n        /* \"contracts/String.sol\":416:489  function reverseInstructorLiteral() public view returns(uint256) {... */\n    tag_24:\n        /* \"contracts/String.sol\":472:479  uint256 */\n      0x00\n        /* \"contracts/String.sol\":416:489  function reverseInstructorLiteral() public view returns(uint256) {... */\n      swap1\n      jump\t// out\n        /* \"contracts/String.sol\":298:410  function sizeOfInstructorLiteral() public view returns(uint256) {... */\n    tag_28:\n        /* \"contracts/String.sol\":353:360  uint256 */\n      0x00\n        /* \"contracts/String.sol\":385:395  instructor */\n      dup1\n        /* \"contracts/String.sol\":379:403  bytes(instructor).length */\n      dup1\n      sload\n      tag_47\n      swap1\n      tag_40\n      jump\t// in\n    tag_47:\n      swap1\n      pop\n        /* \"contracts/String.sol\":372:403  return bytes(instructor).length */\n      swap1\n      pop\n        /* \"contracts/String.sol\":298:410  function sizeOfInstructorLiteral() public view returns(uint256) {... */\n      swap1\n      jump\t// out\n        /* \"#utility.yul\":7:82   */\n    tag_48:\n        /* \"#utility.yul\":40:46   */\n      0x00\n        /* \"#utility.yul\":73:75   */\n      0x40\n        /* \"#utility.yul\":67:76   */\n      mload\n        /* \"#utility.yul\":57:76   */\n      swap1\n      pop\n        /* \"#utility.yul\":7:82   */\n      swap1\n      jump\t// out\n        /* \"#utility.yul\":88:205   */\n    tag_49:\n        /* \"#utility.yul\":197:198   */\n      0x00\n        /* \"#utility.yul\":194:195   */\n      dup1\n        /* \"#utility.yul\":187:199   */\n      revert\n        /* \"#utility.yul\":211:328   */\n    tag_50:\n        /* \"#utility.yul\":320:321   */\n      0x00\n        /* \"#utility.yul\":317:318   */\n      dup1\n        /* \"#utility.yul\":310:322   */\n      revert\n        /* \"#utility.yul\":334:451   */\n    tag_51:\n        /* \"#utility.yul\":443:444   */\n      0x00\n        /* \"#utility.yul\":440:441   */\n      dup1\n        /* \"#utility.yul\":433:445   */\n      revert\n        /* \"#utility.yul\":457:574   */\n    tag_52:\n        /* \"#utility.yul\":566:567   */\n      0x00\n        /* \"#utility.yul\":563:564   */\n      dup1\n        /* \"#utility.yul\":556:568   */\n      revert\n        /* \"#utility.yul\":580:682   */\n    tag_53:\n        /* \"#utility.yul\":621:627   */\n      0x00\n        /* \"#utility.yul\":672:674   */\n      0x1f\n        /* \"#utility.yul\":668:675   */\n      not\n        /* \"#utility.yul\":663:665   */\n      0x1f\n        /* \"#utility.yul\":656:661   */\n      dup4\n        /* \"#utility.yul\":652:666   */\n      add\n        /* \"#utility.yul\":648:676   */\n      and\n        /* \"#utility.yul\":638:676   */\n      swap1\n      pop\n        /* \"#utility.yul\":580:682   */\n      swap2\n      swap1\n      pop\n      jump\t// out\n        /* \"#utility.yul\":688:868   */\n    tag_54:\n        /* \"#utility.yul\":736:813   */\n      0x4e487b7100000000000000000000000000000000000000000000000000000000\n        /* \"#utility.yul\":733:734   */\n      0x00\n        /* \"#utility.yul\":726:814   */\n      mstore\n        /* \"#utility.yul\":833:837   */\n      0x41\n        /* \"#utility.yul\":830:831   */\n      0x04\n        /* \"#utility.yul\":823:838   */\n      mstore\n        /* \"#utility.yul\":857:861   */\n      0x24\n        /* \"#utility.yul\":854:855   */\n      0x00\n        /* \"#utility.yul\":847:862   */\n      revert\n        /* \"#utility.yul\":874:1155   */\n    tag_55:\n        /* \"#utility.yul\":957:984   */\n      tag_83\n        /* \"#utility.yul\":979:983   */\n      dup3\n        /* \"#utility.yul\":957:984   */\n      tag_53\n      jump\t// in\n    tag_83:\n        /* \"#utility.yul\":949:955   */\n      dup2\n        /* \"#utility.yul\":945:985   */\n      add\n        /* \"#utility.yul\":1087:1093   */\n      dup2\n        /* \"#utility.yul\":1075:1085   */\n      dup2\n        /* \"#utility.yul\":1072:1094   */\n      lt\n        /* \"#utility.yul\":1051:1069   */\n      0xffffffffffffffff\n        /* \"#utility.yul\":1039:1049   */\n      dup3\n        /* \"#utility.yul\":1036:1070   */\n      gt\n        /* \"#utility.yul\":1033:1095   */\n      or\n        /* \"#utility.yul\":1030:1118   */\n      iszero\n      tag_84\n      jumpi\n        /* \"#utility.yul\":1098:1116   */\n      tag_85\n      tag_54\n      jump\t// in\n    tag_85:\n        /* \"#utility.yul\":1030:1118   */\n    tag_84:\n        /* \"#utility.yul\":1138:1148   */\n      dup1\n        /* \"#utility.yul\":1134:1136   */\n      0x40\n        /* \"#utility.yul\":1127:1149   */\n      mstore\n        /* \"#utility.yul\":917:1155   */\n      pop\n        /* \"#utility.yul\":874:1155   */\n      pop\n      pop\n      jump\t// out\n        /* \"#utility.yul\":1161:1290   */\n    tag_56:\n        /* \"#utility.yul\":1195:1201   */\n      0x00\n        /* \"#utility.yul\":1222:1242   */\n      tag_87\n      tag_48\n      jump\t// in\n    tag_87:\n        /* \"#utility.yul\":1212:1242   */\n      swap1\n      pop\n        /* \"#utility.yul\":1251:1284   */\n      tag_88\n        /* \"#utility.yul\":1279:1283   */\n      dup3\n        /* \"#utility.yul\":1271:1277   */\n      dup3\n        /* \"#utility.yul\":1251:1284   */\n      tag_55\n      jump\t// in\n    tag_88:\n        /* \"#utility.yul\":1161:1290   */\n      swap2\n      swap1\n      pop\n      jump\t// out\n        /* \"#utility.yul\":1296:1604   */\n    tag_57:\n        /* \"#utility.yul\":1358:1362   */\n      0x00\n        /* \"#utility.yul\":1448:1466   */\n      0xffffffffffffffff\n        /* \"#utility.yul\":1440:1446   */\n      dup3\n        /* \"#utility.yul\":1437:1467   */\n      gt\n        /* \"#utility.yul\":1434:1490   */\n      iszero\n      tag_90\n      jumpi\n        /* \"#utility.yul\":1470:1488   */\n      tag_91\n      tag_54\n      jump\t// in\n    tag_91:\n        /* \"#utility.yul\":1434:1490   */\n    tag_90:\n        /* \"#utility.yul\":1508:1537   */\n      tag_92\n        /* \"#utility.yul\":1530:1536   */\n      dup3\n        /* \"#utility.yul\":1508:1537   */\n      tag_53\n      jump\t// in\n    tag_92:\n        /* \"#utility.yul\":1500:1537   */\n      swap1\n      pop\n        /* \"#utility.yul\":1592:1596   */\n      0x20\n        /* \"#utility.yul\":1586:1590   */\n      dup2\n        /* \"#utility.yul\":1582:1597   */\n      add\n        /* \"#utility.yul\":1574:1597   */\n      swap1\n      pop\n        /* \"#utility.yul\":1296:1604   */\n      swap2\n      swap1\n      pop\n      jump\t// out\n        /* \"#utility.yul\":1610:1764   */\n    tag_58:\n        /* \"#utility.yul\":1694:1700   */\n      dup3\n        /* \"#utility.yul\":1689:1692   */\n      dup2\n        /* \"#utility.yul\":1684:1687   */\n      dup4\n        /* \"#utility.yul\":1671:1701   */\n      calldatacopy\n        /* \"#utility.yul\":1756:1757   */\n      0x00\n        /* \"#utility.yul\":1747:1753   */\n      dup4\n        /* \"#utility.yul\":1742:1745   */\n      dup4\n        /* \"#utility.yul\":1738:1754   */\n      add\n        /* \"#utility.yul\":1731:1758   */\n      mstore\n        /* \"#utility.yul\":1610:1764   */\n      pop\n      pop\n      pop\n      jump\t// out\n        /* \"#utility.yul\":1770:2182   */\n    tag_59:\n        /* \"#utility.yul\":1848:1853   */\n      0x00\n        /* \"#utility.yul\":1873:1939   */\n      tag_95\n        /* \"#utility.yul\":1889:1938   */\n      tag_96\n        /* \"#utility.yul\":1931:1937   */\n      dup5\n        /* \"#utility.yul\":1889:1938   */\n      tag_57\n      jump\t// in\n    tag_96:\n        /* \"#utility.yul\":1873:1939   */\n      tag_56\n      jump\t// in\n    tag_95:\n        /* \"#utility.yul\":1864:1939   */\n      swap1\n      pop\n        /* \"#utility.yul\":1962:1968   */\n      dup3\n        /* \"#utility.yul\":1955:1960   */\n      dup2\n        /* \"#utility.yul\":1948:1969   */\n      mstore\n        /* \"#utility.yul\":2000:2004   */\n      0x20\n        /* \"#utility.yul\":1993:1998   */\n      dup2\n        /* \"#utility.yul\":1989:2005   */\n      add\n        /* \"#utility.yul\":2038:2041   */\n      dup5\n        /* \"#utility.yul\":2029:2035   */\n      dup5\n        /* \"#utility.yul\":2024:2027   */\n      dup5\n        /* \"#utility.yul\":2020:2036   */\n      add\n        /* \"#utility.yul\":2017:2042   */\n      gt\n        /* \"#utility.yul\":2014:2126   */\n      iszero\n      tag_97\n      jumpi\n        /* \"#utility.yul\":2045:2124   */\n      tag_98\n      tag_52\n      jump\t// in\n    tag_98:\n        /* \"#utility.yul\":2014:2126   */\n    tag_97:\n        /* \"#utility.yul\":2135:2176   */\n      tag_99\n        /* \"#utility.yul\":2169:2175   */\n      dup5\n        /* \"#utility.yul\":2164:2167   */\n      dup3\n        /* \"#utility.yul\":2159:2162   */\n      dup6\n        /* \"#utility.yul\":2135:2176   */\n      tag_58\n      jump\t// in\n    tag_99:\n        /* \"#utility.yul\":1854:2182   */\n      pop\n        /* \"#utility.yul\":1770:2182   */\n      swap4\n      swap3\n      pop\n      pop\n      pop\n      jump\t// out\n        /* \"#utility.yul\":2202:2542   */\n    tag_60:\n        /* \"#utility.yul\":2258:2263   */\n      0x00\n        /* \"#utility.yul\":2307:2310   */\n      dup3\n        /* \"#utility.yul\":2300:2304   */\n      0x1f\n        /* \"#utility.yul\":2292:2298   */\n      dup4\n        /* \"#utility.yul\":2288:2305   */\n      add\n        /* \"#utility.yul\":2284:2311   */\n      slt\n        /* \"#utility.yul\":2274:2396   */\n      tag_101\n      jumpi\n        /* \"#utility.yul\":2315:2394   */\n      tag_102\n      tag_51\n      jump\t// in\n    tag_102:\n        /* \"#utility.yul\":2274:2396   */\n    tag_101:\n        /* \"#utility.yul\":2432:2438   */\n      dup2\n        /* \"#utility.yul\":2419:2439   */\n      calldataload\n        /* \"#utility.yul\":2457:2536   */\n      tag_103\n        /* \"#utility.yul\":2532:2535   */\n      dup5\n        /* \"#utility.yul\":2524:2530   */\n      dup3\n        /* \"#utility.yul\":2517:2521   */\n      0x20\n        /* \"#utility.yul\":2509:2515   */\n      dup7\n        /* \"#utility.yul\":2505:2522   */\n      add\n        /* \"#utility.yul\":2457:2536   */\n      tag_59\n      jump\t// in\n    tag_103:\n        /* \"#utility.yul\":2448:2536   */\n      swap2\n      pop\n        /* \"#utility.yul\":2264:2542   */\n      pop\n        /* \"#utility.yul\":2202:2542   */\n      swap3\n      swap2\n      pop\n      pop\n      jump\t// out\n        /* \"#utility.yul\":2548:3057   */\n    tag_10:\n        /* \"#utility.yul\":2617:2623   */\n      0x00\n        /* \"#utility.yul\":2666:2668   */\n      0x20\n        /* \"#utility.yul\":2654:2663   */\n      dup3\n        /* \"#utility.yul\":2645:2652   */\n      dup5\n        /* \"#utility.yul\":2641:2664   */\n      sub\n        /* \"#utility.yul\":2637:2669   */\n      slt\n        /* \"#utility.yul\":2634:2753   */\n      iszero\n      tag_105\n      jumpi\n        /* \"#utility.yul\":2672:2751   */\n      tag_106\n      tag_49\n      jump\t// in\n    tag_106:\n        /* \"#utility.yul\":2634:2753   */\n    tag_105:\n        /* \"#utility.yul\":2820:2821   */\n      0x00\n        /* \"#utility.yul\":2809:2818   */\n      dup3\n        /* \"#utility.yul\":2805:2822   */\n      add\n        /* \"#utility.yul\":2792:2823   */\n      calldataload\n        /* \"#utility.yul\":2850:2868   */\n      0xffffffffffffffff\n        /* \"#utility.yul\":2842:2848   */\n      dup2\n        /* \"#utility.yul\":2839:2869   */\n      gt\n        /* \"#utility.yul\":2836:2953   */\n      iszero\n      tag_107\n      jumpi\n        /* \"#utility.yul\":2872:2951   */\n      tag_108\n      tag_50\n      jump\t// in\n    tag_108:\n        /* \"#utility.yul\":2836:2953   */\n    tag_107:\n        /* \"#utility.yul\":2977:3040   */\n      tag_109\n        /* \"#utility.yul\":3032:3039   */\n      dup5\n        /* \"#utility.yul\":3023:3029   */\n      dup3\n        /* \"#utility.yul\":3012:3021   */\n      dup6\n        /* \"#utility.yul\":3008:3030   */\n      add\n        /* \"#utility.yul\":2977:3040   */\n      tag_60\n      jump\t// in\n    tag_109:\n        /* \"#utility.yul\":2967:3040   */\n      swap2\n      pop\n        /* \"#utility.yul\":2763:3050   */\n      pop\n        /* \"#utility.yul\":2548:3057   */\n      swap3\n      swap2\n      pop\n      pop\n      jump\t// out\n        /* \"#utility.yul\":3063:3153   */\n    tag_61:\n        /* \"#utility.yul\":3097:3104   */\n      0x00\n        /* \"#utility.yul\":3140:3145   */\n      dup2\n        /* \"#utility.yul\":3133:3146   */\n      iszero\n        /* \"#utility.yul\":3126:3147   */\n      iszero\n        /* \"#utility.yul\":3115:3147   */\n      swap1\n      pop\n        /* \"#utility.yul\":3063:3153   */\n      swap2\n      swap1\n      pop\n      jump\t// out\n        /* \"#utility.yul\":3159:3268   */\n    tag_62:\n        /* \"#utility.yul\":3240:3261   */\n      tag_112\n        /* \"#utility.yul\":3255:3260   */\n      dup2\n        /* \"#utility.yul\":3240:3261   */\n      tag_61\n      jump\t// in\n    tag_112:\n        /* \"#utility.yul\":3235:3238   */\n      dup3\n        /* \"#utility.yul\":3228:3262   */\n      mstore\n        /* \"#utility.yul\":3159:3268   */\n      pop\n      pop\n      jump\t// out\n        /* \"#utility.yul\":3274:3484   */\n    tag_13:\n        /* \"#utility.yul\":3361:3365   */\n      0x00\n        /* \"#utility.yul\":3399:3401   */\n      0x20\n        /* \"#utility.yul\":3388:3397   */\n      dup3\n        /* \"#utility.yul\":3384:3402   */\n      add\n        /* \"#utility.yul\":3376:3402   */\n      swap1\n      pop\n        /* \"#utility.yul\":3412:3477   */\n      tag_114\n        /* \"#utility.yul\":3474:3475   */\n      0x00\n        /* \"#utility.yul\":3463:3472   */\n      dup4\n        /* \"#utility.yul\":3459:3476   */\n      add\n        /* \"#utility.yul\":3450:3456   */\n      dup5\n        /* \"#utility.yul\":3412:3477   */\n      tag_62\n      jump\t// in\n    tag_114:\n        /* \"#utility.yul\":3274:3484   */\n      swap3\n      swap2\n      pop\n      pop\n      jump\t// out\n        /* \"#utility.yul\":3490:4324   */\n    tag_16:\n        /* \"#utility.yul\":3578:3584   */\n      0x00\n        /* \"#utility.yul\":3586:3592   */\n      dup1\n        /* \"#utility.yul\":3635:3637   */\n      0x40\n        /* \"#utility.yul\":3623:3632   */\n      dup4\n        /* \"#utility.yul\":3614:3621   */\n      dup6\n        /* \"#utility.yul\":3610:3633   */\n      sub\n        /* \"#utility.yul\":3606:3638   */\n      slt\n        /* \"#utility.yul\":3603:3722   */\n      iszero\n      tag_116\n      jumpi\n        /* \"#utility.yul\":3641:3720   */\n      tag_117\n      tag_49\n      jump\t// in\n    tag_117:\n        /* \"#utility.yul\":3603:3722   */\n    tag_116:\n        /* \"#utility.yul\":3789:3790   */\n      0x00\n        /* \"#utility.yul\":3778:3787   */\n      dup4\n        /* \"#utility.yul\":3774:3791   */\n      add\n        /* \"#utility.yul\":3761:3792   */\n      calldataload\n        /* \"#utility.yul\":3819:3837   */\n      0xffffffffffffffff\n        /* \"#utility.yul\":3811:3817   */\n      dup2\n        /* \"#utility.yul\":3808:3838   */\n      gt\n        /* \"#utility.yul\":3805:3922   */\n      iszero\n      tag_118\n      jumpi\n        /* \"#utility.yul\":3841:3920   */\n      tag_119\n      tag_50\n      jump\t// in\n    tag_119:\n        /* \"#utility.yul\":3805:3922   */\n    tag_118:\n        /* \"#utility.yul\":3946:4009   */\n      tag_120\n        /* \"#utility.yul\":4001:4008   */\n      dup6\n        /* \"#utility.yul\":3992:3998   */\n      dup3\n        /* \"#utility.yul\":3981:3990   */\n      dup7\n        /* \"#utility.yul\":3977:3999   */\n      add\n        /* \"#utility.yul\":3946:4009   */\n      tag_60\n      jump\t// in\n    tag_120:\n        /* \"#utility.yul\":3936:4009   */\n      swap3\n      pop\n        /* \"#utility.yul\":3732:4019   */\n      pop\n        /* \"#utility.yul\":4086:4088   */\n      0x20\n        /* \"#utility.yul\":4075:4084   */\n      dup4\n        /* \"#utility.yul\":4071:4089   */\n      add\n        /* \"#utility.yul\":4058:4090   */\n      calldataload\n        /* \"#utility.yul\":4117:4135   */\n      0xffffffffffffffff\n        /* \"#utility.yul\":4109:4115   */\n      dup2\n        /* \"#utility.yul\":4106:4136   */\n      gt\n        /* \"#utility.yul\":4103:4220   */\n      iszero\n      tag_121\n      jumpi\n        /* \"#utility.yul\":4139:4218   */\n      tag_122\n      tag_50\n      jump\t// in\n    tag_122:\n        /* \"#utility.yul\":4103:4220   */\n    tag_121:\n        /* \"#utility.yul\":4244:4307   */\n      tag_123\n        /* \"#utility.yul\":4299:4306   */\n      dup6\n        /* \"#utility.yul\":4290:4296   */\n      dup3\n        /* \"#utility.yul\":4279:4288   */\n      dup7\n        /* \"#utility.yul\":4275:4297   */\n      add\n        /* \"#utility.yul\":4244:4307   */\n      tag_60\n      jump\t// in\n    tag_123:\n        /* \"#utility.yul\":4234:4307   */\n      swap2\n      pop\n        /* \"#utility.yul\":4029:4317   */\n      pop\n        /* \"#utility.yul\":3490:4324   */\n      swap3\n      pop\n      swap3\n      swap1\n      pop\n      jump\t// out\n        /* \"#utility.yul\":4330:4429   */\n    tag_63:\n        /* \"#utility.yul\":4382:4388   */\n      0x00\n        /* \"#utility.yul\":4416:4421   */\n      dup2\n        /* \"#utility.yul\":4410:4422   */\n      mload\n        /* \"#utility.yul\":4400:4422   */\n      swap1\n      pop\n        /* \"#utility.yul\":4330:4429   */\n      swap2\n      swap1\n      pop\n      jump\t// out\n        /* \"#utility.yul\":4435:4604   */\n    tag_64:\n        /* \"#utility.yul\":4519:4530   */\n      0x00\n        /* \"#utility.yul\":4553:4559   */\n      dup3\n        /* \"#utility.yul\":4548:4551   */\n      dup3\n        /* \"#utility.yul\":4541:4560   */\n      mstore\n        /* \"#utility.yul\":4593:4597   */\n      0x20\n        /* \"#utility.yul\":4588:4591   */\n      dup3\n        /* \"#utility.yul\":4584:4598   */\n      add\n        /* \"#utility.yul\":4569:4598   */\n      swap1\n      pop\n        /* \"#utility.yul\":4435:4604   */\n      swap3\n      swap2\n      pop\n      pop\n      jump\t// out\n        /* \"#utility.yul\":4610:4917   */\n    tag_65:\n        /* \"#utility.yul\":4678:4679   */\n      0x00\n        /* \"#utility.yul\":4688:4801   */\n    tag_127:\n        /* \"#utility.yul\":4702:4708   */\n      dup4\n        /* \"#utility.yul\":4699:4700   */\n      dup2\n        /* \"#utility.yul\":4696:4709   */\n      lt\n        /* \"#utility.yul\":4688:4801   */\n      iszero\n      tag_129\n      jumpi\n        /* \"#utility.yul\":4787:4788   */\n      dup1\n        /* \"#utility.yul\":4782:4785   */\n      dup3\n        /* \"#utility.yul\":4778:4789   */\n      add\n        /* \"#utility.yul\":4772:4790   */\n      mload\n        /* \"#utility.yul\":4768:4769   */\n      dup2\n        /* \"#utility.yul\":4763:4766   */\n      dup5\n        /* \"#utility.yul\":4759:4770   */\n      add\n        /* \"#utility.yul\":4752:4791   */\n      mstore\n        /* \"#utility.yul\":4724:4726   */\n      0x20\n        /* \"#utility.yul\":4721:4722   */\n      dup2\n        /* \"#utility.yul\":4717:4727   */\n      add\n        /* \"#utility.yul\":4712:4727   */\n      swap1\n      pop\n        /* \"#utility.yul\":4688:4801   */\n      jump(tag_127)\n    tag_129:\n        /* \"#utility.yul\":4819:4825   */\n      dup4\n        /* \"#utility.yul\":4816:4817   */\n      dup2\n        /* \"#utility.yul\":4813:4826   */\n      gt\n        /* \"#utility.yul\":4810:4911   */\n      iszero\n      tag_130\n      jumpi\n        /* \"#utility.yul\":4899:4900   */\n      0x00\n        /* \"#utility.yul\":4890:4896   */\n      dup5\n        /* \"#utility.yul\":4885:4888   */\n      dup5\n        /* \"#utility.yul\":4881:4897   */\n      add\n        /* \"#utility.yul\":4874:4901   */\n      mstore\n        /* \"#utility.yul\":4810:4911   */\n    tag_130:\n        /* \"#utility.yul\":4659:4917   */\n      pop\n        /* \"#utility.yul\":4610:4917   */\n      pop\n      pop\n      pop\n      jump\t// out\n        /* \"#utility.yul\":4923:5287   */\n    tag_66:\n        /* \"#utility.yul\":5011:5014   */\n      0x00\n        /* \"#utility.yul\":5039:5078   */\n      tag_132\n        /* \"#utility.yul\":5072:5077   */\n      dup3\n        /* \"#utility.yul\":5039:5078   */\n      tag_63\n      jump\t// in\n    tag_132:\n        /* \"#utility.yul\":5094:5165   */\n      tag_133\n        /* \"#utility.yul\":5158:5164   */\n      dup2\n        /* \"#utility.yul\":5153:5156   */\n      dup6\n        /* \"#utility.yul\":5094:5165   */\n      tag_64\n      jump\t// in\n    tag_133:\n        /* \"#utility.yul\":5087:5165   */\n      swap4\n      pop\n        /* \"#utility.yul\":5174:5226   */\n      tag_134\n        /* \"#utility.yul\":5219:5225   */\n      dup2\n        /* \"#utility.yul\":5214:5217   */\n      dup6\n        /* \"#utility.yul\":5207:5211   */\n      0x20\n        /* \"#utility.yul\":5200:5205   */\n      dup7\n        /* \"#utility.yul\":5196:5212   */\n      add\n        /* \"#utility.yul\":5174:5226   */\n      tag_65\n      jump\t// in\n    tag_134:\n        /* \"#utility.yul\":5251:5280   */\n      tag_135\n        /* \"#utility.yul\":5273:5279   */\n      dup2\n        /* \"#utility.yul\":5251:5280   */\n      tag_53\n      jump\t// in\n    tag_135:\n        /* \"#utility.yul\":5246:5249   */\n      dup5\n        /* \"#utility.yul\":5242:5281   */\n      add\n        /* \"#utility.yul\":5235:5281   */\n      swap2\n      pop\n        /* \"#utility.yul\":5015:5287   */\n      pop\n        /* \"#utility.yul\":4923:5287   */\n      swap3\n      swap2\n      pop\n      pop\n      jump\t// out\n        /* \"#utility.yul\":5293:5606   */\n    tag_19:\n        /* \"#utility.yul\":5406:5410   */\n      0x00\n        /* \"#utility.yul\":5444:5446   */\n      0x20\n        /* \"#utility.yul\":5433:5442   */\n      dup3\n        /* \"#utility.yul\":5429:5447   */\n      add\n        /* \"#utility.yul\":5421:5447   */\n      swap1\n      pop\n        /* \"#utility.yul\":5493:5502   */\n      dup2\n        /* \"#utility.yul\":5487:5491   */\n      dup2\n        /* \"#utility.yul\":5483:5503   */\n      sub\n        /* \"#utility.yul\":5479:5480   */\n      0x00\n        /* \"#utility.yul\":5468:5477   */\n      dup4\n        /* \"#utility.yul\":5464:5481   */\n      add\n        /* \"#utility.yul\":5457:5504   */\n      mstore\n        /* \"#utility.yul\":5521:5599   */\n      tag_137\n        /* \"#utility.yul\":5594:5598   */\n      dup2\n        /* \"#utility.yul\":5585:5591   */\n      dup5\n        /* \"#utility.yul\":5521:5599   */\n      tag_66\n      jump\t// in\n    tag_137:\n        /* \"#utility.yul\":5513:5599   */\n      swap1\n      pop\n        /* \"#utility.yul\":5293:5606   */\n      swap3\n      swap2\n      pop\n      pop\n      jump\t// out\n        /* \"#utility.yul\":5612:5689   */\n    tag_67:\n        /* \"#utility.yul\":5649:5656   */\n      0x00\n        /* \"#utility.yul\":5678:5683   */\n      dup2\n        /* \"#utility.yul\":5667:5683   */\n      swap1\n      pop\n        /* \"#utility.yul\":5612:5689   */\n      swap2\n      swap1\n      pop\n      jump\t// out\n        /* \"#utility.yul\":5695:5813   */\n    tag_68:\n        /* \"#utility.yul\":5782:5806   */\n      tag_140\n        /* \"#utility.yul\":5800:5805   */\n      dup2\n        /* \"#utility.yul\":5782:5806   */\n      tag_67\n      jump\t// in\n    tag_140:\n        /* \"#utility.yul\":5777:5780   */\n      dup3\n        /* \"#utility.yul\":5770:5807   */\n      mstore\n        /* \"#utility.yul\":5695:5813   */\n      pop\n      pop\n      jump\t// out\n        /* \"#utility.yul\":5819:6041   */\n    tag_26:\n        /* \"#utility.yul\":5912:5916   */\n      0x00\n        /* \"#utility.yul\":5950:5952   */\n      0x20\n        /* \"#utility.yul\":5939:5948   */\n      dup3\n        /* \"#utility.yul\":5935:5953   */\n      add\n        /* \"#utility.yul\":5927:5953   */\n      swap1\n      pop\n        /* \"#utility.yul\":5963:6034   */\n      tag_142\n        /* \"#utility.yul\":6031:6032   */\n      0x00\n        /* \"#utility.yul\":6020:6029   */\n      dup4\n        /* \"#utility.yul\":6016:6033   */\n      add\n        /* \"#utility.yul\":6007:6013   */\n      dup5\n        /* \"#utility.yul\":5963:6034   */\n      tag_68\n      jump\t// in\n    tag_142:\n        /* \"#utility.yul\":5819:6041   */\n      swap3\n      swap2\n      pop\n      pop\n      jump\t// out\n        /* \"#utility.yul\":6047:6227   */\n    tag_69:\n        /* \"#utility.yul\":6095:6172   */\n      0x4e487b7100000000000000000000000000000000000000000000000000000000\n        /* \"#utility.yul\":6092:6093   */\n      0x00\n        /* \"#utility.yul\":6085:6173   */\n      mstore\n        /* \"#utility.yul\":6192:6196   */\n      0x22\n        /* \"#utility.yul\":6189:6190   */\n      0x04\n        /* \"#utility.yul\":6182:6197   */\n      mstore\n        /* \"#utility.yul\":6216:6220   */\n      0x24\n        /* \"#utility.yul\":6213:6214   */\n      0x00\n        /* \"#utility.yul\":6206:6221   */\n      revert\n        /* \"#utility.yul\":6233:6553   */\n    tag_40:\n        /* \"#utility.yul\":6277:6283   */\n      0x00\n        /* \"#utility.yul\":6314:6315   */\n      0x02\n        /* \"#utility.yul\":6308:6312   */\n      dup3\n        /* \"#utility.yul\":6304:6316   */\n      div\n        /* \"#utility.yul\":6294:6316   */\n      swap1\n      pop\n        /* \"#utility.yul\":6361:6362   */\n      0x01\n        /* \"#utility.yul\":6355:6359   */\n      dup3\n        /* \"#utility.yul\":6351:6363   */\n      and\n        /* \"#utility.yul\":6382:6400   */\n      dup1\n        /* \"#utility.yul\":6372:6453   */\n      tag_145\n      jumpi\n        /* \"#utility.yul\":6438:6442   */\n      0x7f\n        /* \"#utility.yul\":6430:6436   */\n      dup3\n        /* \"#utility.yul\":6426:6443   */\n      and\n        /* \"#utility.yul\":6416:6443   */\n      swap2\n      pop\n        /* \"#utility.yul\":6372:6453   */\n    tag_145:\n        /* \"#utility.yul\":6500:6502   */\n      0x20\n        /* \"#utility.yul\":6492:6498   */\n      dup3\n        /* \"#utility.yul\":6489:6503   */\n      lt\n        /* \"#utility.yul\":6469:6487   */\n      dup2\n        /* \"#utility.yul\":6466:6504   */\n      sub\n        /* \"#utility.yul\":6463:6547   */\n      tag_146\n      jumpi\n        /* \"#utility.yul\":6519:6537   */\n      tag_147\n      tag_69\n      jump\t// in\n    tag_147:\n        /* \"#utility.yul\":6463:6547   */\n    tag_146:\n        /* \"#utility.yul\":6284:6553   */\n      pop\n        /* \"#utility.yul\":6233:6553   */\n      swap2\n      swap1\n      pop\n      jump\t// out\n        /* \"#utility.yul\":6559:6707   */\n    tag_70:\n        /* \"#utility.yul\":6661:6672   */\n      0x00\n        /* \"#utility.yul\":6698:6701   */\n      dup2\n        /* \"#utility.yul\":6683:6701   */\n      swap1\n      pop\n        /* \"#utility.yul\":6559:6707   */\n      swap3\n      swap2\n      pop\n      pop\n      jump\t// out\n        /* \"#utility.yul\":6713:6854   */\n    tag_71:\n        /* \"#utility.yul\":6762:6766   */\n      0x00\n        /* \"#utility.yul\":6785:6788   */\n      dup2\n        /* \"#utility.yul\":6777:6788   */\n      swap1\n      pop\n        /* \"#utility.yul\":6808:6811   */\n      dup2\n        /* \"#utility.yul\":6805:6806   */\n      0x00\n        /* \"#utility.yul\":6798:6812   */\n      mstore\n        /* \"#utility.yul\":6842:6846   */\n      0x20\n        /* \"#utility.yul\":6839:6840   */\n      0x00\n        /* \"#utility.yul\":6829:6847   */\n      keccak256\n        /* \"#utility.yul\":6821:6847   */\n      swap1\n      pop\n        /* \"#utility.yul\":6713:6854   */\n      swap2\n      swap1\n      pop\n      jump\t// out\n        /* \"#utility.yul\":6884:7729   */\n    tag_72:\n        /* \"#utility.yul\":6987:6990   */\n      0x00\n        /* \"#utility.yul\":7024:7029   */\n      dup2\n        /* \"#utility.yul\":7018:7030   */\n      sload\n        /* \"#utility.yul\":7053:7089   */\n      tag_151\n        /* \"#utility.yul\":7079:7088   */\n      dup2\n        /* \"#utility.yul\":7053:7089   */\n      tag_40\n      jump\t// in\n    tag_151:\n        /* \"#utility.yul\":7105:7194   */\n      tag_152\n        /* \"#utility.yul\":7187:7193   */\n      dup2\n        /* \"#utility.yul\":7182:7185   */\n      dup7\n        /* \"#utility.yul\":7105:7194   */\n      tag_70\n      jump\t// in\n    tag_152:\n        /* \"#utility.yul\":7098:7194   */\n      swap5\n      pop\n        /* \"#utility.yul\":7225:7226   */\n      0x01\n        /* \"#utility.yul\":7214:7223   */\n      dup3\n        /* \"#utility.yul\":7210:7227   */\n      and\n        /* \"#utility.yul\":7241:7242   */\n      0x00\n        /* \"#utility.yul\":7236:7373   */\n      dup2\n      eq\n      tag_154\n      jumpi\n        /* \"#utility.yul\":7387:7388   */\n      0x01\n        /* \"#utility.yul\":7382:7723   */\n      dup2\n      eq\n      tag_155\n      jumpi\n        /* \"#utility.yul\":7203:7723   */\n      jump(tag_153)\n        /* \"#utility.yul\":7236:7373   */\n    tag_154:\n        /* \"#utility.yul\":7320:7324   */\n      0xff\n        /* \"#utility.yul\":7316:7325   */\n      not\n        /* \"#utility.yul\":7305:7314   */\n      dup4\n        /* \"#utility.yul\":7301:7326   */\n      and\n        /* \"#utility.yul\":7296:7299   */\n      dup7\n        /* \"#utility.yul\":7289:7327   */\n      mstore\n        /* \"#utility.yul\":7356:7362   */\n      dup2\n        /* \"#utility.yul\":7351:7354   */\n      dup7\n        /* \"#utility.yul\":7347:7363   */\n      add\n        /* \"#utility.yul\":7340:7363   */\n      swap4\n      pop\n        /* \"#utility.yul\":7236:7373   */\n      jump(tag_153)\n        /* \"#utility.yul\":7382:7723   */\n    tag_155:\n        /* \"#utility.yul\":7449:7487   */\n      tag_156\n        /* \"#utility.yul\":7481:7486   */\n      dup6\n        /* \"#utility.yul\":7449:7487   */\n      tag_71\n      jump\t// in\n    tag_156:\n        /* \"#utility.yul\":7509:7510   */\n      0x00\n        /* \"#utility.yul\":7523:7677   */\n    tag_157:\n        /* \"#utility.yul\":7537:7543   */\n      dup4\n        /* \"#utility.yul\":7534:7535   */\n      dup2\n        /* \"#utility.yul\":7531:7544   */\n      lt\n        /* \"#utility.yul\":7523:7677   */\n      iszero\n      tag_159\n      jumpi\n        /* \"#utility.yul\":7611:7618   */\n      dup2\n        /* \"#utility.yul\":7605:7619   */\n      sload\n        /* \"#utility.yul\":7601:7602   */\n      dup2\n        /* \"#utility.yul\":7596:7599   */\n      dup10\n        /* \"#utility.yul\":7592:7603   */\n      add\n        /* \"#utility.yul\":7585:7620   */\n      mstore\n        /* \"#utility.yul\":7661:7662   */\n      0x01\n        /* \"#utility.yul\":7652:7659   */\n      dup3\n        /* \"#utility.yul\":7648:7663   */\n      add\n        /* \"#utility.yul\":7637:7663   */\n      swap2\n      pop\n        /* \"#utility.yul\":7559:7563   */\n      0x20\n        /* \"#utility.yul\":7556:7557   */\n      dup2\n        /* \"#utility.yul\":7552:7564   */\n      add\n        /* \"#utility.yul\":7547:7564   */\n      swap1\n      pop\n        /* \"#utility.yul\":7523:7677   */\n      jump(tag_157)\n    tag_159:\n        /* \"#utility.yul\":7706:7712   */\n      dup4\n        /* \"#utility.yul\":7701:7704   */\n      dup9\n        /* \"#utility.yul\":7697:7713   */\n      add\n        /* \"#utility.yul\":7690:7713   */\n      swap6\n      pop\n        /* \"#utility.yul\":7389:7723   */\n      pop\n      pop\n        /* \"#utility.yul\":7203:7723   */\n    tag_153:\n      pop\n        /* \"#utility.yul\":6991:7729   */\n      pop\n      pop\n        /* \"#utility.yul\":6884:7729   */\n      swap3\n      swap2\n      pop\n      pop\n      jump\t// out\n        /* \"#utility.yul\":7735:8004   */\n    tag_32:\n        /* \"#utility.yul\":7864:7867   */\n      0x00\n        /* \"#utility.yul\":7886:7978   */\n      tag_161\n        /* \"#utility.yul\":7974:7977   */\n      dup3\n        /* \"#utility.yul\":7965:7971   */\n      dup5\n        /* \"#utility.yul\":7886:7978   */\n      tag_72\n      jump\t// in\n    tag_161:\n        /* \"#utility.yul\":7879:7978   */\n      swap2\n      pop\n        /* \"#utility.yul\":7995:7998   */\n      dup2\n        /* \"#utility.yul\":7988:7998   */\n      swap1\n      pop\n        /* \"#utility.yul\":7735:8004   */\n      swap3\n      swap2\n      pop\n      pop\n      jump\t// out\n        /* \"#utility.yul\":8010:8387   */\n    tag_73:\n        /* \"#utility.yul\":8116:8119   */\n      0x00\n        /* \"#utility.yul\":8144:8183   */\n      tag_163\n        /* \"#utility.yul\":8177:8182   */\n      dup3\n        /* \"#utility.yul\":8144:8183   */\n      tag_63\n      jump\t// in\n    tag_163:\n        /* \"#utility.yul\":8199:8288   */\n      tag_164\n        /* \"#utility.yul\":8281:8287   */\n      dup2\n        /* \"#utility.yul\":8276:8279   */\n      dup6\n        /* \"#utility.yul\":8199:8288   */\n      tag_70\n      jump\t// in\n    tag_164:\n        /* \"#utility.yul\":8192:8288   */\n      swap4\n      pop\n        /* \"#utility.yul\":8297:8349   */\n      tag_165\n        /* \"#utility.yul\":8342:8348   */\n      dup2\n        /* \"#utility.yul\":8337:8340   */\n      dup6\n        /* \"#utility.yul\":8330:8334   */\n      0x20\n        /* \"#utility.yul\":8323:8328   */\n      dup7\n        /* \"#utility.yul\":8319:8335   */\n      add\n        /* \"#utility.yul\":8297:8349   */\n      tag_65\n      jump\t// in\n    tag_165:\n        /* \"#utility.yul\":8374:8380   */\n      dup1\n        /* \"#utility.yul\":8369:8372   */\n      dup5\n        /* \"#utility.yul\":8365:8381   */\n      add\n        /* \"#utility.yul\":8358:8381   */\n      swap2\n      pop\n        /* \"#utility.yul\":8120:8387   */\n      pop\n        /* \"#utility.yul\":8010:8387   */\n      swap3\n      swap2\n      pop\n      pop\n      jump\t// out\n        /* \"#utility.yul\":8393:8668   */\n    tag_34:\n        /* \"#utility.yul\":8525:8528   */\n      0x00\n        /* \"#utility.yul\":8547:8642   */\n      tag_167\n        /* \"#utility.yul\":8638:8641   */\n      dup3\n        /* \"#utility.yul\":8629:8635   */\n      dup5\n        /* \"#utility.yul\":8547:8642   */\n      tag_73\n      jump\t// in\n    tag_167:\n        /* \"#utility.yul\":8540:8642   */\n      swap2\n      pop\n        /* \"#utility.yul\":8659:8662   */\n      dup2\n        /* \"#utility.yul\":8652:8662   */\n      swap1\n      pop\n        /* \"#utility.yul\":8393:8668   */\n      swap3\n      swap2\n      pop\n      pop\n      jump\t// out\n        /* \"#utility.yul\":8674:9109   */\n    tag_37:\n        /* \"#utility.yul\":8854:8857   */\n      0x00\n        /* \"#utility.yul\":8876:8971   */\n      tag_169\n        /* \"#utility.yul\":8967:8970   */\n      dup3\n        /* \"#utility.yul\":8958:8964   */\n      dup6\n        /* \"#utility.yul\":8876:8971   */\n      tag_73\n      jump\t// in\n    tag_169:\n        /* \"#utility.yul\":8869:8971   */\n      swap2\n      pop\n        /* \"#utility.yul\":8988:9083   */\n      tag_170\n        /* \"#utility.yul\":9079:9082   */\n      dup3\n        /* \"#utility.yul\":9070:9076   */\n      dup5\n        /* \"#utility.yul\":8988:9083   */\n      tag_73\n      jump\t// in\n    tag_170:\n        /* \"#utility.yul\":8981:9083   */\n      swap2\n      pop\n        /* \"#utility.yul\":9100:9103   */\n      dup2\n        /* \"#utility.yul\":9093:9103   */\n      swap1\n      pop\n        /* \"#utility.yul\":8674:9109   */\n      swap4\n      swap3\n      pop\n      pop\n      pop\n      jump\t// out\n\n    auxdata: 0xa2646970667358221220f162df88c04252c5344166f4ffe255174fa045bbdc9a8f257e849933eacaef2064736f6c634300080d0033\n}\n",
				"bytecode": {
					"linkReferences": {},
					"object": "60806040526040518060400160405280600b81526020017f307856656c69557973616c0000000000000000000000000000000000000000008152506000908051906020019061004f929190610062565b5034801561005c57600080fd5b50610165565b82805461006e90610134565b90600052602060002090601f01602090048101928261009057600085556100d7565b82601f106100a957805160ff19168380011785556100d7565b828001600101855582156100d7579182015b828111156100d65782518255916020019190600101906100bb565b5b5090506100e491906100e8565b5090565b5b808211156101015760008160009055506001016100e9565b5090565b7f4e487b7100000000000000000000000000000000000000000000000000000000600052602260045260246000fd5b6000600282049050600182168061014c57607f821691505b60208210810361015f5761015e610105565b5b50919050565b61072d806101746000396000f3fe608060405234801561001057600080fd5b50600436106100575760003560e01c80630a90f9c11461005c5780630e3293571461008c5780633c1b81a5146100bc5780634e69ee39146100da57806383f5de18146100f8575b600080fd5b610076600480360381019061007191906103a0565b610116565b6040516100839190610404565b60405180910390f35b6100a660048036038101906100a1919061041f565b61016e565b6040516100b3919061051f565b60405180910390f35b6100c461019a565b6040516100d1919061051f565b60405180910390f35b6100e261022c565b6040516100ef919061055a565b60405180910390f35b610100610231565b60405161010d919061055a565b60405180910390f35b6000806040516020016101299190610674565b604051602081830303815290604052805190602001208260405160200161015091906106bc565b60405160208183030381529060405280519060200120149050919050565b606082826040516020016101839291906106d3565b604051602081830303815290604052905092915050565b6060600080546101a9906105a4565b80601f01602080910402602001604051908101604052809291908181526020018280546101d5906105a4565b80156102225780601f106101f757610100808354040283529160200191610222565b820191906000526020600020905b81548152906001019060200180831161020557829003601f168201915b5050505050905090565b600090565b600080805461023f906105a4565b9050905090565b6000604051905090565b600080fd5b600080fd5b600080fd5b600080fd5b6000601f19601f8301169050919050565b7f4e487b7100000000000000000000000000000000000000000000000000000000600052604160045260246000fd5b6102ad82610264565b810181811067ffffffffffffffff821117156102cc576102cb610275565b5b80604052505050565b60006102df610246565b90506102eb82826102a4565b919050565b600067ffffffffffffffff82111561030b5761030a610275565b5b61031482610264565b9050602081019050919050565b82818337600083830152505050565b600061034361033e846102f0565b6102d5565b90508281526020810184848401111561035f5761035e61025f565b5b61036a848285610321565b509392505050565b600082601f8301126103875761038661025a565b5b8135610397848260208601610330565b91505092915050565b6000602082840312156103b6576103b5610250565b5b600082013567ffffffffffffffff8111156103d4576103d3610255565b5b6103e084828501610372565b91505092915050565b60008115159050919050565b6103fe816103e9565b82525050565b600060208201905061041960008301846103f5565b92915050565b6000806040838503121561043657610435610250565b5b600083013567ffffffffffffffff81111561045457610453610255565b5b61046085828601610372565b925050602083013567ffffffffffffffff81111561048157610480610255565b5b61048d85828601610372565b9150509250929050565b600081519050919050565b600082825260208201905092915050565b60005b838110156104d15780820151818401526020810190506104b6565b838111156104e0576000848401525b50505050565b60006104f182610497565b6104fb81856104a2565b935061050b8185602086016104b3565b61051481610264565b840191505092915050565b6000602082019050818103600083015261053981846104e6565b905092915050565b6000819050919050565b61055481610541565b82525050565b600060208201905061056f600083018461054b565b92915050565b7f4e487b7100000000000000000000000000000000000000000000000000000000600052602260045260246000fd5b600060028204905060018216806105bc57607f821691505b6020821081036105cf576105ce610575565b5b50919050565b600081905092915050565b60008190508160005260206000209050919050565b60008154610602816105a4565b61060c81866105d5565b9450600182166000811461062757600181146106385761066b565b60ff1983168652818601935061066b565b610641856105e0565b60005b8381101561066357815481890152600182019150602081019050610644565b838801955050505b50505092915050565b600061068082846105f5565b915081905092915050565b600061069682610497565b6106a081856105d5565b93506106b08185602086016104b3565b80840191505092915050565b60006106c8828461068b565b915081905092915050565b60006106df828561068b565b91506106eb828461068b565b9150819050939250505056fea2646970667358221220f162df88c04252c5344166f4ffe255174fa045bbdc9a8f257e849933eacaef2064736f6c634300080d0033",
					"opcodes": "PUSH1 0x80 PUSH1 0x40 MSTORE PUSH1 0x40 MLOAD DUP1 PUSH1 0x40 ADD PUSH1 0x40 MSTORE DUP1 PUSH1 0xB DUP2 MSTORE PUSH1 0x20 ADD PUSH32 0x307856656C69557973616C000000000000000000000000000000000000000000 DUP2 MSTORE POP PUSH1 0x0 SWAP1 DUP1 MLOAD SWAP1 PUSH1 0x20 ADD SWAP1 PUSH2 0x4F SWAP3 SWAP2 SWAP1 PUSH2 0x62 JUMP JUMPDEST POP CALLVALUE DUP1 ISZERO PUSH2 0x5C JUMPI PUSH1 0x0 DUP1 REVERT JUMPDEST POP PUSH2 0x165 JUMP JUMPDEST DUP3 DUP1 SLOAD PUSH2 0x6E SWAP1 PUSH2 0x134 JUMP JUMPDEST SWAP1 PUSH1 0x0 MSTORE PUSH1 0x20 PUSH1 0x0 KECCAK256 SWAP1 PUSH1 0x1F ADD PUSH1 0x20 SWAP1 DIV DUP2 ADD SWAP3 DUP3 PUSH2 0x90 JUMPI PUSH1 0x0 DUP6 SSTORE PUSH2 0xD7 JUMP JUMPDEST DUP3 PUSH1 0x1F LT PUSH2 0xA9 JUMPI DUP1 MLOAD PUSH1 0xFF NOT AND DUP4 DUP1 ADD OR DUP6 SSTORE PUSH2 0xD7 JUMP JUMPDEST DUP3 DUP1 ADD PUSH1 0x1 ADD DUP6 SSTORE DUP3 ISZERO PUSH2 0xD7 JUMPI SWAP2 DUP3 ADD JUMPDEST DUP3 DUP2 GT ISZERO PUSH2 0xD6 JUMPI DUP3 MLOAD DUP3 SSTORE SWAP2 PUSH1 0x20 ADD SWAP2 SWAP1 PUSH1 0x1 ADD SWAP1 PUSH2 0xBB JUMP JUMPDEST JUMPDEST POP SWAP1 POP PUSH2 0xE4 SWAP2 SWAP1 PUSH2 0xE8 JUMP JUMPDEST POP SWAP1 JUMP JUMPDEST JUMPDEST DUP1 DUP3 GT ISZERO PUSH2 0x101 JUMPI PUSH1 0x0 DUP2 PUSH1 0x0 SWAP1 SSTORE POP PUSH1 0x1 ADD PUSH2 0xE9 JUMP JUMPDEST POP SWAP1 JUMP JUMPDEST PUSH32 0x4E487B7100000000000000000000000000000000000000000000000000000000 PUSH1 0x0 MSTORE PUSH1 0x22 PUSH1 0x4 MSTORE PUSH1 0x24 PUSH1 0x0 REVERT JUMPDEST PUSH1 0x0 PUSH1 0x2 DUP3 DIV SWAP1 POP PUSH1 0x1 DUP3 AND DUP1 PUSH2 0x14C JUMPI PUSH1 0x7F DUP3 AND SWAP2 POP JUMPDEST PUSH1 0x20 DUP3 LT DUP2 SUB PUSH2 0x15F JUMPI PUSH2 0x15E PUSH2 0x105 JUMP JUMPDEST JUMPDEST POP SWAP2 SWAP1 POP JUMP JUMPDEST PUSH2 0x72D DUP1 PUSH2 0x174 PUSH1 0x0 CODECOPY PUSH1 0x0 RETURN INVALID PUSH1 0x80 PUSH1 0x40 MSTORE CALLVALUE DUP1 ISZERO PUSH2 0x10 JUMPI PUSH1 0x0 DUP1 REVERT JUMPDEST POP PUSH1 0x4 CALLDATASIZE LT PUSH2 0x57 JUMPI PUSH1 0x0 CALLDATALOAD PUSH1 0xE0 SHR DUP1 PUSH4 0xA90F9C1 EQ PUSH2 0x5C JUMPI DUP1 PUSH4 0xE329357 EQ PUSH2 0x8C JUMPI DUP1 PUSH4 0x3C1B81A5 EQ PUSH2 0xBC JUMPI DUP1 PUSH4 0x4E69EE39 EQ PUSH2 0xDA JUMPI DUP1 PUSH4 0x83F5DE18 EQ PUSH2 0xF8 JUMPI JUMPDEST PUSH1 0x0 DUP1 REVERT JUMPDEST PUSH2 0x76 PUSH1 0x4 DUP1 CALLDATASIZE SUB DUP2 ADD SWAP1 PUSH2 0x71 SWAP2 SWAP1 PUSH2 0x3A0 JUMP JUMPDEST PUSH2 0x116 JUMP JUMPDEST PUSH1 0x40 MLOAD PUSH2 0x83 SWAP2 SWAP1 PUSH2 0x404 JUMP JUMPDEST PUSH1 0x40 MLOAD DUP1 SWAP2 SUB SWAP1 RETURN JUMPDEST PUSH2 0xA6 PUSH1 0x4 DUP1 CALLDATASIZE SUB DUP2 ADD SWAP1 PUSH2 0xA1 SWAP2 SWAP1 PUSH2 0x41F JUMP JUMPDEST PUSH2 0x16E JUMP JUMPDEST PUSH1 0x40 MLOAD PUSH2 0xB3 SWAP2 SWAP1 PUSH2 0x51F JUMP JUMPDEST PUSH1 0x40 MLOAD DUP1 SWAP2 SUB SWAP1 RETURN JUMPDEST PUSH2 0xC4 PUSH2 0x19A JUMP JUMPDEST PUSH1 0x40 MLOAD PUSH2 0xD1 SWAP2 SWAP1 PUSH2 0x51F JUMP JUMPDEST PUSH1 0x40 MLOAD DUP1 SWAP2 SUB SWAP1 RETURN JUMPDEST PUSH2 0xE2 PUSH2 0x22C JUMP JUMPDEST PUSH1 0x40 MLOAD PUSH2 0xEF SWAP2 SWAP1 PUSH2 0x55A JUMP JUMPDEST PUSH1 0x40 MLOAD DUP1 SWAP2 SUB SWAP1 RETURN JUMPDEST PUSH2 0x100 PUSH2 0x231 JUMP JUMPDEST PUSH1 0x40 MLOAD PUSH2 0x10D SWAP2 SWAP1 PUSH2 0x55A JUMP JUMPDEST PUSH1 0x40 MLOAD DUP1 SWAP2 SUB SWAP1 RETURN JUMPDEST PUSH1 0x0 DUP1 PUSH1 0x40 MLOAD PUSH1 0x20 ADD PUSH2 0x129 SWAP2 SWAP1 PUSH2 0x674 JUMP JUMPDEST PUSH1 0x40 MLOAD PUSH1 0x20 DUP2 DUP4 SUB SUB DUP2 MSTORE SWAP1 PUSH1 0x40 MSTORE DUP1 MLOAD SWAP1 PUSH1 0x20 ADD KECCAK256 DUP3 PUSH1 0x40 MLOAD PUSH1 0x20 ADD PUSH2 0x150 SWAP2 SWAP1 PUSH2 0x6BC JUMP JUMPDEST PUSH1 0x40 MLOAD PUSH1 0x20 DUP2 DUP4 SUB SUB DUP2 MSTORE SWAP1 PUSH1 0x40 MSTORE DUP1 MLOAD SWAP1 PUSH1 0x20 ADD KECCAK256 EQ SWAP1 POP SWAP2 SWAP1 POP JUMP JUMPDEST PUSH1 0x60 DUP3 DUP3 PUSH1 0x40 MLOAD PUSH1 0x20 ADD PUSH2 0x183 SWAP3 SWAP2 SWAP1 PUSH2 0x6D3 JUMP JUMPDEST PUSH1 0x40 MLOAD PUSH1 0x20 DUP2 DUP4 SUB SUB DUP2 MSTORE SWAP1 PUSH1 0x40 MSTORE SWAP1 POP SWAP3 SWAP2 POP POP JUMP JUMPDEST PUSH1 0x60 PUSH1 0x0 DUP1 SLOAD PUSH2 0x1A9 SWAP1 PUSH2 0x5A4 JUMP JUMPDEST DUP1 PUSH1 0x1F ADD PUSH1 0x20 DUP1 SWAP2 DIV MUL PUSH1 0x20 ADD PUSH1 0x40 MLOAD SWAP1 DUP2 ADD PUSH1 0x40 MSTORE DUP1 SWAP3 SWAP2 SWAP1 DUP2 DUP2 MSTORE PUSH1 0x20 ADD DUP3 DUP1 SLOAD PUSH2 0x1D5 SWAP1 PUSH2 0x5A4 JUMP JUMPDEST DUP1 ISZERO PUSH2 0x222 JUMPI DUP1 PUSH1 0x1F LT PUSH2 0x1F7 JUMPI PUSH2 0x100 DUP1 DUP4 SLOAD DIV MUL DUP4 MSTORE SWAP2 PUSH1 0x20 ADD SWAP2 PUSH2 0x222 JUMP JUMPDEST DUP3 ADD SWAP2 SWAP1 PUSH1 0x0 MSTORE PUSH1 0x20 PUSH1 0x0 KECCAK256 SWAP1 JUMPDEST DUP2 SLOAD DUP2 MSTORE SWAP1 PUSH1 0x1 ADD SWAP1 PUSH1 0x20 ADD DUP1 DUP4 GT PUSH2 0x205 JUMPI DUP3 SWAP1 SUB PUSH1 0x1F AND DUP3 ADD SWAP2 JUMPDEST POP POP POP POP POP SWAP1 POP SWAP1 JUMP JUMPDEST PUSH1 0x0 SWAP1 JUMP JUMPDEST PUSH1 0x0 DUP1 DUP1 SLOAD PUSH2 0x23F SWAP1 PUSH2 0x5A4 JUMP JUMPDEST SWAP1 POP SWAP1 POP SWAP1 JUMP JUMPDEST PUSH1 0x0 PUSH1 0x40 MLOAD SWAP1 POP SWAP1 JUMP JUMPDEST PUSH1 0x0 DUP1 REVERT JUMPDEST PUSH1 0x0 DUP1 REVERT JUMPDEST PUSH1 0x0 DUP1 REVERT JUMPDEST PUSH1 0x0 DUP1 REVERT JUMPDEST PUSH1 0x0 PUSH1 0x1F NOT PUSH1 0x1F DUP4 ADD AND SWAP1 POP SWAP2 SWAP1 POP JUMP JUMPDEST PUSH32 0x4E487B7100000000000000000000000000000000000000000000000000000000 PUSH1 0x0 MSTORE PUSH1 0x41 PUSH1 0x4 MSTORE PUSH1 0x24 PUSH1 0x0 REVERT JUMPDEST PUSH2 0x2AD DUP3 PUSH2 0x264 JUMP JUMPDEST DUP2 ADD DUP2 DUP2 LT PUSH8 0xFFFFFFFFFFFFFFFF DUP3 GT OR ISZERO PUSH2 0x2CC JUMPI PUSH2 0x2CB PUSH2 0x275 JUMP JUMPDEST JUMPDEST DUP1 PUSH1 0x40 MSTORE POP POP POP JUMP JUMPDEST PUSH1 0x0 PUSH2 0x2DF PUSH2 0x246 JUMP JUMPDEST SWAP1 POP PUSH2 0x2EB DUP3 DUP3 PUSH2 0x2A4 JUMP JUMPDEST SWAP2 SWAP1 POP JUMP JUMPDEST PUSH1 0x0 PUSH8 0xFFFFFFFFFFFFFFFF DUP3 GT ISZERO PUSH2 0x30B JUMPI PUSH2 0x30A PUSH2 0x275 JUMP JUMPDEST JUMPDEST PUSH2 0x314 DUP3 PUSH2 0x264 JUMP JUMPDEST SWAP1 POP PUSH1 0x20 DUP2 ADD SWAP1 POP SWAP2 SWAP1 POP JUMP JUMPDEST DUP3 DUP2 DUP4 CALLDATACOPY PUSH1 0x0 DUP4 DUP4 ADD MSTORE POP POP POP JUMP JUMPDEST PUSH1 0x0 PUSH2 0x343 PUSH2 0x33E DUP5 PUSH2 0x2F0 JUMP JUMPDEST PUSH2 0x2D5 JUMP JUMPDEST SWAP1 POP DUP3 DUP2 MSTORE PUSH1 0x20 DUP2 ADD DUP5 DUP5 DUP5 ADD GT ISZERO PUSH2 0x35F JUMPI PUSH2 0x35E PUSH2 0x25F JUMP JUMPDEST JUMPDEST PUSH2 0x36A DUP5 DUP3 DUP6 PUSH2 0x321 JUMP JUMPDEST POP SWAP4 SWAP3 POP POP POP JUMP JUMPDEST PUSH1 0x0 DUP3 PUSH1 0x1F DUP4 ADD SLT PUSH2 0x387 JUMPI PUSH2 0x386 PUSH2 0x25A JUMP JUMPDEST JUMPDEST DUP2 CALLDATALOAD PUSH2 0x397 DUP5 DUP3 PUSH1 0x20 DUP7 ADD PUSH2 0x330 JUMP JUMPDEST SWAP2 POP POP SWAP3 SWAP2 POP POP JUMP JUMPDEST PUSH1 0x0 PUSH1 0x20 DUP3 DUP5 SUB SLT ISZERO PUSH2 0x3B6 JUMPI PUSH2 0x3B5 PUSH2 0x250 JUMP JUMPDEST JUMPDEST PUSH1 0x0 DUP3 ADD CALLDATALOAD PUSH8 0xFFFFFFFFFFFFFFFF DUP2 GT ISZERO PUSH2 0x3D4 JUMPI PUSH2 0x3D3 PUSH2 0x255 JUMP JUMPDEST JUMPDEST PUSH2 0x3E0 DUP5 DUP3 DUP6 ADD PUSH2 0x372 JUMP JUMPDEST SWAP2 POP POP SWAP3 SWAP2 POP POP JUMP JUMPDEST PUSH1 0x0 DUP2 ISZERO ISZERO SWAP1 POP SWAP2 SWAP1 POP JUMP JUMPDEST PUSH2 0x3FE DUP2 PUSH2 0x3E9 JUMP JUMPDEST DUP3 MSTORE POP POP JUMP JUMPDEST PUSH1 0x0 PUSH1 0x20 DUP3 ADD SWAP1 POP PUSH2 0x419 PUSH1 0x0 DUP4 ADD DUP5 PUSH2 0x3F5 JUMP JUMPDEST SWAP3 SWAP2 POP POP JUMP JUMPDEST PUSH1 0x0 DUP1 PUSH1 0x40 DUP4 DUP6 SUB SLT ISZERO PUSH2 0x436 JUMPI PUSH2 0x435 PUSH2 0x250 JUMP JUMPDEST JUMPDEST PUSH1 0x0 DUP4 ADD CALLDATALOAD PUSH8 0xFFFFFFFFFFFFFFFF DUP2 GT ISZERO PUSH2 0x454 JUMPI PUSH2 0x453 PUSH2 0x255 JUMP JUMPDEST JUMPDEST PUSH2 0x460 DUP6 DUP3 DUP7 ADD PUSH2 0x372 JUMP JUMPDEST SWAP3 POP POP PUSH1 0x20 DUP4 ADD CALLDATALOAD PUSH8 0xFFFFFFFFFFFFFFFF DUP2 GT ISZERO PUSH2 0x481 JUMPI PUSH2 0x480 PUSH2 0x255 JUMP JUMPDEST JUMPDEST PUSH2 0x48D DUP6 DUP3 DUP7 ADD PUSH2 0x372 JUMP JUMPDEST SWAP2 POP POP SWAP3 POP SWAP3 SWAP1 POP JUMP JUMPDEST PUSH1 0x0 DUP2 MLOAD SWAP1 POP SWAP2 SWAP1 POP JUMP JUMPDEST PUSH1 0x0 DUP3 DUP3 MSTORE PUSH1 0x20 DUP3 ADD SWAP1 POP SWAP3 SWAP2 POP POP JUMP JUMPDEST PUSH1 0x0 JUMPDEST DUP4 DUP2 LT ISZERO PUSH2 0x4D1 JUMPI DUP1 DUP3 ADD MLOAD DUP2 DUP5 ADD MSTORE PUSH1 0x20 DUP2 ADD SWAP1 POP PUSH2 0x4B6 JUMP JUMPDEST DUP4 DUP2 GT ISZERO PUSH2 0x4E0 JUMPI PUSH1 0x0 DUP5 DUP5 ADD MSTORE JUMPDEST POP POP POP POP JUMP JUMPDEST PUSH1 0x0 PUSH2 0x4F1 DUP3 PUSH2 0x497 JUMP JUMPDEST PUSH2 0x4FB DUP2 DUP6 PUSH2 0x4A2 JUMP JUMPDEST SWAP4 POP PUSH2 0x50B DUP2 DUP6 PUSH1 0x20 DUP7 ADD PUSH2 0x4B3 JUMP JUMPDEST PUSH2 0x514 DUP2 PUSH2 0x264 JUMP JUMPDEST DUP5 ADD SWAP2 POP POP SWAP3 SWAP2 POP POP JUMP JUMPDEST PUSH1 0x0 PUSH1 0x20 DUP3 ADD SWAP1 POP DUP2 DUP2 SUB PUSH1 0x0 DUP4 ADD MSTORE PUSH2 0x539 DUP2 DUP5 PUSH2 0x4E6 JUMP JUMPDEST SWAP1 POP SWAP3 SWAP2 POP POP JUMP JUMPDEST PUSH1 0x0 DUP2 SWAP1 POP SWAP2 SWAP1 POP JUMP JUMPDEST PUSH2 0x554 DUP2 PUSH2 0x541 JUMP JUMPDEST DUP3 MSTORE POP POP JUMP JUMPDEST PUSH1 0x0 PUSH1 0x20 DUP3 ADD SWAP1 POP PUSH2 0x56F PUSH1 0x0 DUP4 ADD DUP5 PUSH2 0x54B JUMP JUMPDEST SWAP3 SWAP2 POP POP JUMP JUMPDEST PUSH32 0x4E487B7100000000000000000000000000000000000000000000000000000000 PUSH1 0x0 MSTORE PUSH1 0x22 PUSH1 0x4 MSTORE PUSH1 0x24 PUSH1 0x0 REVERT JUMPDEST PUSH1 0x0 PUSH1 0x2 DUP3 DIV SWAP1 POP PUSH1 0x1 DUP3 AND DUP1 PUSH2 0x5BC JUMPI PUSH1 0x7F DUP3 AND SWAP2 POP JUMPDEST PUSH1 0x20 DUP3 LT DUP2 SUB PUSH2 0x5CF JUMPI PUSH2 0x5CE PUSH2 0x575 JUMP JUMPDEST JUMPDEST POP SWAP2 SWAP1 POP JUMP JUMPDEST PUSH1 0x0 DUP2 SWAP1 POP SWAP3 SWAP2 POP POP JUMP JUMPDEST PUSH1 0x0 DUP2 SWAP1 POP DUP2 PUSH1 0x0 MSTORE PUSH1 0x20 PUSH1 0x0 KECCAK256 SWAP1 POP SWAP2 SWAP1 POP JUMP JUMPDEST PUSH1 0x0 DUP2 SLOAD PUSH2 0x602 DUP2 PUSH2 0x5A4 JUMP JUMPDEST PUSH2 0x60C DUP2 DUP7 PUSH2 0x5D5 JUMP JUMPDEST SWAP5 POP PUSH1 0x1 DUP3 AND PUSH1 0x0 DUP2 EQ PUSH2 0x627 JUMPI PUSH1 0x1 DUP2 EQ PUSH2 0x638 JUMPI PUSH2 0x66B JUMP JUMPDEST PUSH1 0xFF NOT DUP4 AND DUP7 MSTORE DUP2 DUP7 ADD SWAP4 POP PUSH2 0x66B JUMP JUMPDEST PUSH2 0x641 DUP6 PUSH2 0x5E0 JUMP JUMPDEST PUSH1 0x0 JUMPDEST DUP4 DUP2 LT ISZERO PUSH2 0x663 JUMPI DUP2 SLOAD DUP2 DUP10 ADD MSTORE PUSH1 0x1 DUP3 ADD SWAP2 POP PUSH1 0x20 DUP2 ADD SWAP1 POP PUSH2 0x644 JUMP JUMPDEST DUP4 DUP9 ADD SWAP6 POP POP POP JUMPDEST POP POP POP SWAP3 SWAP2 POP POP JUMP JUMPDEST PUSH1 0x0 PUSH2 0x680 DUP3 DUP5 PUSH2 0x5F5 JUMP JUMPDEST SWAP2 POP DUP2 SWAP1 POP SWAP3 SWAP2 POP POP JUMP JUMPDEST PUSH1 0x0 PUSH2 0x696 DUP3 PUSH2 0x497 JUMP JUMPDEST PUSH2 0x6A0 DUP2 DUP6 PUSH2 0x5D5 JUMP JUMPDEST SWAP4 POP PUSH2 0x6B0 DUP2 DUP6 PUSH1 0x20 DUP7 ADD PUSH2 0x4B3 JUMP JUMPDEST DUP1 DUP5 ADD SWAP2 POP POP SWAP3 SWAP2 POP POP JUMP JUMPDEST PUSH1 0x0 PUSH2 0x6C8 DUP3 DUP5 PUSH2 0x68B JUMP JUMPDEST SWAP2 POP DUP2 SWAP1 POP SWAP3 SWAP2 POP POP JUMP JUMPDEST PUSH1 0x0 PUSH2 0x6DF DUP3 DUP6 PUSH2 0x68B JUMP JUMPDEST SWAP2 POP PUSH2 0x6EB DUP3 DUP5 PUSH2 0x68B JUMP JUMPDEST SWAP2 POP DUP2 SWAP1 POP SWAP4 SWAP3 POP POP POP JUMP INVALID LOG2 PUSH5 0x6970667358 0x22 SLT KECCAK256 CALL PUSH3 0xDF88C0 TIMESTAMP MSTORE 0xC5 CALLVALUE COINBASE PUSH7 0xF4FFE255174FA0 GASLIMIT 0xBB 0xDC SWAP11 DUP16 0x25 PUSH31 0x849933EACAEF2064736F6C634300080D003300000000000000000000000000 "
				},
				"gasEstimates": {
					"creation": {
						"codeDepositCost": "367400",
						"executionCost": "infinite",
						"totalCost": "infinite"
					},
					"external": {
						"concatenation(string,string)": "infinite",
						"getInstructor()": "infinite",
						"reverseInstructorLiteral()": "373",
						"sizeOfInstructorLiteral()": "2636",
						"valueIsInstructor(string)": "infinite"
					}
				},
				"methodIdentifiers": {
					"concatenation(string,string)": "0e329357",
					"getInstructor()": "3c1b81a5",
					"reverseInstructorLiteral()": "4e69ee39",
					"sizeOfInstructorLiteral()": "83f5de18",
					"valueIsInstructor(string)": "0a90f9c1"
				}
			},
			"storageLayout": {
				"storage": [
					{
						"astId": 5,
						"contract": "contracts/String.sol:String",
						"label": "instructor",
						"offset": 0,
						"slot": "0",
						"type": "t_string_storage"
					}
				],
				"types": {
					"t_string_storage": {
						"encoding": "bytes",
						"label": "string",
						"numberOfBytes": "32"
					}
				}
			},
			"userdoc": {
				"kind": "user",
				"methods": {},
				"version": 1
			}
		}
	}
}