{
	"data": {
		"bytecode": {
			"linkReferences": {},
			"object": "608060405234801561001057600080fd5b5061050e806100206000396000f3fe608060405234801561001057600080fd5b50600436106100415760003560e01c80635026adc014610046578063ede48fb714610062578063faf27db21461006c575b600080fd5b610060600480360381019061005b9190610294565b610088565b005b61006a6100c4565b005b6100866004803603810190610081919061033b565b6100fd565b005b7f3d53e24c42b9482001147dd60e5598cb6a70b64b8b8322b075787939c34f0e2133826040516100b992919061042e565b60405180910390a150565b7f3d53e24c42b9482001147dd60e5598cb6a70b64b8b8322b075787939c34f0e21336040516100f391906104aa565b60405180910390a1565b7f3d53e24c42b9482001147dd60e5598cb6a70b64b8b8322b075787939c34f0e21828260405161012e92919061042e565b60405180910390a15050565b6000604051905090565b600080fd5b600080fd5b600080fd5b600080fd5b6000601f19601f8301169050919050565b7f4e487b7100000000000000000000000000000000000000000000000000000000600052604160045260246000fd5b6101a182610158565b810181811067ffffffffffffffff821117156101c0576101bf610169565b5b80604052505050565b60006101d361013a565b90506101df8282610198565b919050565b600067ffffffffffffffff8211156101ff576101fe610169565b5b61020882610158565b9050602081019050919050565b82818337600083830152505050565b6000610237610232846101e4565b6101c9565b90508281526020810184848401111561025357610252610153565b5b61025e848285610215565b509392505050565b600082601f83011261027b5761027a61014e565b5b813561028b848260208601610224565b91505092915050565b6000602082840312156102aa576102a9610144565b5b600082013567ffffffffffffffff8111156102c8576102c7610149565b5b6102d484828501610266565b91505092915050565b600073ffffffffffffffffffffffffffffffffffffffff82169050919050565b6000610308826102dd565b9050919050565b610318816102fd565b811461032357600080fd5b50565b6000813590506103358161030f565b92915050565b6000806040838503121561035257610351610144565b5b600061036085828601610326565b925050602083013567ffffffffffffffff81111561038157610380610149565b5b61038d85828601610266565b9150509250929050565b6103a0816102fd565b82525050565b600081519050919050565b600082825260208201905092915050565b60005b838110156103e05780820151818401526020810190506103c5565b838111156103ef576000848401525b50505050565b6000610400826103a6565b61040a81856103b1565b935061041a8185602086016103c2565b61042381610158565b840191505092915050565b60006040820190506104436000830185610397565b818103602083015261045581846103f5565b90509392505050565b7f307856656c69557973616c000000000000000000000000000000000000000000600082015250565b6000610494600b836103b1565b915061049f8261045e565b602082019050919050565b60006040820190506104bf6000830184610397565b81810360208301526104d081610487565b90509291505056fea2646970667358221220be09faa26d857064cc73381e7811809b3718f5525c44801c345f87fe4345598d64736f6c634300080d0033",
			"opcodes": "PUSH1 0x80 PUSH1 0x40 MSTORE CALLVALUE DUP1 ISZERO PUSH2 0x10 JUMPI PUSH1 0x0 DUP1 REVERT JUMPDEST POP PUSH2 0x50E DUP1 PUSH2 0x20 PUSH1 0x0 CODECOPY PUSH1 0x0 RETURN INVALID PUSH1 0x80 PUSH1 0x40 MSTORE CALLVALUE DUP1 ISZERO PUSH2 0x10 JUMPI PUSH1 0x0 DUP1 REVERT JUMPDEST POP PUSH1 0x4 CALLDATASIZE LT PUSH2 0x41 JUMPI PUSH1 0x0 CALLDATALOAD PUSH1 0xE0 SHR DUP1 PUSH4 0x5026ADC0 EQ PUSH2 0x46 JUMPI DUP1 PUSH4 0xEDE48FB7 EQ PUSH2 0x62 JUMPI DUP1 PUSH4 0xFAF27DB2 EQ PUSH2 0x6C JUMPI JUMPDEST PUSH1 0x0 DUP1 REVERT JUMPDEST PUSH2 0x60 PUSH1 0x4 DUP1 CALLDATASIZE SUB DUP2 ADD SWAP1 PUSH2 0x5B SWAP2 SWAP1 PUSH2 0x294 JUMP JUMPDEST PUSH2 0x88 JUMP JUMPDEST STOP JUMPDEST PUSH2 0x6A PUSH2 0xC4 JUMP JUMPDEST STOP JUMPDEST PUSH2 0x86 PUSH1 0x4 DUP1 CALLDATASIZE SUB DUP2 ADD SWAP1 PUSH2 0x81 SWAP2 SWAP1 PUSH2 0x33B JUMP JUMPDEST PUSH2 0xFD JUMP JUMPDEST STOP JUMPDEST PUSH32 0x3D53E24C42B9482001147DD60E5598CB6A70B64B8B8322B075787939C34F0E21 CALLER DUP3 PUSH1 0x40 MLOAD PUSH2 0xB9 SWAP3 SWAP2 SWAP1 PUSH2 0x42E JUMP JUMPDEST PUSH1 0x40 MLOAD DUP1 SWAP2 SUB SWAP1 LOG1 POP JUMP JUMPDEST PUSH32 0x3D53E24C42B9482001147DD60E5598CB6A70B64B8B8322B075787939C34F0E21 CALLER PUSH1 0x40 MLOAD PUSH2 0xF3 SWAP2 SWAP1 PUSH2 0x4AA JUMP JUMPDEST PUSH1 0x40 MLOAD DUP1 SWAP2 SUB SWAP1 LOG1 JUMP JUMPDEST PUSH32 0x3D53E24C42B9482001147DD60E5598CB6A70B64B8B8322B075787939C34F0E21 DUP3 DUP3 PUSH1 0x40 MLOAD PUSH2 0x12E SWAP3 SWAP2 SWAP1 PUSH2 0x42E JUMP JUMPDEST PUSH1 0x40 MLOAD DUP1 SWAP2 SUB SWAP1 LOG1 POP POP JUMP JUMPDEST PUSH1 0x0 PUSH1 0x40 MLOAD SWAP1 POP SWAP1 JUMP JUMPDEST PUSH1 0x0 DUP1 REVERT JUMPDEST PUSH1 0x0 DUP1 REVERT JUMPDEST PUSH1 0x0 DUP1 REVERT JUMPDEST PUSH1 0x0 DUP1 REVERT JUMPDEST PUSH1 0x0 PUSH1 0x1F NOT PUSH1 0x1F DUP4 ADD AND SWAP1 POP SWAP2 SWAP1 POP JUMP JUMPDEST PUSH32 0x4E487B7100000000000000000000000000000000000000000000000000000000 PUSH1 0x0 MSTORE PUSH1 0x41 PUSH1 0x4 MSTORE PUSH1 0x24 PUSH1 0x0 REVERT JUMPDEST PUSH2 0x1A1 DUP3 PUSH2 0x158 JUMP JUMPDEST DUP2 ADD DUP2 DUP2 LT PUSH8 0xFFFFFFFFFFFFFFFF DUP3 GT OR ISZERO PUSH2 0x1C0 JUMPI PUSH2 0x1BF PUSH2 0x169 JUMP JUMPDEST JUMPDEST DUP1 PUSH1 0x40 MSTORE POP POP POP JUMP JUMPDEST PUSH1 0x0 PUSH2 0x1D3 PUSH2 0x13A JUMP JUMPDEST SWAP1 POP PUSH2 0x1DF DUP3 DUP3 PUSH2 0x198 JUMP JUMPDEST SWAP2 SWAP1 POP JUMP JUMPDEST PUSH1 0x0 PUSH8 0xFFFFFFFFFFFFFFFF DUP3 GT ISZERO PUSH2 0x1FF JUMPI PUSH2 0x1FE PUSH2 0x169 JUMP JUMPDEST JUMPDEST PUSH2 0x208 DUP3 PUSH2 0x158 JUMP JUMPDEST SWAP1 POP PUSH1 0x20 DUP2 ADD SWAP1 POP SWAP2 SWAP1 POP JUMP JUMPDEST DUP3 DUP2 DUP4 CALLDATACOPY PUSH1 0x0 DUP4 DUP4 ADD MSTORE POP POP POP JUMP JUMPDEST PUSH1 0x0 PUSH2 0x237 PUSH2 0x232 DUP5 PUSH2 0x1E4 JUMP JUMPDEST PUSH2 0x1C9 JUMP JUMPDEST SWAP1 POP DUP3 DUP2 MSTORE PUSH1 0x20 DUP2 ADD DUP5 DUP5 DUP5 ADD GT ISZERO PUSH2 0x253 JUMPI PUSH2 0x252 PUSH2 0x153 JUMP JUMPDEST JUMPDEST PUSH2 0x25E DUP5 DUP3 DUP6 PUSH2 0x215 JUMP JUMPDEST POP SWAP4 SWAP3 POP POP POP JUMP JUMPDEST PUSH1 0x0 DUP3 PUSH1 0x1F DUP4 ADD SLT PUSH2 0x27B JUMPI PUSH2 0x27A PUSH2 0x14E JUMP JUMPDEST JUMPDEST DUP2 CALLDATALOAD PUSH2 0x28B DUP5 DUP3 PUSH1 0x20 DUP7 ADD PUSH2 0x224 JUMP JUMPDEST SWAP2 POP POP SWAP3 SWAP2 POP POP JUMP JUMPDEST PUSH1 0x0 PUSH1 0x20 DUP3 DUP5 SUB SLT ISZERO PUSH2 0x2AA JUMPI PUSH2 0x2A9 PUSH2 0x144 JUMP JUMPDEST JUMPDEST PUSH1 0x0 DUP3 ADD CALLDATALOAD PUSH8 0xFFFFFFFFFFFFFFFF DUP2 GT ISZERO PUSH2 0x2C8 JUMPI PUSH2 0x2C7 PUSH2 0x149 JUMP JUMPDEST JUMPDEST PUSH2 0x2D4 DUP5 DUP3 DUP6 ADD PUSH2 0x266 JUMP JUMPDEST SWAP2 POP POP SWAP3 SWAP2 POP POP JUMP JUMPDEST PUSH1 0x0 PUSH20 0xFFFFFFFFFFFFFFFFFFFFFFFFFFFFFFFFFFFFFFFF DUP3 AND SWAP1 POP SWAP2 SWAP1 POP JUMP JUMPDEST PUSH1 0x0 PUSH2 0x308 DUP3 PUSH2 0x2DD JUMP JUMPDEST SWAP1 POP SWAP2 SWAP1 POP JUMP JUMPDEST PUSH2 0x318 DUP2 PUSH2 0x2FD JUMP JUMPDEST DUP2 EQ PUSH2 0x323 JUMPI PUSH1 0x0 DUP1 REVERT JUMPDEST POP JUMP JUMPDEST PUSH1 0x0 DUP2 CALLDATALOAD SWAP1 POP PUSH2 0x335 DUP2 PUSH2 0x30F JUMP JUMPDEST SWAP3 SWAP2 POP POP JUMP JUMPDEST PUSH1 0x0 DUP1 PUSH1 0x40 DUP4 DUP6 SUB SLT ISZERO PUSH2 0x352 JUMPI PUSH2 0x351 PUSH2 0x144 JUMP JUMPDEST JUMPDEST PUSH1 0x0 PUSH2 0x360 DUP6 DUP3 DUP7 ADD PUSH2 0x326 JUMP JUMPDEST SWAP3 POP POP PUSH1 0x20 DUP4 ADD CALLDATALOAD PUSH8 0xFFFFFFFFFFFFFFFF DUP2 GT ISZERO PUSH2 0x381 JUMPI PUSH2 0x380 PUSH2 0x149 JUMP JUMPDEST JUMPDEST PUSH2 0x38D DUP6 DUP3 DUP7 ADD PUSH2 0x266 JUMP JUMPDEST SWAP2 POP POP SWAP3 POP SWAP3 SWAP1 POP JUMP JUMPDEST PUSH2 0x3A0 DUP2 PUSH2 0x2FD JUMP JUMPDEST DUP3 MSTORE POP POP JUMP JUMPDEST PUSH1 0x0 DUP2 MLOAD SWAP1 POP SWAP2 SWAP1 POP JUMP JUMPDEST PUSH1 0x0 DUP3 DUP3 MSTORE PUSH1 0x20 DUP3 ADD SWAP1 POP SWAP3 SWAP2 POP POP JUMP JUMPDEST PUSH1 0x0 JUMPDEST DUP4 DUP2 LT ISZERO PUSH2 0x3E0 JUMPI DUP1 DUP3 ADD MLOAD DUP2 DUP5 ADD MSTORE PUSH1 0x20 DUP2 ADD SWAP1 POP PUSH2 0x3C5 JUMP JUMPDEST DUP4 DUP2 GT ISZERO PUSH2 0x3EF JUMPI PUSH1 0x0 DUP5 DUP5 ADD MSTORE JUMPDEST POP POP POP POP JUMP JUMPDEST PUSH1 0x0 PUSH2 0x400 DUP3 PUSH2 0x3A6 JUMP JUMPDEST PUSH2 0x40A DUP2 DUP6 PUSH2 0x3B1 JUMP JUMPDEST SWAP4 POP PUSH2 0x41A DUP2 DUP6 PUSH1 0x20 DUP7 ADD PUSH2 0x3C2 JUMP JUMPDEST PUSH2 0x423 DUP2 PUSH2 0x158 JUMP JUMPDEST DUP5 ADD SWAP2 POP POP SWAP3 SWAP2 POP POP JUMP JUMPDEST PUSH1 0x0 PUSH1 0x40 DUP3 ADD SWAP1 POP PUSH2 0x443 PUSH1 0x0 DUP4 ADD DUP6 PUSH2 0x397 JUMP JUMPDEST DUP2 DUP2 SUB PUSH1 0x20 DUP4 ADD MSTORE PUSH2 0x455 DUP2 DUP5 PUSH2 0x3F5 JUMP JUMPDEST SWAP1 POP SWAP4 SWAP3 POP POP POP JUMP JUMPDEST PUSH32 0x307856656C69557973616C000000000000000000000000000000000000000000 PUSH1 0x0 DUP3 ADD MSTORE POP JUMP JUMPDEST PUSH1 0x0 PUSH2 0x494 PUSH1 0xB DUP4 PUSH2 0x3B1 JUMP JUMPDEST SWAP2 POP PUSH2 0x49F DUP3 PUSH2 0x45E JUMP JUMPDEST PUSH1 0x20 DUP3 ADD SWAP1 POP SWAP2 SWAP1 POP JUMP JUMPDEST PUSH1 0x0 PUSH1 0x40 DUP3 ADD SWAP1 POP PUSH2 0x4BF PUSH1 0x0 DUP4 ADD DUP5 PUSH2 0x397 JUMP JUMPDEST DUP2 DUP2 SUB PUSH1 0x20 DUP4 ADD MSTORE PUSH2 0x4D0 DUP2 PUSH2 0x487 JUMP JUMPDEST SWAP1 POP SWAP3 SWAP2 POP POP JUMP INVALID LOG2 PUSH5 0x6970667358 0x22 SLT KECCAK256 0xBE MULMOD STATICCALL LOG2 PUSH14 0x857064CC73381E7811809B3718F5 MSTORE 0x5C DIFFICULTY DUP1 SHR CALLVALUE 0x5F DUP8 INVALID NUMBER GASLIMIT MSIZE DUP14 PUSH5 0x736F6C6343 STOP ADDMOD 0xD STOP CALLER "
		},
		"gasEstimates": {
			"creation": {
				"codeDepositCost": "258800",
				"executionCost": "300",
				"totalCost": "259100"
			},
			"external": {
				"triggerEvent()": "2353",
				"triggerEventWithAddressAndMessage(address,string)": "infinite",
				"triggerEventWithMessage(string)": "infinite"
			}
		},
		"methodIdentifiers": {
			"triggerEvent()": "ede48fb7",
			"triggerEventWithAddressAndMessage(address,string)": "faf27db2",
			"triggerEventWithMessage(string)": "5026adc0"
		}
	},
	"abi": [
		{
			"anonymous": false,
			"inputs": [
				{
					"indexed": false,
					"internalType": "address",
					"name": "_address",
					"type": "address"
				},
				{
					"indexed": false,
					"internalType": "string",
					"name": "message",
					"type": "string"
				}
			],
			"name": "SolidityWorkshopEvent",
			"type": "event"
		},
		{
			"inputs": [],
			"name": "triggerEvent",
			"outputs": [],
			"stateMutability": "nonpayable",
			"type": "function"
		},
		{
			"inputs": [
				{
					"internalType": "address",
					"name": "_address",
					"type": "address"
				},
				{
					"internalType": "string",
					"name": "_message",
					"type": "string"
				}
			],
			"name": "triggerEventWithAddressAndMessage",
			"outputs": [],
			"stateMutability": "nonpayable",
			"type": "function"
		},
		{
			"inputs": [
				{
					"internalType": "string",
					"name": "_message",
					"type": "string"
				}
			],
			"name": "triggerEventWithMessage",
			"outputs": [],
			"stateMutability": "nonpayable",
			"type": "function"
		}
	]
}