{
	"data": {
		"bytecode": {
			"linkReferences": {},
			"object": "608060405234801561001057600080fd5b506109ad806100206000396000f3fe608060405234801561001057600080fd5b50600436106101165760003560e01c80638381f58a116100a2578063cdeb331411610071578063cdeb331414610379578063e0068052146103a9578063e37caed8146103d9578063f43f523a14610409578063f5f565f81461043957610116565b80638381f58a146102cb5780638a3759b9146102e9578063a589d21214610319578063cad0899b1461034957610116565b8063225ba612116100e9578063225ba612146101db578063273777541461020b5780633f775f6d1461023b578063643a53661461026b5780637602448b1461029b57610116565b806309a322101461011b5780630be237cf1461014b578063165c4a161461017b5780631685fa98146101ab575b600080fd5b610135600480360381019061013091906105c2565b610469565b604051610142919061060a565b60405180910390f35b610165600480360381019061016091906105c2565b610476565b604051610172919061060a565b60405180910390f35b61019560048036038101906101909190610625565b610484565b6040516101a29190610674565b60405180910390f35b6101c560048036038101906101c09190610625565b61049a565b6040516101d29190610674565b60405180910390f35b6101f560048036038101906101f091906105c2565b6104a8565b604051610202919061060a565b60405180910390f35b610225600480360381019061022091906105c2565b6104b7565b604051610232919061060a565b60405180910390f35b610255600480360381019061025091906105c2565b6104c4565b604051610262919061060a565b60405180910390f35b61028560048036038101906102809190610625565b6104d2565b6040516102929190610674565b60405180910390f35b6102b560048036038101906102b091906105c2565b6104df565b6040516102c29190610674565b60405180910390f35b6102d36104ea565b6040516102e09190610674565b60405180910390f35b61030360048036038101906102fe91906105c2565b6104f0565b604051610310919061060a565b60405180910390f35b610333600480360381019061032e9190610625565b6104fe565b6040516103409190610674565b60405180910390f35b610363600480360381019061035e9190610625565b61050c565b6040516103709190610674565b60405180910390f35b610393600480360381019061038e9190610625565b610522565b6040516103a09190610674565b60405180910390f35b6103c360048036038101906103be9190610625565b610538565b6040516103d09190610674565b60405180910390f35b6103f360048036038101906103ee9190610625565b61054e565b6040516104009190610674565b60405180910390f35b610423600480360381019061041e9190610625565b61055b565b6040516104309190610674565b60405180910390f35b610453600480360381019061044e9190610625565b610571565b6040516104609190610674565b60405180910390f35b6000805482119050919050565b600080548210159050919050565b6000818361049291906106be565b905092915050565b60008183901c905092915050565b60008160005414159050919050565b6000805482109050919050565b600081600054149050919050565b6000818316905092915050565b600081199050919050565b60005481565b600080548211159050919050565b60008183901b905092915050565b6000818361051a9190610700565b905092915050565b600081836105309190610734565b905092915050565b600081836105469190610797565b905092915050565b6000818318905092915050565b6000818361056991906107c8565b905092915050565b6000818361057f919061092c565b905092915050565b600080fd5b6000819050919050565b61059f8161058c565b81146105aa57600080fd5b50565b6000813590506105bc81610596565b92915050565b6000602082840312156105d8576105d7610587565b5b60006105e6848285016105ad565b91505092915050565b60008115159050919050565b610604816105ef565b82525050565b600060208201905061061f60008301846105fb565b92915050565b6000806040838503121561063c5761063b610587565b5b600061064a858286016105ad565b925050602061065b858286016105ad565b9150509250929050565b61066e8161058c565b82525050565b60006020820190506106896000830184610665565b92915050565b7f4e487b7100000000000000000000000000000000000000000000000000000000600052601160045260246000fd5b60006106c98261058c565b91506106d48361058c565b92508282026106e28161058c565b915082820484148315176106f9576106f861068f565b5b5092915050565b600061070b8261058c565b91506107168361058c565b925082820190508082111561072e5761072d61068f565b5b92915050565b600061073f8261058c565b915061074a8361058c565b92508282039050818111156107625761076161068f565b5b92915050565b7f4e487b7100000000000000000000000000000000000000000000000000000000600052601260045260246000fd5b60006107a28261058c565b91506107ad8361058c565b9250826107bd576107bc610768565b5b828204905092915050565b60006107d38261058c565b91506107de8361058c565b9250826107ee576107ed610768565b5b828206905092915050565b60008160011c9050919050565b6000808291508390505b60018511156108505780860481111561082c5761082b61068f565b5b600185161561083b5780820291505b8081029050610849856107f9565b9450610810565b94509492505050565b6000826108695760019050610925565b816108775760009050610925565b816001811461088d5760028114610897576108c6565b6001915050610925565b60ff8411156108a9576108a861068f565b5b8360020a9150848211156108c0576108bf61068f565b5b50610925565b5060208310610133831016604e8410600b84101617156108fb5782820a9050838111156108f6576108f561068f565b5b610925565b6109088484846001610806565b9250905081840481111561091f5761091e61068f565b5b81810290505b9392505050565b60006109378261058c565b91506109428361058c565b925061096f7fffffffffffffffffffffffffffffffffffffffffffffffffffffffffffffffff8484610859565b90509291505056fea2646970667358221220d346df70980e3ece5401332dd4a8d5b2ec6cc98c6174ccbaf4ef71d10cb992f964736f6c63430008120033",
			"opcodes": "PUSH1 0x80 PUSH1 0x40 MSTORE CALLVALUE DUP1 ISZERO PUSH2 0x10 JUMPI PUSH1 0x0 DUP1 REVERT JUMPDEST POP PUSH2 0x9AD DUP1 PUSH2 0x20 PUSH1 0x0 CODECOPY PUSH1 0x0 RETURN INVALID PUSH1 0x80 PUSH1 0x40 MSTORE CALLVALUE DUP1 ISZERO PUSH2 0x10 JUMPI PUSH1 0x0 DUP1 REVERT JUMPDEST POP PUSH1 0x4 CALLDATASIZE LT PUSH2 0x116 JUMPI PUSH1 0x0 CALLDATALOAD PUSH1 0xE0 SHR DUP1 PUSH4 0x8381F58A GT PUSH2 0xA2 JUMPI DUP1 PUSH4 0xCDEB3314 GT PUSH2 0x71 JUMPI DUP1 PUSH4 0xCDEB3314 EQ PUSH2 0x379 JUMPI DUP1 PUSH4 0xE0068052 EQ PUSH2 0x3A9 JUMPI DUP1 PUSH4 0xE37CAED8 EQ PUSH2 0x3D9 JUMPI DUP1 PUSH4 0xF43F523A EQ PUSH2 0x409 JUMPI DUP1 PUSH4 0xF5F565F8 EQ PUSH2 0x439 JUMPI PUSH2 0x116 JUMP JUMPDEST DUP1 PUSH4 0x8381F58A EQ PUSH2 0x2CB JUMPI DUP1 PUSH4 0x8A3759B9 EQ PUSH2 0x2E9 JUMPI DUP1 PUSH4 0xA589D212 EQ PUSH2 0x319 JUMPI DUP1 PUSH4 0xCAD0899B EQ PUSH2 0x349 JUMPI PUSH2 0x116 JUMP JUMPDEST DUP1 PUSH4 0x225BA612 GT PUSH2 0xE9 JUMPI DUP1 PUSH4 0x225BA612 EQ PUSH2 0x1DB JUMPI DUP1 PUSH4 0x27377754 EQ PUSH2 0x20B JUMPI DUP1 PUSH4 0x3F775F6D EQ PUSH2 0x23B JUMPI DUP1 PUSH4 0x643A5366 EQ PUSH2 0x26B JUMPI DUP1 PUSH4 0x7602448B EQ PUSH2 0x29B JUMPI PUSH2 0x116 JUMP JUMPDEST DUP1 PUSH4 0x9A32210 EQ PUSH2 0x11B JUMPI DUP1 PUSH4 0xBE237CF EQ PUSH2 0x14B JUMPI DUP1 PUSH4 0x165C4A16 EQ PUSH2 0x17B JUMPI DUP1 PUSH4 0x1685FA98 EQ PUSH2 0x1AB JUMPI JUMPDEST PUSH1 0x0 DUP1 REVERT JUMPDEST PUSH2 0x135 PUSH1 0x4 DUP1 CALLDATASIZE SUB DUP2 ADD SWAP1 PUSH2 0x130 SWAP2 SWAP1 PUSH2 0x5C2 JUMP JUMPDEST PUSH2 0x469 JUMP JUMPDEST PUSH1 0x40 MLOAD PUSH2 0x142 SWAP2 SWAP1 PUSH2 0x60A JUMP JUMPDEST PUSH1 0x40 MLOAD DUP1 SWAP2 SUB SWAP1 RETURN JUMPDEST PUSH2 0x165 PUSH1 0x4 DUP1 CALLDATASIZE SUB DUP2 ADD SWAP1 PUSH2 0x160 SWAP2 SWAP1 PUSH2 0x5C2 JUMP JUMPDEST PUSH2 0x476 JUMP JUMPDEST PUSH1 0x40 MLOAD PUSH2 0x172 SWAP2 SWAP1 PUSH2 0x60A JUMP JUMPDEST PUSH1 0x40 MLOAD DUP1 SWAP2 SUB SWAP1 RETURN JUMPDEST PUSH2 0x195 PUSH1 0x4 DUP1 CALLDATASIZE SUB DUP2 ADD SWAP1 PUSH2 0x190 SWAP2 SWAP1 PUSH2 0x625 JUMP JUMPDEST PUSH2 0x484 JUMP JUMPDEST PUSH1 0x40 MLOAD PUSH2 0x1A2 SWAP2 SWAP1 PUSH2 0x674 JUMP JUMPDEST PUSH1 0x40 MLOAD DUP1 SWAP2 SUB SWAP1 RETURN JUMPDEST PUSH2 0x1C5 PUSH1 0x4 DUP1 CALLDATASIZE SUB DUP2 ADD SWAP1 PUSH2 0x1C0 SWAP2 SWAP1 PUSH2 0x625 JUMP JUMPDEST PUSH2 0x49A JUMP JUMPDEST PUSH1 0x40 MLOAD PUSH2 0x1D2 SWAP2 SWAP1 PUSH2 0x674 JUMP JUMPDEST PUSH1 0x40 MLOAD DUP1 SWAP2 SUB SWAP1 RETURN JUMPDEST PUSH2 0x1F5 PUSH1 0x4 DUP1 CALLDATASIZE SUB DUP2 ADD SWAP1 PUSH2 0x1F0 SWAP2 SWAP1 PUSH2 0x5C2 JUMP JUMPDEST PUSH2 0x4A8 JUMP JUMPDEST PUSH1 0x40 MLOAD PUSH2 0x202 SWAP2 SWAP1 PUSH2 0x60A JUMP JUMPDEST PUSH1 0x40 MLOAD DUP1 SWAP2 SUB SWAP1 RETURN JUMPDEST PUSH2 0x225 PUSH1 0x4 DUP1 CALLDATASIZE SUB DUP2 ADD SWAP1 PUSH2 0x220 SWAP2 SWAP1 PUSH2 0x5C2 JUMP JUMPDEST PUSH2 0x4B7 JUMP JUMPDEST PUSH1 0x40 MLOAD PUSH2 0x232 SWAP2 SWAP1 PUSH2 0x60A JUMP JUMPDEST PUSH1 0x40 MLOAD DUP1 SWAP2 SUB SWAP1 RETURN JUMPDEST PUSH2 0x255 PUSH1 0x4 DUP1 CALLDATASIZE SUB DUP2 ADD SWAP1 PUSH2 0x250 SWAP2 SWAP1 PUSH2 0x5C2 JUMP JUMPDEST PUSH2 0x4C4 JUMP JUMPDEST PUSH1 0x40 MLOAD PUSH2 0x262 SWAP2 SWAP1 PUSH2 0x60A JUMP JUMPDEST PUSH1 0x40 MLOAD DUP1 SWAP2 SUB SWAP1 RETURN JUMPDEST PUSH2 0x285 PUSH1 0x4 DUP1 CALLDATASIZE SUB DUP2 ADD SWAP1 PUSH2 0x280 SWAP2 SWAP1 PUSH2 0x625 JUMP JUMPDEST PUSH2 0x4D2 JUMP JUMPDEST PUSH1 0x40 MLOAD PUSH2 0x292 SWAP2 SWAP1 PUSH2 0x674 JUMP JUMPDEST PUSH1 0x40 MLOAD DUP1 SWAP2 SUB SWAP1 RETURN JUMPDEST PUSH2 0x2B5 PUSH1 0x4 DUP1 CALLDATASIZE SUB DUP2 ADD SWAP1 PUSH2 0x2B0 SWAP2 SWAP1 PUSH2 0x5C2 JUMP JUMPDEST PUSH2 0x4DF JUMP JUMPDEST PUSH1 0x40 MLOAD PUSH2 0x2C2 SWAP2 SWAP1 PUSH2 0x674 JUMP JUMPDEST PUSH1 0x40 MLOAD DUP1 SWAP2 SUB SWAP1 RETURN JUMPDEST PUSH2 0x2D3 PUSH2 0x4EA JUMP JUMPDEST PUSH1 0x40 MLOAD PUSH2 0x2E0 SWAP2 SWAP1 PUSH2 0x674 JUMP JUMPDEST PUSH1 0x40 MLOAD DUP1 SWAP2 SUB SWAP1 RETURN JUMPDEST PUSH2 0x303 PUSH1 0x4 DUP1 CALLDATASIZE SUB DUP2 ADD SWAP1 PUSH2 0x2FE SWAP2 SWAP1 PUSH2 0x5C2 JUMP JUMPDEST PUSH2 0x4F0 JUMP JUMPDEST PUSH1 0x40 MLOAD PUSH2 0x310 SWAP2 SWAP1 PUSH2 0x60A JUMP JUMPDEST PUSH1 0x40 MLOAD DUP1 SWAP2 SUB SWAP1 RETURN JUMPDEST PUSH2 0x333 PUSH1 0x4 DUP1 CALLDATASIZE SUB DUP2 ADD SWAP1 PUSH2 0x32E SWAP2 SWAP1 PUSH2 0x625 JUMP JUMPDEST PUSH2 0x4FE JUMP JUMPDEST PUSH1 0x40 MLOAD PUSH2 0x340 SWAP2 SWAP1 PUSH2 0x674 JUMP JUMPDEST PUSH1 0x40 MLOAD DUP1 SWAP2 SUB SWAP1 RETURN JUMPDEST PUSH2 0x363 PUSH1 0x4 DUP1 CALLDATASIZE SUB DUP2 ADD SWAP1 PUSH2 0x35E SWAP2 SWAP1 PUSH2 0x625 JUMP JUMPDEST PUSH2 0x50C JUMP JUMPDEST PUSH1 0x40 MLOAD PUSH2 0x370 SWAP2 SWAP1 PUSH2 0x674 JUMP JUMPDEST PUSH1 0x40 MLOAD DUP1 SWAP2 SUB SWAP1 RETURN JUMPDEST PUSH2 0x393 PUSH1 0x4 DUP1 CALLDATASIZE SUB DUP2 ADD SWAP1 PUSH2 0x38E SWAP2 SWAP1 PUSH2 0x625 JUMP JUMPDEST PUSH2 0x522 JUMP JUMPDEST PUSH1 0x40 MLOAD PUSH2 0x3A0 SWAP2 SWAP1 PUSH2 0x674 JUMP JUMPDEST PUSH1 0x40 MLOAD DUP1 SWAP2 SUB SWAP1 RETURN JUMPDEST PUSH2 0x3C3 PUSH1 0x4 DUP1 CALLDATASIZE SUB DUP2 ADD SWAP1 PUSH2 0x3BE SWAP2 SWAP1 PUSH2 0x625 JUMP JUMPDEST PUSH2 0x538 JUMP JUMPDEST PUSH1 0x40 MLOAD PUSH2 0x3D0 SWAP2 SWAP1 PUSH2 0x674 JUMP JUMPDEST PUSH1 0x40 MLOAD DUP1 SWAP2 SUB SWAP1 RETURN JUMPDEST PUSH2 0x3F3 PUSH1 0x4 DUP1 CALLDATASIZE SUB DUP2 ADD SWAP1 PUSH2 0x3EE SWAP2 SWAP1 PUSH2 0x625 JUMP JUMPDEST PUSH2 0x54E JUMP JUMPDEST PUSH1 0x40 MLOAD PUSH2 0x400 SWAP2 SWAP1 PUSH2 0x674 JUMP JUMPDEST PUSH1 0x40 MLOAD DUP1 SWAP2 SUB SWAP1 RETURN JUMPDEST PUSH2 0x423 PUSH1 0x4 DUP1 CALLDATASIZE SUB DUP2 ADD SWAP1 PUSH2 0x41E SWAP2 SWAP1 PUSH2 0x625 JUMP JUMPDEST PUSH2 0x55B JUMP JUMPDEST PUSH1 0x40 MLOAD PUSH2 0x430 SWAP2 SWAP1 PUSH2 0x674 JUMP JUMPDEST PUSH1 0x40 MLOAD DUP1 SWAP2 SUB SWAP1 RETURN JUMPDEST PUSH2 0x453 PUSH1 0x4 DUP1 CALLDATASIZE SUB DUP2 ADD SWAP1 PUSH2 0x44E SWAP2 SWAP1 PUSH2 0x625 JUMP JUMPDEST PUSH2 0x571 JUMP JUMPDEST PUSH1 0x40 MLOAD PUSH2 0x460 SWAP2 SWAP1 PUSH2 0x674 JUMP JUMPDEST PUSH1 0x40 MLOAD DUP1 SWAP2 SUB SWAP1 RETURN JUMPDEST PUSH1 0x0 DUP1 SLOAD DUP3 GT SWAP1 POP SWAP2 SWAP1 POP JUMP JUMPDEST PUSH1 0x0 DUP1 SLOAD DUP3 LT ISZERO SWAP1 POP SWAP2 SWAP1 POP JUMP JUMPDEST PUSH1 0x0 DUP2 DUP4 PUSH2 0x492 SWAP2 SWAP1 PUSH2 0x6BE JUMP JUMPDEST SWAP1 POP SWAP3 SWAP2 POP POP JUMP JUMPDEST PUSH1 0x0 DUP2 DUP4 SWAP1 SHR SWAP1 POP SWAP3 SWAP2 POP POP JUMP JUMPDEST PUSH1 0x0 DUP2 PUSH1 0x0 SLOAD EQ ISZERO SWAP1 POP SWAP2 SWAP1 POP JUMP JUMPDEST PUSH1 0x0 DUP1 SLOAD DUP3 LT SWAP1 POP SWAP2 SWAP1 POP JUMP JUMPDEST PUSH1 0x0 DUP2 PUSH1 0x0 SLOAD EQ SWAP1 POP SWAP2 SWAP1 POP JUMP JUMPDEST PUSH1 0x0 DUP2 DUP4 AND SWAP1 POP SWAP3 SWAP2 POP POP JUMP JUMPDEST PUSH1 0x0 DUP2 NOT SWAP1 POP SWAP2 SWAP1 POP JUMP JUMPDEST PUSH1 0x0 SLOAD DUP2 JUMP JUMPDEST PUSH1 0x0 DUP1 SLOAD DUP3 GT ISZERO SWAP1 POP SWAP2 SWAP1 POP JUMP JUMPDEST PUSH1 0x0 DUP2 DUP4 SWAP1 SHL SWAP1 POP SWAP3 SWAP2 POP POP JUMP JUMPDEST PUSH1 0x0 DUP2 DUP4 PUSH2 0x51A SWAP2 SWAP1 PUSH2 0x700 JUMP JUMPDEST SWAP1 POP SWAP3 SWAP2 POP POP JUMP JUMPDEST PUSH1 0x0 DUP2 DUP4 PUSH2 0x530 SWAP2 SWAP1 PUSH2 0x734 JUMP JUMPDEST SWAP1 POP SWAP3 SWAP2 POP POP JUMP JUMPDEST PUSH1 0x0 DUP2 DUP4 PUSH2 0x546 SWAP2 SWAP1 PUSH2 0x797 JUMP JUMPDEST SWAP1 POP SWAP3 SWAP2 POP POP JUMP JUMPDEST PUSH1 0x0 DUP2 DUP4 XOR SWAP1 POP SWAP3 SWAP2 POP POP JUMP JUMPDEST PUSH1 0x0 DUP2 DUP4 PUSH2 0x569 SWAP2 SWAP1 PUSH2 0x7C8 JUMP JUMPDEST SWAP1 POP SWAP3 SWAP2 POP POP JUMP JUMPDEST PUSH1 0x0 DUP2 DUP4 PUSH2 0x57F SWAP2 SWAP1 PUSH2 0x92C JUMP JUMPDEST SWAP1 POP SWAP3 SWAP2 POP POP JUMP JUMPDEST PUSH1 0x0 DUP1 REVERT JUMPDEST PUSH1 0x0 DUP2 SWAP1 POP SWAP2 SWAP1 POP JUMP JUMPDEST PUSH2 0x59F DUP2 PUSH2 0x58C JUMP JUMPDEST DUP2 EQ PUSH2 0x5AA JUMPI PUSH1 0x0 DUP1 REVERT JUMPDEST POP JUMP JUMPDEST PUSH1 0x0 DUP2 CALLDATALOAD SWAP1 POP PUSH2 0x5BC DUP2 PUSH2 0x596 JUMP JUMPDEST SWAP3 SWAP2 POP POP JUMP JUMPDEST PUSH1 0x0 PUSH1 0x20 DUP3 DUP5 SUB SLT ISZERO PUSH2 0x5D8 JUMPI PUSH2 0x5D7 PUSH2 0x587 JUMP JUMPDEST JUMPDEST PUSH1 0x0 PUSH2 0x5E6 DUP5 DUP3 DUP6 ADD PUSH2 0x5AD JUMP JUMPDEST SWAP2 POP POP SWAP3 SWAP2 POP POP JUMP JUMPDEST PUSH1 0x0 DUP2 ISZERO ISZERO SWAP1 POP SWAP2 SWAP1 POP JUMP JUMPDEST PUSH2 0x604 DUP2 PUSH2 0x5EF JUMP JUMPDEST DUP3 MSTORE POP POP JUMP JUMPDEST PUSH1 0x0 PUSH1 0x20 DUP3 ADD SWAP1 POP PUSH2 0x61F PUSH1 0x0 DUP4 ADD DUP5 PUSH2 0x5FB JUMP JUMPDEST SWAP3 SWAP2 POP POP JUMP JUMPDEST PUSH1 0x0 DUP1 PUSH1 0x40 DUP4 DUP6 SUB SLT ISZERO PUSH2 0x63C JUMPI PUSH2 0x63B PUSH2 0x587 JUMP JUMPDEST JUMPDEST PUSH1 0x0 PUSH2 0x64A DUP6 DUP3 DUP7 ADD PUSH2 0x5AD JUMP JUMPDEST SWAP3 POP POP PUSH1 0x20 PUSH2 0x65B DUP6 DUP3 DUP7 ADD PUSH2 0x5AD JUMP JUMPDEST SWAP2 POP POP SWAP3 POP SWAP3 SWAP1 POP JUMP JUMPDEST PUSH2 0x66E DUP2 PUSH2 0x58C JUMP JUMPDEST DUP3 MSTORE POP POP JUMP JUMPDEST PUSH1 0x0 PUSH1 0x20 DUP3 ADD SWAP1 POP PUSH2 0x689 PUSH1 0x0 DUP4 ADD DUP5 PUSH2 0x665 JUMP JUMPDEST SWAP3 SWAP2 POP POP JUMP JUMPDEST PUSH32 0x4E487B7100000000000000000000000000000000000000000000000000000000 PUSH1 0x0 MSTORE PUSH1 0x11 PUSH1 0x4 MSTORE PUSH1 0x24 PUSH1 0x0 REVERT JUMPDEST PUSH1 0x0 PUSH2 0x6C9 DUP3 PUSH2 0x58C JUMP JUMPDEST SWAP2 POP PUSH2 0x6D4 DUP4 PUSH2 0x58C JUMP JUMPDEST SWAP3 POP DUP3 DUP3 MUL PUSH2 0x6E2 DUP2 PUSH2 0x58C JUMP JUMPDEST SWAP2 POP DUP3 DUP3 DIV DUP5 EQ DUP4 ISZERO OR PUSH2 0x6F9 JUMPI PUSH2 0x6F8 PUSH2 0x68F JUMP JUMPDEST JUMPDEST POP SWAP3 SWAP2 POP POP JUMP JUMPDEST PUSH1 0x0 PUSH2 0x70B DUP3 PUSH2 0x58C JUMP JUMPDEST SWAP2 POP PUSH2 0x716 DUP4 PUSH2 0x58C JUMP JUMPDEST SWAP3 POP DUP3 DUP3 ADD SWAP1 POP DUP1 DUP3 GT ISZERO PUSH2 0x72E JUMPI PUSH2 0x72D PUSH2 0x68F JUMP JUMPDEST JUMPDEST SWAP3 SWAP2 POP POP JUMP JUMPDEST PUSH1 0x0 PUSH2 0x73F DUP3 PUSH2 0x58C JUMP JUMPDEST SWAP2 POP PUSH2 0x74A DUP4 PUSH2 0x58C JUMP JUMPDEST SWAP3 POP DUP3 DUP3 SUB SWAP1 POP DUP2 DUP2 GT ISZERO PUSH2 0x762 JUMPI PUSH2 0x761 PUSH2 0x68F JUMP JUMPDEST JUMPDEST SWAP3 SWAP2 POP POP JUMP JUMPDEST PUSH32 0x4E487B7100000000000000000000000000000000000000000000000000000000 PUSH1 0x0 MSTORE PUSH1 0x12 PUSH1 0x4 MSTORE PUSH1 0x24 PUSH1 0x0 REVERT JUMPDEST PUSH1 0x0 PUSH2 0x7A2 DUP3 PUSH2 0x58C JUMP JUMPDEST SWAP2 POP PUSH2 0x7AD DUP4 PUSH2 0x58C JUMP JUMPDEST SWAP3 POP DUP3 PUSH2 0x7BD JUMPI PUSH2 0x7BC PUSH2 0x768 JUMP JUMPDEST JUMPDEST DUP3 DUP3 DIV SWAP1 POP SWAP3 SWAP2 POP POP JUMP JUMPDEST PUSH1 0x0 PUSH2 0x7D3 DUP3 PUSH2 0x58C JUMP JUMPDEST SWAP2 POP PUSH2 0x7DE DUP4 PUSH2 0x58C JUMP JUMPDEST SWAP3 POP DUP3 PUSH2 0x7EE JUMPI PUSH2 0x7ED PUSH2 0x768 JUMP JUMPDEST JUMPDEST DUP3 DUP3 MOD SWAP1 POP SWAP3 SWAP2 POP POP JUMP JUMPDEST PUSH1 0x0 DUP2 PUSH1 0x1 SHR SWAP1 POP SWAP2 SWAP1 POP JUMP JUMPDEST PUSH1 0x0 DUP1 DUP3 SWAP2 POP DUP4 SWAP1 POP JUMPDEST PUSH1 0x1 DUP6 GT ISZERO PUSH2 0x850 JUMPI DUP1 DUP7 DIV DUP2 GT ISZERO PUSH2 0x82C JUMPI PUSH2 0x82B PUSH2 0x68F JUMP JUMPDEST JUMPDEST PUSH1 0x1 DUP6 AND ISZERO PUSH2 0x83B JUMPI DUP1 DUP3 MUL SWAP2 POP JUMPDEST DUP1 DUP2 MUL SWAP1 POP PUSH2 0x849 DUP6 PUSH2 0x7F9 JUMP JUMPDEST SWAP5 POP PUSH2 0x810 JUMP JUMPDEST SWAP5 POP SWAP5 SWAP3 POP POP POP JUMP JUMPDEST PUSH1 0x0 DUP3 PUSH2 0x869 JUMPI PUSH1 0x1 SWAP1 POP PUSH2 0x925 JUMP JUMPDEST DUP2 PUSH2 0x877 JUMPI PUSH1 0x0 SWAP1 POP PUSH2 0x925 JUMP JUMPDEST DUP2 PUSH1 0x1 DUP2 EQ PUSH2 0x88D JUMPI PUSH1 0x2 DUP2 EQ PUSH2 0x897 JUMPI PUSH2 0x8C6 JUMP JUMPDEST PUSH1 0x1 SWAP2 POP POP PUSH2 0x925 JUMP JUMPDEST PUSH1 0xFF DUP5 GT ISZERO PUSH2 0x8A9 JUMPI PUSH2 0x8A8 PUSH2 0x68F JUMP JUMPDEST JUMPDEST DUP4 PUSH1 0x2 EXP SWAP2 POP DUP5 DUP3 GT ISZERO PUSH2 0x8C0 JUMPI PUSH2 0x8BF PUSH2 0x68F JUMP JUMPDEST JUMPDEST POP PUSH2 0x925 JUMP JUMPDEST POP PUSH1 0x20 DUP4 LT PUSH2 0x133 DUP4 LT AND PUSH1 0x4E DUP5 LT PUSH1 0xB DUP5 LT AND OR ISZERO PUSH2 0x8FB JUMPI DUP3 DUP3 EXP SWAP1 POP DUP4 DUP2 GT ISZERO PUSH2 0x8F6 JUMPI PUSH2 0x8F5 PUSH2 0x68F JUMP JUMPDEST JUMPDEST PUSH2 0x925 JUMP JUMPDEST PUSH2 0x908 DUP5 DUP5 DUP5 PUSH1 0x1 PUSH2 0x806 JUMP JUMPDEST SWAP3 POP SWAP1 POP DUP2 DUP5 DIV DUP2 GT ISZERO PUSH2 0x91F JUMPI PUSH2 0x91E PUSH2 0x68F JUMP JUMPDEST JUMPDEST DUP2 DUP2 MUL SWAP1 POP JUMPDEST SWAP4 SWAP3 POP POP POP JUMP JUMPDEST PUSH1 0x0 PUSH2 0x937 DUP3 PUSH2 0x58C JUMP JUMPDEST SWAP2 POP PUSH2 0x942 DUP4 PUSH2 0x58C JUMP JUMPDEST SWAP3 POP PUSH2 0x96F PUSH32 0xFFFFFFFFFFFFFFFFFFFFFFFFFFFFFFFFFFFFFFFFFFFFFFFFFFFFFFFFFFFFFFFF DUP5 DUP5 PUSH2 0x859 JUMP JUMPDEST SWAP1 POP SWAP3 SWAP2 POP POP JUMP INVALID LOG2 PUSH5 0x6970667358 0x22 SLT KECCAK256 0xD3 CHAINID 0xDF PUSH17 0x980E3ECE5401332DD4A8D5B2EC6CC98C61 PUSH21 0xCCBAF4EF71D10CB992F964736F6C63430008120033 "
		},
		"gasEstimates": {
			"creation": {
				"codeDepositCost": "495400",
				"executionCost": "530",
				"totalCost": "495930"
			},
			"external": {
				"bitwiseAnd(uint256,uint256)": "infinite",
				"bitwiseNot(uint256)": "infinite",
				"bitwiseXOR(uint256,uint256)": "infinite",
				"division(uint256,uint256)": "infinite",
				"exp(uint256,uint256)": "infinite",
				"isEqual(uint256)": "2781",
				"isGreater(uint256)": "2738",
				"isGreaterOrEqual(uint256)": "2763",
				"isLess(uint256)": "2759",
				"isLessOrEqual(uint256)": "2762",
				"isNotEqual(uint256)": "2740",
				"mod(uint256,uint256)": "infinite",
				"multiply(uint256,uint256)": "infinite",
				"number()": "2452",
				"shiftLeft(uint256,uint256)": "infinite",
				"shiftRight(uint256,uint256)": "infinite",
				"substraction(uint256,uint256)": "infinite",
				"sum(uint256,uint256)": "infinite"
			}
		},
		"methodIdentifiers": {
			"bitwiseAnd(uint256,uint256)": "643a5366",
			"bitwiseNot(uint256)": "7602448b",
			"bitwiseXOR(uint256,uint256)": "e37caed8",
			"division(uint256,uint256)": "e0068052",
			"exp(uint256,uint256)": "f5f565f8",
			"isEqual(uint256)": "3f775f6d",
			"isGreater(uint256)": "09a32210",
			"isGreaterOrEqual(uint256)": "0be237cf",
			"isLess(uint256)": "27377754",
			"isLessOrEqual(uint256)": "8a3759b9",
			"isNotEqual(uint256)": "225ba612",
			"mod(uint256,uint256)": "f43f523a",
			"multiply(uint256,uint256)": "165c4a16",
			"number()": "8381f58a",
			"shiftLeft(uint256,uint256)": "a589d212",
			"shiftRight(uint256,uint256)": "1685fa98",
			"substraction(uint256,uint256)": "cdeb3314",
			"sum(uint256,uint256)": "cad0899b"
		}
	},
	"abi": [
		{
			"inputs": [
				{
					"internalType": "uint256",
					"name": "number1",
					"type": "uint256"
				},
				{
					"internalType": "uint256",
					"name": "number2",
					"type": "uint256"
				}
			],
			"name": "bitwiseAnd",
			"outputs": [
				{
					"internalType": "uint256",
					"name": "",
					"type": "uint256"
				}
			],
			"stateMutability": "pure",
			"type": "function"
		},
		{
			"inputs": [
				{
					"internalType": "uint256",
					"name": "_number",
					"type": "uint256"
				}
			],
			"name": "bitwiseNot",
			"outputs": [
				{
					"internalType": "uint256",
					"name": "",
					"type": "uint256"
				}
			],
			"stateMutability": "pure",
			"type": "function"
		},
		{
			"inputs": [
				{
					"internalType": "uint256",
					"name": "number1",
					"type": "uint256"
				},
				{
					"internalType": "uint256",
					"name": "number2",
					"type": "uint256"
				}
			],
			"name": "bitwiseXOR",
			"outputs": [
				{
					"internalType": "uint256",
					"name": "",
					"type": "uint256"
				}
			],
			"stateMutability": "pure",
			"type": "function"
		},
		{
			"inputs": [
				{
					"internalType": "uint256",
					"name": "number1",
					"type": "uint256"
				},
				{
					"internalType": "uint256",
					"name": "number2",
					"type": "uint256"
				}
			],
			"name": "division",
			"outputs": [
				{
					"internalType": "uint256",
					"name": "",
					"type": "uint256"
				}
			],
			"stateMutability": "pure",
			"type": "function"
		},
		{
			"inputs": [
				{
					"internalType": "uint256",
					"name": "number1",
					"type": "uint256"
				},
				{
					"internalType": "uint256",
					"name": "number2",
					"type": "uint256"
				}
			],
			"name": "exp",
			"outputs": [
				{
					"internalType": "uint256",
					"name": "",
					"type": "uint256"
				}
			],
			"stateMutability": "pure",
			"type": "function"
		},
		{
			"inputs": [
				{
					"internalType": "uint256",
					"name": "_number",
					"type": "uint256"
				}
			],
			"name": "isEqual",
			"outputs": [
				{
					"internalType": "bool",
					"name": "",
					"type": "bool"
				}
			],
			"stateMutability": "view",
			"type": "function"
		},
		{
			"inputs": [
				{
					"internalType": "uint256",
					"name": "_number",
					"type": "uint256"
				}
			],
			"name": "isGreater",
			"outputs": [
				{
					"internalType": "bool",
					"name": "",
					"type": "bool"
				}
			],
			"stateMutability": "view",
			"type": "function"
		},
		{
			"inputs": [
				{
					"internalType": "uint256",
					"name": "_number",
					"type": "uint256"
				}
			],
			"name": "isGreaterOrEqual",
			"outputs": [
				{
					"internalType": "bool",
					"name": "",
					"type": "bool"
				}
			],
			"stateMutability": "view",
			"type": "function"
		},
		{
			"inputs": [
				{
					"internalType": "uint256",
					"name": "_number",
					"type": "uint256"
				}
			],
			"name": "isLess",
			"outputs": [
				{
					"internalType": "bool",
					"name": "",
					"type": "bool"
				}
			],
			"stateMutability": "view",
			"type": "function"
		},
		{
			"inputs": [
				{
					"internalType": "uint256",
					"name": "_number",
					"type": "uint256"
				}
			],
			"name": "isLessOrEqual",
			"outputs": [
				{
					"internalType": "bool",
					"name": "",
					"type": "bool"
				}
			],
			"stateMutability": "view",
			"type": "function"
		},
		{
			"inputs": [
				{
					"internalType": "uint256",
					"name": "_number",
					"type": "uint256"
				}
			],
			"name": "isNotEqual",
			"outputs": [
				{
					"internalType": "bool",
					"name": "",
					"type": "bool"
				}
			],
			"stateMutability": "view",
			"type": "function"
		},
		{
			"inputs": [
				{
					"internalType": "uint256",
					"name": "number1",
					"type": "uint256"
				},
				{
					"internalType": "uint256",
					"name": "number2",
					"type": "uint256"
				}
			],
			"name": "mod",
			"outputs": [
				{
					"internalType": "uint256",
					"name": "",
					"type": "uint256"
				}
			],
			"stateMutability": "pure",
			"type": "function"
		},
		{
			"inputs": [
				{
					"internalType": "uint256",
					"name": "number1",
					"type": "uint256"
				},
				{
					"internalType": "uint256",
					"name": "number2",
					"type": "uint256"
				}
			],
			"name": "multiply",
			"outputs": [
				{
					"internalType": "uint256",
					"name": "",
					"type": "uint256"
				}
			],
			"stateMutability": "pure",
			"type": "function"
		},
		{
			"inputs": [],
			"name": "number",
			"outputs": [
				{
					"internalType": "uint256",
					"name": "",
					"type": "uint256"
				}
			],
			"stateMutability": "view",
			"type": "function"
		},
		{
			"inputs": [
				{
					"internalType": "uint256",
					"name": "_number",
					"type": "uint256"
				},
				{
					"internalType": "uint256",
					"name": "bitCount",
					"type": "uint256"
				}
			],
			"name": "shiftLeft",
			"outputs": [
				{
					"internalType": "uint256",
					"name": "",
					"type": "uint256"
				}
			],
			"stateMutability": "pure",
			"type": "function"
		},
		{
			"inputs": [
				{
					"internalType": "uint256",
					"name": "_number",
					"type": "uint256"
				},
				{
					"internalType": "uint256",
					"name": "bitCount",
					"type": "uint256"
				}
			],
			"name": "shiftRight",
			"outputs": [
				{
					"internalType": "uint256",
					"name": "",
					"type": "uint256"
				}
			],
			"stateMutability": "pure",
			"type": "function"
		},
		{
			"inputs": [
				{
					"internalType": "uint256",
					"name": "number1",
					"type": "uint256"
				},
				{
					"internalType": "uint256",
					"name": "number2",
					"type": "uint256"
				}
			],
			"name": "substraction",
			"outputs": [
				{
					"internalType": "uint256",
					"name": "",
					"type": "uint256"
				}
			],
			"stateMutability": "pure",
			"type": "function"
		},
		{
			"inputs": [
				{
					"internalType": "uint256",
					"name": "number1",
					"type": "uint256"
				},
				{
					"internalType": "uint256",
					"name": "number2",
					"type": "uint256"
				}
			],
			"name": "sum",
			"outputs": [
				{
					"internalType": "uint256",
					"name": "",
					"type": "uint256"
				}
			],
			"stateMutability": "pure",
			"type": "function"
		}
	]
}